:020000040000FA
:04080000E6EF04F02B
:1008100003B216EF04F0F2B431EF04F09EB039EFFA
:1008200004F09EB241EF04F0C4EF04F00392030120
:1008300003EE00F080517F0BE92604C0EFFF802B10
:100840008151805D700BD8A48B8200008051815D46
:10085000700BD8A48B9281518019D8B40790C4EF43
:1008600004F0F2940101383FC4EF04F0392BC4EFD7
:1008700004F09E900101463FC4EF04F0472BC4EF03
:1008800004F09E9207B45DEF04F03AC13EF13BC123
:100890003FF13CC140F13DC141F148C14CF149C17A
:1008A0004DF14AC14EF14BC14FF154C156F155C102
:1008B00057F15AC15CF15BC15DF10201002FC4EF39
:1008C00004F03C0E006F0E840E760101606770EF3D
:1008D00004F0616770EF04F0626770EF04F0636723
:1008E00074EF04F0A4EF04F064C100F165C101F1FC
:1008F00066C102F167C103F10101010E046F000E30
:10090000056F000E066F000E076F9AEC09F000C12C
:1009100064F101C165F102C166F103C167F10067CD
:1009200099EF04F0016799EF04F0026799EF04F082
:100930000367A4EF04F060C164F161C165F162C1B5
:1009400066F163C167F10E80D59ECD90D6CF3AF1A6
:10095000D7CF3BF138C13CF139C13DF1D76AD66AF6
:100960000101386B396BCECF48F1CFCF49F146C189
:100970004AF147C14BF1CF6ACE6A0101466B476B22
:10098000D58ECD80C4EF04F002C0E0FF005001C05E
:10099000D8FF1000A6B2CAEF04F00CC0A9FF0BC02C
:1009A000A8FFA69EA69CA684F29E550EA76EAA0E30
:1009B000A76EA682F28EA694A6B2DCEF04F0120017
:1009C000A96EA69EA69CA680A8501200076A0E6A71
:1009D0000F010F0EC16E0F01896A100E926E000E8C
:1009E000896E080E8A6EF00E936E8B6A910E946E6D
:1009F000F18E0F01280ED56EF28A820ECD6E9D808B
:100A00000101386B396B3A6B3B6B3C6B3D6B3E6B5A
:100A10003F6B406B416B426B436B446B456B466B6A
:100A2000476B486B496B4A6B4B6B4C6B4D6B4E6B1A
:100A30004F6B506B516B526B536B760ECA6E9D822F
:100A400002013C0E006FCC6A160EE0EC04F0E8CF19
:100A500000F1170EE0EC04F0E8CF01F1180EE0EC25
:100A600004F0E8CF02F1190EE0EC04F0E8CF03F156
:100A7000010103AF56EF05F091EC0AF0160E0C6E73
:100A800000C10BF0CAEC04F0170E0C6E01C10BF0A4
:100A9000CAEC04F0180E0C6E02C10BF0CAEC04F0A4
:100AA000190E0C6E03C10BF0CAEC04F000C160F12A
:100AB00001C161F102C162F103C163F100C164F1DE
:100AC00001C165F102C166F103C167F1240EAC6E8C
:100AD000900EAB6E240EAC6E080EB86E000EB06EAB
:100AE0001F0EAF6E0401806B816B0F01900EAB6E19
:100AF0000F019D8A0301806B816BA26B8B92000EAC
:100B0000C76E300EC66E8A929E96FF0EC96E9EA666
:100B1000FED79E96FF0EC96E9EA6FED79E96FF0E2E
:100B2000C96E9EA6FED79E96FF0EC96E9EA6FED7E4
:100B30008A820101546B556B566B576B586B596B1E
:100B40005A6B5B6B5C6B5D6B5E6B5F6B0790000160
:100B5000F28EF28C07B090EF08F00EB0DCEF07F0E9
:100B60000301805181197F0BD8B490EF08F013EE88
:100B700000F081517F0BE126812BE7CFE8FFE00BEE
:100B8000D8B490EF08F023EE82F0A2511F0BD926C3
:100B9000E7CFDFFFA22BDF50780AD8A490EF08F050
:100BA000078064C100F165C101F166C102F167C14E
:100BB00003F10101040E046F000E056F000E066FB5
:100BC000000E076F9AEC09F000AFF0EF05F001019D
:100BD000030E646F000E656F000E666F000E676F88
:100BE00003018251720AD8B4DCEF07F08251520A35
:100BF000D8B4DCEF07F08251690AD8B4C9EF06F027
:100C00008251490AD8B492EF06F08251500AD8B402
:100C100024EF06F08251700AD8B467EF06F08BEF2C
:100C200008F0040114EE00F080517F0BE12682C42D
:100C3000E7FF802B12000D0E826F11EC06F00A0EFA
:100C4000826F11EC06F0120083C31EF184C31FF102
:100C500085C320F186C321F187C322F188C323F124
:100C600089C324F18AC325F18BC326F18CC327F1F4
:100C70000101DEEC0AF056EC0AF0160E0C6E00C113
:100C80000BF0CAEC04F0170E0C6E01C10BF0CAECAD
:100C900004F0180E0C6E02C10BF0CAEC04F0190E31
:100CA0000C6E03C10BF0CAEC04F000C160F101C18D
:100CB00061F102C162F103C163F100C164F101C1DC
:100CC00065F102C166F103C167F192EF06F083C3DB
:100CD0001EF184C31FF185C320F186C321F187C3B0
:100CE00022F188C323F189C324F18AC325F18BC380
:100CF00026F18CC327F10101DEEC0AF056EC0AF074
:100D000000C160F101C161F102C162F103C163F18F
:100D100000C164F101C165F102C166F103C167F16F
:100D200092EF06F0160EE0EC04F0E8CF00F1170E9B
:100D3000E0EC04F0E8CF01F1180EE0EC04F0E8CFAD
:100D400002F1190EE0EC04F0E8CF03F134EC0AF004
:100D500023EC09F00401730E826F11EC06F004011C
:100D60002C0E826F11EC06F060C100F161C101F13F
:100D700062C102F163C103F134EC0AF023EC09F023
:100D80000401730E826F11EC06F01BEC06F08BEF82
:100D900008F00401690E826F11EC06F004012C0EBC
:100DA000826F11EC06F00101040E006F000E016F5E
:100DB000000E026F000E036F34EC0AF020C182F4C3
:100DC0000401300E822711EC06F021C182F40401E7
:100DD000300E822711EC06F022C182F40401300E9D
:100DE000822711EC06F023C182F40401300E822721
:100DF00011EC06F024C182F40401300E822711ECBC
:100E000006F025C182F40401300E822711EC06F0B1
:100E100026C182F40401300E822711EC06F027C1AE
:100E200082F40401300E822711EC06F004012C0E2E
:100E3000826F11EC06F00101080E006F000E016FC9
:100E4000000E026F000E036F34EC0AF020C182F432
:100E50000401300E822711EC06F021C182F4040156
:100E6000300E822711EC06F022C182F40401300E0C
:100E7000822711EC06F023C182F40401300E822790
:100E800011EC06F024C182F40401300E822711EC2B
:100E900006F025C182F40401300E822711EC06F021
:100EA00026C182F40401300E822711EC06F027C11E
:100EB00082F40401300E822711EC06F004012C0E9E
:100EC000826F11EC06F00101110E006F000E016F30
:100ED000000E026F000E036F34EC0AF020C182F4A2
:100EE0000401300E822711EC06F021C182F40401C6
:100EF000300E822711EC06F022C182F40401300E7C
:100F0000822711EC06F023C182F40401300E8227FF
:100F100011EC06F024C182F40401300E822711EC9A
:100F200006F025C182F40401300E822711EC06F090
:100F300026C182F40401300E822711EC06F027C18D
:100F400082F40401300E822711EC06F004012C0E0D
:100F5000826F11EC06F0200EF86EF76AF66A040153
:100F60000900F5CF82F411EC06F00900F5CF82F408
:100F700011EC06F00900F5CF82F411EC06F009003F
:100F8000F5CF82F411EC06F00900F5CF82F411ECF4
:100F900006F00900F5CF82F411EC06F00900F5CF58
:100FA00082F411EC06F00900F5CF82F411EC06F0A2
:100FB0001BEC06F08BEF08F08251520A03E10E821F
:100FC000E3EF07F00E9207843EC142F13FC143F1C7
:100FD00040C144F141C145F14CC150F14DC151F105
:100FE0004EC152F14FC153F156C158F157C159F199
:100FF0005CC15EF15DC15FF107940401720E826F06
:1010000011EC06F004012C0E826F11EC06F042C1C7
:1010100000F143C101F144C102F145C103F10101F5
:1010200034EC0AF023EC09F00401630E826F11EC3A
:1010300006F004012C0E826F11EC06F050C100F195
:1010400051C101F152C102F153C103F1010134EC6C
:101050000AF023EC09F00401630E826F11EC06F034
:1010600004012C0E826F11EC06F091EC0AF058C1CD
:1010700000F159C101F134EC0AF023EC09F004014C
:101080002C0E826F11EC06F091EC0AF05EC100F1BB
:101090005FC101F134EC0AF023EC09F00EB254EF19
:1010A00008F00EA086EF08F004012C0E826F11EC00
:1010B00006F0200EF86EF76AF66A04010900F5CF13
:1010C00082F411EC06F00900F5CF82F411EC06F081
:1010D0000900F5CF82F411EC06F00900F5CF82F497
:1010E00011EC06F00900F5CF82F411EC06F00900CE
:1010F000F5CF82F411EC06F00900F5CF82F411EC83
:1011000006F00900F5CF82F411EC06F01BEC06F0B6
:101110000E908BEF08F00301A26B079090EF08F0A0
:101120000401805181197F0B0BE09EA809D014EEB9
:1011300000F081517F0BE126E750812B0F01AD6E4E
:101140000EA4EFEF08F00E940EB6CCEF08F08A92E2
:101150009E96080EC96E9EA6FED79E96800EC96EFC
:101160009EA6FED78A828A929E96500EC96E9EA631
:10117000FED79E96000EC96E9EA6FED70784C9CFE5
:1011800055F19E96000EC96E9EA6FED7C9CF54F1AA
:1011900007948A82EFEF08F08A949E96080EC96E33
:1011A0009EA6FED79E96800EC96E9EA6FED78A8406
:1011B0008A949E96500EC96E9EA6FED79E96000EED
:1011C000C96E9EA6FED70784C9CF5BF19E96000E1E
:1011D000C96E9EA6FED7C9CF5AF107948A84AAEF9A
:1011E00005F00CC100F10DC101F10EC102F10FC1FA
:1011F00003F1000E046F000E056F010E066F000E66
:10120000076FC8EC09F01DA11CEF09F01451D8B408
:101210001CEF09F00CC100F10DC101F10EC102F18A
:101220000FC103F1000E046F000E056F0A0E066F6A
:10123000000E076FC8EC09F0120001010C6B0D6B7A
:101240000E6B0F6B12001EC182F40401300E822758
:1012500011EC06F01FC182F40401300E822711EC5C
:1012600006F020C182F40401300E822711EC06F052
:1012700021C182F40401300E822711EC06F022C154
:1012800082F40401300E822711EC06F023C182F4AF
:101290000401300E822711EC06F024C182F404010F
:1012A000300E822711EC06F025C182F40401300EC5
:1012B000822711EC06F026C182F40401300E822749
:1012C00011EC06F027C182F40401300E822711ECE4
:1012D00006F01200BF0EFA6E200E2D6F2C6BD89008
:1012E0000037013702370337D8B07BEF09F02D2FD5
:1012F00070EF09F02C072D070353D8B41200033107
:10130000070B8009326F03390F0B010F2C6F80EC34
:101310005FF0336F2C0580EC5FF0335D335F2C6B37
:101320003233D8B02C272C3332A990EF09F0335147
:101330002C271200B6EC0AF0D8B01200035107199E
:10134000286F79EC0AF0D8900751031928AF800F65
:101350001200286B9DEC0AF0D8A0B3EC0AF0D8B0CC
:10136000120088EC0AF091EC0AF01F0E296FC9EC0C
:101370000AF00B35D8B079EC0AF0D8A00335D8B014
:101380001200292FB7EF09F028B1A0EC0AF01200E3
:10139000286B04510511061107110008D8A09DEC17
:1013A0000AF0D8A0B3EC0AF0D8B01200086B096BB1
:1013B0000A6B0B6BC9EC0AF01F0E296FC9EC0AF01F
:1013C00007510B5DD8A4F1EF09F006510A5DD8A4CE
:1013D000F1EF09F00551095DD8A4F1EF09F00451CE
:1013E000085DD8A004EF0AF00451085F0551D8A0A9
:1013F000053D095F0651D8A0063D0A5F0751D8A0F8
:10140000073D0B5FD8900081292FDEEF09F028B14E
:10141000A0EC0AF0286B9DEC0AF0D890CDEC0AF015
:1014200007510B5DD8A421EF0AF006510A5DD8A43C
:1014300021EF0AF00551095DD8A421EF0AF004510B
:10144000085DD8A030EF0AF0003F30EF0AF0013F0E
:1014500030EF0AF0023F30EF0AF0032BD8B412004D
:1014600028B1A0EC0AF012000101286B9DEC0AF0F3
:10147000D8B01200D2EC0AF0200E296F00370137E5
:101480000237033711EE27F00A0E2A6FE7360A0EED
:10149000E75CD8B0E76EE5522A2F46EF0AF0292F15
:1014A0003EEF0AF028B11D81D890120001010A0E0A
:1014B000286F200E296F11EE1DF028512A6F0A0E99
:1014C000D890E652D8B0E726E7322A2F61EF0AF02B
:1014D0000333023301330033292F5BEF0AF0E75067
:1014E000FF0FD8A00335D8B012001DB1A0EC0AF050
:1014F0001200045100270551D8B0053D01270651BF
:10150000D8B0063D02270751D8B0073D0327120087
:101510000051086F0151096F02510A6F03510B6F9F
:1015200012000101006B016B026B036B12000101E1
:10153000046B056B066B076B12000335D8A0120015
:101540000351800B001F011F021F031F003FB0EF5C
:101550000AF0013FB0EF0AF0023FB0EF0AF0032BB0
:10156000282B032512000735D8A012000751800B45
:10157000041F051F061F071F043FC6EF0AF0053FA3
:10158000C6EF0AF0063FC6EF0AF0072B282B072507
:1015900012000037013702370337083709370A3797
:1015A0000B3712001D6B1E6B1F6B206B216B226BA8
:1015B000236B246B256B266B276B12001E510F0BC0
:1015C0001E6F1F510F0B1F6F20510F0B206F2151EA
:1015D0000F0B216F22510F0B226F23510F0B236F23
:1015E00024510F0B246F25510F0B256F26510F0B24
:0A15F000266F27510F0B276F120022
:10BF0000E844F926000C160C2B0C3F0C520C640C68
:10BF1000760C860C960CA50CB30CC10CCF0CDC0C6B
:06BF2000E80CF40C000C1B
:00000001FF
