:020000040000FA
:0408000098EF0BF072
:1008100003B275EF05F0F2B493EF05F09EB09BEFD5
:1008200005F09EB2A3EF05F0F2A81AEF04F0F2B2C1
:1008300023EF04F0F2B01FEF04F047EF0BF0F29655
:10084000F29047EF0BF0CD90F2929EA02DEF04F0C6
:100850000101533F2DEF04F0542BB2C1B6F1B3C1E7
:10086000B7F1B4C1B8F1B5C1B9F1AEC1B2F1AFC120
:10087000B3F1B0C1B4F1B1C1B5F1AAC1AEF1ABC130
:10088000AFF1ACC1B0F1ADC1B1F1A6C1AAF1A7C140
:10089000ABF1A8C1ACF1A9C1ADF1A2C1A6F1A3C150
:1008A000A7F1A4C1A8F1A5C1A9F19EC1A2F19FC160
:1008B000A3F1A0C1A4F1A1C1A5F19AC19EF19BC170
:1008C0009FF19CC1A0F19DC1A1F1CECF9AF1CFCFF4
:1008D0009BF153C19CF154C19DF1CF6ACE6A0101D5
:1008E000536B546B9E90CD800FBC0F8E0FBA7CEF74
:1008F00004F00F8A47EF0BF013880F8C0FBEB9EF8F
:1009000004F09AC19EF19BC19FF19CC1A0F19DC1D1
:10091000A1F19EC1A2F19FC1A3F1A0C1A4F1A1C107
:10092000A5F1A2C1A6F1A3C1A7F1A4C1A8F1A5C1D7
:10093000A9F1A6C1AAF1A7C1ABF1A8C1ACF1A9C1A7
:10094000ADF1AAC1AEF1ABC1AFF1ACC1B0F1ADC177
:10095000B1F1AEC1B2F1AFC1B3F1B0C1B4F1B1C147
:10096000B5F1B2C1B6F1B3C1B7F1B4C1B8F1B5C117
:10097000B9F101015E6B5F6B606B616B9A515E2731
:100980009B515F239C5160239D5161239E515E27A3
:100990009F515F23A0516023A1516123A2515E2783
:1009A000A3515F23A4516023A5516123A6515E2763
:1009B000A7515F23A8516023A9516123AA515E2743
:1009C000AB515F23AC516023AD516123AE515E2723
:1009D000AF515F23B0516023B1516123B2515E2703
:1009E000B3515F23B4516023B5516123B6515E27E3
:1009F000B7515F23B8516023B9516123D8900101E9
:100A0000613360335F335E33D8900101613360330B
:100A10005F335E33D8900101613360335F335E33FF
:100A200000C10CF101C10DF102C10EF103C10FF1C2
:100A300004C110F105C111F106C112F107C113F192
:100A400008C114F109C115F10AC116F10BC117F162
:100A500034C135F111B838EF05F00101620E046FB1
:100A6000010E056F000E066F000E076F41EF05F0D7
:100A70000101A70E046F020E056F000E066F000E37
:100A8000076F5EC100F15FC101F160C102F161C198
:100A900003F154EC30F003BF04D01CBE02D01CA004
:100AA000108C11A059EF05F010BA59EF05F00F8026
:100AB000108A0CC100F10DC101F10EC102F10FC18C
:100AC00003F110C104F111C105F112C106F113C106
:100AD00007F114C108F115C109F116C10AF117C1D6
:100AE0000BF135C134F147EF0BF00392ABB2AB9889
:100AF000AB88030103EE00F080517F0BE92604C0B0
:100B0000EFFF802B8151805D700BD8A48B82000099
:100B10008051815D700BD8A48B9281518019D8B41B
:100B2000079047EF0BF0F2940101453F47EF0BF0C0
:100B3000462B47EF0BF09E900101533F47EF0BF020
:100B4000542B47EF0BF09E9211B843EF08F00400CE
:100B500066A1ABEF05F08BB4B5EF05F010ACB5EFC7
:100B600005F08B84109CB6EF05F08B94077C07ACE6
:100B7000D1EF05F0C274C2B4CBEF05F0C3CFB7F527
:100B8000C4CFB8F50501D890B833B733D890B8338F
:100B9000B733D2EF05F0C3CF55F1C4CF56F1D2EF42
:100BA00005F0C28207B444EF06F047C14BF148C1DB
:100BB0004CF149C14DF14AC14EF15EC162F15FC1D4
:100BC00063F160C164F161C165F113A8EAEF05F05A
:100BD000138C13989AC1BAF19BC1BBF19CC1BCF1B3
:100BE0009DC1BDF19EC1BEF19FC1BFF1A0C1C0F1C9
:100BF000A1C1C1F1A2C1C2F1A3C1C3F1A4C1C4F199
:100C0000A5C1C5F1A6C1C6F1A7C1C7F1A8C1C8F168
:100C1000A9C1C9F1AAC1CAF1ABC1CBF1ACC1CCF138
:100C2000ADC1CDF1AEC1CEF1AFC1CFF1B0C1D0F108
:100C3000B1C1D1F1B2C1D2F1B3C1D3F1B4C1D4F1D8
:100C4000B5C1D5F1B6C1D6F1B7C1D7F1B8C1D8F1A8
:100C5000B9C1D9F1B7C5B9F5B8C5BAF5B9C5BBF5CC
:100C6000BAC5BCF5010155515B2756515C23E86AB2
:100C70005D230E2E44EF06F05CC157F15DC158F1C3
:100C80005B6B5C6B5D6B078E0201002F47EF0BF017
:100C90003C0E006F1D50E00BE00AE86612881BBE98
:100CA00002D01BB4108E00C10CF101C10DF102C1C4
:100CB0000EF103C10FF104C110F105C111F106C11C
:100CC00012F107C113F108C114F109C115F10AC1EC
:100CD00016F10BC117F134C135F181AAACEF06F062
:100CE00015A4F7EF06F005012F51000AD8B43AEF2A
:100CF00007F005012F51010AD8B4B6EF06F005013F
:100D00002F51020AD8B4F7EF06F005012F51030A5C
:100D1000D8B4F7EF06F005012F51040AD8B4F7EF65
:100D200006F005012F51050AD8B4F7EF06F00501CA
:100D30002F51060AD8B4F7EF06F005012F51070A24
:100D4000D8B4F7EF06F005012F51320AD8B4B4EF4A
:100D500006F02F6B3AEF07F000011650030AD8B4E3
:100D6000F7EF06F03AEF07F03AEF07F005015767A3
:100D7000C1EF06F05867C1EF06F05967C1EF06F002
:100D80005A67C5EF06F03AEF07F05BC500F15CC5A6
:100D900001F15DC502F15EC503F10101010E046FB1
:100DA000000E056F000E066F000E076F54EC30F05A
:100DB00000C15BF501C15CF502C15DF503C15EF5E3
:100DC00001010067EBEF06F00167EBEF06F0026749
:100DD000EBEF06F003673AEF07F057C55BF558C530
:100DE0005CF559C55DF55AC55EF524EF07F00FBEF9
:100DF0000CEF07F010A011EF07F00101476708EFB3
:100E000007F0486708EF07F0496708EF07F04A67FF
:100E10000CEF07F011EF07F007AE11EF07F024EF2A
:100E200007F00501312F3AEF07F03C0E316F302FFC
:100E30003AEF07F00101000E626FE00E636FA50E3E
:100E4000646F010E656F138800011650000AD8B454
:100E500032EF07F000011650030AD8B437EF07F05D
:100E60003AEF07F00001010E166E3AEF07F00001AD
:100E7000040E166E0501666B37B740EF07F066810A
:100E80000CC100F10DC101F10EC102F10FC103F15E
:100E900010C104F111C105F112C106F113C107F12E
:100EA00014C108F115C109F116C10AF117C10BF1FE
:100EB00035C134F100C10CF101C10DF102C10EF1D7
:100EC00003C10FF104C110F105C111F106C112F106
:100ED00007C113F108C114F109C115F10AC116F1D6
:100EE0000BC117F134C135F101018E677FEF07F0B7
:100EF0008F677FEF07F090677FEF07F0916783EFD1
:100F000007F0B4EF07F092C100F193C101F194C171
:100F100002F195C103F10101010E046F000E056F8E
:100F2000000E066F000E076F54EC30F000C192F116
:100F300001C193F102C194F103C195F10101006770
:100F4000A9EF07F00167A9EF07F00267A9EF07F023
:100F50000367B4EF07F08EC192F18FC193F190C196
:100F600094F191C195F10F80D57ED5BE6ED0D6CFCC
:100F700047F1D7CF48F145C149F1E86AE8CF4AF1D6
:100F8000138A1CBE02D01CA0108C109047C100F127
:100F900048C101F149C102F14AC103F101010A0E40
:100FA000046F000E056F000E066F000E076F54EC05
:100FB00030F003AF1080010154A7EBEF07F00F9A58
:100FC0000F9C0F9E0101000E5E6F600E5F6F3D0E65
:100FD000606F080E616F010147BFFBEF07F04867C4
:100FE000FBEF07F04967FBEF07F04A67FBEF07F0FD
:100FF000F28820EF08F0F2985E6B5F6B606B616BBC
:101000009A6B9B6B9C6B9D6B9E6B9F6BA06BA16B9C
:10101000A26BA36BA46BA56BA66BA76BA86BA96B4C
:10102000AA6BAB6BAC6BAD6BAE6BAF6BB06BB16BFC
:10103000B26BB36BB46BB56BB66BB76BB86BB96BAC
:10104000D76AD66A0101456B466B0CC100F10DC130
:1010500001F10EC102F10FC103F110C104F111C180
:1010600005F112C106F113C107F114C108F115C150
:1010700009F116C10AF117C10BF135C134F147EF7F
:101080000BF047EF0BF00201002FABEF0AF0D59EFB
:10109000D6CF47F1D7CF48F145C149F1E86AE8CF4B
:1010A0004AF1138AD76AD66A0101456B466BD58E21
:1010B0001D50E00BE00AE86612881BBE02D01BB48C
:1010C000108E1AAE1F8C00C10CF101C10DF102C1CE
:1010D0000EF103C10FF104C110F105C111F106C1F8
:1010E00012F107C113F108C114F109C115F10AC1C8
:1010F00016F10BC117F134C135F10FA0109A11B8D8
:101100008DEF08F00101620E046F010E056F000EF5
:10111000066F000E076F96EF08F00101A70E046F2F
:10112000020E056F000E066F000E076F47C100F13B
:1011300048C101F149C102F14AC103F154EC30F058
:1011400003BFA9EF08F01CBE02D01CA0108C11B088
:101150000F800CC100F10DC101F10EC102F10FC1F0
:1011600003F110C104F111C105F112C106F113C15F
:1011700007F114C108F115C109F116C10AF117C12F
:101180000BF135C134F102013C0E006F00C10CF1CE
:1011900001C10DF102C10EF103C10FF104C110F143
:1011A00005C111F106C112F107C113F108C114F113
:1011B00009C115F10AC116F10BC117F134C135F19E
:1011C00081BAE6EF08F015B225EF09F015A025EF7A
:1011D00009F015A470EF09F005012F51000AD8B4E9
:1011E000B3EF09F005012F51010AD8B42FEF09F030
:1011F00005012F51020AD8B470EF09F005012F51F3
:10120000030AD8B470EF09F005012F51040AD8B4CD
:1012100070EF09F005012F51050AD8B470EF09F0FD
:1012200005012F51060AD8B470EF09F005012F51BE
:10123000070AD8B470EF09F005012F51320AD8B46B
:101240002DEF09F02F6BB3EF09F000011650030AE0
:10125000D8B470EF09F0B3EF09F0B3EF09F005016E
:1012600057673AEF09F058673AEF09F059673AEFD4
:1012700009F05A673EEF09F0B3EF09F05BC500F1E2
:101280005CC501F15DC502F15EC503F10101010E0E
:10129000046F000E056F000E066F000E076F54EC12
:1012A00030F000C15BF501C15CF502C15DF503C121
:1012B0005EF50101006764EF09F0016764EF09F072
:1012C000026764EF09F00367B3EF09F057C55BF5F8
:1012D00058C55CF559C55DF55AC55EF59DEF09F039
:1012E0000FBE85EF09F010A08AEF09F001014767F2
:1012F00081EF09F0486781EF09F0496781EF09F054
:101300004A6785EF09F08AEF09F007AE8AEF09F026
:101310009DEF09F00501312FB3EF09F03C0E316F5D
:10132000302FB3EF09F00101000E626FE00E636F22
:10133000A50E646F010E656F138800011650000A38
:10134000D8B4ABEF09F000011650030AD8B4B0EFDF
:1013500009F0B3EF09F00001010E166EB3EF09F0CA
:101360000001040E166E0501666B37B7B9EF09F080
:1013700066810CC100F10DC101F10EC102F10FC176
:1013800003F110C104F111C105F112C106F113C13D
:1013900007F114C108F115C109F116C10AF117C10D
:1013A0000BF135C134F100C10CF101C10DF102C1E5
:1013B0000EF103C10FF104C110F105C111F106C115
:1013C00012F107C113F108C114F109C115F10AC1E5
:1013D00016F10BC117F134C135F101018E67F8EF39
:1013E00009F08F67F8EF09F09067F8EF09F091675F
:1013F000FCEF09F02DEF0AF092C100F193C101F169
:1014000094C102F195C103F10101010E046F000EB8
:10141000056F000E066F000E076F54EC30F000C130
:1014200092F101C193F102C194F103C195F101015F
:10143000006722EF0AF0016722EF0AF0026722EF4D
:101440000AF003672DEF0AF08EC192F18FC193F17C
:1014500090C194F191C195F10F80109047C100F1B6
:1014600048C101F149C102F14AC103F101010A0E6B
:10147000046F000E056F000E066F000E076F54EC30
:1014800030F003AF1080010154A753EF0AF00F9A18
:101490000F9C0F9E0101000E5E6F600E5F6F3D0E90
:1014A000606F080E616F47C100F148C101F149C189
:1014B00002F14AC103F10101140E046F050E056F1C
:1014C000000E066F000E076F54EC30F003AF6CEFA8
:1014D0000AF0F28891EF0AF0F2985E6B5F6B606B36
:1014E000616B9A6B9B6B9C6B9D6B9E6B9F6BA06BF8
:1014F000A16BA26BA36BA46BA56BA66BA76BA86B70
:10150000A96BAA6BAB6BAC6BAD6BAE6BAF6BB06B1F
:10151000B16BB26BB36BB46BB56BB66BB76BB86BCF
:10152000B96B0CC100F10DC101F10EC102F10FC187
:1015300003F110C104F111C105F112C106F113C18B
:1015400007F114C108F115C109F116C10AF117C15B
:101550000BF135C134F104008BB4B6EF0AF010ACD6
:10156000B6EF0AF08B84109CB7EF0AF08B94077CDF
:1015700007ACD2EF0AF0C274C2B4CCEF0AF0C3CF0A
:10158000B7F5C4CFB8F50501D890B833B733D890C4
:10159000B833B733D3EF0AF0C3CF55F1C4CF56F108
:1015A000D3EF0AF0C28207B445EF0BF047C14BF10D
:1015B00048C14CF149C14DF14AC14EF15EC162F1E1
:1015C0005FC163F160C164F161C165F113A8EBEF24
:1015D0000AF0138C13989AC1BAF19BC1BBF19CC15C
:1015E000BCF19DC1BDF19EC1BEF19FC1BFF1A0C1C3
:1015F000C0F1A1C1C1F1A2C1C2F1A3C1C3F1A4C193
:10160000C4F1A5C1C5F1A6C1C6F1A7C1C7F1A8C162
:10161000C8F1A9C1C9F1AAC1CAF1ABC1CBF1ACC132
:10162000CCF1ADC1CDF1AEC1CEF1AFC1CFF1B0C102
:10163000D0F1B1C1D1F1B2C1D2F1B3C1D3F1B4C1D2
:10164000D4F1B5C1D5F1B6C1D6F1B7C1D7F1B8C1A2
:10165000D8F1B9C1D9F1B7C5B9F5B8C5BAF5B9C5A9
:10166000BBF5BAC5BCF5010155515B2756515C234A
:10167000E86A5D230E2E45EF0BF05CC157F15DC1AA
:1016800058F15B6B5C6B5D6B078E47EF0BF002C034
:10169000E0FF005001C0D8FF1000A6B24DEF0BF0E4
:1016A0000CC0A9FF0BC0A8FFA69EA69CA684F29E14
:1016B000550EA76EAA0EA76EA682F28EA694A6B2AB
:1016C0005FEF0BF00C2A1200A96EA69EA69CA680C6
:1016D000A8500C2A120004012C0E826F96EC0EF01A
:1016E00069EC31F00C5064EC0BF0E8CF00F10C50D9
:1016F00064EC0BF0E8CF01F101AF84EF0BF00101D6
:10170000FF0E026FFF0E036FF2EC30F0296790EFCF
:101710000BF00401200E826F96EC0EF095EF0BF0AB
:1017200004012D0E826F96EC0EF0FCEC2EF01200F0
:1017300015941596076A0F6A106A116A126A136A7D
:10174000166A0F010D0EC16E860EC06E030EC26EBC
:101750000F01680E896E130E926E080E8A6EF30EDC
:10176000936E8B6A900E946EC80E64EC0BF0E8CF0B
:10177000E8FF1098E8A0108810A805D00E0E256E7E
:101780008E0E266E04D00F0E256E8F0E266E01EC87
:1017900032F04CEC33F0F18EF19EFC0E64EC0BF069
:1017A000E8CF0BF00BA011800BA211820BA41184C7
:1017B0000BA81188C90E64EC0BF0E8CF1AF0CA0E22
:1017C00064EC0BF0E8CF1BF0CB0E64EC0BF0E8CF31
:1017D0001CF0CC0E64EC0BF0E8CF1DF0FB0E64ECBB
:1017E0000BF0E8CF37F0CE0E64EC0BF0E8CF14F03E
:1017F000CD0E64EC0BF0E8CF36F01F6A206A0E6A5B
:1018000001015B6B5C6B5D6B576B586BF29A01016E
:10181000476B486B496B4A6B4B6B4C6B4D6B4E6B1C
:101820004F6B506B516B526B456B466BD76AD66AE8
:101830000F01280ED56EF28A9D90B00ECD6E01017B
:101840005E6B5F6B606B616B626B636B646B656B34
:10185000666B676B686B696B536B546BCF6ACE6A50
:101860000F9A0F9C0F9E9D80760ECA6E9D8202017C
:101870003C0E006FCC6A160E64EC0BF0E8CF00F162
:10188000170E64EC0BF0E8CF01F1180E64EC0BF0CE
:10189000E8CF02F1190E64EC0BF0E8CF03F101017F
:1018A00003AF6DEF0CF069EC31F0160E0C6E00C159
:1018B0000BF04DEC0BF0170E0C6E01C10BF04DEC64
:1018C0000BF0180E0C6E02C10BF04DEC0BF0190E64
:1018D0000C6E03C10BF04DEC0BF000C18EF101C199
:1018E0008FF102C190F103C191F100C192F101C1E8
:1018F00093F102C194F103C195F11A0E64EC0BF05F
:10190000E8CF00F11B0E64EC0BF0E8CF01F11C0EE8
:1019100064EC0BF0E8CF02F11D0E64EC0BF0E8CFA5
:1019200003F1010103AFC3EF0CF069EC31F01A0EC3
:101930000C6E00C10BF04DEC0BF01B0E0C6E01C1D8
:101940000BF04DEC0BF01C0E0C6E02C10BF04DECCD
:101950000BF01D0E0C6E03C10BF04DEC0BF01A0ECC
:1019600064EC0BF0E8CF00F11B0E64EC0BF0E8CF59
:1019700001F11C0E64EC0BF0E8CF02F11D0E64ECDB
:101980000BF0E8CF03F100C196F101C197F102C15C
:1019900098F103C199F1240EAC6E900EAB6E240E3B
:1019A000AC6E080EB86E000EB06E1F0EAF6E040166
:1019B000806B816B0F01900EAB6E0F019D8A03014E
:1019C000806B816BC26B8B92A6EC36F0A6EC36F086
:1019D00088EC38F084EC34F0200E64EC0BF0E8CFA7
:1019E0002FF505012F51FF0AD8A4FEEF0CF02F6B45
:1019F000200E0C6E2FC50BF04DEC0BF00501010E07
:101A0000306F3C0E316F250E64EC0BF0E8CF00F127
:101A1000260E64EC0BF0E8CF01F1270E64EC0BF01E
:101A2000E8CF02F1280E64EC0BF0E8CF03F10101DE
:101A300003AF35EF0DF069EC31F0250E0C6E00C1EF
:101A40000BF04DEC0BF0260E0C6E01C10BF04DECC3
:101A50000BF0270E0C6E02C10BF04DEC0BF0280EB4
:101A60000C6E03C10BF04DEC0BF000C157F501C13A
:101A700058F502C159F503C15AF500C15BF501C122
:101A80005CF502C15DF503C15EF5290E64EC0BF057
:101A9000E8CF5FF5050160515F5DD8A05FC560F5D7
:101AA000210E64EC0BF0E8CF00F1220E64EC0BF099
:101AB000E8CF01F1230E64EC0BF0E8CF02F1240E25
:101AC00064EC0BF0E8CF03F1010103AF96EF0DF0EA
:101AD00069EC31F0210E0C6E00C10BF04DEC0BF0F7
:101AE000220E0C6E01C10BF04DEC0BF0230E0C6EB0
:101AF00002C10BF04DEC0BF0240E0C6E03C10BF089
:101B00004DEC0BF0210E64EC0BF0E8CF00F1220E4F
:101B100064EC0BF0E8CF01F1230E64EC0BF0E8CF9E
:101B200002F1240E64EC0BF0E8CF03F100C161F583
:101B300001C162F502C163F503C164F5CCEC33F079
:101B4000B2EC32F00AEC32F01590C70E64EC0BF0F8
:101B5000E8CF00F1010100B1B1EF0DF01592B2EF45
:101B60000DF0158281AAC0EF0DF015B4BBEF0DF09A
:101B70001580C0EF0DF0C7EC38F015A02EEF39F04E
:101B800007900001F28EF28C12AE03D012BC6EEF01
:101B900019F007B07BEF2DF00FB023EF26F010BE49
:101BA00023EF26F012B823EF26F000011650010AA9
:101BB000D8B41CEF1EF081BAE6EF0DF0000116500C
:101BC000040AD8B41AEF1CF0ECEF0DF00001165027
:101BD000040AD8B458EF1EF00301805181197F0B1D
:101BE000D8B47BEF2DF013EE00F081517F0BE1268E
:101BF000812BE7CFE8FFE00BD8B47BEF2DF023EE8D
:101C000082F0C2513F0BD926E7CFDFFFC22BDF5056
:101C1000780AD8A47BEF2DF0078092C100F193C120
:101C200001F194C102F195C103F10101040E046FA9
:101C3000000E056F000E066F000E076F54EC30F0BB
:101C400000AF2CEF0EF00101030E926F000E936FA8
:101C5000000E946F000E956F03018251720AD8B482
:101C6000A4EF25F08251520AD8B4A4EF25F0825196
:101C7000750AD8B4A4EF25F08251680AD8B4AAEF47
:101C80000EF08251630AD8B435EF2AF08251690A06
:101C9000D8B462EF21F082517A0AD8B475EF22F0FD
:101CA0008251490AD8B401EF21F08251500AD8B4C8
:101CB0001FEF20F08251700AD8B462EF20F08251F9
:101CC000540AD8B48DEF20F08251740AD8B4D3EFFF
:101CD00020F08251410AD8B4AFEF0FF082514B0A85
:101CE000D8B4ACEF0EF082516D0AD8B41FEF14F0E7
:101CF00082514D0AD8B438EF14F08251730AD8B427
:101D0000D4EF24F08251530AD8B439EF25F0825130
:101D10004C0AD8B4C7EF14F08251590AD8B470EF06
:101D200013F012AE01D0128C6CEF2AF0040114EE05
:101D300000F080517F0BE12682C4E7FF802B120068
:101D400004010D0E826F96EC0EF00A0E826F96EC77
:101D50000EF012006AEF2AF004014B0E826F96EC2F
:101D60000EF004012C0E826F96EC0EF081B802D0BA
:101D700036B630D003018351430AD8B4F1EF0EF0E8
:101D800003018351630AD8B4F3EF0EF003018351CA
:101D9000520AD8B4F5EF0EF003018351720AD8B499
:101DA000F7EF0EF003018351470AD8B4F9EF0EF0B4
:101DB00003018351670AD8B4FBEF0EF0030183518E
:101DC000540AD8B4FDEF0EF003018351740AD8B45D
:101DD0006DEF0FF003018351550AD8B4FFEF0EF0F9
:101DE00083D036807BD0369079D0368277D03692C9
:101DF00075D0368473D0369471D036866FD084C354
:101E000030F185C331F186C332F187C333F101016B
:101E1000296BB7EC31F02EEC31F000C104F101C1B7
:101E200005F102C106F103C107F1AAEC31F0200E61
:101E3000F86EF76AF66A0900F5CF2CF10900F5CFC4
:101E40002DF10900F5CF2EF10900F5CF2FF1090092
:101E5000F5CF30F10900F5CF31F10900F5CF32F1BE
:101E60000900F5CF33F10101296BB7EC31F02EEC0D
:101E700031F054EC30F00101006746EF0FF00167DC
:101E800046EF0FF0026746EF0FF0036701D025D051
:101E900004014E0E826F96EC0EF004016F0E826FFD
:101EA00096EC0EF004014D0E826F96EC0EF00401DC
:101EB000610E826F96EC0EF00401740E826F96EC48
:101EC0000EF00401630E826F96EC0EF00401680EB2
:101ED000826F96EC0EF06AEF2AF03696CD0E0C6EFD
:101EE00036C00BF04DEC0BF0CD0E64EC0BF0E8CFF0
:101EF00036F036B006D00401630E826F96EC0EF019
:101F000005D00401430E826F96EC0EF036B206D077
:101F10000401720E826F96EC0EF005D00401520E91
:101F2000826F96EC0EF036B406D00401670E826F15
:101F300096EC0EF005D00401470E826F96EC0EF081
:101F400036B606D00401740E826F96EC0EF005D002
:101F50000401540E826F96EC0EF06AEF2AF0040131
:101F6000410E826F96EC0EF003018351310AD8B412
:101F700090EF12F003018351320AD8B4C0EF11F090
:101F800003018351330AD8B449EF11F0030183519F
:101F9000340AD8B439EF10F003018351350AD8B4AC
:101FA000D9EF0FF004013F0E826F96EC0EF06AEF4E
:101FB0002AF003018451300AD8B4FFEF0FF0030177
:101FC0008451310AD8B402EF10F003018451650A3C
:101FD000D8B4F3EF0FF003018451640AD8B4F6EFDC
:101FE0000FF003EF10F03790F7EF0FF03780FB0E94
:101FF0000C6E37C00BF04DEC0BF003EF10F08B9034
:1020000003EF10F08B800401350E826F96EC0EF01A
:1020100004012C0E826F96EC0EF08BB017EF10F0CF
:102020000401300E826F96EC0EF01CEF10F00401EC
:10203000310E826F96EC0EF004012C0E826F96EC3E
:102040000EF0FB0E64EC0BF0E8CF37F037A030EF6A
:1020500010F00401640E826F96EC0EF035EF10F074
:102060000401650E826F96EC0EF037EF10F06AEF08
:102070002AF0CC0E64EC0BF0E8CF0BF004012C0E30
:10208000826F96EC0EF003018451310AD8B45DEFF3
:1020900010F003018451300AD8B45FEF10F003014F
:1020A00084514D0AD8B469EF10F003018451540AE9
:1020B000D8B470EF10F087EF10F08A8401D08A94C2
:1020C0000BAE04D00BAC02D00BBA21D0E00E0B1239
:1020D00018D01F0E0B168539E844E00B0B1211D0F7
:1020E000E00E0B16AAEC31F085C332F186C333F152
:1020F0000101296BB7EC31F02EEC31F000511F0BD0
:102100000B12CC0E0C6E0BC00BF04DEC0BF004015F
:10211000340E826F96EC0EF004012C0E826F96EC5A
:102120000EF0CC0E64EC0BF0E8CF1DF08AB406D0B4
:102130000401300E826F96EC0EF005D00401310ED2
:10214000826F96EC0EF004012C0E826F96EC0EF06E
:102150001D38E840070BE8CF82F40401300E8227D7
:1021600096EC0EF004012C0E826F96EC0EF069ECEA
:1021700031F01D501F0BE8CF00F1F2EC30F032C10E
:1021800082F40401300E822796EC0EF033C182F403
:102190000401300E822796EC0EF004012C0E826FA3
:1021A00096EC0EF069EC31F030C000F100AF0BD0CE
:1021B000FF0E016FFF0E026FFF0E036F04012D0E65
:1021C000826F96EC0EF0F2EC30F031C182F4040133
:1021D000300E822796EC0EF032C182F40401300EEC
:1021E000822796EC0EF033C182F40401300E822770
:1021F00096EC0EF004012C0E826F96EC0EF069EC5A
:1022000031F02FC000F1F2EC30F031C182F4040162
:10221000300E822796EC0EF032C182F40401300EAB
:10222000822796EC0EF033C182F40401300E82272F
:1022300096EC0EF004012C0E826F96EC0EF069EC19
:1022400031F031C000F100AF0BD0FF0E016FFF0E77
:10225000026FFF0E036F04012D0E826F96EC0EF0DD
:10226000F2EC30F031C182F40401300E822796EC9A
:102270000EF032C182F40401300E822796EC0EF08B
:1022800033C182F40401300E822796EC0EF06AEF1F
:102290002AF0CB0E64EC0BF0E8CF0BF004012C0E0F
:1022A000826F96EC0EF003018451450AD8B46DEFAD
:1022B00011F003018451440AD8B470EF11F0030106
:1022C0008451300AD8B473EF11F003018451310AFC
:1022D000D8B477EF11F082EF11F00B9E7CEF11F084
:1022E0000B8E7CEF11F0FC0E0B167CEF11F0FC0E48
:1022F0000B160B807CEF11F0CB0E0C6E0BC00BF0AD
:102300004DEC0BF00401330E826F96EC0EF00401DD
:102310002C0E826F96EC0EF0CB0E64EC0BF0E8CF37
:102320001CF01CBE9BEF11F00401450E826F96EC71
:102330000EF0A0EF11F00401440E826F96EC0EF047
:1023400004012C0E826F96EC0EF00401300E826FA9
:1023500096EC0EF004012C0E826F96EC0EF01CB081
:10236000B9EF11F00401300E826F96EC0EF0BEEF63
:1023700011F00401310E826F96EC0EF06AEF2AF034
:10238000CA0E64EC0BF0E8CF0BF004012C0E826F48
:1023900096EC0EF003018451450AD8B4FCEF11F01D
:1023A00003018451440AD8B4FFEF11F003018451B2
:1023B0004D0AD8B408EF12F003018451410AD8B491
:1023C00002EF12F003018451460AD8B405EF12F06F
:1023D00003018451560AD8B410EF12F0030184515E
:1023E000500AD8B41BEF12F003018451520AD8B43A
:1023F0001EEF12F027EF12F00B9E21EF12F00B8E62
:1024000021EF12F00B9C21EF12F00B8C21EF12F058
:10241000FC0E0B1685C3E8FF030B0B1221EF12F025
:10242000C70E0B1685C3E8FF070BE846E846E846EB
:102430000B1221EF12F00B8421EF12F00B9421EF1D
:1024400012F0CA0E0C6E0BC00BF04DEC0BF0CA0E66
:1024500064EC0BF0E8CF1BF00401320E826F96ECB7
:102460000EF004012C0E826F96EC0EF01BBE40EFB6
:1024700012F00401450E826F96EC0EF045EF12F05B
:102480000401440E826F96EC0EF004012C0E826F54
:1024900096EC0EF01BC0E8FF030BE8CF82F40401BA
:1024A000300E822796EC0EF004012C0E826F96EC13
:1024B0000EF01BBC63EF12F00401410E826F96EC2C
:1024C0000EF068EF12F00401460E826F96EC0EF0EB
:1024D00004012C0E826F96EC0EF01BC0E8FF380B47
:1024E000E842E842E842E8CF82F40401300E822755
:1024F00096EC0EF004012C0E826F96EC0EF01BB4DD
:1025000089EF12F00401520E826F96EC0EF08EEFFE
:1025100012F00401500E826F96EC0EF06AEF2AF072
:10252000C90E64EC0BF0E8CF0BF004012C0E826FA7
:1025300096EC0EF003018451450AD8B4AEEF12F0C8
:1025400003018451440AD8B4B1EF12F0030184515D
:102550004D0AD8B4B4EF12F0C2EF12F00B9EBCEFEC
:1025600012F00B8EBCEF12F0F80E0B1685C3E8FFCD
:10257000070B0B12BCEF12F0C90E0C6E0BC00BF068
:102580004DEC0BF00401310E826F96EC0EF004015D
:102590002C0E826F96EC0EF0C90E64EC0BF0E8CFB7
:1025A0001AF01ABE06D00401450E826F96EC0EF0AA
:1025B00005D00401440E826F96EC0EF004012C0E3F
:1025C000826F96EC0EF01AC0E8FF070BE8CF82F49A
:1025D0000401300E822796EC0EF004012C0E826F5F
:1025E00096EC0EF0078069EC31F02BC0E8FF003B61
:1025F00000430043030BF2EC30F033C182F40401DA
:10260000300E822796EC0EF004012C0E826F96ECB1
:102610000EF069EC31F02BC001F1019F019D2CC03F
:1026200000F10101F2EC30F02FC182F40401300E10
:10263000822796EC0EF030C182F40401300E82271E
:1026400096EC0EF031C182F40401300E822796EC34
:102650000EF032C182F40401300E822796EC0EF0A7
:1026600033C182F40401300E822796EC0EF004018F
:102670002C0E826F96EC0EF069EC31F02DC001F15A
:102680002EC000F1D89001330033D89001330033CD
:102690000101F2EC30F02FC182F40401300E8227E8
:1026A00096EC0EF030C182F40401300E822796ECD5
:1026B0000EF031C182F40401300E822796EC0EF048
:1026C00032C182F40401300E822796EC0EF033C141
:1026D00082F40401300E822796EC0EF06AEF2AF0A5
:1026E000FC0E64EC0BF0E8CF0BF003018351520AAF
:1026F000D8B4A7EF13F003018351720AD8B4AAEF3C
:1027000013F003018351500AD8B4ADEF13F0030165
:102710008351700AD8B4B0EF13F003018351550A06
:10272000D8B4B3EF13F003018351750AD8B4B6EFF0
:1027300013F003018351430AD8B4BFEF13F0030130
:102740008351630AD8B4C2EF13F0CBEF13F00B90B0
:10275000C5EF13F00B80C5EF13F00B92C5EF13F02C
:102760000B82C5EF13F00B94C5EF13F00B84C5EF8C
:1027700013F00B96C5EF13F00B86C5EF13F00B9813
:10278000C5EF13F00B88C5EF13F0FC0E0C6E0BC0F9
:102790000BF04DEC0BF00401590E826F96EC0EF02D
:1027A0001190119211941198FC0E64EC0BF0E8CF8B
:1027B0000BF00BA011800BA211820BA411840BA8AB
:1027C000118811A0EBEF13F00401520E826F96EC0A
:1027D0000EF0F0EF13F00401720E826F96EC0EF023
:1027E00011A8FAEF13F00401430E826F96EC0EF07D
:1027F000FFEF13F00401630E826F96EC0EF011A24E
:1028000009EF14F00401500E826F96EC0EF00EEFFB
:1028100014F00401700E826F96EC0EF011A418EF04
:1028200014F00401550E826F96EC0EF01DEF14F0BB
:102830000401750E826F96EC0EF06AEF2AF0040127
:102840006D0E826F96EC0EF003018351300AD8B4FE
:1028500077EF14F003018351310AD8B48AEF14F0F2
:1028600003018351320AD8B49DEF14F06CEF2AF0C3
:1028700004014D0E826F96EC0EF0AAEC31F084C389
:1028800031F185C332F186C333F10101296BB7EC15
:1028900031F02EEC31F003018351300AD8B45FEFF0
:1028A00014F003018351310AD8B467EF14F0030127
:1028B0008351320AD8B46FEF14F06CEF2AF0FD0E9A
:1028C0000C6E00C10BF04DEC0BF077EF14F0FE0E28
:1028D0000C6E00C10BF04DEC0BF08AEF14F0FF0E04
:1028E0000C6E00C10BF04DEC0BF09DEF14F00401E9
:1028F000300E826F96EC0EF004012C0E826F96EC77
:102900000EF069EC31F0FD0E64EC0BF0E8CF00F155
:10291000AEEF14F00401310E826F96EC0EF004015C
:102920002C0E826F96EC0EF069EC31F0FE0E64EC2A
:102930000BF0E8CF00F1AEEF14F00401320E826F1D
:1029400096EC0EF069EC31F004012C0E826F96ECDF
:102950000EF0FF0E64EC0BF0E8CF00F1F2EC30F07B
:1029600031C182F40401300E822796EC0EF032C1A0
:1029700082F40401300E822796EC0EF033C182F40B
:102980000401300E822796EC0EF06AEF2AF0030164
:102990008351300AD8B41BEF1AF003018351310A76
:1029A000D8B448EF1BF003018351320AD8B4B6EF14
:1029B0001BF003018351330AD8B4C6EF1BF00301A7
:1029C0008351340AD8B421EF1CF003018351350A36
:1029D000D8B470EF1EF003018351360AD8B49EEFCD
:1029E0001EF003018351370AD8B4F3EF17F0030147
:1029F0008351380AD8B491EF18F003018351440A87
:102A0000D8B41FEF16F003018351640AD8B43FEF26
:102A100016F003018351460AD8B475EF1DF0030187
:102A200083514D0AD8B46CEF16F0030183516D0A3F
:102A3000D8B486EF16F0030183515A0AD8B4C2EF16
:102A40001AF003018351490AD8B49EEF1FF0030125
:102A50008351500AD8B4D0EF1EF003018351540AB9
:102A6000D8B449EF1FF003018351630AD8B4A6EF2D
:102A700016F003018351430AD8B49EEF17F0030107
:102A80008351730AD8B4A4EF16F003018351610A8D
:102A9000D8B46CEF15F003018351650AD8B46BEF1D
:102AA0001AF003018351450AD8B479EF1AF00301F3
:102AB0008351620AD8B487EF1AF003018351420AA6
:102AC000D8B495EF1AF003018351760AD8B4A3EF76
:102AD0001AF0D8A46CEF2AF004014C0E826F96EC29
:102AE0000EF00401610E826F96EC0EF0B2EC32F043
:102AF00004012C0E826F96EC0EF069EC31F0AFC53C
:102B000000F10101F2EC30F031C182F40401300E29
:102B1000822796EC0EF032C182F40401300E822737
:102B200096EC0EF033C182F40401300E822796EC4D
:102B30000EF004012C0E826F96EC0EF069EC31F071
:102B4000B0C500F10101F2EC30F031C182F40401B2
:102B5000300E822796EC0EF032C182F40401300E62
:102B6000822796EC0EF033C182F40401300E8227E6
:102B700096EC0EF004012C0E826F96EC0EF069ECD0
:102B800031F0B1C500F10101F2EC30F031C182F455
:102B90000401300E822796EC0EF032C182F404015B
:102BA000300E822796EC0EF033C182F40401300E11
:102BB000822796EC0EF004012C0E826F96EC0EF03C
:102BC00069EC31F0B2C500F10101F2EC30F031C135
:102BD00082F40401300E822796EC0EF032C182F4AA
:102BE0000401300E822796EC0EF033C182F404010A
:102BF000300E822796EC0EF004012C0E826F96ECBC
:102C00000EF069EC31F0B6C500F10101F2EC30F0E4
:102C100031C182F40401300E822796EC0EF032C1ED
:102C200082F40401300E822796EC0EF033C182F458
:102C30000401300E822796EC0EF0CCEF1EF003015B
:102C40008451300AD8B42BEF16F003018451310AB5
:102C5000D8B42FEF16F01592159630EF16F01582B6
:102C6000C70E64EC0BF0E8CF00F10101008115A262
:102C70000091C70E0C6E00C10BF04DEC0BF0C70EAF
:102C800064EC0BF0E8CF00F1010100B14BEF16F05E
:102C900015924CEF16F0158204014C0E826F96ECE3
:102CA0000EF00401640E826F96EC0EF004012C0EFF
:102CB000826F96EC0EF015B265EF16F00401300E3F
:102CC000826F96EC0EF06AEF16F00401310E826FFF
:102CD00096EC0EF06AEF2AF0AAEC31F084C333F1DF
:102CE000B7EC31F02EEC31F0200E0C6E00C10BF081
:102CF0004DEC0BF000C12FF505012F51000A06E045
:102D000005012F51010A02E04CEC33F004014C0E96
:102D1000826F96EC0EF004014D0E826F96EC0EF071
:102D200004012C0E826F96EC0EF069EC31F02FC589
:102D300000F1F2EC30F033C182F40401300E82274E
:102D400096EC0EF0CCEF1EF02EEF39F004014C0E95
:102D5000826F96EC0EF00401630E826F96EC0EF01B
:102D60000AEC32F004012C0E826F96EC0EF0BBECF4
:102D700016F0CCEF1EF069EC31F0B5C500F10101A1
:102D8000003B0F0E0017F2EC30F033C182F4040167
:102D9000300E822796EC0EF0B5C500F101010F0E42
:102DA00001010017F2EC30F033C182F40401300E5F
:102DB000822796EC0EF004012D0E826F96EC0EF039
:102DC000B4C500F10101003B0F0E0017F2EC30F02A
:102DD00033C182F40401300E822796EC0EF0B4C5A4
:102DE00000F101010F0E01010017F2EC30F033C1C8
:102DF00082F40401300E822796EC0EF004012D0EB1
:102E0000826F96EC0EF0B3C500F10101003B0F0E8E
:102E10000017F2EC30F033C182F40401300E822747
:102E200096EC0EF0B3C500F101010F0E0101001781
:102E3000F2EC30F033C182F40401300E822796ECBC
:102E40000EF00401200E826F96EC0EF0B2C500F178
:102E50000F0E01010017F2EC30F033C182F40401CF
:102E6000300E822796EC0EF00401200E826F96EC55
:102E70000EF0B1C500F101010101003B0F0E00177A
:102E8000F2EC30F033C182F40401300E822796EC6C
:102E90000EF0B1C500F101010F0E01010017F2ECB7
:102EA00030F033C182F40401300E822796EC0EF02C
:102EB00004013A0E826F96EC0EF0B0C500F10101EC
:102EC000003B0F0E0017F2EC30F033C182F4040126
:102ED000300E822796EC0EF0B0C500F101010F0E06
:102EE00001010017F2EC30F033C182F40401300E1E
:102EF000822796EC0EF004013A0E826F96EC0EF0EB
:102F0000AFC500F10101003B0F0E0017F2EC30F0ED
:102F100033C182F40401300E822796EC0EF0AFC567
:102F200000F101010F0E0017F2EC30F033C182F412
:102F30000401300E822796EC0EF0120084C3E8FFE5
:102F40000F0BE83AE8CFB5F585C3E8FF0F0B050195
:102F5000B51387C3E8FF0F0BE83AE8CFB4F588C391
:102F6000E8FF0F0B0501B4138AC3E8FF0F0BE83A23
:102F7000E8CFB3F58BC3E8FF0F0B0501B3138DC387
:102F8000E8FF0F0BE8CFB2F58FC3E8FF0F0BE83A6D
:102F9000E8CFB1F590C3E8FF0F0B0501B11392C361
:102FA000E8FF0F0BE83AE8CFB0F593C3E8FF0F0B4B
:102FB0000501B01395C3E8FF0F0BE83AE8CFAFF572
:102FC00096C3E8FF0F0B0501AF1365EC32F0040167
:102FD0004C0E826F96EC0EF00401430E826F96EC5D
:102FE0000EF0B0EF16F0078404014C0E826F96ECE1
:102FF0000EF00401370E826F96EC0EF004012C0ED9
:10300000826F96EC0EF005012E51130A06E00501C1
:103010002E51170A0DE08EEF18F00101000E006F1F
:10302000000E016F100E026F000E036F21EF18F0FB
:103030000101000E006F000E016F000E026F010E05
:10304000036FF2EC30F02AC182F40401300E8227C3
:1030500096EC0EF02BC182F40401300E822796EC20
:103060000EF02CC182F40401300E822796EC0EF093
:103070002DC182F40401300E822796EC0EF02EC191
:1030800082F40401300E822796EC0EF02FC182F4F8
:103090000401300E822796EC0EF030C182F4040158
:1030A000300E822796EC0EF031C182F40401300E0E
:1030B000822796EC0EF032C182F40401300E822792
:1030C00096EC0EF033C182F40401300E822796ECA8
:1030D0000EF004012C0E826F96EC0EF00101200E12
:1030E000006F000E016F000E026F000E036FF2EC16
:1030F00030F031C182F40401300E822796EC0EF0DC
:1031000032C182F40401300E822796EC0EF033C1F6
:1031100082F40401300E822796EC0EF00794CCEF77
:103120001EF00501216B226B236B246B04014C0EF6
:10313000826F96EC0EF00401380E826F96EC0EF062
:1031400004012C0E826F96EC0EF00101200E006F30
:10315000000E016F000E026F000E036FF2EC30F0F4
:103160002AC182F40401300E822796EC0EF02BC1A6
:1031700082F40401300E822796EC0EF02CC182F40A
:103180000401300E822796EC0EF02DC182F404016A
:10319000300E822796EC0EF02EC182F40401300E20
:1031A000822796EC0EF02FC182F40401300E8227A4
:1031B00096EC0EF030C182F40401300E822796ECBA
:1031C0000EF031C182F40401300E822796EC0EF02D
:1031D00032C182F40401300E822796EC0EF033C126
:1031E00082F40401300E822796EC0EF004012C0EBE
:1031F000826F96EC0EF025C500F126C501F127C5BA
:1032000002F128C503F10101200E046F000E056FC5
:10321000000E066F000E076F85EC30F000C133F52D
:1032200001C134F502C135F503C136F5F2EC30F0D9
:103230002AC182F40401300E822796EC0EF02BC1D5
:1032400082F40401300E822796EC0EF02CC182F439
:103250000401300E822796EC0EF02DC182F4040199
:10326000300E822796EC0EF02EC182F40401300E4F
:10327000822796EC0EF02FC182F40401300E8227D3
:1032800096EC0EF030C182F40401300E822796ECE9
:103290000EF031C182F40401300E822796EC0EF05C
:1032A00032C182F40401300E822796EC0EF033C155
:1032B00082F40401300E822796EC0EF0A0EC0EF0A2
:1032C000050133676BEF19F034676BEF19F0356761
:1032D0006BEF19F0366702D00AEF1AF0129E129CBB
:1032E00021C500F122C501F123C502F124C503F176
:1032F000899A400EC76E200EC66E9E96C69E0B0E15
:10330000C96EFF0E9EB602D0E82EFCD79E96C69ED2
:1033100002C1C9FFFF0E9EB602D0E82EFCD79E96D2
:10332000C69E01C1C9FFFF0E9EB602D0E82EFCD793
:103330009E96C69E00C1C9FFFF0E9EB602D0E82E23
:10334000FCD79E96C69EC952FF0E9EB602D0E82EAE
:10335000FCD70501200E326F040114EE00F08051FD
:103360007F0BE1269E96C69EC952FF0E9EB602D0E6
:10337000E82EFCD7C9CFE7FF0401802B0501322FCF
:10338000ACEF19F0898A33C500F134C501F135C5B8
:1033900002F136C503F10101010E046F000E056F45
:1033A000000E066F000E076F54EC30F000C133F5CD
:1033B00001C134F502C135F503C136F505013367A6
:1033C000E9EF19F03467E9EF19F03567E9EF19F023
:1033D000366702D00AEF1AF021C500F122C501F1CB
:1033E00023C502F124C503F10101200E046F000E74
:1033F000056F000E066F000E076F59EC30F000C12C
:1034000021F501C122F502C123F503C124F5128E75
:103410006CEF2AF00401450E826F96EC0EF0040169
:103420004F0E826F96EC0EF00401460E826F96EC02
:103430000EF0CCEF1EF0078488EC38F069EC31F028
:103440002DC500F1F2EC30F004014C0E826F96ECC9
:103450000EF00401300E826F96EC0EF004012C0E7B
:10346000826F96EC0EF031C182F40401300E822797
:1034700096EC0EF032C182F40401300E822796ECF5
:103480000EF033C182F40401300E822796EC0EF068
:1034900004012C0E826F96EC0EF069EC31F02EC513
:1034A00000F1F2EC30F031C182F40401300E8227D9
:1034B00096EC0EF032C182F40401300E822796ECB5
:1034C0000EF033C182F40401300E822796EC0EF028
:1034D0000794CCEF1EF004014C0E826F96EC0EF0B8
:1034E0000401650E826F96EC0EF028EC34F0CCEF00
:1034F0001EF004014C0E826F96EC0EF00401450E96
:10350000826F96EC0EF03FEC34F0CCEF1EF004012D
:103510004C0E826F96EC0EF00401620E826F96ECF8
:103520000EF06DEC34F0CCEF1EF004014C0E826F07
:1035300096EC0EF00401420E826F96EC0EF056EC03
:1035400034F0CCEF1EF004014C0E826F96EC0EF0BE
:103550000401760E826F96EC0EF004012C0E826F41
:1035600096EC0EF010A807D00401310E826F96EC95
:103570000EF0CCEF1EF00401300E826F96EC0EF0D0
:10358000CCEF1EF004014C0E826F96EC0EF004019D
:103590005A0E826F96EC0EF004012C0E826F96ECA0
:1035A0000EF088EC38F069EC31F005012E51130A69
:1035B00006E005012E51170A0DE0F3EF1AF00101A4
:1035C000000E006F000E016F100E026F000E036FF1
:1035D000F3EF1AF00101000E006F000E016F000EF4
:1035E000026F010E036F0101200E046F000E056FC4
:1035F000000E066F000E076F85EC30F0F2EC30F035
:103600002AC182F40401300E822796EC0EF02BC101
:1036100082F40401300E822796EC0EF02CC182F465
:103620000401300E822796EC0EF02DC182F40401C5
:10363000300E822796EC0EF02EC182F40401300E7B
:10364000822796EC0EF02FC182F40401300E8227FF
:1036500096EC0EF030C182F40401300E822796EC15
:103660000EF031C182F40401300E822796EC0EF088
:1036700032C182F40401300E822796EC0EF033C181
:1036800082F40401300E822796EC0EF0CCEF1EF08F
:10369000078404014C0E826F96EC0EF00401310E8B
:1036A000826F96EC0EF004012C0E826F96EC0EF0F9
:1036B00025C500F126C501F127C502F128C503F192
:1036C0000101200E046F000E056F000E066F000E44
:1036D000076F85EC30F0F2EC30F02AC182F404017F
:1036E000300E822796EC0EF02BC182F40401300ECE
:1036F000822796EC0EF02CC182F40401300E822752
:1037000096EC0EF02DC182F40401300E822796EC67
:103710000EF02EC182F40401300E822796EC0EF0DA
:103720002FC182F40401300E822796EC0EF030C1D6
:1037300082F40401300E822796EC0EF031C182F43F
:103740000401300E822796EC0EF032C182F404019F
:10375000300E822796EC0EF033C182F40401300E55
:10376000822796EC0EF00794CCEF1EF0078404013C
:103770004C0E826F96EC0EF00401320E826F96ECC6
:103780000EF05CEC36F00794CCEF1EF0078437B0F7
:10379000CCEF1BF0DFEF1BF0010E166E04014C0E98
:1037A000826F96EC0EF00401330E826F96EC0EF0F1
:1037B000B9EC36F0000E166E079453EF1BF0020EB4
:1037C000166EB9EC36F08B800501010E306F3C0EA1
:1037D000316F01015E6B5F6B606B616B626B636B82
:1037E000646B656B666B676B686B696B536B546B73
:1037F000CF6ACE6A0F9A0F9C0F9E030E166E0401BD
:103800004C0E826F96EC0EF00401330E826F96EC34
:103810000EF004012C0E826F96EC0EF004012D0EBA
:10382000826F96EC0EF00401310E826F96EC0EF072
:103830006AEF2AF0B9EC36F0000E166E8B906CEF42
:103840002AF0078404014C0E826F96EC0EF00401FE
:10385000340E826F96EC0EF004012C0E826F96EC03
:103860000EF0AAEC31F084C32AF185C32BF186C394
:103870002CF187C32DF188C32EF189C32FF18AC3A0
:1038800030F18BC331F18CC332F18DC333F10101BF
:10389000296BB7EC31F02EEC31F0200E046F000EE6
:1038A000056F000E066F000E076F65EC30F000C16B
:1038B00021F501C122F502C123F503C124F53BEC3A
:1038C00038F038C5AFF539C5B0F53AC5B1F53BC5E7
:1038D000B2F53CC5B3F53DC5B4F53EC5B5F5BBEC99
:1038E00016F004012C0E826F96EC0EF03FC500F12D
:1038F00040C501F141C502F142C503F10101000ECD
:10390000046F000E056F010E066F000E076F85EC49
:1039100030F0F2EC30F0296790EF1CF095EF1CF0DE
:1039200004012D0E826F96EC0EF030C182F404017A
:10393000300E822796EC0EF031C182F40401300E75
:10394000822796EC0EF004012E0E826F96EC0EF09C
:1039500032C182F40401300E822796EC0EF033C19E
:1039600082F40401300E822796EC0EF004012C0E36
:10397000826F96EC0EF069EC31F043C500F144C55E
:1039800001F196EC2BF004012C0E826F96EC0EF0F8
:1039900069EC31F045C500F1F2EC30F031C182F450
:1039A0000401300E822796EC0EF032C182F404013D
:1039B000300E822796EC0EF033C182F40401300EF3
:1039C000822796EC0EF004012C0E826F96EC0EF01E
:1039D00037C5E8FFE8B806D00401300E826F96ECD8
:1039E0000EF005D00401310E826F96EC0EF004014A
:1039F0002C0E826F96EC0EF037C5E8FFE8BA06D0C1
:103A00000401300E826F96EC0EF06CD00401310E82
:103A1000826F96EC0EF004012C0E826F96EC0EF085
:103A200047C500F148C501F149C502F14AC503F196
:103A300014EC31F0B5EC2EF004012C0E826F96ECF4
:103A40000EF04BC500F14CC501F14DC502F14EC55C
:103A500003F10101000E046F000E056F010E066FE9
:103A6000000E076F85EC30F0F2EC30F029673BEF89
:103A70001DF040EF1DF004012D0E826F96EC0EF04C
:103A800030C182F40401300E822796EC0EF031C171
:103A900082F40401300E822796EC0EF004012E0E03
:103AA000826F96EC0EF032C182F40401300E822750
:103AB00096EC0EF033C182F40401300E822796ECAE
:103AC0000EF004012C0E826F96EC0EF04FC500F143
:103AD00050C501F151C502F152C503F114EC31F0AA
:103AE000B5EC2EF00794CCEF1EF0AAEC31F085C3B4
:103AF0002AF186C32BF187C32CF188C32DF189C32A
:103B00002EF18AC32FF18BC330F18CC331F18DC3F9
:103B100032F18EC333F10101296BB7EC31F02EEC99
:103B200031F00101010E046F000E056F000E066FEB
:103B3000000E076F54EC30F0100E046F000E056F8E
:103B4000000E066F000E076F65EC30F000C129F51E
:103B500001C12AF502C12BF503C12CF5E3EC35F0C8
:103B600004014C0E826F96EC0EF00401460E826F3B
:103B700096EC0EF004012C0E826F96EC0EF025C52B
:103B800000F126C501F127C502F128C503F10101A5
:103B9000100E046F000E056F000E066F000E076F0B
:103BA00085EC30F0F2EC30F02AC182F40401300EE2
:103BB000822796EC0EF02BC182F40401300E82278E
:103BC00096EC0EF02CC182F40401300E822796ECA4
:103BD0000EF02DC182F40401300E822796EC0EF017
:103BE0002EC182F40401300E822796EC0EF02FC114
:103BF00082F40401300E822796EC0EF030C182F47C
:103C00000401300E822796EC0EF031C182F40401DB
:103C1000300E822796EC0EF032C182F40401300E91
:103C2000822796EC0EF033C182F40401300E822715
:103C300096EC0EF0CCEF1EF037B021EF1EF0020E26
:103C4000166EB9EC36F000011650020AD8B43FEFF8
:103C50001EF005012F51010AD8B435EF1EF015B240
:103C60003AEF1EF081BA3AEF1EF0000E166E158480
:103C70006CEF2AF0050E166E15842EEF39F08B804E
:103C800001015E6B5F6B606B616B626B636B646B9E
:103C9000656B666B676B686B696B536B546BCF6A54
:103CA000CE6A0F9A0F9C0F9E030E166E6CEF2AF0D1
:103CB000B9EC36F005012F51010AD8B466EF1EF0B9
:103CC00015B26BEF1EF081BA6BEF1EF0000E166E90
:103CD00015846CEF2AF0050E166E15842EEF39F060
:103CE00004014C0E826F96EC0EF00401350E826FCB
:103CF00096EC0EF004012C0E826F96EC0EF069EC3F
:103D000031F00784B9C500F10794F2EC30F031C10D
:103D100082F40401300E822796EC0EF032C182F458
:103D20000401300E822796EC0EF033C182F40401B8
:103D3000300E822796EC0EF0CCEF1EF07CEC36F0C5
:103D400069EC31F037C500F1F2EC30F004014C0EB3
:103D5000826F96EC0EF00401360E826F96EC0EF038
:103D600004012C0E826F96EC0EF031C182F4040136
:103D7000300E822796EC0EF032C182F40401300E30
:103D8000822796EC0EF033C182F40401300E8227B4
:103D900096EC0EF0CCEF1EF0A0EC0EF06CEF2AF0DB
:103DA00004014C0E826F96EC0EF00401500E826FEF
:103DB00096EC0EF004012C0E826F96EC0EF085C38B
:103DC0002AF186C32BF187C32CF188C32DF189C357
:103DD0002EF18AC32FF18BC330F18CC331F18DC327
:103DE00032F18EC333F10101B7EC31F02EEC31F03A
:103DF00003018451530A0DE0030184514D0A38E058
:103E00000401780E826F96EC0EF0A0EC0EF06CEFD1
:103E10002AF00401530E826F96EC0EF0250E0C6E04
:103E200000C10BF04DEC0BF0260E0C6E01C10BF037
:103E30004DEC0BF0270E0C6E02C10BF04DEC0BF0AD
:103E4000280E0C6E03C10BF04DEC0BF000C157F5C2
:103E500001C158F502C159F503C15AF500C15BF51E
:103E600001C15CF502C15DF503C15EF5ADEF1FF068
:103E700004014D0E826F96EC0EF0290E0C6E00C1FF
:103E80000BF04DEC0BF000C15FF500C160F5ADEF3C
:103E90001FF004014C0E826F96EC0EF00401540EDC
:103EA000826F96EC0EF004012C0E826F96EC0EF0F1
:103EB00084C32AF185C32BF186C32CF187C32DF16E
:103EC00088C32EF189C32FF18AC330F18BC331F13E
:103ED0008DC332F18EC333F10101B7EC31F02EEC1A
:103EE00031F00101000E046F000E056F010E066F28
:103EF000000E076F65EC30F0210E0C6E00C10BF068
:103F00004DEC0BF0220E0C6E01C10BF04DEC0BF0E2
:103F1000230E0C6E02C10BF04DEC0BF0240E0C6E58
:103F200003C10BF04DEC0BF000C161F501C162F56E
:103F300002C163F503C164F5ADEF1FF004014C0E3F
:103F4000826F96EC0EF00401490E826F96EC0EF033
:103F500004012C0E826F96EC0EF0250E64EC0BF033
:103F6000E8CF00F1260E64EC0BF0E8CF01F1270E4C
:103F700064EC0BF0E8CF02F1280E64EC0BF0E8CF14
:103F800003F1F2EC30F0B5EC2EF00401730E826F09
:103F900096EC0EF004012C0E826F96EC0EF069EC9C
:103FA00031F0290E64EC0BF0E8CF00F1F2EC30F0C8
:103FB000B5EC2EF004016D0E826F96EC0EF004014C
:103FC0002C0E826F96EC0EF05BC500F15CC501F122
:103FD0005DC502F15EC503F1F2EC30F0B5EC2EF0F8
:103FE0000401730E826F96EC0EF004012C0E826FAA
:103FF00096EC0EF069EC31F060C500F1F2EC30F0B7
:10400000B5EC2EF004016D0E826F96EC0EF00401FB
:104010002C0E826F96EC0EF061C500F162C501F1C5
:1040200063C502F164C503F187EC2AF004012C0E8C
:10403000826F96EC0EF0A0EC0EF06CEF2AF083C3CA
:104040002AF184C32BF185C32CF186C32DF187C3DC
:104050002EF188C32FF189C330F18AC331F18BC3AC
:1040600032F18CC333F10101B7EC31F02EEC31F0B9
:10407000160E0C6E00C10BF04DEC0BF0170E0C6E13
:1040800001C10BF04DEC0BF0180E0C6E02C10BF0E1
:104090004DEC0BF0190E0C6E03C10BF04DEC0BF058
:1040A00000C18EF101C18FF102C190F103C191F104
:1040B00000C192F101C193F102C194F103C195F1E4
:1040C00001EF21F083C32AF184C32BF185C32CF1C6
:1040D00086C32DF187C32EF188C32FF189C330F138
:1040E0008AC331F18BC332F18CC333F10101B7ECD8
:1040F00031F02EEC31F000C18EF101C18FF102C11F
:1041000090F103C191F100C192F101C193F102C19B
:1041100094F103C195F101EF21F083C32AF184C327
:104120002BF185C32CF186C32DF187C32EF188C3F3
:104130002FF189C330F18AC331F18CC332F18DC3C1
:1041400033F10101B7EC31F02EEC31F00101000E3A
:10415000046F000E056F010E066F000E076F65EC11
:1041600030F01A0E0C6E00C10BF04DEC0BF01B0E74
:104170000C6E01C10BF04DEC0BF01C0E0C6E02C16D
:104180000BF04DEC0BF01D0E0C6E03C10BF04DEC63
:104190000BF000C196F101C197F102C198F103C182
:1041A00099F101EF21F083C32AF184C32BF185C378
:1041B0002CF186C32DF187C32EF188C32FF189C35B
:1041C00030F18AC331F18CC332F18DC333F1010177
:1041D000B7EC31F02EEC31F00101000E046F000E4F
:1041E000056F010E066F000E076F65EC30F000C121
:1041F00096F101C197F102C198F103C199F101EF64
:1042000021F0160E64EC0BF0E8CF00F1170E64EC11
:104210000BF0E8CF01F1180E64EC0BF0E8CF02F1DF
:10422000190E64EC0BF0E8CF03F1F2EC30F0B5ECD2
:104230002EF00401730E826F96EC0EF004012C0E2A
:10424000826F96EC0EF08EC100F18FC101F190C12A
:1042500002F191C103F1F2EC30F0B5EC2EF0040163
:10426000730E826F96EC0EF004012C0E826F96ECAA
:104270000EF01A0E64EC0BF0E8CF00F11B0E64ECAC
:104280000BF0E8CF01F11C0E64EC0BF0E8CF02F16B
:104290001D0E64EC0BF0E8CF03F187EC2AF004016B
:1042A0002C0E826F96EC0EF096C100F197C101F1D1
:1042B00098C102F199C103F187EC2AF0A0EC0EF04D
:1042C0006CEF2AF00401690E826F96EC0EF0040187
:1042D0002C0E826F96EC0EF00101040E006F000EA2
:1042E000016F000E026F000E036FF2EC30F02CC174
:1042F00082F40401300E822796EC0EF02DC182F478
:104300000401300E822796EC0EF02EC182F40401D7
:10431000300E822796EC0EF02FC182F40401300E8D
:10432000822796EC0EF030C182F40401300E822711
:1043300096EC0EF031C182F40401300E822796EC27
:104340000EF032C182F40401300E822796EC0EF09A
:1043500033C182F40401300E822796EC0EF0040182
:104360002C0E826F96EC0EF001010D0E006F000E08
:10437000016F000E026F000E036FF2EC30F02CC1E3
:1043800082F40401300E822796EC0EF02DC182F4E7
:104390000401300E822796EC0EF02EC182F4040147
:1043A000300E822796EC0EF02FC182F40401300EFD
:1043B000822796EC0EF030C182F40401300E822781
:1043C00096EC0EF031C182F40401300E822796EC97
:1043D0000EF032C182F40401300E822796EC0EF00A
:1043E00033C182F40401300E822796EC0EF00401F2
:1043F0002C0E826F96EC0EF001014B0E006F000E3A
:10440000016F000E026F000E036FF2EC30F02CC152
:1044100082F40401300E822796EC0EF02DC182F456
:104420000401300E822796EC0EF02EC182F40401B6
:10443000300E822796EC0EF02FC182F40401300E6C
:10444000822796EC0EF030C182F40401300E8227F0
:1044500096EC0EF031C182F40401300E822796EC06
:104460000EF032C182F40401300E822796EC0EF079
:1044700033C182F40401300E822796EC0EF0040161
:104480002C0E826F96EC0EF0200EF86EF76AF66A2C
:1044900004010900F5CF82F496EC0EF00900F5CF87
:1044A00082F496EC0EF00900F5CF82F496EC0EF053
:1044B0000900F5CF82F496EC0EF00900F5CF82F4F6
:1044C00096EC0EF00900F5CF82F496EC0EF00900A0
:1044D000F5CF82F496EC0EF00900F5CF82F496EC5D
:1044E0000EF0A0EC0EF06CEF2AF08351630AD8A412
:1044F0006AEF2AF08451610AD8A46AEF2AF0855144
:104500006C0AD8A46AEF2AF08651410A3FE086512E
:10451000440A1BE08651420AD8B4D9EF22F08651F2
:10452000350AD8B4F6EF2BF08651360AD8B44BEFE3
:104530002CF08651370AD8B4B4EF2CF08651380AE3
:10454000D8B412EF2DF06AEF2AF00798079A040109
:104550007A0E826F96EC0EF00401780E826F96EC64
:104560000EF00401640E826F96EC0EF00401550EFD
:10457000826F96EC0EF0C2EF22F004014C0E826FB7
:1045800096EC0EF0A0EC0EF06CEF2AF00788079A7C
:1045900004017A0E826F96EC0EF00401410E826FD8
:1045A00096EC0EF00401610E826F96EC0EF0B6EF01
:1045B00022F00798078A04017A0E826F96EC0EF0BB
:1045C0000401420E826F96EC0EF00401610E826FC0
:1045D00096EC0EF0B6EF22F001016667F7EF22F0DD
:1045E0006767F7EF22F06867F7EF22F0696716D088
:1045F00001014F6703EF23F0506703EF23F051678A
:1046000003EF23F052670AD00101000E006F000E85
:10461000016F000E026F000E036F120011B80AD076
:104620000101620E046F010E056F000E066F000E91
:10463000076F09D00101A70E046F020E056F000E6F
:10464000066F000E076F66C100F167C101F168C116
:1046500002F169C103F154EC30F003BFA0EF23F085
:10466000119A119C0101000E046FA80E056F550EE2
:10467000066F020E076F66C100F167C101F168C1E4
:1046800002F169C103F166C18AF167C18BF168C1AA
:104690008CF169C18DF154EC30F003BF0BD00101F6
:1046A000000E8A6FA80E8B6F550E8C6F020E8D6FE9
:1046B000118A119C0E0E64EC0BF0E8CF18F10F0E6E
:1046C00064EC0BF0E8CF19F1100E64EC0BF0E8CFBE
:1046D0001AF1110E64EC0BF0E8CF1BF19DEC2FF0FA
:1046E0008AC104F18BC105F18CC106F18DC107F1BE
:1046F00054EC30F0078261EC2FF09DEC2FF0079224
:1047000061EC2FF08AC100F18BC101F18CC102F183
:104710008DC103F1079261EC2FF0CC0E046FE00E17
:10472000056F870E066F050E076F54EC30F000C161
:1047300018F101C119F102C11AF103C11BF140D0F6
:1047400013AAA5EF23F0138E139A119C119A01015D
:10475000800E006F1A0E016F060E026F000E036FBF
:104760004FC104F150C105F151C106F152C107F129
:1047700054EC30F003AF05D069EC31F0118C119A94
:1047800012000E0E64EC0BF0E8CF18F10F0E64EC83
:104790000BF0E8CF19F1100E64EC0BF0E8CF1AF132
:1047A000110E64EC0BF0E8CF1BF14FC100F150C1CA
:1047B00001F151C102F152C103F1078261EC2FF006
:1047C00018C100F119C101F11AC102F11BC103F1B5
:1047D00012000784BAC166F1BBC167F1BCC168F1C0
:1047E000BDC169F14BC14FF14CC150F14DC151F107
:1047F0004EC152F157C159F158C15AF10794010104
:1048000066670AEF24F067670AEF24F068670AEF2B
:1048100024F0696716D001014F6716EF24F0506746
:1048200016EF24F0516716EF24F052670AD0010109
:10483000000E006F000E016F000E026F000E036F7E
:10484000120011B80AD00101620E046F010E056F4B
:10485000000E066F000E076F09D00101A70E046F4E
:10486000020E056F000E066F000E076F66C100F1A5
:1048700067C101F168C102F169C103F154EC30F084
:1048800003BFA2EF24F00101000E046FA80E056F14
:10489000550E066F020E076F66C100F167C101F188
:1048A00068C102F169C103F166C18AF167C18BF188
:1048B00068C18CF169C18DF154EC30F003BF09D0AF
:1048C0000101000E8A6FA80E8B6F550E8C6F020EC1
:1048D0008D6F9DEC2FF000C104F101C105F102C103
:1048E00006F103C107F1000E006FA00E016F980ED4
:1048F000026F7B0E036F85EC30F000C118F101C12F
:1049000019F102C11AF103C11BF1000E006FA00ED4
:10491000016F980E026F7B0E036F8AC104F18BC189
:1049200005F18CC106F18DC107F185EC30F018C19D
:1049300004F119C105F11AC106F11BC107F154ECCC
:1049400030F012000101A80E006F610E016F000E21
:10495000026F000E036F4FC104F150C105F151C148
:1049600006F152C107F154EC30F003AF0AD0010157
:10497000A80E006F610E016F000E026F000E036F34
:1049800000D0C80E006FAF0E016F000E026F000E58
:10499000036F4FC104F150C105F151C106F152C17D
:1049A00007F165EC30F012000401730E826F96EC93
:1049B0000EF004012C0E826F96EC0EF0078462C19B
:1049C00066F163C167F164C168F165C169F14BC10A
:1049D0004FF14CC150F14DC151F14EC152F157C18F
:1049E00059F158C15AF10794FAEC24F0A0EC0EF0FA
:1049F0006CEF2AF066C100F167C101F168C102F1F4
:104A000069C103F10101F2EC30F0B5EC2EF00401C4
:104A1000630E826F96EC0EF004012C0E826F96EC02
:104A20000EF04FC100F150C101F151C102F152C16C
:104A300003F10101F2EC30F0B5EC2EF00401660E4A
:104A4000826F96EC0EF004012C0E826F96EC0EF045
:104A500069EC31F059C100F15AC101F10101F2ECE8
:104A600030F0B5EC2EF00401740E826F96EC0EF06F
:104A7000120010820401530E826F96EC0EF00401B6
:104A80002C0E826F96EC0EF083C32AF184C32BF1B7
:104A900085C32CF186C32DF187C32EF188C32FF176
:104AA00089C330F18AC331F18BC332F18CC333F146
:104AB0000101B7EC31F02EEC31F000C166F101C11B
:104AC00067F102C168F103C169F18EC32AF18FC396
:104AD0002BF190C32CF191C32DF192C32EF193C30E
:104AE0002FF194C330F195C331F196C332F197C3DE
:104AF00033F10101B7EC31F02EEC31F000C14FF190
:104B000001C150F102C151F103C152F1AAEC31F0DF
:104B100099C32FF19AC330F19BC331F19CC332F199
:104B20009DC333F10101B7EC31F02EEC31F000C13F
:104B300059F101C15AF1FAEC24F004012C0E826FF4
:104B400096EC0EF0B4EF25F0118E1CA002D01CAE36
:104B5000108C1BBE02D01BA4108E03018251520A7E
:104B600002E10F8201D00F928251750A02E1108496
:104B700001D010948251550A02E1108601D010969E
:104B80008351310A03E11382138402D013921394E8
:104B900003018351660A01E056D00401660E826F5C
:104BA00096EC0EF004012C0E826F96EC0EF0E9EC00
:104BB00023F0F2EC30F02AC182F40401300E822797
:104BC00096EC0EF02BC182F40401300E822796EC95
:104BD0000EF02CC182F40401300E822796EC0EF008
:104BE0002DC182F40401300E822796EC0EF02EC106
:104BF00082F40401300E822796EC0EF02FC182F46D
:104C00000401300E822796EC0EF030C182F40401CC
:104C1000300E822796EC0EF031C182F40401300E82
:104C2000822796EC0EF032C182F40401300E822706
:104C300096EC0EF033C182F40401300E822796EC1C
:104C40000EF06AEF2AF011A003D011A401D0108455
:104C5000078410B28DEF26F010A471EF26F0BAC1D0
:104C600066F1BBC167F1BCC168F1BDC169F1BEC1EC
:104C70006AF1BFC16BF1C0C16CF1C1C16DF1C2C1BC
:104C80006EF1C3C16FF1C4C170F1C5C171F1C6C18C
:104C900072F1C7C173F1C8C174F1C9C175F1CAC15C
:104CA00076F1CBC177F1CCC178F1CDC179F1CEC12C
:104CB0007AF1CFC17BF1D0C17CF1D1C17DF1D2C1FC
:104CC0007EF1D3C17FF1D4C180F1D5C181F1D6C1CC
:104CD00082F1D7C183F1D8C184F1D9C185F179EFCF
:104CE00026F062C166F163C167F164C168F165C114
:104CF00069F1BAC186F1BBC187F1BCC188F1BDC100
:104D000089F14BC14FF14CC150F14DC151F14EC130
:104D100052F157C159F158C15AF107940FA0AFEFA2
:104D200026F0010196679CEF26F097679CEF26F02E
:104D300098679CEF26F09967A0EF26F0AFEF26F07A
:104D4000ECEC22F096C104F197C105F198C106F18F
:104D500099C107F154EC30F003BF30EF2AF0ECECCE
:104D600022F00101000E046F000E056F010E066FA8
:104D7000000E076F85EC30F011A02AD011A228D0C8
:104D8000F2EC30F0296701D005D004012D0E826FBE
:104D900096EC0EF030C182F40401300E822796ECBE
:104DA0000EF031C182F40401300E822796EC0EF031
:104DB00032C182F40401300E822796EC0EF033C12A
:104DC00082F40401300E822796EC0EF0A0EC0EF077
:104DD00012A8C5D012981DC01EF01E3A1E42070E22
:104DE0001E1600011E50000AD8B47BEF27F0000108
:104DF0001E50010AD8B407EF27F000011E50020A26
:104E0000D8B405EF27F0ADEF27F0ADEF27F069EC50
:104E100031F02DC001F12EC000F1D89001330033E4
:104E2000D890013300330101630E046F000E056F4B
:104E3000000E066F000E076F85EC30F0280E046F31
:104E4000000E056F000E066F000E076F54EC30F079
:104E500000C130F069EC31F02BC001F1019F019DE0
:104E60002CC000F10101A40E046F000E056F000EAE
:104E7000066F000E076F85EC30F000C12FF000C107
:104E800004F101C105F102C106F103C107F1640E8D
:104E9000006F000E016F000E026F000E036F54ECE6
:104EA00030F0050E046F000E056F000E066F000E49
:104EB000076F85EC30F000C104F101C105F102C1BA
:104EC00006F103C107F169EC31F030C000F154EC98
:104ED00030F000C131F031C0E8FF050F305C03E76E
:104EE0008A84ADEF27F031C0E8FF0A0F305C01E69D
:104EF0008A94ADEF27F000C124F101C125F102C170
:104F000026F103C127F169EC31F06FEC31F01D504F
:104F10001F0BE8CF00F10101640E046F000E056F56
:104F2000000E066F000E076F65EC30F024C104F12F
:104F300025C105F126C106F127C107F154EC30F077
:104F400003BF02D08A9401D08A8424C100F125C114
:104F500001F126C102F127C103F16CEF2AF000C173
:104F600024F101C125F102C126F103C127F110AEE0
:104F70004DD0109E00C108F101C109F102C10AF132
:104F800003C10BF1F2EC30F030C1E2F131C1E3F1D9
:104F900032C1E4F133C1E5F108C100F109C101F109
:104FA0000AC102F10BC103F101016C0E046F070E7F
:104FB000056F000E066F000E076F54EC30F003BF54
:104FC00004D00101550EE66F1CD008C100F109C1E3
:104FD00001F10AC102F10BC103F10101A40E046F3A
:104FE000060E056F000E066F000E076F54EC30F0D2
:104FF00003BF04D001017F0EE66F03D00101FF0E55
:10500000E66F1F8E11AE30EF2AF0119E24C100F121
:1050100025C101F126C102F127C103F111A005D07C
:1050200011A203D00FB030EF2AF010A41FEF28F028
:105030000401750E826F96EC0EF024EF28F0040147
:10504000720E826F96EC0EF004012C0E826F96ECBD
:105050000EF0F2EC30F0296733EF28F00401200E57
:10506000826F36EF28F004012D0E826F96EC0EF061
:1050700030C182F40401300E822796EC0EF031C16B
:1050800082F40401300E822796EC0EF004012E0EFD
:10509000826F96EC0EF032C182F40401300E82274A
:1050A00096EC0EF033C182F40401300E822796ECA8
:1050B0000EF004016D0E826F96EC0EF004012C0EC2
:1050C000826F96EC0EF04FC100F150C101F151C159
:1050D00002F152C103F10101F2EC30F0B5EC2EF017
:1050E0000401480E826F96EC0EF004017A0E826F76
:1050F00096EC0EF004012C0E826F96EC0EF066C159
:1051000000F167C101F168C102F169C103F1010158
:10511000F2EC30F0B5EC2EF00401630E826F96ECE9
:105120000EF004012C0E826F96EC0EF066C100F1B9
:1051300067C101F168C102F169C103F101010A0E01
:10514000046F000E056F000E066F000E076F65EC12
:1051500030F0000E046F120E056F000E066F000E89
:10516000076F85EC30F0F2EC30F02AC182F40401D4
:10517000300E822796EC0EF02BC182F40401300E23
:10518000822796EC0EF02CC182F40401300E8227A7
:1051900096EC0EF02DC182F40401300E822796ECBD
:1051A0000EF02EC182F40401300E822796EC0EF030
:1051B0002FC182F40401300E822796EC0EF030C12C
:1051C00082F40401300E822796EC0EF004012E0EBC
:1051D000826F96EC0EF031C182F40401300E82270A
:1051E00096EC0EF032C182F40401300E822796EC68
:1051F0000EF033C182F40401300E822796EC0EF0DB
:105200000401730E826F96EC0EF004012C0E826F77
:1052100096EC0EF069EC31F059C100F15AC101F180
:1052200096EC2BF013A264EF29F004012C0E826F90
:1052300096EC0EF086C166F187C167F188C168F10E
:1052400089C169F1ECEC22F00101000E046F000E3F
:10525000056F010E066F000E076F85EC30F0F2EC63
:1052600030F0296739EF29F00401200E826F3CEFFE
:1052700029F004012D0E826F96EC0EF030C182F4FD
:105280000401300E822796EC0EF031C182F4040145
:10529000300E822796EC0EF004012E0E826F96ECF3
:1052A0000EF032C182F40401300E822796EC0EF02B
:1052B00033C182F40401300E822796EC0EF0040113
:1052C0006D0E826F96EC0EF003018351460A01E0E9
:1052D0004FD004012C0E826F96EC0EF0E9EC23F017
:1052E000F2EC30F02AC182F40401300E822796ECF1
:1052F0000EF02BC182F40401300E822796EC0EF0E2
:105300002CC182F40401300E822796EC0EF02DC1E0
:1053100082F40401300E822796EC0EF02EC182F446
:105320000401300E822796EC0EF02FC182F40401A6
:10533000300E822796EC0EF030C182F40401300E5C
:10534000822796EC0EF031C182F40401300E8227E0
:1053500096EC0EF032C182F40401300E822796ECF6
:105360000EF033C182F40401300E822796EC0EF069
:1053700013A4DFEF29F004012C0E826F96EC0EF0DF
:1053800013ACCDEF29F00401500E826F96EC0EF0B5
:10539000139C1398139ADFEF29F013AEDAEF29F07C
:1053A0000401460E826F96EC0EF0139E1398139A2A
:1053B000DFEF29F00401530E826F96EC0EF037B048
:1053C000F6EF29F004012C0E826F96EC0EF08BB0F4
:1053D000F1EF29F00401440E826F96EC0EF0F6EF27
:1053E00029F00401530E826F96EC0EF00FB2FCEF21
:1053F00029F00FA02EEF2AF004012C0E826F96ECFC
:105400000EF0200EF86EF76AF66A04010900F5CF77
:1054100082F496EC0EF00900F5CF82F496EC0EF0D3
:105420000900F5CF82F496EC0EF00900F5CF82F476
:1054300096EC0EF00900F5CF82F496EC0EF0090020
:10544000F5CF82F496EC0EF00900F5CF82F496ECDD
:105450000EF00900F5CF82F496EC0EF0A0EC0EF001
:105460000F90109E12986CEF2AF00401630E826F69
:1054700096EC0EF004012C0E826F96EC0EF072EC9E
:105480002AF004012C0E826F96EC0EF0E5EC2AF067
:1054900004012C0E826F96EC0EF061EC2BF00401EF
:1054A0002C0E826F96EC0EF00101F80E006FCD0EFF
:1054B000016F660E026F030E036F87EC2AF0040182
:1054C0002C0E826F96EC0EF077EC2BF0A0EC0EF029
:1054D0006CEF2AF0A0EC0EF00301C26B0790109263
:1054E0007BEF2DF0D8900E0E64EC0BF0E8CF00F1BE
:1054F0000F0E64EC0BF0E8CF01F1100E64EC0BF032
:10550000E8CF02F1110E64EC0BF0E8CF03F10101DA
:10551000000E046F000E056F010E066F000E076F80
:1055200085EC30F0F2EC30F02AC182F40401300E48
:10553000822796EC0EF02BC182F40401300E8227F4
:1055400096EC0EF02CC182F40401300E822796EC0A
:105550000EF02DC182F40401300E822796EC0EF07D
:105560002EC182F40401300E822796EC0EF02FC17A
:1055700082F40401300E822796EC0EF030C182F4E2
:105580000401300E822796EC0EF031C182F4040142
:10559000300E822796EC0EF004012E0E826F96ECF0
:1055A0000EF032C182F40401300E822796EC0EF028
:1055B00033C182F40401300E822796EC0EF0040110
:1055C0006D0E826F96EC0EF01200120E64EC0BF072
:1055D000E8CF00F1130E64EC0BF0E8CF01F1140EEC
:1055E00064EC0BF0E8CF02F1150E64EC0BF0E8CFA1
:1055F00003F101010A0E046F000E056F000E066F25
:10560000000E076F65EC30F0000E046F120E056F90
:10561000000E066F000E076F85EC30F0F2EC30F0F4
:105620002AC182F40401300E822796EC0EF02BC1C1
:1056300082F40401300E822796EC0EF02CC182F425
:105640000401300E822796EC0EF02DC182F4040185
:10565000300E822796EC0EF02EC182F40401300E3B
:10566000822796EC0EF02FC182F40401300E8227BF
:1056700096EC0EF030C182F40401300E822796ECD5
:105680000EF004012E0E826F96EC0EF031C182F402
:105690000401300E822796EC0EF032C182F4040130
:1056A000300E822796EC0EF033C182F40401300EE6
:1056B000822796EC0EF00401730E826F96EC0EF0CA
:1056C00012000A0E64EC0BF0E8CF00F10B0E64EC54
:1056D0000BF0E8CF01F10C0E64EC0BF0E8CF02F117
:1056E0000D0E64EC0BF0E8CF03F196EF2BF0060EF5
:1056F00064EC0BF0E8CF00F1070E64EC0BF0E8CFA0
:1057000001F1080E64EC0BF0E8CF02F1090E64EC35
:105710000BF0E8CF03F196EF2BF0010169EC31F0CB
:10572000078457C100F158C101F107940101E80E47
:10573000046F800E056F000E066F000E076F65EC9C
:1057400030F0000E046F040E056F000E066F000EA1
:10575000076F85EC30F0880E046F130E056F000E96
:10576000066F000E076F54EC30F00A0E046F000E47
:10577000056F000E066F000E076F85EC30F0F2EC3F
:1057800030F001012967CAEF2BF00401200E826F6F
:10579000CDEF2BF004012D0E826F96EC0EF030C190
:1057A00082F40401300E822796EC0EF031C182F4AF
:1057B0000401300E822796EC0EF032C182F404010F
:1057C000300E822796EC0EF004012E0E826F96ECBE
:1057D0000EF033C182F40401300E822796EC0EF0F5
:1057E0000401430E826F96EC0EF0120087C32AF17B
:1057F00088C32BF189C32CF18AC32DF18BC32EF101
:105800008CC32FF18DC330F18EC331F190C332F1CF
:1058100091C333F10101296BB7EC31F02EEC31F07B
:105820000101000E046F000E056F010E066F000EE1
:10583000076F65EC30F00E0E0C6E00C10BF04DECF6
:105840000BF00F0E0C6E01C10BF04DEC0BF0100EB7
:105850000C6E02C10BF04DEC0BF0110E0C6E03C17F
:105860000BF04DEC0BF004017A0E826F96EC0EF00B
:1058700004012C0E826F96EC0EF00401350E826F3F
:1058800096EC0EF004012C0E826F96EC0EF072EC8A
:105890002AF0C2EF22F087C32AF188C32BF189C313
:1058A0002CF18AC32DF18BC32EF18CC32FF18DC344
:1058B00030F18EC331F190C332F191C333F1010164
:1058C000296BB7EC31F02EEC31F0880E046F130E1B
:1058D000056F000E066F000E076F59EC30F0000EDA
:1058E000046F040E056F000E066F000E076F65EC67
:1058F00030F00101E80E046F800E056F000E066F98
:10590000000E076F85EC30F00A0E0C6E00C10BF034
:105910004DEC0BF00B0E0C6E01C10BF04DEC0BF0CF
:105920000C0E0C6E02C10BF04DEC0BF00D0E0C6E5C
:1059300003C10BF04DEC0BF004017A0E826F96EC74
:105940000EF004012C0E826F96EC0EF00401360E60
:10595000826F96EC0EF004012C0E826F96EC0EF026
:1059600061EC2BF0C2EF22F087C32AF188C32BF140
:1059700089C32CF18AC32DF18BC32EF18CC32FF177
:105980008DC330F18FC331F190C332F191C333F144
:105990000101B7EC31F02EEC31F0000E046F120E65
:1059A000056F000E066F000E076F65EC30F0010109
:1059B0000A0E046F000E056F000E066F000E076FD3
:1059C00085EC30F0120E0C6E00C10BF04DEC0BF0BC
:1059D000130E0C6E01C10BF04DEC0BF0140E0C6E9F
:1059E00002C10BF04DEC0BF0150E0C6E03C10BF069
:1059F0004DEC0BF004017A0E826F96EC0EF0040170
:105A00002C0E826F96EC0EF00401370E826F96EC2E
:105A10000EF004012C0E826F96EC0EF0E5EC2AF0ED
:105A2000C2EF22F087C32AF188C32BF189C32CF17E
:105A30008AC32DF18BC32EF18CC32FF18DC330F1AE
:105A40008EC331F190C332F191C333F10101296B5F
:105A5000B7EC31F02EEC31F0880E046F130E056FA9
:105A6000000E066F000E076F59EC30F0000E046F49
:105A7000040E056F000E066F000E076F65EC30F028
:105A80000101E80E046F800E056F000E066F000E18
:105A9000076F85EC30F0060E0C6E00C10BF04DEC7C
:105AA0000BF0070E0C6E01C10BF04DEC0BF0080E65
:105AB0000C6E02C10BF04DEC0BF0090E0C6E03C125
:105AC0000BF04DEC0BF004017A0E826F96EC0EF0A9
:105AD00004012C0E826F96EC0EF00401380E826FDA
:105AE00096EC0EF004012C0E826F96EC0EF077EC23
:105AF0002BF0C2EF22F007A8EEEF2DF00101800E8F
:105B0000006F1A0E016F060E026F000E036F4BC17D
:105B100004F14CC105F14DC106F14EC107F154EC41
:105B200030F003BF34EF2EF0AFEC2EF04BC100F19C
:105B30004CC101F14DC102F14EC103F1078261EC8C
:105B40002FF018C104F119C105F11AC106F11BC1EA
:105B500007F1F80E006FCD0E016F660E026F030E97
:105B6000036F54EC30F00E0E0C6E00C10BF04DECD8
:105B70000BF00F0E0C6E01C10BF04DEC0BF0100E84
:105B80000C6E02C10BF04DEC0BF0110E0C6E03C14C
:105B90000BF04DEC0BF00784010169EC31F057C1BB
:105BA00000F158C101F107940A0E0C6E00C10BF010
:105BB0004DEC0BF00B0E0C6E01C10BF04DEC0BF02D
:105BC0000C0E0C6E02C10BF04DEC0BF00D0E0C6EBA
:105BD00003C10BF04DEC0BF034EF2EF007AA34EFBD
:105BE0002EF00784010169EC31F057C100F158C172
:105BF00001F10794060E0C6E00C10BF04DEC0BF09A
:105C0000070E0C6E01C10BF04DEC0BF0080E0C6E84
:105C100002C10BF04DEC0BF0090E0C6E03C10BF042
:105C20004DEC0BF0078462C100F163C101F164C166
:105C300002F165C103F10794120E0C6E00C10BF066
:105C40004DEC0BF0130E0C6E01C10BF04DEC0BF094
:105C5000140E0C6E02C10BF04DEC0BF0150E0C6E19
:105C600003C10BF04DEC0BF00798079A040180512B
:105C700081197F0B0DE09EA8FED714EE00F0815134
:105C80007F0BE126E750812B0F01AD6E36EF2EF032
:105C900005012F51000AD8B477EF2EF081BA5CEFDE
:105CA0002EF015B277EF2EF005012F51010AD8B46E
:105CB00075EF2EF06EEF2EF005012F51000AD8B4CB
:105CC0002EEF39F005012F51010AD8B475EF2EF0EF
:105CD00000011650050AD8B42EEF39F081B877EFDD
:105CE0002EF0B2EC32F0B0EC33F0C7EC38F0C4EF89
:105CF0000DF018C100F119C101F11AC102F11BC167
:105D000003F1000E046F000E056F010E066F000E0A
:105D1000076F85EC30F029A1A4EF2EF02051D8B404
:105D2000A4EF2EF018C100F119C101F11AC102F15E
:105D30001BC103F1000E046F000E056F0A0E066F03
:105D4000000E076F85EC30F01200010104510013C2
:105D500005510113065102130751031312000101EB
:105D6000186B196B1A6B1B6B12002AC182F40401A9
:105D7000300E822796EC0EF02BC182F40401300E17
:105D8000822796EC0EF02CC182F40401300E82279B
:105D900096EC0EF02DC182F40401300E822796ECB1
:105DA0000EF02EC182F40401300E822796EC0EF024
:105DB0002FC182F40401300E822796EC0EF030C120
:105DC00082F40401300E822796EC0EF031C182F489
:105DD0000401300E822796EC0EF032C182F40401E9
:105DE000300E822796EC0EF033C182F40401300E9F
:105DF000822796EC0EF012002FC182F40401300EBF
:105E0000822796EC0EF030C182F40401300E822716
:105E100096EC0EF031C182F40401300E822796EC2C
:105E20000EF032C182F40401300E822796EC0EF09F
:105E300033C182F40401300E822796EC0EF012007A
:105E4000060E216E060E226E060E236E212E26EF02
:105E50002FF0222E26EF2FF0232E26EF2FF08B840B
:105E6000020E216E020E226E020E236E212E36EFDE
:105E70002FF0222E36EF2FF0232E36EF2FF08B94BB
:105E80001200FF0E226E22C023F0030E216E8B84BF
:105E9000212E47EF2FF0030E216E232E47EF2FF018
:105EA0008B9422C023F0030E216E212E55EF2FF08C
:105EB000030E216E233E55EF2FF0222E43EF2FF0DD
:105EC00012000101005305E1015303E1025301E116
:105ED000002B24EC30F069EC31F03951006F3A516D
:105EE000016F420E046F4B0E056F000E066F000E21
:105EF000076F65EC30F000C104F101C105F102C18A
:105F000006F103C107F118C100F119C101F11AC16D
:105F100002F11BC103F107B292EF2FF059EC30F000
:105F200094EF2FF054EC30F000C118F101C119F1D9
:105F300002C11AF103C11BF1120069EC31F059C121
:105F400000F15AC101F1060E64EC0BF0E8CF04F148
:105F5000070E64EC0BF0E8CF05F1080E64EC0BF0D3
:105F6000E8CF06F1090E64EC0BF0E8CF07F154EC32
:105F700030F000C124F101C125F102C126F103C1B5
:105F800027F1290E046F000E056F000E066F000E3C
:105F9000076F65EC30F0EE0E046F430E056F000ED8
:105FA000066F000E076F59EC30F024C104F125C1D3
:105FB00005F126C106F127C107F165EC30F000C1FB
:105FC0001CF101C11DF102C11EF103C11FF1120E2E
:105FD00064EC0BF0E8CF04F1130E64EC0BF0E8CFA7
:105FE00005F1140E64EC0BF0E8CF06F1150E64EC2D
:105FF0000BF0E8CF07F10D0E006F000E016F000EE1
:10600000026F000E036F65EC30F0180E046F000E87
:10601000056F000E066F000E076F85EC30F01CC197
:1060200004F11DC105F11EC106F11FC107F159ECB4
:1060300030F06A0E046F2A0E056F000E066F000E18
:10604000076F54EC30F01200BF0EFA6E200E3A6F5C
:10605000396BD8900037013702370337D8B035EFA6
:1060600030F03A2F2AEF30F039073A070353D8B40B
:1060700012000331070B80093F6F03390F0B010F2B
:10608000396F80EC5FF0406F390580EC5FF0405D68
:10609000405F396B3F33D8B0392739333FA94AEFD6
:1060A00030F040513927120001018EEC31F0D8B0A8
:1060B0001200010103510719346F51EC31F0D890EF
:1060C0000751031934AF800F12000101346B75ECD6
:1060D00031F0D8A08BEC31F0D8B0120060EC31F088
:1060E00069EC31F01F0E366FA1EC31F00B35D8B0F2
:1060F00051EC31F0D8A00335D8B01200362F74EF30
:1061000030F034B178EC31F012000101346B0451FD
:106110000511061107110008D8A075EC31F0D8A0C0
:106120008BEC31F0D8B01200086B096B0A6B0B6B6B
:10613000A1EC31F01F0E366FA1EC31F007510B5D71
:10614000D8A4AFEF30F006510A5DD8A4AFEF30F01D
:106150000551095DD8A4AFEF30F00451085DD8A017
:10616000C2EF30F00451085F0551D8A0053D095F2A
:106170000651D8A0063D0A5F0751D8A0073D0B5F26
:10618000D8900081362F9CEF30F034B178EC31F0AC
:10619000346B75EC31F0D890A5EC31F007510B5D04
:1061A000D8A4DFEF30F006510A5DD8A4DFEF30F05D
:1061B0000551095DD8A4DFEF30F00451085DD8A087
:1061C000EEEF30F0003FEEEF30F0013FEEEF30F059
:1061D000023FEEEF30F0032BD8B4120034B178EC6C
:1061E00031F012000101346B75EC31F0D8B01200BF
:1061F000AAEC31F0200E366F003701370237033733
:1062000011EE33F00A0E376FE7360A0EE75CD8B0AE
:10621000E76EE552372F04EF31F0362FFCEF30F008
:1062200034B12981D8901200AAEC31F0200E366FDB
:10623000003701370237033711EE33F00A0E376F9C
:10624000E7360A0EE75CD8B0E76EE552372F20EF4D
:1062500031F0362F18EF31F0D890120001010A0EFC
:10626000346F200E366F11EE29F03451376F0A0E5D
:10627000D890E652D8B0E726E732372F39EF31F021
:106280000333023301330033362F33EF31F0E7505D
:10629000FF0FD8A00335D8B0120029B178EC31F047
:1062A0001200045100270551D8B0053D01270651C1
:1062B000D8B0063D02270751D8B0073D032712008A
:1062C0000051086F0151096F02510A6F03510B6FA2
:1062D00012000101006B016B026B036B12000101E4
:1062E000046B056B066B076B12000335D8A0120018
:1062F0000351800B001F011F021F031F003F88EF87
:1063000031F0013F88EF31F0023F88EF31F0032B8D
:10631000342B032512000735D8A012000751800B3B
:10632000041F051F061F071F043F9EEF31F0053FA6
:106330009EEF31F0063F9EEF31F0072B342B0725FF
:1063400012000037013702370337083709370A3799
:106350000B3712000101296B2A6B2B6B2C6B2D6BF9
:106360002E6B2F6B306B316B326B336B1200010174
:106370002A510F0B2A6F2B510F0B2B6F2C510F0B28
:106380002C6F2D510F0B2D6F2E510F0B2E6F2F5188
:106390000F0B2F6F30510F0B306F31510F0B316FCF
:1063A00032510F0B326F33510F0B336F120000C19C
:1063B00024F101C125F102C126F103C127F104C175
:1063C00000F105C101F106C102F107C103F124C1C9
:1063D00004F125C105F126C106F127C107F112001C
:1063E00010A806D08994000EC76E220EC66E05D086
:1063F0008984000EC76E220EC66E050EE82EFED7EB
:10640000120010A802D0898401D08994050EE82ECC
:10641000FED71200F0EC31F09E96C69E000EC96EBB
:10642000FF0E9EB602D0E82EFCD79E96C69E000EAA
:10643000C96EFF0E9EB602D0E82EFCD7C9CFAFF5CD
:106440009E96C69E000EC96EFF0E9EB602D0E82E26
:10645000FCD7C9CFB0F59E96C69E000EC96EFF0E42
:106460009EB602D0E82EFCD7C9CFB1F59E96C69E47
:10647000000EC96EFF0E9EB602D0E82EFCD7C9CF23
:10648000B2F59E96C69E000EC96EFF0E9EB602D055
:10649000E82EFCD7C9CFB3F59E96C69E000EC96EF6
:1064A000FF0E9EB602D0E82EFCD7C9CFB4F59E965B
:1064B000C69E000EC96EFF0E9EB602D0E82EFCD717
:1064C000C9CFB5F501EC32F01200F0EC31F09E9638
:1064D000C69E800EC96EFF0E9EB602D0E82EFCD777
:1064E0009E96C69EAFC5C9FFFF0E9EB602D0E82E8F
:1064F000FCD79E96C69EB0C5C9FFFF0E9EB602D0C1
:10650000E82EFCD79E96C69EB1C5C9FFFF0E9EB66B
:1065100002D0E82EFCD79E96C69EB2C5C9FFFF0EDC
:106520009EB602D0E82EFCD79E96C69EB3C5C9FF84
:10653000FF0E9EB602D0E82EFCD79E96C69EB4C52E
:10654000C9FFFF0E9EB602D0E82EFCD79E96C69ECF
:10655000B5C5C9FFFF0E9EB602D0E82EFCD701ECF0
:1065600032F01200F0EC31F09E96C69E070EC96E16
:10657000FF0E9EB602D0E82EFCD79E96C69E000E59
:10658000C96EFF0E9EB602D0E82EFCD7C9CFAFF57C
:106590009E96C69E000EC96EFF0E9EB602D0E82ED5
:1065A000FCD7C9CFB0F59E96C69E000EC96EFF0EF1
:1065B0009EB602D0E82EFCD7C9CFB1F59E96C69EF6
:1065C000000EC96EFF0E9EB602D0E82EFCD7C9CFD2
:1065D000B2F501EC32F0F0EC31F09E96C69E25C08B
:1065E000C9FFFF0E9EB602D0E82EFCD79E96C69E2F
:1065F000000EC96EFF0E9EB602D0E82EFCD7C9CFA2
:10660000B6F501EC32F01200F0EC31F09E96C69E29
:10661000870EC96EFF0E9EB602D0E82EFCD79E965E
:10662000C69EAFC5C9FFFF0E9EB602D0E82EFCD7AE
:106630009E96C69EB0C5C9FFFF0E9EB602D0E82E3C
:10664000FCD79E96C69EB1C5C9FFFF0E9EB602D06E
:10665000E82EFCD79E96C69EB2C5C9FFFF0E9EB619
:1066600002D0E82EFCD701EC32F0F0EC31F09E962F
:10667000C69E26C0C9FFFF0E9EB602D0E82EFCD7EC
:106680009E96C69EB6C5C9FFFF0E9EB602D0E82EE6
:10669000FCD701EC32F01200F0EC31F09E96C69E71
:1066A000870EC96EFF0E9EB602D0E82EFCD79E96CE
:1066B000C69E000EC96EFF0E9EB602D0E82EFCD715
:1066C0009E96C69E800EC96EFF0E9EB602D0E82E24
:1066D000FCD79E96C69E800EC96EFF0E9EB602D057
:1066E000E82EFCD79E96C69E800EC96EFF0E9EB603
:1066F00002D0E82EFCD701EC32F01200F0EC31F0C1
:106700009E96C69E870EC96EFF0E9EB602D0E82EDC
:10671000FCD79E96C69E000EC96EFF0E9EB602D096
:10672000E82EFCD79E96C69E000EC96EFF0E9EB642
:1067300002D0E82EFCD79E96C69E800EC96EFF0E34
:106740009EB602D0E82EFCD79E96C69E800EC96EDD
:10675000FF0E9EB602D0E82EFCD701EC32F01200FC
:1067600010A817D0F0EC31F09E96C69E8F0EC96E21
:10677000FF0E9EB602D0E82EFCD79E96C69E000E57
:10678000C96EFF0E9EB602D0E82EFCD701EC32F0A7
:106790001200B2EC32F0120010A82DD0F0EC31F063
:1067A0009E96C69E26C0C9FFFF0E9EB602D0E82E5A
:1067B000FCD79E96C69E450EC96EFF0E9EB602D0B1
:1067C000E82EFCD701EC32F0F0EC31F09E96C69E3C
:1067D0008F0EC96EFF0E9EB602D0E82EFCD79E9695
:1067E000C69E000EC96EFF0E9EB602D0E82EFCD7E4
:1067F00001EC32F01200F0EC31F09E96C69E26C0FD
:10680000C9FFFF0E9EB602D0E82EFCD79E96C69E0C
:10681000010EC96EFF0E9EB602D0E82EFCD701EC29
:1068200032F0F0EC31F09E96C69E910EC96EFF0ECE
:106830009EB602D0E82EFCD79E96C69EA50EC96EC7
:10684000FF0E9EB602D0E82EFCD701EC32F012000B
:10685000F0EC31F09E96C69E26C0C9FFFF0E9EB694
:1068600002D0E82EFCD79E96C69E810EC96EFF0E02
:106870009EB602D0E82EFCD701EC32F01200F0EC0C
:1068800031F09E96C69E26C0C9FFFF0E9EB602D06E
:10689000E82EFCD79E96C69E010EC96EFF0E9EB6D0
:1068A00002D0E82EFCD701EC32F01200F0EC31F00F
:1068B0009E96C69E910EC96EFF0E9EB602D0E82E21
:1068C000FCD79E96C69EA50EC96EFF0E9EB602D040
:1068D000E82EFCD701EC32F01200F0EC31F09E967D
:1068E000C69E910EC96EFF0E9EB602D0E82EFCD752
:1068F0009E96C69E000EC96EFF0E9EB602D0E82E72
:10690000FCD701EC32F012000501256B266B276BDA
:10691000286B899A400EC76E200EC66E9E96C69E44
:10692000030EC96EFF0E9EB602D0E82EFCD79E96CF
:10693000C69E27C5C9FFFF0E9EB602D0E82EFCD723
:106940009E96C69E26C5C9FFFF0E9EB602D0E82EB3
:10695000FCD79E96C69E25C5C9FFFF0E9EB602D0E7
:10696000E82EFCD79E96C69EC952FF0E9EB602D058
:10697000E82EFCD7898A0F01C950FF0A01E11200F5
:1069800005012E51130A05E005012E51170A0CE0EE
:1069900012000501E00E256FFF0E266F0F0E276F08
:1069A000000E286FDDEF34F00501E00E256FFF0EBD
:1069B000266FFF0E276F000E286F899A400EC76E54
:1069C000200EC66E9E96C69E030EC96EFF0E9EB624
:1069D00002D0E82EFCD79E96C69E27C5C9FFFF0EA3
:1069E0009EB602D0E82EFCD79E96C69E26C5C9FF4D
:1069F000FF0E9EB602D0E82EFCD79E96C69E25C5F9
:106A0000C9FFFF0E9EB602D0E82EFCD79E96C69E0A
:106A1000C952FF0E9EB602D0E82EFCD7898A0F011C
:106A2000C950FF0A1DE005012E51130A05E00501BA
:106A30002E51170A0BE012000501000E256F000E03
:106A4000266F100E276F000E286F12000501000E32
:106A5000256F000E266F000E276F010E286F1200A3
:106A60000501256B266B276B286B05012E51130A38
:106A700005E005012E51170A0CE012000501000E79
:106A8000216F000E226F080E236F000E246F52EF4D
:106A900035F00501000E216F000E226F800E236F6E
:106AA000000E246F21C500F122C501F123C502F1BA
:106AB00024C503F125C504F126C505F127C506F156
:106AC00028C507F1A5EC2EF000C125F501C126F57A
:106AD00002C127F503C128F5899A400EC76E200E22
:106AE000C66E9E96C69E030EC96EFF0E9EB602D05F
:106AF000E82EFCD79E96C69E27C5C9FFFF0E9EB600
:106B000002D0E82EFCD79E96C69E26C5C9FFFF0E72
:106B10009EB602D0E82EFCD79E96C69E25C5C9FF1C
:106B2000FF0E9EB602D0E82EFCD79E96C69EC95296
:106B3000FF0E9EB602D0E82EFCD7898AC950FF0A04
:106B400008E104C125F505C126F506C127F507C1F1
:106B500028F5D890050124332333223321332151E2
:106B6000E00B216F05012167BDEF35F02267BDEF16
:106B700035F02367BDEF35F0246752EF35F005019E
:106B8000200E2527E86A2623E86A2723E86A2823B7
:106B90001200E86A05012E51130A06E005012E5184
:106BA000170A0BE0020E120005012851000A03E14A
:106BB0002751F00B07E0010E120005012851000AD1
:106BC00001E0010E120029C500F12AC501F12BC513
:106BD00002F12CC503F125C504F126C505F127C531
:106BE00006F128C507F154EC30F003BF1200C9ECE0
:106BF00035F0D8A45BEF36F0899A400EC76E200EB0
:106C0000C66E9E96C69E060EC96EFF0E9EB602D03A
:106C1000E82EFCD7898A899A9E96C69E020EC96E76
:106C2000FF0E9EB602D0E82EFCD79E96C69E27C5C4
:106C3000C9FFFF0E9EB602D0E82EFCD79E96C69ED8
:106C400026C5C9FFFF0E9EB602D0E82EFCD79E9641
:106C5000C69E25C5C9FFFF0E9EB602D0E82EFCD702
:106C60009E96C69E000EC96EFF0E9EB602D0E82EFE
:106C7000FCD7898A899A9E96C69E050EC96EFF0E1C
:106C80009EB602D0E82EFCD79E96C69EC952FF0E35
:106C90009EB602D0E82EFCD7C9B044EF36F0898A00
:106CA0000501200E2527E86A2623E86A2723E86ADB
:106CB0002823E3EF35F01200899A400EC76E200EAC
:106CC000C66E9E96C69E060EC96EFF0E9EB602D07A
:106CD000E82EFCD7898A899A9E96C69EC70EC96EF1
:106CE000FF0E9EB602D0E82EFCD7898A0501256BDF
:106CF000266B276B286B1200899A400EC76E200EF8
:106D0000C66E9E96C69E050EC96EFF0E9EB602D03A
:106D1000E82EFCD79E96C69EC952FF0E9EB602D0A4
:106D2000E82EFCD7C9CF37F5898A1200899A400E20
:106D3000C76E200EC66E9E96C69EB90EC96EFF0E19
:106D40009EB602D0E82EFCD7898A1200899A400E9E
:106D5000C76E200EC66E9E96C69EAB0EC96EFF0E07
:106D60009EB602D0E82EFCD7898AFF0EE82EFED709
:106D70001200C9EC35F0D8A41200899A400EC76EF3
:106D8000200EC66E9E96C69E030EC96EFF0E9EB660
:106D900002D0E82EFCD79E96C69E27C5C9FFFF0EDF
:106DA0009EB602D0E82EFCD79E96C69E26C5C9FF89
:106DB000FF0E9EB602D0E82EFCD79E96C69E25C535
:106DC000C9FFFF0E9EB602D0E82EFCD79E96C69E47
:106DD000C952FF0E9EB602D0E82EFCD7898A0F0159
:106DE000C950FF0AD8A438EF38F00501FE0E376FFE
:106DF0000501FF0E536FFF0E546FFF0E556FFF0E10
:106E0000566F15A6379915860AEC32F0AFC538F5DE
:106E1000B0C539F5B1C53AF5B2C53BF5B3C53CF5DA
:106E2000B4C53DF5B5C53EF50784BAC166F1BBC131
:106E300067F1BCC168F1BDC169F14BC14FF14CC1F3
:106E400050F14DC151F14EC152F157C159F158C1E4
:106E50005AF100011650010AD8B43DEF37F0000195
:106E60001650020AD8B462EF37F000011650040A37
:106E7000D8B487EF37F038EF38F00501476B486B2F
:106E8000496B4A6B05014B6B4C6B4D6B4E6B0501AF
:106E90004F6B506B516B526B8BA0379BECEC22F01D
:106EA00000C1DAF101C1DBF102C1DCF103C1DDF1A6
:106EB00000C13FF501C140F502C141F503C142F5F2
:106EC000A6EF37F00501476B486B496B4A6B05012C
:106ED0004B6B4C6B4D6B4E6B05014F6B506B516B9D
:106EE000526BECEC22F000C1DAF101C1DBF102C11E
:106EF000DCF103C1DDF1E9EC23F000C147F501C18C
:106F000048F502C149F503C14AF538EF38F0379B1F
:106F1000DAC13FF5DBC140F5DCC141F5DDC142F529
:106F2000ECEC22F000C14BF501C14CF502C14DF56E
:106F300003C14EF5E9EC23F000C14FF501C150F556
:106F400002C151F503C152F5A6EF37F005016167A3
:106F5000B1EF37F06267B1EF37F06367B1EF37F049
:106F60006467B5EF37F0CAEF37F0DAC100F1DBC183
:106F700001F1DCC102F1DDC103F161C504F162C5BB
:106F800005F163C506F164C507F154EC30F003BFA9
:106F900038EF38F059C143F55AC144F5B9C545F544
:106FA0000501210E326F899A400EC76E200EC66E03
:106FB0009E96C69E060EC96EFF0E9EB602D0E82EA5
:106FC000FCD7898A899A9E96C69E020EC96EFF0ECC
:106FD0009EB602D0E82EFCD79E96C69E27C5C9FF56
:106FE000FF0E9EB602D0E82EFCD79E96C69E26C502
:106FF000C9FFFF0E9EB602D0E82EFCD79E96C69E15
:1070000025C5C9FFFF0E9EB602D0E82EFCD725EE9F
:1070100037F0322F02D018EF38F09E96C69EDECFA2
:10702000C9FFFF0E9EB602D0E82EFCD709EF38F05C
:10703000898A899A9E96C69E050EC96EFF0E9EB6D7
:1070400002D0E82EFCD79E96C69EC952FF0E9EB671
:1070500002D0E82EFCD7C9B023EF38F0898A0501A9
:10706000200E2527E86A2623E86A2723E86A2823D2
:1070700015900794120021C500F122C501F123C526
:1070800002F124C503F1899A400EC76E200EC66E28
:107090009E96C69E0B0EC96EFF0E9EB602D0E82EBF
:1070A000FCD79E96C69E02C1C9FFFF0E9EB602D0B7
:1070B000E82EFCD79E96C69E01C1C9FFFF0E9EB664
:1070C00002D0E82EFCD79E96C69E00C1C9FFFF0ED7
:1070D0009EB602D0E82EFCD79E96C69EC952FF0EE1
:1070E0009EB602D0E82EFCD725EE37F00501200E23
:1070F000326F9E96C69EC952FF0E9EB602D0E82EF3
:10710000FCD7C9CFDEFF322F79EF38F0898A120021
:10711000899A400EC76E200EC66E9E96C69E900E31
:10712000C96EFF0E9EB602D0E82EFCD79E96C69E74
:10713000000EC96EFF0E9EB602D0E82EFCD79E96BA
:10714000C69E000EC96EFF0E9EB602D0E82EFCD77A
:107150009E96C69E000EC96EFF0E9EB602D0E82E09
:10716000FCD79E96C69EC952FF0E9EB602D0E82E50
:10717000FCD7C9CF2DF59E96C69EC952FF0E9EB66E
:1071800002D0E82EFCD7C9CF2EF5898A12000AEC6E
:1071900032F005012F51010A5FE005012F51020A6B
:1071A00016E005012F51030A19E005012F51040AC9
:1071B00024E005012F51050A2BE005012F51060A95
:1071C00039E005012F51070A3FE02CEF39F0602F1D
:1071D0002AEF39F05FC560F52CEF39F0B0C500F14A
:1071E00001010F0E001701010051000A35E00101F5
:1071F0000051050A31E02AEF39F0B0C500F1010174
:107200000F0E001701010051000A26E02AEF39F0A5
:107210000501B051000A20E00501B051150A1CE03B
:107220000501B051300A18E00501B051450A14E0DB
:107230002AEF39F00501B051000A0EE00501B05106
:10724000300A0AE02AEF39F00501B051000A04E0E3
:107250002AEF39F015901200158012008B9020EC67
:107260002FF0B9C5E8FFD70802E320EC2FF0B9C52D
:10727000E8FFC80802E320EC2FF0B9C5E8FFB90821
:1072800002E320EC2FF0B9C5E8FFAA0802E320ECE6
:107290002FF0B9C5E8FF9B0802E320EC2FF096EC35
:1072A00036F0F29CF29E8B94C69AC2909482948C93
:1072B000720ED36ED3A4FED789968A909390F29AD9
:1072C000F2949D909E909D929E92F298F292B0ECD4
:1072D00033F0FF0EE8CF00F0E82EFED7002EFCD7EB
:1072E000F290F286815081A878EF39F0F29E030087
:1072F000700ED36EF296F2901584038041EC2FF05D
:047300009AEF0BF005
:10BF0000E844F926000C160C2B0C3F0C520C640C68
:10BF1000760C860C960CA50CB30CC10CCF0CDC0C6B
:06BF2000E80CF40C000C1B
:0200000400F00A
:0100C800FE39
:00000001FF
