:020000040000FA
:0408000038EF09F0D4
:1008100003B26EEF05F0F2B48CEF05F09EB094EFEA
:1008200005F09EB29CEF05F0F2A81AEF04F0F2B2C8
:100830001CEF04F0E7EF08F0CD90F2929EA026EFB7
:1008400004F00101533F26EF04F0542BB2C1B6F17E
:10085000B3C1B7F1B4C1B8F1B5C1B9F1AEC1B2F12C
:10086000AFC1B3F1B0C1B4F1B1C1B5F1AAC1AEF13C
:10087000ABC1AFF1ACC1B0F1ADC1B1F1A6C1AAF14C
:10088000A7C1ABF1A8C1ACF1A9C1ADF1A2C1A6F15C
:10089000A3C1A7F1A4C1A8F1A5C1A9F19EC1A2F16C
:1008A0009FC1A3F1A0C1A4F1A1C1A5F19AC19EF17C
:1008B0009BC19FF19CC1A0F19DC1A1F1CECF9AF146
:1008C000CFCF9BF153C19CF154C19DF1CF6ACE6A49
:1008D0000101536B546B9E90CD800FBC0F8E0FBAED
:1008E00075EF04F00F8AE7EF08F013880F8C0FBE46
:1008F000B2EF04F09AC19EF19BC19FF19CC1A0F19F
:100900009DC1A1F19EC1A2F19FC1A3F1A0C1A4F11B
:10091000A1C1A5F1A2C1A6F1A3C1A7F1A4C1A8F1EB
:10092000A5C1A9F1A6C1AAF1A7C1ABF1A8C1ACF1BB
:10093000A9C1ADF1AAC1AEF1ABC1AFF1ACC1B0F18B
:10094000ADC1B1F1AEC1B2F1AFC1B3F1B0C1B4F15B
:10095000B1C1B5F1B2C1B6F1B3C1B7F1B4C1B8F12B
:10096000B5C1B9F101015E6B5F6B606B616B9A5150
:100970005E279B515F239C5160239D5161239E51B3
:100980005E279F515F23A0516023A1516123A25193
:100990005E27A3515F23A4516023A5516123A65173
:1009A0005E27A7515F23A8516023A9516123AA5153
:1009B0005E27AB515F23AC516023AD516123AE5133
:1009C0005E27AF515F23B0516023B1516123B25113
:1009D0005E27B3515F23B4516023B5516123B651F3
:1009E0005E27B7515F23B8516023B9516123D89076
:1009F0000101613360335F335E33D89001016133AD
:100A000060335F335E33D8900101613360335F330D
:100A10005E3300C10CF101C10DF102C10EF103C141
:100A20000FF104C110F105C111F106C112F107C1A6
:100A300013F108C114F109C115F10AC116F10BC176
:100A400017F134C135F111B831EF05F00101620E33
:100A5000046F010E056F000E066F000E076F3AEF70
:100A600005F00101A70E046F020E056F000E066F60
:100A7000000E076F5EC100F15FC101F160C102F1BC
:100A800061C103F1CAEC1FF003BF04D019BE02D04C
:100A900019A0108C11A052EF05F010BA52EF05F01A
:100AA0000F80108A0CC100F10DC101F10EC102F1DD
:100AB0000FC103F110C104F111C105F112C106F11A
:100AC00013C107F114C108F115C109F116C10AF1EA
:100AD00017C10BF135C134F1E7EF08F00392ABB267
:100AE000AB98AB88030103EE00F080517F0BE92641
:100AF00004C0EFFF802B8151805D700BD8A48B82E6
:100B000000008051815D700BD8A48B9281518019B7
:100B1000D8B40790E7EF08F0F2940101453FE7EF02
:100B200008F0462BE7EF08F09E900101533FE7EFF6
:100B300008F0542BE7EF08F09E9211B811EF07F080
:100B40008BB4AAEF05F010ACAAEF05F08B84109CD3
:100B5000ABEF05F08B94C3CF55F1C4CF56F1C282F1
:100B600007B41AEF06F047C14BF148C14CF149C137
:100B70004DF14AC14EF15EC162F15FC163F160C1E6
:100B800064F161C165F113A8C8EF05F0138C1398E7
:100B90009AC1BAF19BC1BBF19CC1BCF19DC1BDF131
:100BA0009EC1BEF19FC1BFF1A0C1C0F1A1C1C1F101
:100BB000A2C1C2F1A3C1C3F1A4C1C4F1A5C1C5F1D1
:100BC000A6C1C6F1A7C1C7F1A8C1C8F1A9C1C9F1A1
:100BD000AAC1CAF1ABC1CBF1ACC1CCF1ADC1CDF171
:100BE000AEC1CEF1AFC1CFF1B0C1D0F1B1C1D1F141
:100BF000B2C1D2F1B3C1D3F1B4C1D4F1B5C1D5F111
:100C0000B6C1D6F1B7C1D7F1B8C1D8F1B9C1D9F1E0
:100C1000010155515B2756515C23E86A5D230E2E76
:100C20001AEF06F05CC157F15DC158F15B6B5C6B6C
:100C30005D6B078E0201002FE7EF08F03C0E006F9E
:100C40001A50E00BE00AE866128818BE02D018B409
:100C5000108E00C10CF101C10DF102C10EF103C1F2
:100C60000FF104C110F105C111F106C112F107C164
:100C700013F108C114F109C115F10AC116F10BC134
:100C800017F134C135F101018E674EEF06F08F6721
:100C90004EEF06F090674EEF06F0916752EF06F0C8
:100CA00082EF06F092C100F193C101F194C102F10B
:100CB00095C103F10101010E046F000E056F000ED6
:100CC000066F000E076FCAEC1FF000C192F101C160
:100CD00093F102C194F103C195F1006777EF06F03B
:100CE000016777EF06F0026777EF06F0036782EFA0
:100CF00006F08EC192F18FC193F190C194F191C130
:100D000095F10F80D57ED5BE6ED0D6CF47F1D7CF27
:100D100048F145C149F1E86AE8CF4AF1138A19BEA2
:100D200002D019A0108C109047C100F148C101F108
:100D300049C102F14AC103F101010A0E046F000E1C
:100D4000056F000E066F000E076FCAEC1FF003AFB1
:100D50001080010154A7B9EF06F00F9A0F9C0F9E67
:100D60000101000E5E6F600E5F6F3D0E606F080E3A
:100D7000616F010147BFC9EF06F04867C9EF06F090
:100D80004967C9EF06F04A67C9EF06F0F288EEEF4F
:100D900006F0F2985E6B5F6B606B616B9A6B9B6B9E
:100DA0009C6B9D6B9E6B9F6BA06BA16BA26BA36BEF
:100DB000A46BA56BA66BA76BA86BA96BAA6BAB6B9F
:100DC000AC6BAD6BAE6BAF6BB06BB16BB26BB36B4F
:100DD000B46BB56BB66BB76BB86BB96BD76AD66AC9
:100DE0000101456B466B0CC100F10DC101F10EC153
:100DF00002F10FC103F110C104F111C105F112C1DB
:100E000006F113C107F114C108F115C109F116C1AA
:100E10000AF117C10BF135C134F1E7EF08F0E7EF44
:100E200008F00201002F6BEF08F0D59ED6CF47F1F6
:100E3000D7CF48F145C149F1E86AE8CF4AF1138AB2
:100E4000D76AD66A0101456B466BD58E1A50E00B06
:100E5000E00AE866128818BE02D018B4108E17AEE9
:100E60001C8C00C10CF101C10DF102C10EF103C1D6
:100E70000FF104C110F105C111F106C112F107C152
:100E800013F108C114F109C115F10AC116F10BC122
:100E900017F134C135F10FA0109A11B85BEF07F0CC
:100EA0000101620E046F010E056F000E066F000E49
:100EB000076F64EF07F00101A70E046F020E056FC4
:100EC000000E066F000E076F47C100F148C101F127
:100ED00049C102F14AC103F1CAEC1FF003BF77EF29
:100EE00007F019BE02D019A0108C11B00F800CC1F0
:100EF00000F10DC101F10EC102F10FC103F110C1EA
:100F000004F111C105F112C106F113C107F114C1B9
:100F100008F115C109F116C10AF117C10BF135C16C
:100F200034F102013C0E006F00C10CF101C10DF162
:100F300002C10EF103C10FF104C110F105C111F19D
:100F400006C112F107C113F108C114F109C115F16D
:100F50000AC116F10BC117F134C135F101018E67D9
:100F6000B9EF07F08F67B9EF07F09067B9EF07F0B7
:100F70009167BDEF07F0EDEF07F092C100F193C16B
:100F800001F194C102F195C103F10101010E046F59
:100F9000000E056F000E066F000E076FCAEC1FF003
:100FA00000C192F101C193F102C194F103C195F125
:100FB0000067E2EF07F00167E2EF07F00267E2EF98
:100FC00007F00367EDEF07F08EC192F18FC193F147
:100FD00090C194F191C195F10F80109047C100F13B
:100FE00048C101F149C102F14AC103F101010A0EF0
:100FF000046F000E056F000E066F000E076FCAEC3F
:101000001FF003AF1080010154A713EF08F00F9AEF
:101010000F9C0F9E0101000E5E6F600E5F6F3D0E14
:10102000606F080E616F47C100F148C101F149C10D
:1010300002F14AC103F10101140E046F050E056FA0
:10104000000E066F000E076FCAEC1FF003AF2CEF07
:1010500008F0F28851EF08F0F2985E6B5F6B606BFE
:10106000616B9A6B9B6B9C6B9D6B9E6B9F6BA06B7C
:10107000A16BA26BA36BA46BA56BA66BA76BA86BF4
:10108000A96BAA6BAB6BAC6BAD6BAE6BAF6BB06BA4
:10109000B16BB26BB36BB46BB56BB66BB76BB86B54
:1010A000B96B0CC100F10DC101F10EC102F10FC10C
:1010B00003F110C104F111C105F112C106F113C110
:1010C00007F114C108F115C109F116C10AF117C1E0
:1010D0000BF135C134F18BB475EF08F010AC75EF3E
:1010E00008F08B84109C76EF08F08B94C3CF55F1F9
:1010F000C4CF56F1C28207B4E5EF08F047C14BF107
:1011000048C14CF149C14DF14AC14EF15EC162F195
:101110005FC163F160C164F161C165F113A893EF30
:1011200008F0138C13989AC1BAF19BC1BBF19CC112
:10113000BCF19DC1BDF19EC1BEF19FC1BFF1A0C177
:10114000C0F1A1C1C1F1A2C1C2F1A3C1C3F1A4C147
:10115000C4F1A5C1C5F1A6C1C6F1A7C1C7F1A8C117
:10116000C8F1A9C1C9F1AAC1CAF1ABC1CBF1ACC1E7
:10117000CCF1ADC1CDF1AEC1CEF1AFC1CFF1B0C1B7
:10118000D0F1B1C1D1F1B2C1D2F1B3C1D3F1B4C187
:10119000D4F1B5C1D5F1B6C1D6F1B7C1D7F1B8C157
:1011A000D8F1B9C1D9F1010155515B2756515C23E2
:1011B000E86A5D230E2EE5EF08F05CC157F15DC1D2
:1011C00058F15B6B5C6B5D6B078EE7EF08F002C05C
:1011D000E0FF005001C0D8FF1000A6B2EDEF08F00C
:1011E0000CC0A9FF0BC0A8FFA69EA69CA684F29ED9
:1011F000550EA76EAA0EA76EA682F28EA694A6B270
:10120000FFEF08F00C2A1200A96EA69EA69CA680ED
:10121000A8500C2A120004012C0E826F37EC0BF040
:10122000C5EC20F00C5004EC09F0E8CF00F10C50B4
:1012300004EC09F0E8CF01F101AF24EF09F001015E
:10124000FF0E026FFF0E036F68EC20F0296730EF8E
:1012500009F00401200E826F37EC0BF035EF09F036
:1012600004012D0E826F37EC0BF072EC1EF01200B1
:10127000306A076A0F6A106A116A126A136A0F01EC
:101280000E0EC16E860EC06E030EC26E0F01896A0D
:10129000190E926E080E8A6EF10E936E8B6A980E7E
:1012A000946EF18EFC0E04EC09F0E8CF0BF00BA06D
:1012B00011800BA211820BA411840BA81188C90EF6
:1012C00004EC09F0E8CF17F0CA0E04EC09F0E8CFFF
:1012D00018F0CB0E04EC09F0E8CF19F0CC0E04ECBA
:1012E00009F0E8CF1AF0CD0E04EC09F0E8CF2FF0AA
:1012F0001C6A1D6A0E6A01015B6B5C6B5D6B576B50
:10130000586BF29A0101476B486B496B4A6B4B6B08
:101310004C6B4D6B4E6B4F6B506B516B526B456B07
:10132000466BD76AD66A0F01280ED56EF28A9D9059
:10133000B00ECD6E01015E6B5F6B606B616B626BBB
:10134000636B646B656B666B676B686B696B536B28
:10135000546BCF6ACE6A0F9A0F9C0F9E9D80760EBB
:10136000CA6E9D8202013C0E006FCC6A160E04EC20
:1013700009F0E8CF00F1170E04EC09F0E8CF01F115
:10138000180E04EC09F0E8CF02F1190E04EC09F094
:10139000E8CF03F1010103AFE8EF09F0C5EC20F05D
:1013A000160E0C6E00C10BF0EDEC08F0170E0C6E73
:1013B00001C10BF0EDEC08F0180E0C6E02C10BF041
:1013C000EDEC08F0190E0C6E03C10BF0EDEC08F01B
:1013D00000C18EF101C18FF102C190F103C191F101
:1013E00000C192F101C193F102C194F103C195F1E1
:1013F0001A0E04EC09F0E8CF00F11B0E04EC09F022
:10140000E8CF01F11C0E04EC09F0E8CF02F11D0E4B
:1014100004EC09F0E8CF03F1010103AF3EEF0AF05D
:10142000C5EC20F01A0E0C6E00C10BF0EDEC08F0CC
:101430001B0E0C6E01C10BF0EDEC08F01C0E0C6ED7
:1014400002C10BF0EDEC08F01D0E0C6E03C10BF0A9
:10145000EDEC08F01A0E04EC09F0E8CF00F11B0ED9
:1014600004EC09F0E8CF01F11C0E04EC09F0E8CF20
:1014700002F11D0E04EC09F0E8CF03F100C196F172
:1014800001C197F102C198F103C199F1240EAC6E2C
:10149000900EAB6E240EAC6E080EB86E80B66FEF79
:1014A0000AF01E0E04EC09F0E8CF00F11F0E04EC68
:1014B00009F0E8CF01F100C1E8FFFF0A10E001C127
:1014C000E8FFFF0A0CE01E0E04EC09F0E8CFAFFFC6
:1014D0001F0E04EC09F0E8CFB0FF73EF0AF0000E26
:1014E000B06E1F0EAF6E0401806B816B0F01900E0A
:1014F000AB6E0F019D8A0301806B816BC26B8B9277
:1015000007900001F28EF28C07B020EF1DF00FB0B3
:1015100033EF16F010BE33EF16F012B833EF16F0BB
:101520000301805181197F0BD8B420EF1DF013EE19
:1015300000F081517F0BE126812BE7CFE8FFE00B24
:10154000D8B420EF1DF023EE82F0C2513F0BD92614
:10155000E7CFDFFFC22BDF50780AD8A420EF1DF0C1
:10156000078092C100F193C101F194C102F195C1CC
:1015700003F10101040E046F000E056F000E066FEB
:10158000000E076FCAEC1FF000AFD0EF0AF00101A8
:10159000030E926F000E936F000E946F000E956F06
:1015A00003018251720AD8B40FEF16F08251520A29
:1015B000D8B40FEF16F08251750AD8B40FEF16F0B9
:1015C0008251630AD8B4DAEF19F08251690AD8B4AB
:1015D000B9EF12F082517A0AD8B4CCEF13F08251ED
:1015E000490AD8B458EF12F08251500AD8B476EFB5
:1015F00011F08251700AD8B4B9EF11F08251540A37
:10160000D8B4E4EF11F08251740AD8B42AEF12F082
:101610008251410AD8B44DEF0CF082514B0AD8B434
:101620004BEF0BF082516D0AD8B480EF10F082516D
:101630004D0AD8B499EF10F08251730AD8B43FEF35
:1016400015F08251530AD8B4A4EF15F08251620A02
:10165000D8B428EF11F08251420AD8B463EF11F0E8
:101660008251590AD8B4D1EF0FF011EF1AF00401EA
:1016700014EE00F080517F0BE12682C4E7FF802B3F
:10168000120004010D0E826F37EC0BF00A0E826F10
:1016900037EC0BF0120004014B0E826F37EC0BF0AD
:1016A00004012C0E826F37EC0BF081B802D02FB6FC
:1016B00030D003018351430AD8B490EF0BF00301FB
:1016C0008351630AD8B492EF0BF003018351520A9D
:1016D000D8B494EF0BF003018351720AD8B496EF9B
:1016E0000BF003018351470AD8B498EF0BF00301C4
:1016F0008351670AD8B49AEF0BF003018351540A5F
:10170000D8B49CEF0BF003018351740AD8B40BEFEB
:101710000CF003018351550AD8B49EEF0BF082D030
:101720002F807AD02F9078D02F8276D02F9274D0BD
:101730002F8472D02F9470D02F866ED084C330F156
:1017400085C331F186C332F187C333F10101296BBF
:1017500013EC21F08AEC20F000C104F101C105F185
:1017600002C106F103C107F106EC21F0200EF86E6C
:10177000F76AF66A0900F5CF2CF10900F5CF2DF1D3
:101780000900F5CF2EF10900F5CF2FF10900F5CFB3
:1017900030F10900F5CF31F10900F5CF32F1090040
:1017A000F5CF33F10101296B13EC21F08AEC20F025
:1017B000CAEC1FF00067E4EF0BF00167E4EF0BF0F9
:1017C0000267E4EF0BF0036701D025D004014E0E51
:1017D000826F37EC0BF004016F0E826F37EC0BF069
:1017E00004014D0E826F37EC0BF00401610E826F25
:1017F00037EC0BF00401740E826F37EC0BF0040130
:10180000630E826F37EC0BF00401680E826F37ECC9
:101810000BF00FEF1AF02F96CD0E0C6E2FC00BF0C1
:10182000EDEC08F0CD0E04EC09F0E8CF2FF02FB06E
:1018300006D00401630E826F37EC0BF005D0040173
:10184000430E826F37EC0BF02FB206D00401720EFC
:10185000826F37EC0BF005D00401520E826F37EC2B
:101860000BF02FB406D00401670E826F37EC0BF03B
:1018700005D00401470E826F37EC0BF02FB606D06F
:101880000401740E826F37EC0BF005D00401540E86
:10189000826F37EC0BF00FEF1AF00401410E826FEC
:1018A00037EC0BF003018351310AD8B4F1EF0EF09D
:1018B00003018351320AD8B421EF0EF003018351A2
:1018C000330AD8B4AAEF0DF003018351340AD8B417
:1018D0009AEF0CF003018351350AD8B477EF0CF07E
:1018E00004013F0E826F37EC0BF00FEF1AF004018A
:1018F0002C0E826F37EC0BF003018451300AD8B400
:101900008AEF0CF003018451310AD8B492EF0CF045
:10191000E3EF0DF08B900401300E826F37EC0BF08B
:1019200098EF0CF08B800401310E826F37EC0BF0D6
:101930000FEF1AF0CC0E04EC09F0E8CF0BF0040125
:101940002C0E826F37EC0BF003018451310AD8B4AE
:10195000BEEF0CF003018451300AD8B4C0EF0CF094
:10196000030184514D0AD8B4CAEF0CF0030184512D
:10197000540AD8B4D1EF0CF0E8EF0CF08A8401D00F
:101980008A940BAE04D00BAC02D00BBA21D0E00E7F
:101990000B1218D01F0E0B168539E844E00B0B1202
:1019A00011D0E00E0B1606EC21F085C332F186C390
:1019B00033F10101296B13EC21F08AEC20F0005186
:1019C0001F0B0B12CC0E0C6E0BC00BF0EDEC08F0E5
:1019D0000401340E826F37EC0BF004012C0E826F81
:1019E00037EC0BF0CC0E04EC09F0E8CF1AF08AB417
:1019F00006D00401300E826F37EC0BF005D00401E5
:101A0000310E826F37EC0BF004012C0E826F37EC35
:101A10000BF01A38E840070BE8CF82F40401300ECF
:101A2000822737EC0BF004012C0E826F37EC0BF0A1
:101A3000C5EC20F01A501F0BE8CF00F168EC20F045
:101A400032C182F40401300E822737EC0BF033C12F
:101A500082F40401300E822737EC0BF004012C0EC7
:101A6000826F37EC0BF0C5EC20F02DC000F100AF19
:101A70000BD0FF0E016FFF0E026FFF0E036F04010C
:101A80002D0E826F37EC0BF068EC20F031C182F440
:101A90000401300E822737EC0BF032C182F40401CE
:101AA000300E822737EC0BF033C182F40401300E84
:101AB000822737EC0BF004012C0E826F37EC0BF011
:101AC000C5EC20F02CC000F168EC20F031C182F4AC
:101AD0000401300E822737EC0BF032C182F404018E
:101AE000300E822737EC0BF033C182F40401300E44
:101AF000822737EC0BF004012C0E826F37EC0BF0D1
:101B0000C5EC20F02EC000F100AF0BD0FF0E016F2E
:101B1000FF0E026FFF0E036F04012D0E826F37EC74
:101B20000BF068EC20F031C182F40401300E822702
:101B300037EC0BF032C182F40401300E822737EC0F
:101B40000BF033C182F40401300E822737EC0BF026
:101B50000FEF1AF0CB0E04EC09F0E8CF0BF0040104
:101B60002C0E826F37EC0BF003018451450AD8B478
:101B7000CEEF0DF003018451440AD8B4D1EF0DF03B
:101B800003018451300AD8B4D4EF0DF0030184511D
:101B9000310AD8B4D8EF0DF0E3EF0DF00B9EDDEF76
:101BA0000DF00B8EDDEF0DF0FC0E0B16DDEF0DF0E2
:101BB000FC0E0B160B80DDEF0DF0CB0E0C6E0BC088
:101BC0000BF0EDEC08F00401330E826F37EC0BF0F4
:101BD00004012C0E826F37EC0BF0CB0E04EC09F0F5
:101BE000E8CF19F019BEFCEF0DF00401450E826F2D
:101BF00037EC0BF001EF0EF00401440E826F37EC6E
:101C00000BF004012C0E826F37EC0BF00401300E48
:101C1000826F37EC0BF004012C0E826F37EC0BF067
:101C200019B01AEF0EF00401300E826F37EC0BF092
:101C30001FEF0EF00401310E826F37EC0BF00FEF47
:101C40001AF0CA0E04EC09F0E8CF0BF004012C0ED8
:101C5000826F37EC0BF003018451450AD8B45DEF75
:101C60000EF003018451440AD8B460EF0EF0030172
:101C700084514D0AD8B469EF0EF003018451410A32
:101C8000D8B463EF0EF003018451460AD8B466EF6E
:101C90000EF003018451560AD8B471EF0EF003011F
:101CA0008451500AD8B47CEF0EF003018451520ADB
:101CB000D8B47FEF0EF088EF0EF00B9E82EF0EF09F
:101CC0000B8E82EF0EF00B9C82EF0EF00B8C82EFEE
:101CD0000EF0FC0E0B1685C3E8FF030B0B1282EF10
:101CE0000EF0C70E0B1685C3E8FF070BE846E84663
:101CF000E8460B1282EF0EF00B8482EF0EF00B948D
:101D000082EF0EF0CA0E0C6E0BC00BF0EDEC08F07B
:101D1000CA0E04EC09F0E8CF18F00401320E826F0D
:101D200037EC0BF004012C0E826F37EC0BF018BE71
:101D3000A1EF0EF00401450E826F37EC0BF0A6EF19
:101D40000EF00401440E826F37EC0BF004012C0EF0
:101D5000826F37EC0BF018C0E8FF030BE8CF82F47A
:101D60000401300E822737EC0BF004012C0E826F39
:101D700037EC0BF018BCC4EF0EF00401410E826F7B
:101D800037EC0BF0C9EF0EF00401460E826F37EC12
:101D90000BF004012C0E826F37EC0BF018C0E8FF3B
:101DA000380BE842E842E842E8CF82F40401300E02
:101DB000822737EC0BF004012C0E826F37EC0BF00E
:101DC00018B4EAEF0EF00401520E826F37EC0BF0FC
:101DD000EFEF0EF00401500E826F37EC0BF00FEFB7
:101DE0001AF0C90E04EC09F0E8CF0BF004012C0E38
:101DF000826F37EC0BF003018451450AD8B40FEF22
:101E00000FF003018451440AD8B412EF0FF003011C
:101E100084514D0AD8B415EF0FF023EF0FF00B9E4D
:101E20001DEF0FF00B8E1DEF0FF0F80E0B1685C394
:101E3000E8FF070B0B121DEF0FF0C90E0C6E0BC065
:101E40000BF0EDEC08F00401310E826F37EC0BF073
:101E500004012C0E826F37EC0BF0C90E04EC09F074
:101E6000E8CF17F017BE06D00401450E826F37EC9D
:101E70000BF005D00401440E826F37EC0BF0040127
:101E80002C0E826F37EC0BF017C0E8FF070BE8CF82
:101E900082F40401300E822737EC0BF004012C0E83
:101EA000826F37EC0BF00780C5EC20F028C0E8FF0C
:101EB000003B00430043030B68EC20F033C182F485
:101EC0000401300E822737EC0BF004012C0E826FD8
:101ED00037EC0BF0C5EC20F028C001F1019F019D0B
:101EE00029C000F1010168EC20F02FC182F4040147
:101EF000300E822737EC0BF030C182F40401300E33
:101F0000822737EC0BF031C182F40401300E8227B6
:101F100037EC0BF032C182F40401300E822737EC2B
:101F20000BF033C182F40401300E822737EC0BF042
:101F300004012C0E826F37EC0BF0C5EC20F02AC0A8
:101F400001F12BC000F1D89001330033D890013358
:101F50000033010168EC20F02FC182F40401300E3F
:101F6000822737EC0BF030C182F40401300E822757
:101F700037EC0BF031C182F40401300E822737ECCC
:101F80000BF032C182F40401300E822737EC0BF0E3
:101F900033C182F40401300E822737EC0BF00FEFCF
:101FA0001AF0FC0E04EC09F0E8CF0BF003018351AA
:101FB000520AD8B408EF10F003018351720AD8B462
:101FC0000BEF10F003018351500AD8B40EEF10F05C
:101FD00003018351700AD8B411EF10F0030183514B
:101FE000550AD8B414EF10F003018351750AD8B420
:101FF00017EF10F003018351430AD8B420EF10F01B
:1020000003018351630AD8B423EF10F02CEF10F0D2
:102010000B9026EF10F00B8026EF10F00B9226EFBE
:1020200010F00B8226EF10F00B9426EF10F00B84CB
:1020300026EF10F00B9626EF10F00B8626EF10F02F
:102040000B9826EF10F00B8826EF10F0FC0E0C6EAC
:102050000BC00BF0EDEC08F00401590E826F37EC69
:102060000BF01190119211941198FC0E04EC09F0F0
:10207000E8CF0BF00BA011800BA211820BA41184EE
:102080000BA8118811A04CEF10F00401520E826FC2
:1020900037EC0BF051EF10F00401720E826F37EC49
:1020A0000BF011A85BEF10F00401430E826F37ECC8
:1020B0000BF060EF10F00401630E826F37EC0BF051
:1020C00011A26AEF10F00401500E826F37EC0BF092
:1020D0006FEF10F00401700E826F37EC0BF011A45B
:1020E00079EF10F00401550E826F37EC0BF07EEFA4
:1020F00010F00401750E826F37EC0BF00FEF1AF041
:1021000004016D0E826F37EC0BF003018351300A2E
:10211000D8B4D8EF10F003018351310AD8B4EBEFF3
:1021200010F003018351320AD8B4FEEF10F011EF22
:102130001AF004014D0E826F37EC0BF006EC21F023
:1021400084C331F185C332F186C333F10101296BB8
:1021500013EC21F08AEC20F003018351300AD8B44B
:10216000C0EF10F003018351310AD8B4C8EF10F06A
:1021700003018351320AD8B4D0EF10F011EF1AF0F6
:10218000FD0E0C6E00C10BF0EDEC08F0D8EF10F076
:10219000FE0E0C6E00C10BF0EDEC08F0EBEF10F052
:1021A000FF0E0C6E00C10BF0EDEC08F0FEEF10F02E
:1021B0000401300E826F37EC0BF004012C0E826F9D
:1021C00037EC0BF0C5EC20F0FD0E04EC09F0E8CF85
:1021D00000F10FEF11F00401310E826F37EC0BF0BC
:1021E00004012C0E826F37EC0BF0C5EC20F0FE0ED4
:1021F00004EC09F0E8CF00F10FEF11F00401320E0A
:10220000826F37EC0BF0C5EC20F004012C0E826FCE
:1022100037EC0BF0FF0E04EC09F0E8CF00F168ECAE
:1022200020F031C182F40401300E822737EC0BF02C
:1022300032C182F40401300E822737EC0BF033C137
:1022400082F40401300E822737EC0BF00FEF1AF006
:102250008351610AD8A411EF1AF08451750AD8A4E9
:1022600011EF1AF08551640AD8A411EF1AF086C351
:102270002AF187C32BF188C32CF189C32DF18AC3BE
:102280002EF18BC32FF18CC330F18DC331F18EC38E
:1022900032F18FC333F10101296B13EC21F08AEC89
:1022A00020F000C1AFFF01C1B0FF1E0E0C6EAFCF1A
:1022B0000BF0EDEC08F01F0E0C6EB0CF0BF0EDEC58
:1022C00008F011EF1AF080B66DEF11F00401300E36
:1022D000826F37EC0BF072EF11F00401310E826F58
:1022E00037EC0BF041EC0BF011EF1AF083C32AF13D
:1022F00084C32BF185C32CF186C32DF187C32EF146
:1023000088C32FF189C330F18AC331F18BC332F115
:102310008CC333F1010113EC21F08AEC20F0160E8E
:102320000C6E00C10BF0EDEC08F0170E0C6E01C145
:102330000BF0EDEC08F0180E0C6E02C10BF0EDEC9A
:1023400008F0190E0C6E03C10BF0EDEC08F000C1A3
:102350008EF101C18FF102C190F103C191F100C171
:1023600092F101C193F102C194F103C195F158EFCB
:1023700012F083C32AF184C32BF185C32CF186C3E9
:102380002DF187C32EF188C32FF189C330F18AC3A1
:1023900031F18BC332F18CC333F1010113EC21F025
:1023A0008AEC20F000C18EF101C18FF102C190F1E1
:1023B00003C191F100C192F101C193F102C194F105
:1023C00003C195F158EF12F083C32AF184C32BF1B6
:1023D00085C32CF186C32DF187C32EF188C32FF15D
:1023E00089C330F18AC331F18CC332F18DC333F12B
:1023F000010113EC21F08AEC20F00101000E046FC2
:10240000000E056F010E066F000E076FDBEC1FF06C
:102410001A0E0C6E00C10BF0EDEC08F01B0E0C6EEA
:1024200001C10BF0EDEC08F01C0E0C6E02C10BF0BC
:10243000EDEC08F01D0E0C6E03C10BF0EDEC08F096
:1024400000C196F101C197F102C198F103C199F160
:1024500058EF12F083C32AF184C32BF185C32CF10A
:1024600086C32DF187C32EF188C32FF189C330F1C4
:102470008AC331F18CC332F18DC333F1010113EC06
:1024800021F08AEC20F00101000E046F000E056FB0
:10249000010E066F000E076FDBEC1FF000C196F116
:1024A00001C197F102C198F103C199F158EF12F0FF
:1024B000160E04EC09F0E8CF00F1170E04EC09F059
:1024C000E8CF01F1180E04EC09F0E8CF02F1190E83
:1024D00004EC09F0E8CF03F168EC20F02BEC1EF0DF
:1024E0000401730E826F37EC0BF004012C0E826F27
:1024F00037EC0BF08EC100F18FC101F190C102F1F8
:1025000091C103F168EC20F02BEC1EF00401730E76
:10251000826F37EC0BF004012C0E826F37EC0BF05E
:102520001A0E04EC09F0E8CF00F11B0E04EC09F0E0
:10253000E8CF01F11C0E04EC09F0E8CF02F11D0E0A
:1025400004EC09F0E8CF03F12CEC1AF004012C0E96
:10255000826F37EC0BF096C100F197C101F198C181
:1025600002F199C103F12CEC1AF041EC0BF011EFE0
:102570001AF00401690E826F37EC0BF004012C0E87
:10258000826F37EC0BF00101040E006F000E016F3B
:10259000000E026F000E036F68EC20F02CC182F475
:1025A0000401300E822737EC0BF02DC182F40401B8
:1025B000300E822737EC0BF02EC182F40401300E6E
:1025C000822737EC0BF02FC182F40401300E8227F2
:1025D00037EC0BF030C182F40401300E822737EC67
:1025E0000BF031C182F40401300E822737EC0BF07E
:1025F00032C182F40401300E822737EC0BF033C174
:1026000082F40401300E822737EC0BF004012C0E0B
:10261000826F37EC0BF00101050E006F000E016FA9
:10262000000E026F000E036F68EC20F02CC182F4E4
:102630000401300E822737EC0BF02DC182F4040127
:10264000300E822737EC0BF02EC182F40401300EDD
:10265000822737EC0BF02FC182F40401300E822761
:1026600037EC0BF030C182F40401300E822737ECD6
:102670000BF031C182F40401300E822737EC0BF0ED
:1026800032C182F40401300E822737EC0BF033C1E3
:1026900082F40401300E822737EC0BF004012C0E7B
:1026A000826F37EC0BF001013A0E006F000E016FE4
:1026B000000E026F000E036F68EC20F02CC182F454
:1026C0000401300E822737EC0BF02DC182F4040197
:1026D000300E822737EC0BF02EC182F40401300E4D
:1026E000822737EC0BF02FC182F40401300E8227D1
:1026F00037EC0BF030C182F40401300E822737EC46
:102700000BF031C182F40401300E822737EC0BF05C
:1027100032C182F40401300E822737EC0BF033C152
:1027200082F40401300E822737EC0BF004012C0EEA
:10273000826F37EC0BF0200EF86EF76AF66A040130
:102740000900F5CF82F437EC0BF00900F5CF82F4E5
:1027500037EC0BF00900F5CF82F437EC0BF00900F1
:10276000F5CF82F437EC0BF00900F5CF82F437ECAB
:102770000BF00900F5CF82F437EC0BF00900F5CF30
:1027800082F437EC0BF00900F5CF82F437EC0BF054
:1027900041EC0BF011EF1AF08351630AD8A40FEF4C
:1027A0001AF08451610AD8A40FEF1AF085516C0A0F
:1027B000D8A40FEF1AF08651410A3FE08651440A2F
:1027C0001BE08651420AD8B430EF14F08651350A26
:1027D000D8B49BEF1BF08651360AD8B4F0EF1BF04B
:1027E0008651370AD8B459EF1CF08651380AD8B44C
:1027F000B7EF1CF00FEF1AF00798079A04017A0E52
:10280000826F37EC0BF00401780E826F37EC0BF01F
:102810000401640E826F37EC0BF00401550E826FD9
:1028200037EC0BF019EF14F004014C0E826F37EC0B
:102830000BF041EC0BF011EF1AF00788079A040136
:102840007A0E826F37EC0BF00401410E826F37EC89
:102850000BF00401610E826F37EC0BF00DEF14F0FA
:102860000798078A04017A0E826F37EC0BF0040197
:10287000420E826F37EC0BF00401610E826F37EC71
:102880000BF00DEF14F0010166674EEF14F067676F
:102890004EEF14F068674EEF14F0696715D04F677C
:1028A00059EF14F0506759EF14F0516759EF14F0D5
:1028B00052670AD00101000E006F000E016F000E7A
:1028C000026F000E036F120011B80AD00101620EF0
:1028D000046F010E056F000E066F000E076F09D022
:1028E0000101A70E046F020E056F000E066F000EA9
:1028F000076F66C100F167C101F168C102F169C1EA
:1029000003F1CAEC1FF003BFF6EF14F0119A119C0B
:102910000101000E046FA80E056F550E066F020E22
:10292000076F66C100F167C101F168C102F169C1B9
:1029300003F166C18AF167C18BF168C18CF169C18D
:102940008DF1CAEC1FF003BF0BD00101000E8A6F9E
:10295000A80E8B6F550E8C6F020E8D6F118A119C15
:102960000E0E04EC09F0E8CF18F10F0E04EC09F09C
:10297000E8CF19F1100E04EC09F0E8CF1AF1110EAE
:1029800004EC09F0E8CF1BF113EC1FF08AC104F14D
:102990008BC105F18CC106F18DC107F1CAEC1FF0A6
:1029A0000782D7EC1EF013EC1FF00792D7EC1EF055
:1029B0008AC100F18BC101F18CC102F18DC103F11B
:1029C0000792D7EC1EF0CC0E046FE00E056F870E59
:1029D000066F050E076FCAEC1FF000C118F101C1A8
:1029E00019F102C11AF103C11BF140D013AAFBEF88
:1029F00014F0138E139A119C119A0101800E006F2E
:102A00001A0E016F060E026F000E036F4FC104F124
:102A100050C105F151C106F152C107F1CAEC1FF0D6
:102A200003AF05D0C5EC20F0118C119A12000E0EE8
:102A300004EC09F0E8CF18F10F0E04EC09F0E8CF30
:102A400019F1100E04EC09F0E8CF1AF1110E04ECA4
:102A500009F0E8CF1BF14FC100F150C101F151C1A4
:102A600002F152C103F10782D7EC1EF018C100F148
:102A700019C101F11AC102F11BC103F112000401D5
:102A8000730E826F37EC0BF004012C0E826F37EC63
:102A90000BF0078462C166F163C167F164C168F13C
:102AA00065C169F14BC14FF14CC150F14DC151F1BC
:102AB0004EC152F157C159F158C15AF1079465EC12
:102AC00015F041EC0BF011EF1AF066C100F167C18F
:102AD00001F168C102F169C103F1010168EC20F064
:102AE0002BEC1EF00401630E826F37EC0BF0040137
:102AF0002C0E826F37EC0BF04FC100F150C101F189
:102B000051C102F152C103F1010168EC20F02BEC3C
:102B10001EF00401660E826F37EC0BF004012C0EE0
:102B2000826F37EC0BF0C5EC20F059C100F15AC1AF
:102B300001F1010168EC20F02BEC1EF00401740E91
:102B4000826F37EC0BF0120010820401530E826F7B
:102B500037EC0BF004012C0E826F37EC0BF083C3C3
:102B60002AF184C32BF185C32CF186C32DF187C3D1
:102B70002EF188C32FF189C330F18AC331F18BC3A1
:102B800032F18CC333F1010113EC21F08AEC20F017
:102B900000C166F101C167F102C168F103C169F1C9
:102BA0008EC32AF18FC32BF190C32CF191C32DF169
:102BB00092C32EF193C32FF194C330F195C331F139
:102BC00096C332F197C333F1010113EC21F08AEC83
:102BD00020F000C14FF101C150F102C151F103C118
:102BE00052F106EC21F099C32FF19AC330F19BC347
:102BF00031F19CC332F19DC333F1010113EC21F09B
:102C00008AEC20F000C159F101C15AF165EC15F0D0
:102C100004012C0E826F37EC0BF01FEF16F0118EB3
:102C200019A002D019AE108C18BE02D018A4108EB4
:102C300003018251520A02E10F8201D00F928251A8
:102C4000750A02E1108401D010948251550A02E104
:102C5000108601D010968351310A03E11382138448
:102C600002D01392139411A003D011A401D01084A8
:102C7000078410B29DEF16F010A481EF16F0BAC1D0
:102C800066F1BBC167F1BCC168F1BDC169F1BEC1EC
:102C90006AF1BFC16BF1C0C16CF1C1C16DF1C2C1BC
:102CA0006EF1C3C16FF1C4C170F1C5C171F1C6C18C
:102CB00072F1C7C173F1C8C174F1C9C175F1CAC15C
:102CC00076F1CBC177F1CCC178F1CDC179F1CEC12C
:102CD0007AF1CFC17BF1D0C17CF1D1C17DF1D2C1FC
:102CE0007EF1D3C17FF1D4C180F1D5C181F1D6C1CC
:102CF00082F1D7C183F1D8C184F1D9C185F189EFBF
:102D000016F062C166F163C167F164C168F165C123
:102D100069F1BAC186F1BBC187F1BCC188F1BDC1FF
:102D200089F14BC14FF14CC150F14DC151F14EC130
:102D300052F157C159F158C15AF107940FA0BFEF92
:102D400016F001019667ACEF16F09767ACEF16F03E
:102D50009867ACEF16F09967B0EF16F0BFEF16F07A
:102D600043EC14F096C104F197C105F198C106F146
:102D700099C107F1CAEC1FF003BFD5EF19F043EC7E
:102D800014F00101000E046F000E056F010E066FB6
:102D9000000E076FFBEC1FF011A02AD011A228D063
:102DA00068EC20F0296701D005D004012D0E826F58
:102DB00037EC0BF030C182F40401300E822737EC7F
:102DC0000BF031C182F40401300E822737EC0BF096
:102DD00032C182F40401300E822737EC0BF033C18C
:102DE00082F40401300E822737EC0BF041EC0BF03B
:102DF00012A8C5D012981AC01BF01B3A1B42070E2E
:102E00001B1600011B50000AD8B48BEF17F000010D
:102E10001B50010AD8B417EF17F000011B50020A2B
:102E2000D8B415EF17F0BDEF17F0BDEF17F0C5ECF4
:102E300020F02AC001F12BC000F1D89001330033FB
:102E4000D890013300330101630E046F000E056F4B
:102E5000000E066F000E076FFBEC1FF0280E046FCC
:102E6000000E056F000E066F000E076FCAEC1FF014
:102E700000C12DF0C5EC20F028C001F1019F019D9B
:102E800029C000F10101A40E046F000E056F000EB1
:102E9000066F000E076FFBEC1FF000C12CF000C1A5
:102EA00004F101C105F102C106F103C107F1640E8D
:102EB000006F000E016F000E026F000E036FCAEC70
:102EC0001FF0050E046F000E056F000E066F000E5A
:102ED000076FFBEC1FF000C104F101C105F102C155
:102EE00006F103C107F1C5EC20F02DC000F1CAECDA
:102EF0001FF000C12EF02EC0E8FF050F2D5C03E788
:102F00008A84BDEF17F02EC0E8FF0A0F2D5C01E6A2
:102F10008A94BDEF17F000C124F101C125F102C16F
:102F200026F103C127F1C5EC20F0CBEC20F01A50BC
:102F30001F0BE8CF00F10101640E046F000E056F56
:102F4000000E066F000E076FDBEC1FF024C104F1CA
:102F500025C105F126C106F127C107F1CAEC1FF012
:102F600003BF02D08A9401D08A8424C100F125C114
:102F700001F126C102F127C103F111EF1AF000C1DE
:102F800024F101C125F102C126F103C127F110AEE0
:102F90004DD0109E00C108F101C109F102C10AF132
:102FA00003C10BF168EC20F030C1DAF131C1DBF183
:102FB00032C1DCF133C1DDF108C100F109C101F119
:102FC0000AC102F10BC103F101016C0E046F070E7F
:102FD000056F000E066F000E076FCAEC1FF003BFEF
:102FE00004D00101550EDE6F1CD008C100F109C1EB
:102FF00001F10AC102F10BC103F10101A40E046F3A
:10300000060E056F000E066F000E076FCAEC1FF06C
:1030100003BF04D001017F0EDE6F03D00101FF0E5C
:10302000DE6F1C8E11AED5EF19F0119E24C100F198
:1030300025C101F126C102F127C103F111A005D07C
:1030400011A203D00FB0D5EF19F010A42FEF18F094
:103050000401750E826F37EC0BF034EF18F00401A9
:10306000720E826F37EC0BF004012C0E826F37EC7E
:103070000BF068EC20F0296743EF18F00401200EF4
:10308000826F46EF18F004012D0E826F37EC0BF0C3
:1030900030C182F40401300E822737EC0BF031C1CD
:1030A00082F40401300E822737EC0BF004012E0E5F
:1030B000826F37EC0BF032C182F40401300E8227AC
:1030C00037EC0BF033C182F40401300E822737EC69
:1030D0000BF004016D0E826F37EC0BF004012C0E27
:1030E000826F37EC0BF04FC100F150C101F151C1BB
:1030F00002F152C103F1010168EC20F02BEC1EF04B
:103100000401480E826F37EC0BF004017A0E826FD7
:1031100037EC0BF004012C0E826F37EC0BF066C11C
:1031200000F167C101F168C102F169C103F1010158
:1031300068EC20F02BEC1EF00401630E826F37EC7C
:103140000BF004012C0E826F37EC0BF066C100F11E
:1031500067C101F168C102F169C103F101010A0E01
:10316000046F000E056F000E066F000E076FDBEC9C
:103170001FF0000E046F120E056F000E066F000E9A
:10318000076FFBEC1FF068EC20F02AC182F4040109
:10319000300E822737EC0BF02BC182F40401300E85
:1031A000822737EC0BF02CC182F40401300E822709
:1031B00037EC0BF02DC182F40401300E822737EC7E
:1031C0000BF02EC182F40401300E822737EC0BF095
:1031D0002FC182F40401300E822737EC0BF030C18E
:1031E00082F40401300E822737EC0BF004012E0E1E
:1031F000826F37EC0BF031C182F40401300E82276C
:1032000037EC0BF032C182F40401300E822737EC28
:103210000BF033C182F40401300E822737EC0BF03F
:103220000401730E826F37EC0BF004012C0E826FD9
:1032300037EC0BF0C5EC20F059C100F15AC101F197
:103240003BEC1BF013A274EF19F004012C0E826FFB
:1032500037EC0BF086C166F187C167F188C168F170
:1032600089C169F143EC14F00101000E046F000EF6
:10327000056F010E066F000E076FFBEC1FF068EC88
:1032800020F0296749EF19F00401200E826F4CEFFE
:1032900019F004012D0E826F37EC0BF030C182F46F
:1032A0000401300E822737EC0BF031C182F40401A7
:1032B000300E822737EC0BF004012E0E826F37ECB4
:1032C0000BF032C182F40401300E822737EC0BF090
:1032D00033C182F40401300E822737EC0BF0040175
:1032E0006D0E826F37EC0BF013A49BEF19F0040105
:1032F0002C0E826F37EC0BF013AC89EF19F0040140
:10330000500E826F37EC0BF0139C1398139A9BEFBF
:1033100019F013AE96EF19F00401460E826F37ECE8
:103320000BF0139E1398139A9BEF19F00401530EA0
:10333000826F37EC0BF00FB2A1EF19F00FA0D3EFB3
:1033400019F004012C0E826F37EC0BF0200EF86E92
:10335000F76AF66A04010900F5CF82F437EC0BF046
:103360000900F5CF82F437EC0BF00900F5CF82F4B9
:1033700037EC0BF00900F5CF82F437EC0BF00900C5
:10338000F5CF82F437EC0BF00900F5CF82F437EC7F
:103390000BF00900F5CF82F437EC0BF00900F5CF04
:1033A00082F437EC0BF041EC0BF00F90109E12986A
:1033B00011EF1AF00401630E826F37EC0BF0040179
:1033C0002C0E826F37EC0BF017EC1AF004012C0E68
:1033D000826F37EC0BF08AEC1AF004012C0E826F2E
:1033E00037EC0BF006EC1BF004012C0E826F37EC6F
:1033F0000BF00101F80E006FCD0E016F660E026F2B
:10340000030E036F2CEC1AF004012C0E826F37ECC4
:103410000BF01CEC1BF041EC0BF011EF1AF041EC3F
:103420000BF00301C26B0790109220EF1DF0D890B3
:103430000E0E04EC09F0E8CF00F10F0E04EC09F0D9
:10344000E8CF01F1100E04EC09F0E8CF02F1110E03
:1034500004EC09F0E8CF03F10101000E046F000E47
:10346000056F010E066F000E076FFBEC1FF068EC96
:1034700020F02AC182F40401300E822737EC0BF0D1
:103480002BC182F40401300E822737EC0BF02CC1E3
:1034900082F40401300E822737EC0BF02DC182F448
:1034A0000401300E822737EC0BF02EC182F40401A8
:1034B000300E822737EC0BF02FC182F40401300E5E
:1034C000822737EC0BF030C182F40401300E8227E2
:1034D00037EC0BF031C182F40401300E822737EC57
:1034E0000BF004012E0E826F37EC0BF032C182F428
:1034F0000401300E822737EC0BF033C182F4040153
:10350000300E822737EC0BF004016D0E826F37EC22
:103510000BF01200120E04EC09F0E8CF00F1130ECC
:1035200004EC09F0E8CF01F1140E04EC09F0E8CF47
:1035300002F1150E04EC09F0E8CF03F101010A0EC7
:10354000046F000E056F000E066F000E076FDBECB8
:103550001FF0000E046F120E056F000E066F000EB6
:10356000076FFBEC1FF068EC20F02AC182F4040125
:10357000300E822737EC0BF02BC182F40401300EA1
:10358000822737EC0BF02CC182F40401300E822725
:1035900037EC0BF02DC182F40401300E822737EC9A
:1035A0000BF02EC182F40401300E822737EC0BF0B1
:1035B0002FC182F40401300E822737EC0BF030C1AA
:1035C00082F40401300E822737EC0BF004012E0E3A
:1035D000826F37EC0BF031C182F40401300E822788
:1035E00037EC0BF032C182F40401300E822737EC45
:1035F0000BF033C182F40401300E822737EC0BF05C
:103600000401730E826F37EC0BF012000A0E04EC0B
:1036100009F0E8CF00F10B0E04EC09F0E8CF01F15E
:103620000C0E04EC09F0E8CF02F10D0E04EC09F0E9
:10363000E8CF03F13BEF1BF0060E04EC09F0E8CFF6
:1036400000F1070E04EC09F0E8CF01F1080E04ECDC
:1036500009F0E8CF02F1090E04EC09F0E8CF03F11C
:103660003BEF1BF00101C5EC20F0078457C100F1CE
:1036700058C101F107940101E80E046F800E056F37
:10368000000E066F000E076FDBEC1FF0000E046FDC
:10369000040E056F000E066F000E076FFBEC1FF0A7
:1036A000880E046F130E056F000E066F000E076F75
:1036B000CAEC1FF00A0E046F000E056F000E066FB5
:1036C000000E076FFBEC1FF068EC20F0010129678A
:1036D0006FEF1BF00401200E826F72EF1BF00401EC
:1036E0002D0E826F37EC0BF030C182F40401300EE6
:1036F000822737EC0BF031C182F40401300E8227AF
:1037000037EC0BF032C182F40401300E822737EC23
:103710000BF004012E0E826F37EC0BF033C182F4F4
:103720000401300E822737EC0BF00401430E826F48
:1037300037EC0BF0120087C32AF188C32BF189C341
:103740002CF18AC32DF18BC32EF18CC32FF18DC3C5
:1037500030F18EC331F190C332F191C333F10101E5
:10376000296B13EC21F08AEC20F00101000E046FAC
:10377000000E056F010E066F000E076FDBEC1FF0E9
:103780000E0E0C6E00C10BF0EDEC08F00F0E0C6E7F
:1037900001C10BF0EDEC08F0100E0C6E02C10BF045
:1037A000EDEC08F0110E0C6E03C10BF0EDEC08F01F
:1037B00004017A0E826F37EC0BF004012C0E826F3D
:1037C00037EC0BF00401350E826F37EC0BF004017F
:1037D0002C0E826F37EC0BF017EC1AF019EF14F087
:1037E00087C32AF188C32BF189C32CF18AC32DF139
:1037F0008BC32EF18CC32FF18DC330F18EC331F109
:1038000090C332F191C333F10101296B13EC21F024
:103810008AEC20F0880E046F130E056F000E066F01
:10382000000E076FCFEC1FF0000E046F040E056F43
:10383000000E066F000E076FDBEC1FF00101E80EB3
:10384000046F800E056F000E066F000E076FFBEC15
:103850001FF00A0E0C6E00C10BF0EDEC08F00B0E21
:103860000C6E01C10BF0EDEC08F00C0E0C6E02C1F9
:103870000BF0EDEC08F00D0E0C6E03C10BF0EDEC4F
:1038800008F004017A0E826F37EC0BF004012C0E65
:10389000826F37EC0BF00401360E826F37EC0BF0C1
:1038A00004012C0E826F37EC0BF006EC1BF019EFC5
:1038B00014F087C32AF188C32BF189C32CF18AC382
:1038C0002DF18BC32EF18CC32FF18DC330F18FC33B
:1038D00031F190C332F191C333F1010113EC21F0C6
:1038E0008AEC20F0000E046F120E056F000E066FBA
:1038F000000E076FDBEC1FF001010A0E046F000ED3
:10390000056F000E066F000E076FFBEC1FF0120E26
:103910000C6E00C10BF0EDEC08F0130E0C6E01C143
:103920000BF0EDEC08F0140E0C6E02C10BF0EDEC98
:1039300008F0150E0C6E03C10BF0EDEC08F004015D
:103940007A0E826F37EC0BF004012C0E826F37EC8D
:103950000BF00401370E826F37EC0BF004012C0ED4
:10396000826F37EC0BF08AEC1AF019EF14F087C372
:103970002AF188C32BF189C32CF18AC32DF18BC3A3
:103980002EF18CC32FF18DC330F18EC331F190C372
:1039900032F191C333F10101296B13EC21F08AEC70
:1039A00020F0880E046F130E056F000E066F000ED8
:1039B000076FCFEC1FF0000E046F040E056F000EB2
:1039C000066F000E076FDBEC1FF00101E80E046FBD
:1039D000800E056F000E066F000E076FFBEC1FF0E8
:1039E000060E0C6E00C10BF0EDEC08F0070E0C6E2D
:1039F00001C10BF0EDEC08F0080E0C6E02C10BF0EB
:103A0000EDEC08F0090E0C6E03C10BF0EDEC08F0C4
:103A100004017A0E826F37EC0BF004012C0E826FDA
:103A200037EC0BF00401380E826F37EC0BF0040119
:103A30002C0E826F37EC0BF01CEC1BF019EF14F01E
:103A400007A893EF1DF00101800E006F1A0E016FA1
:103A5000060E026F000E036F4BC104F14CC105F15D
:103A60004DC106F14EC107F1CAEC1FF003BFD9EFFB
:103A70001DF025EC1EF04BC100F14CC101F14DC110
:103A800002F14EC103F10782D7EC1EF018C104F118
:103A900019C105F11AC106F11BC107F1F80E006F3B
:103AA000CD0E016F660E026F030E036FCAEC1FF09E
:103AB0000E0E0C6E00C10BF0EDEC08F00F0E0C6E4C
:103AC00001C10BF0EDEC08F0100E0C6E02C10BF012
:103AD000EDEC08F0110E0C6E03C10BF0EDEC08F0EC
:103AE00007840101C5EC20F057C100F158C101F174
:103AF00007940A0E0C6E00C10BF0EDEC08F00B0EF3
:103B00000C6E01C10BF0EDEC08F00C0E0C6E02C156
:103B10000BF0EDEC08F00D0E0C6E03C10BF0EDECAC
:103B200008F0D9EF1DF007AAD9EF1DF007840101B5
:103B3000C5EC20F057C100F158C101F10794060E01
:103B40000C6E00C10BF0EDEC08F0070E0C6E01C11D
:103B50000BF0EDEC08F0080E0C6E02C10BF0EDEC72
:103B600008F0090E0C6E03C10BF0EDEC08F00784B1
:103B700062C100F163C101F164C102F165C103F1E9
:103B80000794120E0C6E00C10BF0EDEC08F0130E52
:103B90000C6E01C10BF0EDEC08F0140E0C6E02C1BE
:103BA0000BF0EDEC08F0150E0C6E03C10BF0EDEC14
:103BB00008F00798079A0401805181197F0B0DE0E6
:103BC0009EA8FED714EE00F081517F0BE126E7504E
:103BD000812B0F01AD6EDBEF1DF084EF0AF018C1F1
:103BE00000F119C101F11AC102F11BC103F1000E6C
:103BF000046F000E056F010E066F000E076FFBECE1
:103C00001FF029A11AEF1EF02051D8B41AEF1EF0B0
:103C100018C100F119C101F11AC102F11BC103F170
:103C2000000E046F000E056F0A0E066F000E076F80
:103C3000FBEC1FF0120001010451001305510113A8
:103C4000065102130751031312000101186B196B7F
:103C50001A6B1B6B12002AC182F40401300E8227FA
:103C600037EC0BF02BC182F40401300E822737ECC5
:103C70000BF02CC182F40401300E822737EC0BF0DC
:103C80002DC182F40401300E822737EC0BF02EC1D7
:103C900082F40401300E822737EC0BF02FC182F43E
:103CA0000401300E822737EC0BF030C182F404019E
:103CB000300E822737EC0BF031C182F40401300E54
:103CC000822737EC0BF032C182F40401300E8227D8
:103CD00037EC0BF033C182F40401300E822737EC4D
:103CE0000BF012002FC182F40401300E822737EC52
:103CF0000BF030C182F40401300E822737EC0BF058
:103D000031C182F40401300E822737EC0BF032C14E
:103D100082F40401300E822737EC0BF033C182F4B9
:103D20000401300E822737EC0BF01200060E1E6ED7
:103D3000060E1F6E060E206E1E2E9CEF1EF01F2E0E
:103D40009CEF1EF0202E9CEF1EF08B84020E1E6E48
:103D5000020E1F6E020E206E1E2EACEF1EF01F2EE6
:103D6000ACEF1EF0202EACEF1EF08B941200FF0E75
:103D70001F6E1FC020F0030E1E6E8B841E2EBDEF23
:103D80001EF0030E1E6E202EBDEF1EF08B941FC082
:103D900020F0030E1E6E1E2ECBEF1EF0030E1E6EC5
:103DA000203ECBEF1EF01F2EB9EF1EF012000101D6
:103DB000005305E1015303E1025301E1002B9AECAA
:103DC0001FF0C5EC20F03951006F3A51016F420EDF
:103DD000046F4B0E056F000E066F000E076FDBECD5
:103DE0001FF000C104F101C105F102C106F103C1D8
:103DF00007F118C100F119C101F11AC102F11BC18B
:103E000003F107B208EF1FF0CFEC1FF00AEF1FF02D
:103E1000CAEC1FF000C118F101C119F102C11AF179
:103E200003C11BF11200C5EC20F059C100F15AC1C9
:103E300001F1060E04EC09F0E8CF04F1070E04ECE2
:103E400009F0E8CF05F1080E04EC09F0E8CF06F11F
:103E5000090E04EC09F0E8CF07F1CAEC1FF000C12D
:103E600024F101C125F102C126F103C127F1290E78
:103E7000046F000E056F000E066F000E076FDBEC7F
:103E80001FF0EE0E046F430E056F000E066F000E5E
:103E9000076FCFEC1FF024C104F125C105F126C145
:103EA00006F127C107F1DBEC1FF000C11CF101C1D5
:103EB0001DF102C11EF103C11FF1120E04EC09F045
:103EC000E8CF04F1130E04EC09F0E8CF05F1140E6D
:103ED00004EC09F0E8CF06F1150E04EC09F0E8CF88
:103EE00007F10D0E006F000E016F000E026F000E45
:103EF000036FDBEC1FF0180E046F000E056F000E51
:103F0000066F000E076FFBEC1FF01CC104F11DC112
:103F100005F11EC106F11FC107F1CFEC1FF06A0EBB
:103F2000046F2A0E056F000E066F000E076FCAECB5
:103F30001FF01200BF0EFA6E200E3A6F396BD89048
:103F40000037013702370337D8B0ABEF1FF03A2FF5
:103F5000A0EF1FF039073A070353D8B4120003311A
:103F6000070B80093F6F03390F0B010F396F80EC8E
:103F70005FF0406F390580EC5FF0405D405F396B6A
:103F80003F33D8B0392739333FA9C0EF1FF0405134
:103F9000392712000101EAEC20F0D8B0120001012B
:103FA00003510719346FADEC20F0D8900751031975
:103FB00034AF800F12000101346BD1EC20F0D8A097
:103FC000E7EC20F0D8B01200BCEC20F0C5EC20F0FB
:103FD0001F0E366FFDEC20F00B35D8B0ADEC20F0A5
:103FE000D8A00335D8B01200362FEAEF1FF034B155
:103FF000D4EC20F012000101346B045105110611BC
:1040000007110008D8A0D1EC20F0D8A0E7EC20F0F0
:10401000D8B01200086B096B0A6B0B6BFDEC20F03B
:104020001F0E366FFDEC20F007510B5DD8A425EF75
:1040300020F006510A5DD8A425EF20F00551095D56
:10404000D8A425EF20F00451085DD8A038EF20F067
:104050000451085F0551D8A0053D095F0651D8A05D
:10406000063D0A5F0751D8A0073D0B5FD89000813D
:10407000362F12EF20F034B1D4EC20F0346BD1ECB9
:1040800020F0D89001EC21F007510B5DD8A455EF3A
:1040900020F006510A5DD8A455EF20F00551095DC6
:1040A000D8A455EF20F00451085DD8A064EF20F0AB
:1040B000003F64EF20F0013F64EF20F0023F64EF27
:1040C00020F0032BD8B4120034B1D4EC20F012004D
:1040D0000101346BD1EC20F0D8B0120006EC21F0D5
:1040E000200E366F003701370237033711EE33F0F9
:1040F0000A0E376FE7360A0EE75CD8B0E76EE55276
:10410000372F7AEF20F0362F72EF20F034B129816B
:10411000D890120001010A0E346F200E366F11EE96
:1041200029F03451376F0A0ED890E652D8B0E726FE
:10413000E732372F95EF20F003330233013300339A
:10414000362F8FEF20F0E750FF0FD8A00335D8B0FF
:10415000120029B1D4EC20F01200045100270551BF
:10416000D8B0053D01270651D8B0063D02270751BA
:10417000D8B0073D032712000051086F0151096FA5
:1041800002510A6F03510B6F12000101006B016BAA
:10419000026B036B12000101046B056B066B076B6E
:1041A00012000335D8A012000351800B001F011F1D
:1041B000021F031F003FE4EF20F0013FE4EF20F077
:1041C000023FE4EF20F0032B342B032512000735C8
:1041D000D8A012000751800B041F051F061F071FE0
:1041E000043FFAEF20F0053FFAEF20F0063FFAEF28
:1041F00020F0072B342B0725120000370137023738
:104200000337083709370A370B3712000101296BCA
:104210002A6B2B6B2C6B2D6B2E6B2F6B306B316BDA
:10422000326B336B120001012A510F0B2A6F2B5195
:104230000F0B2B6F2C510F0B2C6F2D510F0B2D6F64
:104240002E510F0B2E6F2F510F0B2F6F30510F0B65
:10425000306F31510F0B316F32510F0B326F3351C1
:064260000F0B336F12008A
:10BF0000E844F926000C160C2B0C3F0C520C640C68
:10BF1000760C860C960CA50CB30CC10CCF0CDC0C6B
:06BF2000E80CF40C000C1B
:00000001FF
