:020000040000FA
:0408000098EF0BF072
:1008100003B275EF05F0F2B493EF05F09EB09BEFD5
:1008200005F09EB2A3EF05F0F2A81AEF04F0F2B2C1
:1008300023EF04F0F2B01FEF04F047EF0BF0F29655
:10084000F29047EF0BF0CD90F2929EA02DEF04F0C6
:100850000101533F2DEF04F0542BB2C1B6F1B3C1E7
:10086000B7F1B4C1B8F1B5C1B9F1AEC1B2F1AFC120
:10087000B3F1B0C1B4F1B1C1B5F1AAC1AEF1ABC130
:10088000AFF1ACC1B0F1ADC1B1F1A6C1AAF1A7C140
:10089000ABF1A8C1ACF1A9C1ADF1A2C1A6F1A3C150
:1008A000A7F1A4C1A8F1A5C1A9F19EC1A2F19FC160
:1008B000A3F1A0C1A4F1A1C1A5F19AC19EF19BC170
:1008C0009FF19CC1A0F19DC1A1F1CECF9AF1CFCFF4
:1008D0009BF153C19CF154C19DF1CF6ACE6A0101D5
:1008E000536B546B9E90CD800FBC0F8E0FBA7CEF74
:1008F00004F00F8A47EF0BF013880F8C0FBEB9EF8F
:1009000004F09AC19EF19BC19FF19CC1A0F19DC1D1
:10091000A1F19EC1A2F19FC1A3F1A0C1A4F1A1C107
:10092000A5F1A2C1A6F1A3C1A7F1A4C1A8F1A5C1D7
:10093000A9F1A6C1AAF1A7C1ABF1A8C1ACF1A9C1A7
:10094000ADF1AAC1AEF1ABC1AFF1ACC1B0F1ADC177
:10095000B1F1AEC1B2F1AFC1B3F1B0C1B4F1B1C147
:10096000B5F1B2C1B6F1B3C1B7F1B4C1B8F1B5C117
:10097000B9F101015E6B5F6B606B616B9A515E2731
:100980009B515F239C5160239D5161239E515E27A3
:100990009F515F23A0516023A1516123A2515E2783
:1009A000A3515F23A4516023A5516123A6515E2763
:1009B000A7515F23A8516023A9516123AA515E2743
:1009C000AB515F23AC516023AD516123AE515E2723
:1009D000AF515F23B0516023B1516123B2515E2703
:1009E000B3515F23B4516023B5516123B6515E27E3
:1009F000B7515F23B8516023B9516123D8900101E9
:100A0000613360335F335E33D8900101613360330B
:100A10005F335E33D8900101613360335F335E33FF
:100A200000C10CF101C10DF102C10EF103C10FF1C2
:100A300004C110F105C111F106C112F107C113F192
:100A400008C114F109C115F10AC116F10BC117F162
:100A500034C135F111B838EF05F00101620E046FB1
:100A6000010E056F000E066F000E076F41EF05F0D7
:100A70000101A70E046F020E056F000E066F000E37
:100A8000076F5EC100F15FC101F160C102F161C198
:100A900003F11AEC31F003BF04D01CBE02D01CA03D
:100AA000108C11A059EF05F010BA59EF05F00F8026
:100AB000108A0CC100F10DC101F10EC102F10FC18C
:100AC00003F110C104F111C105F112C106F113C106
:100AD00007F114C108F115C109F116C10AF117C1D6
:100AE0000BF135C134F147EF0BF00392ABB2AB9889
:100AF000AB88030103EE00F080517F0BE92604C0B0
:100B0000EFFF802B8151805D700BD8A48B82000099
:100B10008051815D700BD8A48B9281518019D8B41B
:100B2000079047EF0BF0F2940101453F47EF0BF0C0
:100B3000462B47EF0BF09E900101533F47EF0BF020
:100B4000542B47EF0BF09E9211B843EF08F00400CE
:100B500066A1ABEF05F08BB4B5EF05F010ACB5EFC7
:100B600005F08B84109CB6EF05F08B94077C07ACE6
:100B7000D1EF05F0C274C2B4CBEF05F0C3CFB7F527
:100B8000C4CFB8F50501D890B833B733D890B8338F
:100B9000B733D2EF05F0C3CF55F1C4CF56F1D2EF42
:100BA00005F0C28207B444EF06F047C14BF148C1DB
:100BB0004CF149C14DF14AC14EF15EC162F15FC1D4
:100BC00063F160C164F161C165F113A8EAEF05F05A
:100BD000138C13989AC1BAF19BC1BBF19CC1BCF1B3
:100BE0009DC1BDF19EC1BEF19FC1BFF1A0C1C0F1C9
:100BF000A1C1C1F1A2C1C2F1A3C1C3F1A4C1C4F199
:100C0000A5C1C5F1A6C1C6F1A7C1C7F1A8C1C8F168
:100C1000A9C1C9F1AAC1CAF1ABC1CBF1ACC1CCF138
:100C2000ADC1CDF1AEC1CEF1AFC1CFF1B0C1D0F108
:100C3000B1C1D1F1B2C1D2F1B3C1D3F1B4C1D4F1D8
:100C4000B5C1D5F1B6C1D6F1B7C1D7F1B8C1D8F1A8
:100C5000B9C1D9F1B7C5B9F5B8C5BAF5B9C5BBF5CC
:100C6000BAC5BCF5010155515B2756515C23E86AB2
:100C70005D230E2E44EF06F05CC157F15DC158F1C3
:100C80005B6B5C6B5D6B078E0201002F47EF0BF017
:100C90003C0E006F1D50E00BE00AE86612881BBE98
:100CA00002D01BB4108E00C10CF101C10DF102C1C4
:100CB0000EF103C10FF104C110F105C111F106C11C
:100CC00012F107C113F108C114F109C115F10AC1EC
:100CD00016F10BC117F134C135F181AAACEF06F062
:100CE00015A4F7EF06F005012F51000AD8B43AEF2A
:100CF00007F005012F51010AD8B4B6EF06F005013F
:100D00002F51020AD8B4F7EF06F005012F51030A5C
:100D1000D8B4F7EF06F005012F51040AD8B4F7EF65
:100D200006F005012F51050AD8B4F7EF06F00501CA
:100D30002F51060AD8B4F7EF06F005012F51070A24
:100D4000D8B4F7EF06F005012F51320AD8B4B4EF4A
:100D500006F02F6B3AEF07F000011650030AD8B4E3
:100D6000F7EF06F03AEF07F03AEF07F005015767A3
:100D7000C1EF06F05867C1EF06F05967C1EF06F002
:100D80005A67C5EF06F03AEF07F05BC500F15CC5A6
:100D900001F15DC502F15EC503F10101010E046FB1
:100DA000000E056F000E066F000E076F1AEC31F093
:100DB00000C15BF501C15CF502C15DF503C15EF5E3
:100DC00001010067EBEF06F00167EBEF06F0026749
:100DD000EBEF06F003673AEF07F057C55BF558C530
:100DE0005CF559C55DF55AC55EF524EF07F00FBEF9
:100DF0000CEF07F010A011EF07F00101476708EFB3
:100E000007F0486708EF07F0496708EF07F04A67FF
:100E10000CEF07F011EF07F007AE11EF07F024EF2A
:100E200007F00501312F3AEF07F03C0E316F302FFC
:100E30003AEF07F00101000E626FE00E636FA50E3E
:100E4000646F010E656F138800011650000AD8B454
:100E500032EF07F000011650030AD8B437EF07F05D
:100E60003AEF07F00001010E166E3AEF07F00001AD
:100E7000040E166E0501666B37B740EF07F066810A
:100E80000CC100F10DC101F10EC102F10FC103F15E
:100E900010C104F111C105F112C106F113C107F12E
:100EA00014C108F115C109F116C10AF117C10BF1FE
:100EB00035C134F100C10CF101C10DF102C10EF1D7
:100EC00003C10FF104C110F105C111F106C112F106
:100ED00007C113F108C114F109C115F10AC116F1D6
:100EE0000BC117F134C135F101018E677FEF07F0B7
:100EF0008F677FEF07F090677FEF07F0916783EFD1
:100F000007F0B4EF07F092C100F193C101F194C171
:100F100002F195C103F10101010E046F000E056F8E
:100F2000000E066F000E076F1AEC31F000C192F14F
:100F300001C193F102C194F103C195F10101006770
:100F4000A9EF07F00167A9EF07F00267A9EF07F023
:100F50000367B4EF07F08EC192F18FC193F190C196
:100F600094F191C195F10F80D57ED5BE6ED0D6CFCC
:100F700047F1D7CF48F145C149F1E86AE8CF4AF1D6
:100F8000138A1CBE02D01CA0108C109047C100F127
:100F900048C101F149C102F14AC103F101010A0E40
:100FA000046F000E056F000E066F000E076F1AEC3F
:100FB00031F003AF1080010154A7EBEF07F00F9A57
:100FC0000F9C0F9E0101000E5E6F600E5F6F3D0E65
:100FD000606F080E616F010147BFFBEF07F04867C4
:100FE000FBEF07F04967FBEF07F04A67FBEF07F0FD
:100FF000F28820EF08F0F2985E6B5F6B606B616BBC
:101000009A6B9B6B9C6B9D6B9E6B9F6BA06BA16B9C
:10101000A26BA36BA46BA56BA66BA76BA86BA96B4C
:10102000AA6BAB6BAC6BAD6BAE6BAF6BB06BB16BFC
:10103000B26BB36BB46BB56BB66BB76BB86BB96BAC
:10104000D76AD66A0101456B466B0CC100F10DC130
:1010500001F10EC102F10FC103F110C104F111C180
:1010600005F112C106F113C107F114C108F115C150
:1010700009F116C10AF117C10BF135C134F147EF7F
:101080000BF047EF0BF00201002FABEF0AF0D59EFB
:10109000D6CF47F1D7CF48F145C149F1E86AE8CF4B
:1010A0004AF1138AD76AD66A0101456B466BD58E21
:1010B0001D50E00BE00AE86612881BBE02D01BB48C
:1010C000108E1AAE1F8C00C10CF101C10DF102C1CE
:1010D0000EF103C10FF104C110F105C111F106C1F8
:1010E00012F107C113F108C114F109C115F10AC1C8
:1010F00016F10BC117F134C135F10FA0109A11B8D8
:101100008DEF08F00101620E046F010E056F000EF5
:10111000066F000E076F96EF08F00101A70E046F2F
:10112000020E056F000E066F000E076F47C100F13B
:1011300048C101F149C102F14AC103F11AEC31F091
:1011400003BFA9EF08F01CBE02D01CA0108C11B088
:101150000F800CC100F10DC101F10EC102F10FC1F0
:1011600003F110C104F111C105F112C106F113C15F
:1011700007F114C108F115C109F116C10AF117C12F
:101180000BF135C134F102013C0E006F00C10CF1CE
:1011900001C10DF102C10EF103C10FF104C110F143
:1011A00005C111F106C112F107C113F108C114F113
:1011B00009C115F10AC116F10BC117F134C135F19E
:1011C00081BAE6EF08F015B225EF09F015A025EF7A
:1011D00009F015A470EF09F005012F51000AD8B4E9
:1011E000B3EF09F005012F51010AD8B42FEF09F030
:1011F00005012F51020AD8B470EF09F005012F51F3
:10120000030AD8B470EF09F005012F51040AD8B4CD
:1012100070EF09F005012F51050AD8B470EF09F0FD
:1012200005012F51060AD8B470EF09F005012F51BE
:10123000070AD8B470EF09F005012F51320AD8B46B
:101240002DEF09F02F6BB3EF09F000011650030AE0
:10125000D8B470EF09F0B3EF09F0B3EF09F005016E
:1012600057673AEF09F058673AEF09F059673AEFD4
:1012700009F05A673EEF09F0B3EF09F05BC500F1E2
:101280005CC501F15DC502F15EC503F10101010E0E
:10129000046F000E056F000E066F000E076F1AEC4C
:1012A00031F000C15BF501C15CF502C15DF503C120
:1012B0005EF50101006764EF09F0016764EF09F072
:1012C000026764EF09F00367B3EF09F057C55BF5F8
:1012D00058C55CF559C55DF55AC55EF59DEF09F039
:1012E0000FBE85EF09F010A08AEF09F001014767F2
:1012F00081EF09F0486781EF09F0496781EF09F054
:101300004A6785EF09F08AEF09F007AE8AEF09F026
:101310009DEF09F00501312FB3EF09F03C0E316F5D
:10132000302FB3EF09F00101000E626FE00E636F22
:10133000A50E646F010E656F138800011650000A38
:10134000D8B4ABEF09F000011650030AD8B4B0EFDF
:1013500009F0B3EF09F00001010E166EB3EF09F0CA
:101360000001040E166E0501666B37B7B9EF09F080
:1013700066810CC100F10DC101F10EC102F10FC176
:1013800003F110C104F111C105F112C106F113C13D
:1013900007F114C108F115C109F116C10AF117C10D
:1013A0000BF135C134F100C10CF101C10DF102C1E5
:1013B0000EF103C10FF104C110F105C111F106C115
:1013C00012F107C113F108C114F109C115F10AC1E5
:1013D00016F10BC117F134C135F101018E67F8EF39
:1013E00009F08F67F8EF09F09067F8EF09F091675F
:1013F000FCEF09F02DEF0AF092C100F193C101F169
:1014000094C102F195C103F10101010E046F000EB8
:10141000056F000E066F000E076F1AEC31F000C169
:1014200092F101C193F102C194F103C195F101015F
:10143000006722EF0AF0016722EF0AF0026722EF4D
:101440000AF003672DEF0AF08EC192F18FC193F17C
:1014500090C194F191C195F10F80109047C100F1B6
:1014600048C101F149C102F14AC103F101010A0E6B
:10147000046F000E056F000E066F000E076F1AEC6A
:1014800031F003AF1080010154A753EF0AF00F9A17
:101490000F9C0F9E0101000E5E6F600E5F6F3D0E90
:1014A000606F080E616F47C100F148C101F149C189
:1014B00002F14AC103F10101140E046F050E056F1C
:1014C000000E066F000E076F1AEC31F003AF6CEFE1
:1014D0000AF0F28891EF0AF0F2985E6B5F6B606B36
:1014E000616B9A6B9B6B9C6B9D6B9E6B9F6BA06BF8
:1014F000A16BA26BA36BA46BA56BA66BA76BA86B70
:10150000A96BAA6BAB6BAC6BAD6BAE6BAF6BB06B1F
:10151000B16BB26BB36BB46BB56BB66BB76BB86BCF
:10152000B96B0CC100F10DC101F10EC102F10FC187
:1015300003F110C104F111C105F112C106F113C18B
:1015400007F114C108F115C109F116C10AF117C15B
:101550000BF135C134F104008BB4B6EF0AF010ACD6
:10156000B6EF0AF08B84109CB7EF0AF08B94077CDF
:1015700007ACD2EF0AF0C274C2B4CCEF0AF0C3CF0A
:10158000B7F5C4CFB8F50501D890B833B733D890C4
:10159000B833B733D3EF0AF0C3CF55F1C4CF56F108
:1015A000D3EF0AF0C28207B445EF0BF047C14BF10D
:1015B00048C14CF149C14DF14AC14EF15EC162F1E1
:1015C0005FC163F160C164F161C165F113A8EBEF24
:1015D0000AF0138C13989AC1BAF19BC1BBF19CC15C
:1015E000BCF19DC1BDF19EC1BEF19FC1BFF1A0C1C3
:1015F000C0F1A1C1C1F1A2C1C2F1A3C1C3F1A4C193
:10160000C4F1A5C1C5F1A6C1C6F1A7C1C7F1A8C162
:10161000C8F1A9C1C9F1AAC1CAF1ABC1CBF1ACC132
:10162000CCF1ADC1CDF1AEC1CEF1AFC1CFF1B0C102
:10163000D0F1B1C1D1F1B2C1D2F1B3C1D3F1B4C1D2
:10164000D4F1B5C1D5F1B6C1D6F1B7C1D7F1B8C1A2
:10165000D8F1B9C1D9F1B7C5B9F5B8C5BAF5B9C5A9
:10166000BBF5BAC5BCF5010155515B2756515C234A
:10167000E86A5D230E2E45EF0BF05CC157F15DC1AA
:1016800058F15B6B5C6B5D6B078E47EF0BF002C034
:10169000E0FF005001C0D8FF1000A6B24DEF0BF0E4
:1016A0000CC0A9FF0BC0A8FFA69EA69CA684F29E14
:1016B000550EA76EAA0EA76EA682F28EA694A6B2AB
:1016C0005FEF0BF00C2A1200A96EA69EA69CA680C6
:1016D000A8500C2A120004012C0E826FA2EC0EF00E
:1016E0002FEC32F00C5064EC0BF0E8CF00F10C5012
:1016F00064EC0BF0E8CF01F101AF84EF0BF00101D6
:10170000FF0E026FFF0E036FB8EC31F0296790EF08
:101710000BF00401200E826FA2EC0EF095EF0BF09F
:1017200004012D0E826FA2EC0EF0C2EC2FF012001D
:1017300015941596076A0F6A106A116A126A136A7D
:10174000166A0F010D0EC16E860EC06E030EC26EBC
:101750000F01680E896E130E926E080E8A6EF30EDC
:10176000936E8B6A900E946EC80E64EC0BF0E8CF0B
:1017700025F000012550FE0AD8B4CAEF0BF0000195
:101780002550FD0AD8B4CFEF0BF00F0E266E8F0E4A
:10179000276E09D00E0E266E8E0E276E04D00D0E0B
:1017A000266E8D0E276ECDEC32F00DEC34F0F18EFE
:1017B000F19EFC0E64EC0BF0E8CF0BF00BA0118057
:1017C0000BA211820BA411840BA81188C90E64EC22
:1017D0000BF0E8CF1AF0CA0E64EC0BF0E8CF1BF068
:1017E000CB0E64EC0BF0E8CF1CF0CC0E64EC0BF0ED
:1017F000E8CF1DF0FB0E64EC0BF0E8CF38F0CE0E16
:1018000064EC0BF0E8CF14F0CD0E64EC0BF0E8CFF5
:1018100037F01F6A206A0E6A01015B6B5C6B5D6BBF
:10182000576B586BF29A0101476B486B496B4A6BD7
:101830004B6B4C6B4D6B4E6B4F6B506B516B526BDC
:10184000456B466BD76AD66A0F01280ED56EF28AB1
:101850009D90B00ECD6E01015E6B5F6B606B616B36
:10186000626B636B646B656B666B676B686B696BF4
:10187000536B546BCF6ACE6A0F9A0F9C0F9E9D805C
:10188000760ECA6E9D8202013C0E006FCC6A160E67
:1018900064EC0BF0E8CF00F1170E64EC0BF0E8CF2E
:1018A00001F1180E64EC0BF0E8CF02F1190E64ECB4
:1018B0000BF0E8CF03F1010103AF79EF0CF02FEC4F
:1018C00032F0160E0C6E00C10BF04DEC0BF0170E43
:1018D0000C6E01C10BF04DEC0BF0180E0C6E02C13A
:1018E0000BF04DEC0BF0190E0C6E03C10BF04DEC30
:1018F0000BF000C18EF101C18FF102C190F103C163
:1019000091F100C192F101C193F102C194F103C1BF
:1019100095F11A0E64EC0BF0E8CF00F11B0E64ECAD
:101920000BF0E8CF01F11C0E64EC0BF0E8CF02F1F4
:101930001D0E64EC0BF0E8CF03F1010103AFCFEF14
:101940000CF02FEC32F01A0E0C6E00C10BF04DECC7
:101950000BF01B0E0C6E01C10BF04DEC0BF01C0ECE
:101960000C6E02C10BF04DEC0BF01D0E0C6E03C1A2
:101970000BF04DEC0BF01A0E64EC0BF0E8CF00F11D
:101980001B0E64EC0BF0E8CF01F11C0E64EC0BF0C5
:10199000E8CF02F11D0E64EC0BF0E8CF03F100C1BB
:1019A00096F101C197F102C198F103C199F1240E9A
:1019B000AC6E900EAB6E240EAC6E080EB86E000EC0
:1019C000B06E1F0EAF6E0401806B816B0F01900E25
:1019D000AB6E0F019D8A0301806B816BC26B8B9292
:1019E0009EEC37F09EEC37F080EC39F07CEC35F073
:1019F000200E64EC0BF0E8CF2FF505012F51FF0A04
:101A0000D8A40AEF0DF02F6B200E0C6E2FC50BF033
:101A10004DEC0BF00501010E306F3C0E316F250EC1
:101A200064EC0BF0E8CF00F1260E64EC0BF0E8CF8D
:101A300001F1270E64EC0BF0E8CF02F1280E64EC04
:101A40000BF0E8CF03F1010103AF41EF0DF02FECF4
:101A500032F0250E0C6E00C10BF04DEC0BF0260E93
:101A60000C6E01C10BF04DEC0BF0270E0C6E02C199
:101A70000BF04DEC0BF0280E0C6E03C10BF04DEC8F
:101A80000BF000C157F501C158F502C159F503C16A
:101A90005AF500C15BF501C15CF502C15DF503C1FA
:101AA0005EF5290E64EC0BF0E8CF5FF5050160519F
:101AB0005F5DD8A05FC560F5210E64EC0BF0E8CF48
:101AC00000F1220E64EC0BF0E8CF01F1230E64EC80
:101AD0000BF0E8CF02F1240E64EC0BF0E8CF03F139
:101AE000010103AFA2EF0DF02FEC32F0210E0C6ECE
:101AF00000C10BF04DEC0BF0220E0C6E01C10BF08F
:101B00004DEC0BF0230E0C6E02C10BF04DEC0BF004
:101B1000240E0C6E03C10BF04DEC0BF0210E64ECA7
:101B20000BF0E8CF00F1220E64EC0BF0E8CF01F1EE
:101B3000230E64EC0BF0E8CF02F1240E64EC0BF002
:101B4000E8CF03F100C161F501C162F502C163F59F
:101B500003C164F58DEC34F0AAEC33F0E0EC32F024
:101B60001590C70E64EC0BF0E8CF00F1010100B155
:101B7000BDEF0DF01592BEEF0DF0158281AACCEFEE
:101B80000DF015B4C7EF0DF01580CCEF0DF0BFECE4
:101B900039F015A026EF3AF007900001F28EF28C92
:101BA00012AE03D012BC7AEF19F007B041EF2EF05D
:101BB0000FB031EF27F010BE31EF27F012B831EF40
:101BC00027F000011650010AD8B439EF1EF081BA8F
:101BD000F2EF0DF000011650040AD8B437EF1CF0F4
:101BE000F8EF0DF000011650040AD8B475EF1EF09E
:101BF0000301805181197F0BD8B441EF2EF013EE11
:101C000000F081517F0BE126812BE7CFE8FFE00B4D
:101C1000D8B441EF2EF023EE82F0C2513F0BD9260B
:101C2000E7CFDFFFC22BDF50780AD8A441EF2EF0B8
:101C3000078092C100F193C101F194C102F195C1F5
:101C400003F10101040E046F000E056F000E066F14
:101C5000000E076F1AEC31F000AF38EF0EF0010103
:101C6000030E926F000E936F000E946F000E956F2F
:101C700003018251720AD8B4B2EF26F08251520A9F
:101C8000D8B4B2EF26F08251750AD8B4B2EF26F07C
:101C90008251680AD8B4B6EF0EF08251630AD8B404
:101CA000FBEF2AF08251690AD8B47FEF21F082510C
:101CB0007A0AD8B492EF22F08251490AD8B41EEFC2
:101CC00021F08251500AD8B43CEF20F08251700AC2
:101CD000D8B47FEF20F08251540AD8B4AAEF20F094
:101CE0008251740AD8B4F0EF20F08251410AD8B47E
:101CF000BBEF0FF082514B0AD8B4B8EF0EF082510F
:101D00006D0AD8B42BEF14F082514D0AD8B444EFC9
:101D100014F08251730AD8B4E2EF25F08251530ACD
:101D2000D8B447EF26F082514C0AD8B4D3EF14F060
:101D30008251590AD8B47CEF13F012AE01D0128C44
:101D400032EF2BF0040114EE00F080517F0BE126FE
:101D500082C4E7FF802B120004010D0E826FA2ECFB
:101D60000EF00A0E826FA2EC0EF0120030EF2BF094
:101D700004014B0E826FA2EC0EF004012C0E826F58
:101D8000A2EC0EF081B802D037B630D003018351F7
:101D9000430AD8B4FDEF0EF003018351630AD8B4AF
:101DA000FFEF0EF003018351520AD8B401EF0FF098
:101DB00003018351720AD8B403EF0FF0030183517A
:101DC000470AD8B405EF0FF003018351670AD8B46E
:101DD00007EF0FF003018351540AD8B409EF0FF055
:101DE00003018351740AD8B479EF0FF003018351D2
:101DF000550AD8B40BEF0FF083D037807BD03790E3
:101E000079D0378277D0379275D0378473D03794B2
:101E100071D037866FD084C330F185C331F186C36A
:101E200032F187C333F10101296B7DEC32F0F4EC20
:101E300031F000C104F101C105F102C106F103C195
:101E400007F170EC32F0200EF86EF76AF66A0900BE
:101E5000F5CF2CF10900F5CF2DF10900F5CF2EF1CA
:101E60000900F5CF2FF10900F5CF30F10900F5CFCA
:101E700031F10900F5CF32F10900F5CF33F101015D
:101E8000296B7DEC32F0F4EC31F01AEC31F0010109
:101E9000006752EF0FF0016752EF0FF0026752EF49
:101EA0000FF0036701D025D004014E0E826FA2EC23
:101EB0000EF004016F0E826FA2EC0EF004014D0EC5
:101EC000826FA2EC0EF00401610E826FA2EC0EF0A4
:101ED0000401740E826FA2EC0EF00401630E826F97
:101EE000A2EC0EF00401680E826FA2EC0EF030EF4F
:101EF0002BF03796CD0E0C6E37C00BF04DEC0BF07F
:101F0000CD0E64EC0BF0E8CF37F037B006D004010B
:101F1000630E826FA2EC0EF005D00401430E826FB7
:101F2000A2EC0EF037B206D00401720E826FA2EC62
:101F30000EF005D00401520E826FA2EC0EF037B401
:101F400006D00401670E826FA2EC0EF005D00401EA
:101F5000470E826FA2EC0EF037B606D00401740E65
:101F6000826FA2EC0EF005D00401540E826FA2EC39
:101F70000EF030EF2BF00401410E826FA2EC0EF058
:101F800003018351310AD8B49CEF12F0030183514D
:101F9000320AD8B4CCEF11F003018351330AD8B41C
:101FA00055EF11F003018351340AD8B445EF10F016
:101FB00003018351350AD8B4E5EF0FF004013F0E59
:101FC000826FA2EC0EF030EF2BF003018451300A47
:101FD000D8B40BEF10F003018451310AD8B40EEFDE
:101FE00010F003018451650AD8B4FFEF0FF003012C
:101FF0008451640AD8B402EF10F00FEF10F038905B
:1020000003EF10F03880FB0E0C6E38C00BF04DEC77
:102010000BF00FEF10F08B900FEF10F08B8004019E
:10202000350E826FA2EC0EF004012C0E826FA2EC32
:102030000EF08BB023EF10F00401300E826FA2EC93
:102040000EF028EF10F00401310E826FA2EC0EF0BA
:1020500004012C0E826FA2EC0EF0FB0E64EC0BF070
:10206000E8CF38F038A03CEF10F00401640E826F26
:10207000A2EC0EF041EF10F00401650E826FA2ECAD
:102080000EF043EF10F030EF2BF0CC0E64EC0BF0C1
:10209000E8CF0BF004012C0E826FA2EC0EF00301CE
:1020A0008451310AD8B469EF10F003018451300A29
:1020B000D8B46BEF10F0030184514D0AD8B475EF1A
:1020C00010F003018451540AD8B47CEF10F093EF60
:1020D00010F08A8401D08A940BAE04D00BAC02D0ED
:1020E0000BBA21D0E00E0B1218D01F0E0B1685393B
:1020F000E844E00B0B1211D0E00E0B1670EC32F03E
:1021000085C332F186C333F10101296B7DEC32F0D6
:10211000F4EC31F000511F0B0B12CC0E0C6E0BC007
:102120000BF04DEC0BF00401340E826FA2EC0EF0BC
:1021300004012C0E826FA2EC0EF0CC0E64EC0BF0BE
:10214000E8CF1DF08AB406D00401300E826FA2ECF5
:102150000EF005D00401310E826FA2EC0EF00401E6
:102160002C0E826FA2EC0EF01D38E840070BE8CF72
:1021700082F40401300E8227A2EC0EF004012C0E32
:10218000826FA2EC0EF02FEC32F01D501F0BE8CF47
:1021900000F1B8EC31F032C182F40401300E822734
:1021A000A2EC0EF033C182F40401300E8227A2ECBF
:1021B0000EF004012C0E826FA2EC0EF02FEC32F028
:1021C00031C000F100AF0BD0FF0E016FFF0E026FA8
:1021D000FF0E036F04012D0E826FA2EC0EF0B8EC1F
:1021E00031F031C182F40401300E8227A2EC0EF0EE
:1021F00032C182F40401300E8227A2EC0EF033C10A
:1022000082F40401300E8227A2EC0EF004012C0EA1
:10221000826FA2EC0EF02FEC32F030C000F1B8EC7F
:1022200031F031C182F40401300E8227A2EC0EF0AD
:1022300032C182F40401300E8227A2EC0EF033C1C9
:1022400082F40401300E8227A2EC0EF004012C0E61
:10225000826FA2EC0EF02FEC32F032C000F100AF32
:102260000BD0FF0E016FFF0E026FFF0E036F040114
:102270002D0E826FA2EC0EF0B8EC31F031C182F479
:102280000401300E8227A2EC0EF032C182F4040168
:10229000300E8227A2EC0EF033C182F40401300E1E
:1022A0008227A2EC0EF030EF2BF0CB0E64EC0BF09B
:1022B000E8CF0BF004012C0E826FA2EC0EF00301AC
:1022C0008451450AD8B479EF11F003018451440ACE
:1022D000D8B47CEF11F003018451300AD8B47FEFF9
:1022E00011F003018451310AD8B483EF11F08EEF5D
:1022F00011F00B9E88EF11F00B8E88EF11F0FC0EA1
:102300000B1688EF11F0FC0E0B160B8088EF11F006
:10231000CB0E0C6E0BC00BF04DEC0BF00401330E2A
:10232000826FA2EC0EF004012C0E826FA2EC0EF074
:10233000CB0E64EC0BF0E8CF1CF01CBEA7EF11F045
:102340000401450E826FA2EC0EF0ACEF11F0040117
:10235000440E826FA2EC0EF004012C0E826FA2ECF0
:102360000EF00401300E826FA2EC0EF004012C0E70
:10237000826FA2EC0EF01CB0C5EF11F00401300E1C
:10238000826FA2EC0EF0CAEF11F00401310E826FE1
:10239000A2EC0EF030EF2BF0CA0E64EC0BF0E8CF9D
:1023A0000BF004012C0E826FA2EC0EF0030184519D
:1023B000450AD8B408EF12F003018451440AD8B496
:1023C0000BEF12F0030184514D0AD8B414EF12F050
:1023D00003018451410AD8B40EEF12F00301845175
:1023E000460AD8B411EF12F003018451560AD8B44A
:1023F0001CEF12F003018451500AD8B427EF12F0F9
:1024000003018451520AD8B42AEF12F033EF12F0CC
:102410000B9E2DEF12F00B8E2DEF12F00B9C2DEF7B
:1024200012F00B8C2DEF12F0FC0E0B1685C3E8FF9B
:10243000030B0B122DEF12F0C70E0B1685C3E8FF2E
:10244000070BE846E846E8460B122DEF12F00B8426
:102450002DEF12F00B942DEF12F0CA0E0C6E0BC084
:102460000BF04DEC0BF0CA0E64EC0BF0E8CF1BF058
:102470000401320E826FA2EC0EF004012C0E826F6A
:10248000A2EC0EF01BBE4CEF12F00401450E826F61
:10249000A2EC0EF051EF12F00401440E826FA2EC98
:1024A0000EF004012C0E826FA2EC0EF01BC0E8FFB0
:1024B000030BE8CF82F40401300E8227A2EC0EF069
:1024C00004012C0E826FA2EC0EF01BBC6FEF12F019
:1024D0000401410E826FA2EC0EF074EF12F00401C1
:1024E000460E826FA2EC0EF004012C0E826FA2EC5D
:1024F0000EF01BC0E8FF380BE842E842E842E8CFA4
:1025000082F40401300E8227A2EC0EF004012C0E9E
:10251000826FA2EC0EF01BB495EF12F00401520E84
:10252000826FA2EC0EF09AEF12F00401500E826F4F
:10253000A2EC0EF030EF2BF0C90E64EC0BF0E8CFFC
:102540000BF004012C0E826FA2EC0EF003018451FB
:10255000450AD8B4BAEF12F003018451440AD8B442
:10256000BDEF12F0030184514D0AD8B4C0EF12F050
:10257000CEEF12F00B9EC8EF12F00B8EC8EF12F0E8
:10258000F80E0B1685C3E8FF070B0B12C8EF12F00D
:10259000C90E0C6E0BC00BF04DEC0BF00401310EAC
:1025A000826FA2EC0EF004012C0E826FA2EC0EF0F2
:1025B000C90E64EC0BF0E8CF1AF01ABE06D0040185
:1025C000450E826FA2EC0EF005D00401440E826F1E
:1025D000A2EC0EF004012C0E826FA2EC0EF01AC0D9
:1025E000E8FF070BE8CF82F40401300E8227A2EC4B
:1025F0000EF004012C0E826FA2EC0EF007802FEC7F
:1026000032F02CC0E8FF003B00430043030BB8EC62
:1026100031F033C182F40401300E8227A2EC0EF0B7
:1026200004012C0E826FA2EC0EF02FEC32F02CC0C5
:1026300001F1019F019D2DC000F10101B8EC31F0C5
:102640002FC182F40401300E8227A2EC0EF030C1BB
:1026500082F40401300E8227A2EC0EF031C182F424
:102660000401300E8227A2EC0EF032C182F4040184
:10267000300E8227A2EC0EF033C182F40401300E3A
:102680008227A2EC0EF004012C0E826FA2EC0EF059
:102690002FEC32F02EC001F12FC000F1D8900133A1
:1026A0000033D890013300330101B8EC31F02FC171
:1026B00082F40401300E8227A2EC0EF030C182F4C5
:1026C0000401300E8227A2EC0EF031C182F4040125
:1026D000300E8227A2EC0EF032C182F40401300EDB
:1026E0008227A2EC0EF033C182F40401300E82275F
:1026F000A2EC0EF030EF2BF0FC0E64EC0BF0E8CF08
:102700000BF003018351520AD8B4B3EF13F0030165
:102710008351720AD8B4B6EF13F003018351500A03
:10272000D8B4B9EF13F003018351700AD8B4BCEFE9
:1027300013F003018351550AD8B4BFEF13F003011E
:102740008351750AD8B4C2EF13F003018351430AD1
:10275000D8B4CBEF13F003018351630AD8B4CEEFA2
:1027600013F0D7EF13F00B90D1EF13F00B80D1EFF4
:1027700013F00B92D1EF13F00B82D1EF13F00B9407
:10278000D1EF13F00B84D1EF13F00B96D1EF13F0D0
:102790000B86D1EF13F00B98D1EF13F00B88D1EF2C
:1027A00013F0FC0E0C6E0BC00BF04DEC0BF00401A3
:1027B000590E826FA2EC0EF01190119211941198A3
:1027C000FC0E64EC0BF0E8CF0BF00BA011800BA219
:1027D00011820BA411840BA8118811A0F7EF13F03C
:1027E0000401520E826FA2EC0EF0FCEF13F0040114
:1027F000720E826FA2EC0EF011A806EF14F0040125
:10280000430E826FA2EC0EF00BEF14F00401630E86
:10281000826FA2EC0EF011A215EF14F00401500E1D
:10282000826FA2EC0EF01AEF14F00401700E826FAA
:10283000A2EC0EF011A424EF14F00401550E826FE7
:10284000A2EC0EF029EF14F00401750E826FA2ECD9
:102850000EF030EF2BF004016D0E826FA2EC0EF043
:1028600003018351300AD8B483EF14F0030183517C
:10287000310AD8B496EF14F003018351320AD8B468
:10288000A9EF14F032EF2BF004014D0E826FA2EC91
:102890000EF070EC32F084C331F185C332F186C39F
:1028A00033F10101296B7DEC32F0F4EC31F00301DE
:1028B0008351300AD8B46BEF14F003018351310A0D
:1028C000D8B473EF14F003018351320AD8B47BEF0C
:1028D00014F032EF2BF0FD0E0C6E00C10BF04DEC3E
:1028E0000BF083EF14F0FE0E0C6E00C10BF04DECFC
:1028F0000BF096EF14F0FF0E0C6E00C10BF04DECD8
:102900000BF0A9EF14F00401300E826FA2EC0EF070
:1029100004012C0E826FA2EC0EF02FEC32F0FD0EB3
:1029200064EC0BF0E8CF00F1BAEF14F00401310EC3
:10293000826FA2EC0EF004012C0E826FA2EC0EF05E
:102940002FEC32F0FE0E64EC0BF0E8CF00F1BAEFA2
:1029500014F00401320E826FA2EC0EF02FEC32F074
:1029600004012C0E826FA2EC0EF0FF0E64EC0BF053
:10297000E8CF00F1B8EC31F031C182F40401300E3F
:102980008227A2EC0EF032C182F40401300E8227BD
:10299000A2EC0EF033C182F40401300E8227A2ECC7
:1029A0000EF030EF2BF003018351300AD8B427EF3B
:1029B0001AF003018351310AD8B465EF1BF003010B
:1029C0008351320AD8B4D3EF1BF003018351330A89
:1029D000D8B4E3EF1BF003018351340AD8B43EEFBF
:1029E0001CF003018351350AD8B48DEF1EF00301AA
:1029F0008351360AD8B4BBEF1EF003018351370A66
:102A0000D8B4FFEF17F003018351380AD8B49DEF13
:102A100018F003018351440AD8B42BEF16F00301D8
:102A20008351640AD8B44BEF16F003018351460A70
:102A3000D8B492EF1DF0030183514D0AD8B478EF5A
:102A400016F0030183516D0AD8B492EF16F003011A
:102A500083515A0AD8B4DFEF1AF003018351490AAF
:102A6000D8B4BBEF1FF003018351500AD8B4EDEF87
:102A70001EF003018351540AD8B466EF1FF003011E
:102A80008351630AD8B4B2EF16F003018351430AAD
:102A9000D8B4AAEF17F003018351730AD8B4B0EF8A
:102AA00016F003018351610AD8B478EF15F00301E1
:102AB0008351650AD8B477EF1AF003018351450AB0
:102AC000D8B485EF1AF003018351620AD8B493EFAA
:102AD0001AF003018351420AD8B4A1EF1AF003019E
:102AE0008351760AD8B4AFEF1AF0D8A432EF2BF0A6
:102AF00004014C0E826FA2EC0EF00401610E826F95
:102B0000A2EC0EF0AAEC33F004012C0E826FA2ECC2
:102B10000EF02FEC32F0AFC500F10101B8EC31F04E
:102B200031C182F40401300E8227A2EC0EF032C1D2
:102B300082F40401300E8227A2EC0EF033C182F43D
:102B40000401300E8227A2EC0EF004012C0E826FDD
:102B5000A2EC0EF02FEC32F0B0C500F10101B8ECA0
:102B600031F031C182F40401300E8227A2EC0EF064
:102B700032C182F40401300E8227A2EC0EF033C180
:102B800082F40401300E8227A2EC0EF004012C0E18
:102B9000826FA2EC0EF02FEC32F0B1C500F1010112
:102BA000B8EC31F031C182F40401300E8227A2EC7E
:102BB0000EF032C182F40401300E8227A2EC0EF036
:102BC00033C182F40401300E8227A2EC0EF004011E
:102BD0002C0E826FA2EC0EF02FEC32F0B2C500F199
:102BE0000101B8EC31F031C182F40401300E8227CA
:102BF000A2EC0EF032C182F40401300E8227A2EC66
:102C00000EF033C182F40401300E8227A2EC0EF0E4
:102C100004012C0E826FA2EC0EF02FEC32F0B6C540
:102C200000F10101B8EC31F031C182F40401300E41
:102C30008227A2EC0EF032C182F40401300E82270A
:102C4000A2EC0EF033C182F40401300E8227A2EC14
:102C50000EF0E9EF1EF003018451300AD8B437EFCB
:102C600016F003018451310AD8B43BEF16F01592E7
:102C700015963CEF16F01582C70E64EC0BF0E8CF0A
:102C800000F10101008115A20091C70E0C6E00C178
:102C90000BF04DEC0BF0C70E64EC0BF0E8CF00F13D
:102CA000010100B157EF16F0159258EF16F015829A
:102CB00004014C0E826FA2EC0EF00401640E826FD0
:102CC000A2EC0EF004012C0E826FA2EC0EF015B2F5
:102CD00071EF16F00401300E826FA2EC0EF076EF69
:102CE00016F00401310E826FA2EC0EF030EF2BF0E3
:102CF00070EC32F084C333F17DEC32F0F4EC31F05F
:102D0000200E0C6E00C10BF04DEC0BF000C12FF546
:102D100005012F51000A06E005012F51010A02E0CA
:102D20000DEC34F004014C0E826FA2EC0EF00401A5
:102D30004D0E826FA2EC0EF004012C0E826FA2ECFD
:102D40000EF02FEC32F02FC500F1B8EC31F033C1AA
:102D500082F40401300E8227A2EC0EF0E9EF1EF09F
:102D600026EF3AF004014C0E826FA2EC0EF0040143
:102D7000630E826FA2EC0EF0E0EC32F004012C0E38
:102D8000826FA2EC0EF0C7EC16F0E9EF1EF02FEC0C
:102D900032F0B5C500F10101003B0F0E0017B8EC91
:102DA00031F033C182F40401300E8227A2EC0EF020
:102DB000B5C500F101010F0E01010017B8EC31F0AB
:102DC00033C182F40401300E8227A2EC0EF004011C
:102DD0002D0E826FA2EC0EF0B4C500F10101003B94
:102DE0000F0E0017B8EC31F033C182F40401300E3D
:102DF0008227A2EC0EF0B4C500F101010F0E010113
:102E00000017B8EC31F033C182F40401300E822790
:102E1000A2EC0EF004012D0E826FA2EC0EF0B3C5F1
:102E200000F10101003B0F0E0017B8EC31F033C187
:102E300082F40401300E8227A2EC0EF0B3C500F13B
:102E400001010F0E01010017B8EC31F033C182F41B
:102E50000401300E8227A2EC0EF00401200E826FD6
:102E6000A2EC0EF0B2C500F10F0E01010017B8EC94
:102E700031F033C182F40401300E8227A2EC0EF04F
:102E80000401200E826FA2EC0EF0B1C500F1010129
:102E90000101003B0F0E0017B8EC31F033C182F492
:102EA0000401300E8227A2EC0EF0B1C500F1010141
:102EB0000F0E01010017B8EC31F033C182F40401A8
:102EC000300E8227A2EC0EF004013A0E826FA2ECC3
:102ED0000EF0B0C500F10101003B0F0E0017B8EC79
:102EE00031F033C182F40401300E8227A2EC0EF0DF
:102EF000B0C500F101010F0E01010017B8EC31F06F
:102F000033C182F40401300E8227A2EC0EF00401DA
:102F10003A0E826FA2EC0EF0AFC500F10101003B4A
:102F20000F0E0017B8EC31F033C182F40401300EFB
:102F30008227A2EC0EF0AFC500F101010F0E0017C1
:102F4000B8EC31F033C182F40401300E8227A2ECD8
:102F50000EF0120084C3E8FF0F0BE83AE8CFB5F596
:102F600085C3E8FF0F0B0501B51387C3E8FF0F0BFF
:102F7000E83AE8CFB4F588C3E8FF0F0B0501B413B6
:102F80008AC3E8FF0F0BE83AE8CFB3F58BC3E8FF3D
:102F90000F0B0501B3138DC3E8FF0F0BE8CFB2F59C
:102FA0008FC3E8FF0F0BE83AE8CFB1F590C3E8FF15
:102FB0000F0B0501B11392C3E8FF0F0BE83AE8CFFE
:102FC000B0F593C3E8FF0F0B0501B01395C3E8FFFD
:102FD0000F0BE83AE8CFAFF596C3E8FF0F0B0501FA
:102FE000AF134CEC33F004014C0E826FA2EC0EF0E8
:102FF0000401430E826FA2EC0EF0BCEF16F00784C2
:1030000004014C0E826FA2EC0EF00401370E826FA9
:10301000A2EC0EF004012C0E826FA2EC0EF0050162
:103020002E51130A06E005012E51170A0DE09AEF02
:1030300018F00101000E006F000E016F100E026FFC
:10304000000E036F2DEF18F00101000E006F000E4F
:10305000016F000E026F010E036FB8EC31F02AC150
:1030600082F40401300E8227A2EC0EF02BC182F410
:103070000401300E8227A2EC0EF02CC182F4040170
:10308000300E8227A2EC0EF02DC182F40401300E26
:103090008227A2EC0EF02EC182F40401300E8227AA
:1030A000A2EC0EF02FC182F40401300E8227A2ECB4
:1030B0000EF030C182F40401300E8227A2EC0EF033
:1030C00031C182F40401300E8227A2EC0EF032C12D
:1030D00082F40401300E8227A2EC0EF033C182F498
:1030E0000401300E8227A2EC0EF004012C0E826F38
:1030F000A2EC0EF00101200E006F000E016F000E19
:10310000026F000E036FB8EC31F031C182F404019C
:10311000300E8227A2EC0EF032C182F40401300E90
:103120008227A2EC0EF033C182F40401300E822714
:10313000A2EC0EF00794E9EF1EF00501216B226B63
:10314000236B246B04014C0E826FA2EC0EF0040181
:10315000380E826FA2EC0EF004012C0E826FA2ECEE
:103160000EF00101200E006F000E016F000E026FC5
:10317000000E036FB8EC31F02AC182F40401300E66
:103180008227A2EC0EF02BC182F40401300E8227BC
:10319000A2EC0EF02CC182F40401300E8227A2ECC6
:1031A0000EF02DC182F40401300E8227A2EC0EF045
:1031B0002EC182F40401300E8227A2EC0EF02FC142
:1031C00082F40401300E8227A2EC0EF030C182F4AA
:1031D0000401300E8227A2EC0EF031C182F404010A
:1031E000300E8227A2EC0EF032C182F40401300EC0
:1031F0008227A2EC0EF033C182F40401300E822744
:10320000A2EC0EF004012C0E826FA2EC0EF025C58C
:1032100000F126C501F127C502F128C503F101011E
:10322000200E046F000E056F000E066F000E076F74
:103230004BEC31F000C133F501C134F502C135F575
:1032400003C136F5B8EC31F02AC182F40401300E26
:103250008227A2EC0EF02BC182F40401300E8227EB
:10326000A2EC0EF02CC182F40401300E8227A2ECF5
:103270000EF02DC182F40401300E8227A2EC0EF074
:103280002EC182F40401300E8227A2EC0EF02FC171
:1032900082F40401300E8227A2EC0EF030C182F4D9
:1032A0000401300E8227A2EC0EF031C182F4040139
:1032B000300E8227A2EC0EF032C182F40401300EEF
:1032C0008227A2EC0EF033C182F40401300E822773
:1032D000A2EC0EF0ACEC0EF00501336777EF19F0BD
:1032E000346777EF19F0356777EF19F0366702D05A
:1032F00016EF1AF0129E129C21C500F122C501F1B1
:1033000023C502F124C503F1899A400EC76E200E31
:10331000C66E9E96C69E0B0EC96EFF0E9EB602D05E
:10332000E82EFCD79E96C69E02C1C9FFFF0E9EB630
:1033300002D0E82EFCD79E96C69E01C1C9FFFF0EA3
:103340009EB602D0E82EFCD79E96C69E00C1C9FF4D
:10335000FF0E9EB602D0E82EFCD79E96C69EC9529E
:10336000FF0E9EB602D0E82EFCD70501200E326F6C
:10337000040114EE00F080517F0BE1269E96C69E5C
:10338000C952FF0E9EB602D0E82EFCD7C9CFE7FF88
:103390000401802B0501322FB8EF19F0898A33C55B
:1033A00000F134C501F135C502F136C503F1010163
:1033B000010E046F000E056F000E066F000E076F02
:1033C0001AEC31F000C133F501C134F502C135F515
:1033D00003C136F505013367F5EF19F03467F5EFF2
:1033E00019F03567F5EF19F0366702D016EF1AF0CD
:1033F00021C500F122C501F123C502F124C503F165
:103400000101200E046F000E056F000E066F000E06
:10341000076F1FEC31F000C121F501C122F502C197
:1034200023F503C124F5128E32EF2BF00401450E73
:10343000826FA2EC0EF004014F0E826FA2EC0EF030
:103440000401460E826FA2EC0EF0E9EF1EF0078435
:1034500080EC39F02FEC32F02DC500F1B8EC31F0F2
:1034600004014C0E826FA2EC0EF00401300E826F4C
:10347000A2EC0EF004012C0E826FA2EC0EF031C112
:1034800082F40401300E8227A2EC0EF032C182F4E5
:103490000401300E8227A2EC0EF033C182F4040145
:1034A000300E8227A2EC0EF004012C0E826FA2ECEB
:1034B0000EF02FEC32F02EC500F1B8EC31F031C136
:1034C00082F40401300E8227A2EC0EF032C182F4A5
:1034D0000401300E8227A2EC0EF033C182F4040105
:1034E000300E8227A2EC0EF00794E9EF1EF00401E3
:1034F0004C0E826FA2EC0EF00401650E826FA2ECFE
:103500000EF020EC35F0E9EF1EF004014C0E826F56
:10351000A2EC0EF00401450E826FA2EC0EF037EC27
:1035200035F0E9EF1EF004014C0E826FA2EC0EF0B4
:103530000401620E826FA2EC0EF065EC35F0E9EF4B
:103540001EF004014C0E826FA2EC0EF00401420E3C
:10355000826FA2EC0EF04EEC35F0E9EF1EF00401A4
:103560004C0E826FA2EC0EF00401760E826FA2EC7C
:103570000EF004012C0E826FA2EC0EF0000125501B
:10358000FE0AD8B4D1EF1AF000012550FD0AD8B4D4
:10359000D8EF1AF00401300E826FA2EC0EF0E9EFC2
:1035A0001EF00401310E826FA2EC0EF0E9EF1EF066
:1035B0000401320E826FA2EC0EF0E9EF1EF004015E
:1035C0004C0E826FA2EC0EF004015A0E826FA2EC38
:1035D0000EF004012C0E826FA2EC0EF080EC39F09C
:1035E0002FEC32F005012E51130A06E005012E5191
:1035F000170A0DE010EF1BF00101000E006F000E26
:10360000016F100E026F000E036F10EF1BF001012F
:10361000000E006F000E016F000E026F010E036FAF
:103620000101200E046F000E056F000E066F000EE4
:10363000076F4BEC31F0B8EC31F02AC182F4040191
:10364000300E8227A2EC0EF02BC182F40401300E62
:103650008227A2EC0EF02CC182F40401300E8227E6
:10366000A2EC0EF02DC182F40401300E8227A2ECF0
:103670000EF02EC182F40401300E8227A2EC0EF06F
:103680002FC182F40401300E8227A2EC0EF030C16B
:1036900082F40401300E8227A2EC0EF031C182F4D4
:1036A0000401300E8227A2EC0EF032C182F4040134
:1036B000300E8227A2EC0EF033C182F40401300EEA
:1036C0008227A2EC0EF0E9EF1EF0078404014C0EF5
:1036D000826FA2EC0EF00401310E826FA2EC0EF0AC
:1036E00004012C0E826FA2EC0EF025C500F126C558
:1036F00001F127C502F128C503F10101200E046F75
:10370000000E056F000E066F000E076F4BEC31F0D8
:10371000B8EC31F02AC182F40401300E8227A2EC09
:103720000EF02BC182F40401300E8227A2EC0EF0C1
:103730002CC182F40401300E8227A2EC0EF02DC1C0
:1037400082F40401300E8227A2EC0EF02EC182F426
:103750000401300E8227A2EC0EF02FC182F4040186
:10376000300E8227A2EC0EF030C182F40401300E3C
:103770008227A2EC0EF031C182F40401300E8227C0
:10378000A2EC0EF032C182F40401300E8227A2ECCA
:103790000EF033C182F40401300E8227A2EC0EF049
:1037A0000794E9EF1EF0078404014C0E826FA2EC2F
:1037B0000EF00401320E826FA2EC0EF054EC37F0E2
:1037C0000794E9EF1EF0078438B0E9EF1BF0FCEF37
:1037D0001BF0010E166E04014C0E826FA2EC0EF06F
:1037E0000401330E826FA2EC0EF0B1EC37F0000E44
:1037F000166E079470EF1BF0020E166EB1EC37F0E8
:103800008B800501010E306F3C0E316F01015E6B44
:103810005F6B606B616B626B636B646B656B666B3C
:10382000676B686B696B536B546BCF6ACE6A0F9A88
:103830000F9C0F9E030E166E04014C0E826FA2ECBD
:103840000EF00401330E826FA2EC0EF004012C0E78
:10385000826FA2EC0EF004012D0E826FA2EC0EF02E
:103860000401310E826FA2EC0EF030EF2BF0B1ECC0
:1038700037F0000E166E8B9032EF2BF007840401A8
:103880004C0E826FA2EC0EF00401340E826FA2EC9B
:103890000EF004012C0E826FA2EC0EF070EC32F0F0
:1038A00084C32AF185C32BF186C32CF187C32DF184
:1038B00088C32EF189C32FF18AC330F18BC331F154
:1038C0008CC332F18DC333F10101296B7DEC32F0F1
:1038D000F4EC31F0200E046F000E056F000E066F41
:1038E000000E076F2BEC31F000C121F501C122F56C
:1038F00002C123F503C124F533EC39F038C5AFF527
:1039000039C5B0F53AC5B1F53BC5B2F53CC5B3F51F
:103910003DC5B4F53EC5B5F5C7EC16F004012C0E57
:10392000826FA2EC0EF03FC500F140C501F141C528
:1039300002F142C503F10101000E046F000E056F94
:10394000010E066F000E076F4BEC31F0B8EC31F052
:103950002967ADEF1CF0B2EF1CF004012D0E826F51
:10396000A2EC0EF030C182F40401300E8227A2ECEA
:103970000EF031C182F40401300E8227A2EC0EF069
:1039800004012E0E826FA2EC0EF032C182F404010B
:10399000300E8227A2EC0EF033C182F40401300E07
:1039A0008227A2EC0EF004012C0E826FA2EC0EF026
:1039B0002FEC32F043C500F144C501F15CEC2CF072
:1039C00004012C0E826FA2EC0EF02FEC32F045C5F4
:1039D00000F1B8EC31F031C182F40401300E8227DD
:1039E000A2EC0EF032C182F40401300E8227A2EC68
:1039F0000EF033C182F40401300E8227A2EC0EF0E7
:103A000004012C0E826FA2EC0EF037C5E8FFE8B877
:103A100006D00401300E826FA2EC0EF005D0040136
:103A2000310E826FA2EC0EF004012C0E826FA2EC1C
:103A30000EF037C5E8FFE8BA06D00401300E826FF9
:103A4000A2EC0EF06CD00401310E826FA2EC0EF0ED
:103A500004012C0E826FA2EC0EF047C500F148C5A0
:103A600001F149C502F14AC503F1DAEC31F07BEC12
:103A70002FF004012C0E826FA2EC0EF04BC500F16A
:103A80004CC501F14DC502F14EC503F10101000E17
:103A9000046F000E056F010E066F000E076F4BECF2
:103AA00031F0B8EC31F0296758EF1DF05DEF1DF0F3
:103AB00004012D0E826FA2EC0EF030C182F40401DD
:103AC000300E8227A2EC0EF031C182F40401300ED8
:103AD0008227A2EC0EF004012E0E826FA2EC0EF0F3
:103AE00032C182F40401300E8227A2EC0EF033C101
:103AF00082F40401300E8227A2EC0EF004012C0E99
:103B0000826FA2EC0EF04FC500F150C501F151C516
:103B100002F152C503F1DAEC31F07BEC2FF007949F
:103B2000E9EF1EF070EC32F085C32AF186C32BF169
:103B300087C32CF188C32DF189C32EF18AC32FF1DD
:103B40008BC330F18CC331F18DC332F18EC333F1AD
:103B50000101296B7DEC32F0F4EC31F00101010E32
:103B6000046F000E056F000E066F000E076F1AEC53
:103B700031F0100E046F000E056F000E066F000E80
:103B8000076F2BEC31F000C129F501C12AF502C104
:103B90002BF503C12CF5DBEC36F004014C0E826FE3
:103BA000A2EC0EF00401460E826FA2EC0EF00401AE
:103BB0002C0E826FA2EC0EF025C500F126C501F196
:103BC00027C502F128C503F10101100E046F000E94
:103BD000056F000E066F000E076F4BEC31F0B8EC6E
:103BE00031F02AC182F40401300E8227A2EC0EF0DB
:103BF0002BC182F40401300E8227A2EC0EF02CC1FE
:103C000082F40401300E8227A2EC0EF02DC182F462
:103C10000401300E8227A2EC0EF02EC182F40401C2
:103C2000300E8227A2EC0EF02FC182F40401300E78
:103C30008227A2EC0EF030C182F40401300E8227FC
:103C4000A2EC0EF031C182F40401300E8227A2EC06
:103C50000EF032C182F40401300E8227A2EC0EF085
:103C600033C182F40401300E8227A2EC0EF0E9EF9A
:103C70001EF038B03EEF1EF0020E166EB1EC37F0BB
:103C800000011650020AD8B45CEF1EF005012F5156
:103C9000010AD8B452EF1EF015B257EF1EF081BAE8
:103CA00057EF1EF0000E166E158432EF2BF0050E46
:103CB000166E158426EF3AF08B8001015E6B5F6B08
:103CC000606B616B626B636B646B656B666B676B80
:103CD000686B696B536B546BCF6ACE6A0F9A0F9CFB
:103CE0000F9E030E166E32EF2BF0B1EC37F005018C
:103CF0002F51010AD8B483EF1EF015B288EF1EF0E1
:103D000081BA88EF1EF0000E166E158432EF2BF08C
:103D1000050E166E158426EF3AF004014C0E826FE4
:103D2000A2EC0EF00401350E826FA2EC0EF004013D
:103D30002C0E826FA2EC0EF02FEC32F00784B9C586
:103D400000F10794B8EC31F031C182F40401300E77
:103D50008227A2EC0EF032C182F40401300E8227D9
:103D6000A2EC0EF033C182F40401300E8227A2ECE3
:103D70000EF0E9EF1EF074EC37F02FEC32F037C59F
:103D800000F1B8EC31F004014C0E826FA2EC0EF0A1
:103D90000401360E826FA2EC0EF004012C0E826F2D
:103DA000A2EC0EF031C182F40401300E8227A2ECA5
:103DB0000EF032C182F40401300E8227A2EC0EF024
:103DC00033C182F40401300E8227A2EC0EF0E9EF39
:103DD0001EF0ACEC0EF032EF2BF004014C0E826FB3
:103DE000A2EC0EF00401500E826FA2EC0EF0040162
:103DF0002C0E826FA2EC0EF085C32AF186C32BF144
:103E000087C32CF188C32DF189C32EF18AC32FF10A
:103E10008BC330F18CC331F18DC332F18EC333F1DA
:103E200001017DEC32F0F4EC31F003018451530ACE
:103E30000DE0030184514D0A38E00401780E826FD1
:103E4000A2EC0EF0ACEC0EF032EF2BF00401530EAE
:103E5000826FA2EC0EF0250E0C6E00C10BF04DEC43
:103E60000BF0260E0C6E01C10BF04DEC0BF0270E83
:103E70000C6E02C10BF04DEC0BF0280E0C6E03C162
:103E80000BF04DEC0BF000C157F501C158F502C124
:103E900059F503C15AF500C15BF501C15CF502C1DA
:103EA0005DF503C15EF5CAEF1FF004014D0E826F90
:103EB000A2EC0EF0290E0C6E00C10BF04DEC0BF0D5
:103EC00000C15FF500C160F5CAEF1FF004014C0EA0
:103ED000826FA2EC0EF00401540E826FA2EC0EF081
:103EE00004012C0E826FA2EC0EF084C32AF185C36C
:103EF0002BF186C32CF187C32DF188C32EF189C322
:103F00002FF18AC330F18BC331F18DC332F18EC3EF
:103F100033F101017DEC32F0F4EC31F00101000EDF
:103F2000046F000E056F010E066F000E076F2BEC7D
:103F300031F0210E0C6E00C10BF04DEC0BF0220E97
:103F40000C6E01C10BF04DEC0BF0230E0C6E02C198
:103F50000BF04DEC0BF0240E0C6E03C10BF04DEC8E
:103F60000BF000C161F501C162F502C163F503C147
:103F700064F5CAEF1FF004014C0E826FA2EC0EF044
:103F80000401490E826FA2EC0EF004012C0E826F28
:103F9000A2EC0EF0250E64EC0BF0E8CF00F1260E3B
:103FA00064EC0BF0E8CF01F1270E64EC0BF0E8CFE6
:103FB00002F1280E64EC0BF0E8CF03F1B8EC31F01D
:103FC0007BEC2FF00401730E826FA2EC0EF0040163
:103FD0002C0E826FA2EC0EF02FEC32F0290E64EC66
:103FE0000BF0E8CF00F1B8EC31F07BEC2FF00401DE
:103FF0006D0E826FA2EC0EF004012C0E826FA2EC0B
:104000000EF05BC500F15CC501F15DC502F15EC556
:1040100003F1B8EC31F07BEC2FF00401730E826FEA
:10402000A2EC0EF004012C0E826FA2EC0EF02FEC2D
:1040300032F060C500F1B8EC31F07BEC2FF00401F8
:104040006D0E826FA2EC0EF004012C0E826FA2ECBA
:104050000EF061C500F162C501F163C502F164C5EE
:1040600003F14DEC2BF004012C0E826FA2EC0EF04C
:10407000ACEC0EF032EF2BF083C32AF184C32BF1AA
:1040800085C32CF186C32DF187C32EF188C32FF190
:1040900089C330F18AC331F18BC332F18CC333F160
:1040A00001017DEC32F0F4EC31F0160E0C6E00C123
:1040B0000BF04DEC0BF0170E0C6E01C10BF04DEC3C
:1040C0000BF0180E0C6E02C10BF04DEC0BF0190E3C
:1040D0000C6E03C10BF04DEC0BF000C18EF101C171
:1040E0008FF102C190F103C191F100C192F101C1C0
:1040F00093F102C194F103C195F11EEF21F083C346
:104100002AF184C32BF185C32CF186C32DF187C31B
:104110002EF188C32FF189C330F18AC331F18BC3EB
:1041200032F18CC333F101017DEC32F0F4EC31F06B
:1041300000C18EF101C18FF102C190F103C191F173
:1041400000C192F101C193F102C194F103C195F153
:104150001EEF21F083C32AF184C32BF185C32CF118
:1041600086C32DF187C32EF188C32FF189C330F1A7
:104170008AC331F18CC332F18DC333F101017DEC7F
:1041800032F0F4EC31F00101000E046F000E056F07
:10419000010E066F000E076F2BEC31F01A0E0C6E3D
:1041A00000C10BF04DEC0BF01B0E0C6E01C10BF0BF
:1041B0004DEC0BF01C0E0C6E02C10BF04DEC0BF035
:1041C0001D0E0C6E03C10BF04DEC0BF000C196F10F
:1041D00001C197F102C198F103C199F11EEF21F0DD
:1041E00083C32AF184C32BF185C32CF186C32DF13F
:1041F00087C32EF188C32FF189C330F18AC331F10F
:104200008CC332F18DC333F101017DEC32F0F4EC5B
:1042100031F00101000E046F000E056F010E066FF4
:10422000000E076F2BEC31F000C196F101C197F140
:1042300002C198F103C199F11EEF21F0160E64EC52
:104240000BF0E8CF00F1170E64EC0BF0E8CF01F1B2
:10425000180E64EC0BF0E8CF02F1190E64EC0BF0D1
:10426000E8CF03F1B8EC31F07BEC2FF00401730ED2
:10427000826FA2EC0EF004012C0E826FA2EC0EF005
:104280008EC100F18FC101F190C102F191C103F122
:10429000B8EC31F07BEC2FF00401730E826FA2ECCE
:1042A0000EF004012C0E826FA2EC0EF01A0E64ECDC
:1042B0000BF0E8CF00F11B0E64EC0BF0E8CF01F13E
:1042C0001C0E64EC0BF0E8CF02F11D0E64EC0BF059
:1042D000E8CF03F14DEC2BF004012C0E826FA2EC21
:1042E0000EF096C100F197C101F198C102F199C198
:1042F00003F14DEC2BF0ACEC0EF032EF2BF004019F
:10430000690E826FA2EC0EF004012C0E826FA2ECFB
:104310000EF00101040E006F000E016F000E026F1F
:10432000000E036FB8EC31F02CC182F40401300EA2
:104330008227A2EC0EF02DC182F40401300E8227F8
:10434000A2EC0EF02EC182F40401300E8227A2EC02
:104350000EF02FC182F40401300E8227A2EC0EF081
:1043600030C182F40401300E8227A2EC0EF031C17C
:1043700082F40401300E8227A2EC0EF032C182F4E6
:104380000401300E8227A2EC0EF033C182F4040146
:10439000300E8227A2EC0EF004012C0E826FA2ECEC
:1043A0000EF001010D0E006F000E016F000E026F86
:1043B000000E036FB8EC31F02CC182F40401300E12
:1043C0008227A2EC0EF02DC182F40401300E822768
:1043D000A2EC0EF02EC182F40401300E8227A2EC72
:1043E0000EF02FC182F40401300E8227A2EC0EF0F1
:1043F00030C182F40401300E8227A2EC0EF031C1EC
:1044000082F40401300E8227A2EC0EF032C182F455
:104410000401300E8227A2EC0EF033C182F40401B5
:10442000300E8227A2EC0EF004012C0E826FA2EC5B
:104430000EF00101500E006F000E016F000E026FB2
:10444000000E036FB8EC31F02CC182F40401300E81
:104450008227A2EC0EF02DC182F40401300E8227D7
:10446000A2EC0EF02EC182F40401300E8227A2ECE1
:104470000EF02FC182F40401300E8227A2EC0EF060
:1044800030C182F40401300E8227A2EC0EF031C15B
:1044900082F40401300E8227A2EC0EF032C182F4C5
:1044A0000401300E8227A2EC0EF033C182F4040125
:1044B000300E8227A2EC0EF004012C0E826FA2ECCB
:1044C0000EF0200EF86EF76AF66A04010900F5CFC7
:1044D00082F4A2EC0EF00900F5CF82F4A2EC0EF00B
:1044E0000900F5CF82F4A2EC0EF00900F5CF82F4BA
:1044F000A2EC0EF00900F5CF82F4A2EC0EF0090058
:10450000F5CF82F4A2EC0EF00900F5CF82F4A2EC14
:104510000EF00900F5CF82F4A2EC0EF0ACEC0EF038
:1045200032EF2BF08351630AD8A430EF2BF0845183
:10453000610AD8A430EF2BF085516C0AD8A430EF73
:104540002BF08651410A3FE08651440A1BE0865118
:10455000420AD8B4F6EF22F08651350AD8B4BCEF3F
:104560002CF08651360AD8B411EF2DF08651370A57
:10457000D8B47AEF2DF08651380AD8B4D8EF2DF0A0
:1045800030EF2BF00798079A04017A0E826FA2ECA5
:104590000EF00401780E826FA2EC0EF00401640E9E
:1045A000826FA2EC0EF00401550E826FA2EC0EF0A9
:1045B000DFEF22F004014C0E826FA2EC0EF0ACECA7
:1045C0000EF032EF2BF00788079A04017A0E826F03
:1045D000A2EC0EF00401410E826FA2EC0EF0040179
:1045E000610E826FA2EC0EF0D3EF22F00798078ADB
:1045F00004017A0E826FA2EC0EF00401420E826F6B
:10460000A2EC0EF00401610E826FA2EC0EF0D3EF6B
:1046100022F00101666714EF23F0676714EF23F0BF
:10462000686714EF23F0696716D001014F6720EF28
:1046300023F0506720EF23F0516720EF23F05267FB
:104640000AD00101000E006F000E016F000E026F14
:10465000000E036F120011B80AD00101620E046F40
:10466000010E056F000E066F000E076F09D00101E5
:10467000A70E046F020E056F000E066F000E076F87
:1046800066C100F167C101F168C102F169C103F1BE
:104690001AEC31F003BFBDEF23F0119A119C010118
:1046A000000E046FA80E056F550E066F020E076F01
:1046B00066C100F167C101F168C102F169C103F18E
:1046C00066C18AF167C18BF168C18CF169C18DF156
:1046D0001AEC31F003BF0BD00101000E8A6FA80E57
:1046E0008B6F550E8C6F020E8D6F118A119C0E0E02
:1046F00064EC0BF0E8CF18F10F0E64EC0BF0E8CF90
:1047000019F1100E64EC0BF0E8CF1AF1110E64EC05
:104710000BF0E8CF1BF163EC30F08AC104F18BC1E0
:1047200005F18CC106F18DC107F11AEC31F0078259
:1047300027EC30F063EC30F0079227EC30F08AC1C0
:1047400000F18BC101F18CC102F18DC103F107921F
:1047500027EC30F0CC0E046FE00E056F870E066F6D
:10476000050E076F1AEC31F000C118F101C119F103
:1047700002C11AF103C11BF140D013AAC2EF23F00A
:10478000138E139A119C119A0101800E006F1A0E5C
:10479000016F060E026F000E036F4FC104F150C18E
:1047A00005F151C106F152C107F11AEC31F003AF26
:1047B00005D02FEC32F0118C119A12000E0E64EC21
:1047C0000BF0E8CF18F10F0E64EC0BF0E8CF19F105
:1047D000100E64EC0BF0E8CF1AF1110E64EC0BF044
:1047E000E8CF1BF14FC100F150C101F151C102F1FD
:1047F00052C103F1078227EC30F018C100F119C152
:1048000001F11AC102F11BC103F112000784BAC100
:1048100066F1BBC167F1BCC168F1BDC169F14BC1B3
:104820004FF14CC150F14DC151F14EC152F157C140
:1048300059F158C15AF107940101666727EF24F036
:10484000676727EF24F0686727EF24F0696716D0C1
:1048500001014F6733EF24F0506733EF24F05167C5
:1048600033EF24F052670AD00101000E006F000EF2
:10487000016F000E026F000E036F120011B80AD014
:104880000101620E046F010E056F000E066F000E2F
:10489000076F09D00101A70E046F020E056F000E0D
:1048A000066F000E076F66C100F167C101F168C1B4
:1048B00002F169C103F11AEC31F003BFBFEF24F03C
:1048C0000101000E046FA80E056F550E066F020E53
:1048D000076F66C100F167C101F168C102F169C1EA
:1048E00003F166C18AF167C18BF168C18CF169C1BE
:1048F0008DF11AEC31F003BF09D00101000E8A6F6F
:10490000A80E8B6F550E8C6F020E8D6F63EC30F01E
:1049100000C104F101C105F102C106F103C107F1B3
:10492000000E006FA00E016F980E026F7B0E036FDA
:104930004BEC31F000C118F101C119F102C11AF1BB
:1049400003C11BF1000E006FA00E016F980E026FE5
:104950007B0E036F8AC104F18BC105F18CC106F196
:104960008DC107F14BEC31F018C104F119C105F10B
:104970001AC106F11BC107F11AEC31F01200010156
:10498000A80E006F610E016F000E026F000E036F24
:104990004FC104F150C105F151C106F152C107F1F7
:1049A0001AEC31F003AF0AD00101A80E006F610EBE
:1049B000016F000E026F000E036F00D0C80E006F73
:1049C000AF0E016F000E026F000E036F4FC104F1B6
:1049D00050C105F151C106F152C107F12BEC31F084
:1049E00012000784BAC166F1BBC167F1BCC168F1AE
:1049F000BDC169F14BC14FF14CC150F14DC151F1F5
:104A00004EC152F157C159F158C15AF107940101F1
:104A1000666712EF25F0676712EF25F0686712EFFF
:104A200025F0696716D001014F671EEF25F050672A
:104A30001EEF25F051671EEF25F052670AD00101E5
:104A4000000E006F000E016F000E026F000E036F6C
:104A5000120011B80AD00101620E046F010E056F39
:104A6000000E066F000E076F09D00101A70E046F3C
:104A7000020E056F000E066F000E076F66C100F193
:104A800067C101F168C102F169C103F11AEC31F0AB
:104A900003BFD4EF25F00101000E046FA80E056FCF
:104AA000550E066F020E076F66C100F167C101F176
:104AB00068C102F169C103F166C18AF167C18BF176
:104AC00068C18CF169C18DF11AEC31F003BF09D0D6
:104AD0000101000E8A6FA80E8B6F550E8C6F020EAF
:104AE0008D6F010E006F000E016F000E026F000E41
:104AF000036F8AC104F18BC105F18CC106F18DC130
:104B000007F14BEC31F018C104F119C105F11AC1DC
:104B100006F11BC107F1B8EC31F02AC182F404019F
:104B2000300E8227A2EC0EF02BC182F40401300E6D
:104B30008227A2EC0EF02CC182F40401300E8227F1
:104B4000A2EC0EF02DC182F40401300E8227A2ECFB
:104B50000EF02EC182F40401300E8227A2EC0EF07A
:104B60002FC182F40401300E8227A2EC0EF030C176
:104B700082F40401300E8227A2EC0EF031C182F4DF
:104B80000401300E8227A2EC0EF032C182F404013F
:104B9000300E8227A2EC0EF033C182F40401300EF5
:104BA0008227A2EC0EF012004FC100F150C101F1BA
:104BB00051C102F152C103F10101B8EC31F07BECBB
:104BC0002FF012000401730E826FA2EC0EF00401AC
:104BD0002C0E826FA2EC0EF0078462C166F163C1F5
:104BE00067F164C168F165C169F14BC14FF14CC116
:104BF00050F14DC151F14EC152F157C159F158C157
:104C00005AF1079408EC26F0ACEC0EF032EF2BF0E2
:104C100066C100F167C101F168C102F169C103F128
:104C20000101B8EC31F07BEC2FF00401630E826FD0
:104C3000A2EC0EF004012C0E826FA2EC0EF04FC11C
:104C400000F150C101F151C102F152C103F1010162
:104C5000B8EC31F07BEC2FF00401660E826FA2EC11
:104C60000EF004012C0E826FA2EC0EF02FEC32F04D
:104C700059C100F15AC101F10101B8EC31F07BECEE
:104C80002FF00401740E826FA2EC0EF0120010825D
:104C90000401530E826FA2EC0EF004012C0E826F01
:104CA000A2EC0EF083C32AF184C32BF185C32CF14F
:104CB00086C32DF187C32EF188C32FF189C330F14C
:104CC0008AC331F18BC332F18CC333F101017DEC26
:104CD00032F0F4EC31F000C166F101C167F102C1BC
:104CE00068F103C169F18EC32AF18FC32BF190C320
:104CF0002CF191C32DF192C32EF193C32FF194C3E4
:104D000030F195C331F196C332F197C333F101010C
:104D10007DEC32F0F4EC31F000C14FF101C150F103
:104D200002C151F103C152F170EC32F099C32FF17D
:104D30009AC330F19BC331F19CC332F19DC333F16F
:104D400001017DEC32F0F4EC31F000C159F101C108
:104D50005AF108EC26F004012C0E826FA2EC0EF042
:104D6000C2EF26F0118E1CA002D01CAE108C1BBE10
:104D700002D01BA4108E03018251520A02E10F825D
:104D800001D00F928251750A02E1108401D0109473
:104D90008251550A02E1108601D010968351310AE2
:104DA00003E11382138402D01392139403018351FD
:104DB000660A01E056D00401660E826FA2EC0EF086
:104DC00004012C0E826FA2EC0EF006EC24F0B8EC7D
:104DD00031F02AC182F40401300E8227A2EC0EF0D9
:104DE0002BC182F40401300E8227A2EC0EF02CC1FC
:104DF00082F40401300E8227A2EC0EF02DC182F461
:104E00000401300E8227A2EC0EF02EC182F40401C0
:104E1000300E8227A2EC0EF02FC182F40401300E76
:104E20008227A2EC0EF030C182F40401300E8227FA
:104E3000A2EC0EF031C182F40401300E8227A2EC04
:104E40000EF032C182F40401300E8227A2EC0EF083
:104E500033C182F40401300E8227A2EC0EF030EF51
:104E60002BF011A003D011A401D01084078410B23C
:104E70009BEF27F010A47FEF27F0BAC166F1BBC10A
:104E800067F1BCC168F1BDC169F1BEC16AF1BFC1C2
:104E90006BF1C0C16CF1C1C16DF1C2C16EF1C3C192
:104EA0006FF1C4C170F1C5C171F1C6C172F1C7C162
:104EB00073F1C8C174F1C9C175F1CAC176F1CBC132
:104EC00077F1CCC178F1CDC179F1CEC17AF1CFC102
:104ED0007BF1D0C17CF1D1C17DF1D2C17EF1D3C1D2
:104EE0007FF1D4C180F1D5C181F1D6C182F1D7C1A2
:104EF00083F1D8C184F1D9C185F187EF27F062C170
:104F000066F163C167F164C168F165C169F1BAC155
:104F100086F1BBC187F1BCC188F1BDC189F14BC12C
:104F20004FF14CC150F14DC151F14EC152F157C139
:104F300059F158C15AF107940FA0BDEF27F00101B4
:104F40009667AAEF27F09767AAEF27F09867AAEF6E
:104F500027F09967AEEF27F0BDEF27F009EC23F0BB
:104F600096C104F197C105F198C106F199C107F105
:104F70001AEC31F003BFF6EF2AF009EC23F001013F
:104F8000000E046F000E056F010E066F000E076F16
:104F90004BEC31F011A02AD011A228D0B8EC31F09E
:104FA000296701D005D004012D0E826FA2EC0EF00E
:104FB00030C182F40401300E8227A2EC0EF031C120
:104FC00082F40401300E8227A2EC0EF032C182F48A
:104FD0000401300E8227A2EC0EF033C182F40401EA
:104FE000300E8227A2EC0EF0ACEC0EF012A8C5D069
:104FF00012981DC01EF01E3A1E42070E1E1600011A
:105000001E50000AD8B489EF28F000011E50010A92
:10501000D8B415EF28F000011E50020AD8B413EFDF
:1050200028F0BBEF28F0BBEF28F02FEC32F02EC0B9
:1050300001F12FC000F1D89001330033D890013333
:1050400000330101630E046F000E056F000E066F42
:10505000000E076F4BEC31F0280E046F000E056F49
:10506000000E066F000E076F1AEC31F000C131F030
:105070002FEC32F02CC001F1019F019D2DC000F1F9
:105080000101A40E046F000E056F000E066F000EE6
:10509000076F4BEC31F000C130F000C104F101C1E9
:1050A00005F102C106F103C107F1640E006F000EA5
:1050B000016F000E026F000E036F1AEC31F0050E47
:1050C000046F000E056F000E066F000E076F4BECAD
:1050D00031F000C104F101C105F102C106F103C1C3
:1050E00007F12FEC32F031C000F11AEC31F000C1C1
:1050F00032F032C0E8FF050F315C03E78A84BBEF72
:1051000028F032C0E8FF0A0F315C01E68A94BBEF59
:1051100028F000C124F101C125F102C126F103C12B
:1051200027F12FEC32F035EC32F01D501F0BE8CF99
:1051300000F10101640E046F000E056F000E066F92
:10514000000E076F2BEC31F024C104F125C105F1ED
:1051500026C106F127C107F11AEC31F003BF02D0D6
:105160008A9401D08A8424C100F125C101F126C1AD
:1051700002F127C103F132EF2BF000C124F101C18C
:1051800025F102C126F103C127F110AE4DD0109ECA
:1051900000C108F101C109F102C10AF103C10BF11B
:1051A000B8EC31F030C1E2F131C1E3F132C1E4F1E8
:1051B00033C1E5F108C100F109C101F10AC102F1F1
:1051C0000BC103F101016C0E046F070E056F000E99
:1051D000066F000E076F1AEC31F003BF04D0010117
:1051E000550EE66F1CD008C100F109C101F10AC1DA
:1051F00002F10BC103F10101A40E046F060E056F4D
:10520000000E066F000E076F1AEC31F003BF04D0DA
:1052100001017F0EE66F03D00101FF0EE66F1F8EC6
:1052200011AEF6EF2AF0119E24C100F125C101F163
:1052300026C102F127C103F111A005D011A203D0AC
:105240000FB0F6EF2AF010A42DEF29F00401750E2F
:10525000826FA2EC0EF032EF29F00401720E826F21
:10526000A2EC0EF004012C0E826FA2EC0EF0B8EC52
:1052700031F0296741EF29F00401200E826F44EFDD
:1052800029F004012D0E826FA2EC0EF030C182F4E1
:105290000401300E8227A2EC0EF031C182F4040129
:1052A000300E8227A2EC0EF004012E0E826FA2ECCB
:1052B0000EF032C182F40401300E8227A2EC0EF00F
:1052C00033C182F40401300E8227A2EC0EF00401F7
:1052D0006D0E826FA2EC0EF004012C0E826FA2EC18
:1052E0000EF04FC100F150C101F151C102F152C1A4
:1052F00003F10101B8EC31F07BEC2FF00401480E12
:10530000826FA2EC0EF004017A0E826FA2EC0EF016
:1053100004012C0E826FA2EC0EF066C100F167C191
:1053200001F168C102F169C103F10101B8EC31F08A
:105330007BEC2FF00401630E826FA2EC0EF00401EF
:105340002C0E826FA2EC0EF066C100F167C101F174
:1053500068C102F169C103F101010A0E046F000E78
:10536000056F000E066F000E076F2BEC31F0000E7C
:10537000046F120E056F000E066F000E076F4BECE8
:1053800031F0B8EC31F02AC182F40401300E8227EA
:10539000A2EC0EF02BC182F40401300E8227A2ECA5
:1053A0000EF02CC182F40401300E8227A2EC0EF024
:1053B0002DC182F40401300E8227A2EC0EF02EC122
:1053C00082F40401300E8227A2EC0EF02FC182F489
:1053D0000401300E8227A2EC0EF030C182F40401E9
:1053E000300E8227A2EC0EF004012E0E826FA2EC8A
:1053F0000EF031C182F40401300E8227A2EC0EF0CF
:1054000032C182F40401300E8227A2EC0EF033C1C7
:1054100082F40401300E8227A2EC0EF00401730E18
:10542000826FA2EC0EF004012C0E826FA2EC0EF043
:105430002FEC32F059C100F15AC101F15CEC2CF0B3
:1054400013A272EF2AF004012C0E826FA2EC0EF070
:1054500086C166F187C167F188C168F189C169F1C8
:1054600009EC23F00101000E046F000E056F010E20
:10547000066F000E076F4BEC31F0B8EC31F0296786
:1054800047EF2AF00401200E826F4AEF2AF0040150
:105490002D0E826FA2EC0EF030C182F40401300EAA
:1054A0008227A2EC0EF031C182F40401300E822773
:1054B000A2EC0EF004012E0E826FA2EC0EF032C1AF
:1054C00082F40401300E8227A2EC0EF033C182F484
:1054D0000401300E8227A2EC0EF004016D0E826FE3
:1054E000A2EC0EF003018351460A01E007D004014B
:1054F0002C0E826FA2EC0EF0F1EC24F013A4A5EFB9
:105500002AF004012C0E826FA2EC0EF013AC93EF84
:105510002AF00401500E826FA2EC0EF0139C139837
:10552000139AA5EF2AF013AEA0EF2AF00401460E5D
:10553000826FA2EC0EF0139E1398139AA5EF2AF037
:105540000401530E826FA2EC0EF038B0BCEF2AF0CB
:1055500004012C0E826FA2EC0EF08BB0B7EF2AF094
:105560000401440E826FA2EC0EF0BCEF2AF004019D
:10557000530E826FA2EC0EF00FB2C2EF2AF00FA012
:10558000F4EF2AF004012C0E826FA2EC0EF0200E34
:10559000F86EF76AF66A04010900F5CF82F4A2EC0E
:1055A0000EF00900F5CF82F4A2EC0EF00900F5CF61
:1055B00082F4A2EC0EF00900F5CF82F4A2EC0EF01A
:1055C0000900F5CF82F4A2EC0EF00900F5CF82F4C9
:1055D000A2EC0EF00900F5CF82F4A2EC0EF0090067
:1055E000F5CF82F4A2EC0EF0ACEC0EF00F90109E12
:1055F000129832EF2BF00401630E826FA2EC0EF0D2
:1056000004012C0E826FA2EC0EF038EC2BF004019A
:105610002C0E826FA2EC0EF0ABEC2BF004012C0EE2
:10562000826FA2EC0EF027EC2CF004012C0E826F9E
:10563000A2EC0EF00101F80E006FCD0E016F660EA8
:10564000026F030E036F4DEC2BF004012C0E826FE2
:10565000A2EC0EF03DEC2CF0ACEC0EF032EF2BF0A7
:10566000ACEC0EF00301C26B0790109241EF2EF0EC
:10567000D8900E0E64EC0BF0E8CF00F10F0E64EC46
:105680000BF0E8CF01F1100E64EC0BF0E8CF02F163
:10569000110E64EC0BF0E8CF03F10101000E046F72
:1056A000000E056F010E066F000E076F4BEC31F018
:1056B000B8EC31F02AC182F40401300E8227A2EC4A
:1056C0000EF02BC182F40401300E8227A2EC0EF002
:1056D0002CC182F40401300E8227A2EC0EF02DC101
:1056E00082F40401300E8227A2EC0EF02EC182F467
:1056F0000401300E8227A2EC0EF02FC182F40401C7
:10570000300E8227A2EC0EF030C182F40401300E7C
:105710008227A2EC0EF031C182F40401300E822700
:10572000A2EC0EF004012E0E826FA2EC0EF032C13C
:1057300082F40401300E8227A2EC0EF033C182F411
:105740000401300E8227A2EC0EF004016D0E826F70
:10575000A2EC0EF01200120E64EC0BF0E8CF00F198
:10576000130E64EC0BF0E8CF01F1140E64EC0BF0B7
:10577000E8CF02F1150E64EC0BF0E8CF03F1010164
:105780000A0E046F000E056F000E066F000E076F05
:105790002BEC31F0000E046F120E056F000E066F39
:1057A000000E076F4BEC31F0B8EC31F02AC182F4F7
:1057B0000401300E8227A2EC0EF02BC182F404010A
:1057C000300E8227A2EC0EF02CC182F40401300EC0
:1057D0008227A2EC0EF02DC182F40401300E822744
:1057E000A2EC0EF02EC182F40401300E8227A2EC4E
:1057F0000EF02FC182F40401300E8227A2EC0EF0CD
:1058000030C182F40401300E8227A2EC0EF00401B4
:105810002E0E826FA2EC0EF031C182F40401300E24
:105820008227A2EC0EF032C182F40401300E8227EE
:10583000A2EC0EF033C182F40401300E8227A2ECF8
:105840000EF00401730E826FA2EC0EF012000A0E2D
:1058500064EC0BF0E8CF00F10B0E64EC0BF0E8CF3A
:1058600001F10C0E64EC0BF0E8CF02F10D0E64ECCC
:105870000BF0E8CF03F15CEF2CF0060E64EC0BF0BC
:10588000E8CF00F1070E64EC0BF0E8CF01F1080E51
:1058900064EC0BF0E8CF02F1090E64EC0BF0E8CFFA
:1058A00003F15CEF2CF001012FEC32F0078457C1BB
:1058B00000F158C101F107940101E80E046F800E58
:1058C000056F000E066F000E076F2BEC31F0000E17
:1058D000046F040E056F000E066F000E076F4BEC91
:1058E00031F0880E046F130E056F000E066F000E68
:1058F000076F1AEC31F00A0E046F000E056F000EF0
:10590000066F000E076F4BEC31F0B8EC31F001017F
:10591000296790EF2CF00401200E826F93EF2CF09A
:1059200004012D0E826FA2EC0EF030C182F404014E
:10593000300E8227A2EC0EF031C182F40401300E49
:105940008227A2EC0EF032C182F40401300E8227CD
:10595000A2EC0EF004012E0E826FA2EC0EF033C109
:1059600082F40401300E8227A2EC0EF00401430EF3
:10597000826FA2EC0EF0120087C32AF188C32BF1CC
:1059800089C32CF18AC32DF18BC32EF18CC32FF167
:105990008DC330F18EC331F190C332F191C333F135
:1059A0000101296B7DEC32F0F4EC31F00101000EC5
:1059B000046F000E056F010E066F000E076F2BECD3
:1059C00031F00E0E0C6E00C10BF04DEC0BF00F0E13
:1059D0000C6E01C10BF04DEC0BF0100E0C6E02C101
:1059E0000BF04DEC0BF0110E0C6E03C10BF04DECF7
:1059F0000BF004017A0E826FA2EC0EF004012C0E63
:105A0000826FA2EC0EF00401350E826FA2EC0EF054
:105A100004012C0E826FA2EC0EF038EC2BF0DFEFBD
:105A200022F087C32AF188C32BF189C32CF18AC3E2
:105A30002DF18BC32EF18CC32FF18DC330F18EC3AA
:105A400031F190C332F191C333F10101296B7DEC47
:105A500032F0F4EC31F0880E046F130E056F000E77
:105A6000066F000E076F1FEC31F0000E046F040E7E
:105A7000056F000E066F000E076F2BEC31F0010171
:105A8000E80E046F800E056F000E066F000E076FA4
:105A90004BEC31F00A0E0C6E00C10BF04DEC0BF02C
:105AA0000B0E0C6E01C10BF04DEC0BF00C0E0C6EDE
:105AB00002C10BF04DEC0BF00D0E0C6E03C10BF0A0
:105AC0004DEC0BF004017A0E826FA2EC0EF0040193
:105AD0002C0E826FA2EC0EF00401360E826FA2EC47
:105AE0000EF004012C0E826FA2EC0EF027EC2CF0CD
:105AF000DFEF22F087C32AF188C32BF189C32CF191
:105B00008AC32DF18BC32EF18CC32FF18DC330F1DD
:105B10008FC331F190C332F191C333F101017DECB8
:105B200032F0F4EC31F0000E046F120E056F000E2F
:105B3000066F000E076F2BEC31F001010A0E046FA7
:105B4000000E056F000E066F000E076F4BEC31F074
:105B5000120E0C6E00C10BF04DEC0BF0130E0C6E20
:105B600001C10BF04DEC0BF0140E0C6E02C10BF0EA
:105B70004DEC0BF0150E0C6E03C10BF04DEC0BF061
:105B800004017A0E826FA2EC0EF004012C0E826FDB
:105B9000A2EC0EF00401370E826FA2EC0EF00401AD
:105BA0002C0E826FA2EC0EF0ABEC2BF0DFEF22F0AC
:105BB00087C32AF188C32BF189C32CF18AC32DF145
:105BC0008BC32EF18CC32FF18DC330F18EC331F115
:105BD00090C332F191C333F10101296B7DEC32F0B6
:105BE000F4EC31F0880E046F130E056F000E066F93
:105BF000000E076F1FEC31F0000E046F040E056FEE
:105C0000000E066F000E076F2BEC31F00101E80E5D
:105C1000046F800E056F000E066F000E076F4BECD1
:105C200031F0060E0C6E00C10BF04DEC0BF0070EC0
:105C30000C6E01C10BF04DEC0BF0080E0C6E02C1A6
:105C40000BF04DEC0BF0090E0C6E03C10BF04DEC9C
:105C50000BF004017A0E826FA2EC0EF004012C0E00
:105C6000826FA2EC0EF00401380E826FA2EC0EF0EF
:105C700004012C0E826FA2EC0EF03DEC2CF0DFEF55
:105C800022F007A8B4EF2EF00101800E006F1A0E6B
:105C9000016F060E026F000E036F4BC104F14CC181
:105CA00005F14DC106F14EC107F11AEC31F003BF09
:105CB000FAEF2EF075EC2FF04BC100F14CC101F161
:105CC0004DC102F14EC103F1078227EC30F018C13B
:105CD00004F119C105F11AC106F11BC107F1F80E53
:105CE000006FCD0E016F660E026F030E036F1AEC8C
:105CF00031F00E0E0C6E00C10BF04DEC0BF00F0EE0
:105D00000C6E01C10BF04DEC0BF0100E0C6E02C1CD
:105D10000BF04DEC0BF0110E0C6E03C10BF04DECC3
:105D20000BF0078401012FEC32F057C100F158C18C
:105D300001F107940A0E0C6E00C10BF04DEC0BF054
:105D40000B0E0C6E01C10BF04DEC0BF00C0E0C6E3B
:105D500002C10BF04DEC0BF00D0E0C6E03C10BF0FD
:105D60004DEC0BF0FAEF2EF007AAFAEF2EF00784B5
:105D700001012FEC32F057C100F158C101F1079435
:105D8000060E0C6E00C10BF04DEC0BF0070E0C6E06
:105D900001C10BF04DEC0BF0080E0C6E02C10BF0C4
:105DA0004DEC0BF0090E0C6E03C10BF04DEC0BF03B
:105DB000078462C100F163C101F164C102F165C1F0
:105DC00003F10794120E0C6E00C10BF04DEC0BF0BA
:105DD000130E0C6E01C10BF04DEC0BF0140E0C6E9B
:105DE00002C10BF04DEC0BF0150E0C6E03C10BF065
:105DF0004DEC0BF00798079A0401805181197F0B35
:105E00000DE09EA8FED714EE00F081517F0BE12635
:105E1000E750812B0F01AD6EFCEF2EF005012F51E5
:105E2000000AD8B43DEF2FF081BA22EF2FF015B25F
:105E30003DEF2FF005012F51010AD8B43BEF2FF0B1
:105E400034EF2FF005012F51000AD8B426EF3AF0B5
:105E500005012F51010AD8B43BEF2FF00001165075
:105E6000050AD8B426EF3AF081B83DEF2FF0AAEC3E
:105E700033F050EC34F0BFEC39F0D0EF0DF018C136
:105E800000F119C101F11AC102F11BC103F1000EA9
:105E9000046F000E056F010E066F000E076F4BECCE
:105EA00031F029A16AEF2FF02051D8B46AEF2FF01A
:105EB00018C100F119C101F11AC102F11BC103F1AE
:105EC000000E046F000E056F0A0E066F000E076FBE
:105ED0004BEC31F012000101045100130551011384
:105EE000065102130751031312000101186B196BBD
:105EF0001A6B1B6B12002AC182F40401300E822738
:105F0000A2EC0EF02BC182F40401300E8227A2EC29
:105F10000EF02CC182F40401300E8227A2EC0EF0A8
:105F20002DC182F40401300E8227A2EC0EF02EC1A6
:105F300082F40401300E8227A2EC0EF02FC182F40D
:105F40000401300E8227A2EC0EF030C182F404016D
:105F5000300E8227A2EC0EF031C182F40401300E23
:105F60008227A2EC0EF032C182F40401300E8227A7
:105F7000A2EC0EF033C182F40401300E8227A2ECB1
:105F80000EF012002FC182F40401300E8227A2EC21
:105F90000EF030C182F40401300E8227A2EC0EF024
:105FA00031C182F40401300E8227A2EC0EF032C11E
:105FB00082F40401300E8227A2EC0EF033C182F489
:105FC0000401300E8227A2EC0EF01200060E216EA4
:105FD000060E226E060E236E212EECEF2FF0222EDF
:105FE000ECEF2FF0232EECEF2FF08B84020E216EBE
:105FF000020E226E020E236E212EFCEF2FF0222EB7
:10600000FCEF2FF0232EFCEF2FF08B941200FF0EED
:10601000226E22C023F0030E216E8B84212E0DEF01
:1060200030F0030E216E232E0DEF30F08B9422C042
:1060300023F0030E216E212E1BEF30F0030E216E94
:10604000233E1BEF30F0222E09EF30F01200010149
:10605000005305E1015303E1025301E1002BEAEC97
:1060600030F02FEC32F03951006F3A51016F420E8F
:10607000046F4B0E056F000E066F000E076F2BECC2
:1060800031F000C104F101C105F102C106F103C103
:1060900007F118C100F119C101F11AC102F11BC1C8
:1060A00003F107B258EF30F01FEC31F05AEF30F047
:1060B0001AEC31F000C118F101C119F102C11AF155
:1060C00003C11BF112002FEC32F059C100F15AC18B
:1060D00001F1060E64EC0BF0E8CF04F1070E64EC5E
:1060E0000BF0E8CF05F1080E64EC0BF0E8CF06F1F9
:1060F000090E64EC0BF0E8CF07F11AEC31F000C1A7
:1061000024F101C125F102C126F103C127F1290EB5
:10611000046F000E056F000E066F000E076F2BEC6C
:1061200031F0EE0E046F430E056F000E066F000E89
:10613000076F1FEC31F024C104F125C105F126C120
:1061400006F127C107F12BEC31F000C11CF101C1B0
:106150001DF102C11EF103C11FF1120E64EC0BF020
:10616000E8CF04F1130E64EC0BF0E8CF05F1140E48
:1061700064EC0BF0E8CF06F1150E64EC0BF0E8CF01
:1061800007F10D0E006F000E016F000E026F000E82
:10619000036F2BEC31F0180E046F000E056F000E2C
:1061A000066F000E076F4BEC31F01CC104F11DC1EE
:1061B00005F11EC106F11FC107F11FEC31F06A0E97
:1061C000046F2A0E056F000E066F000E076F1AECA3
:1061D00031F01200BF0EFA6E200E3A6F396BD89074
:1061E0000037013702370337D8B0FBEF30F03A2FD2
:1061F000F0EF30F039073A070353D8B412000331F7
:10620000070B80093F6F03390F0B010F396F80ECCB
:106210005FF0406F390580EC5FF0405D405F396BA7
:106220003F33D8B0392739333FA910EF31F040510F
:1062300039271200010154EC32F0D8B012000101EC
:1062400003510719346F17EC32F0D8900751031936
:1062500034AF800F12000101346B3BEC32F0D8A058
:1062600051EC32F0D8B0120026EC32F02FEC32F0C4
:106270001F0E366F67EC32F00B35D8B017EC32F0EA
:10628000D8A00335D8B01200362F3AEF31F034B130
:106290003EEC32F012000101346B0451051106117D
:1062A00007110008D8A03BEC32F0D8A051EC32F036
:1062B000D8B01200086B096B0A6B0B6B67EC32F0FD
:1062C0001F0E366F67EC32F007510B5DD8A475EFE7
:1062D00031F006510A5DD8A475EF31F00551095D22
:1062E000D8A475EF31F00451085DD8A088EF31F0E3
:1062F0000451085F0551D8A0053D095F0651D8A09B
:10630000063D0A5F0751D8A0073D0B5FD89000817A
:10631000362F62EF31F034B13EEC32F0346B3BECAF
:1063200032F0D8906BEC32F007510B5DD8A4A5EF9A
:1063300031F006510A5DD8A4A5EF31F00551095D91
:10634000D8A4A5EF31F00451085DD8A0B4EF31F026
:10635000003FB4EF31F0013FB4EF31F0023FB4EF52
:1063600031F0032BD8B4120034B13EEC32F01200FD
:106370000101346B3BEC32F0D8B0120070EC32F01B
:10638000200E366F003701370237033711EE33F036
:106390000A0E376FE7360A0EE75CD8B0E76EE552B3
:1063A000372FCAEF31F0362FC2EF31F034B12981E7
:1063B000D890120070EC32F0200E366F00370137A3
:1063C0000237033711EE33F00A0E376FE7360A0E45
:1063D000E75CD8B0E76EE552372FE6EF31F0362FA5
:1063E000DEEF31F0D890120001010A0E346F200E5A
:1063F000366F11EE29F03451376F0A0ED890E652FD
:10640000D8B0E726E732372FFFEF31F003330233FE
:1064100001330033362FF9EF31F0E750FF0FD8A0EA
:106420000335D8B0120029B13EEC32F0120004510D
:1064300000270551D8B0053D01270651D8B0063DCB
:1064400002270751D8B0073D032712000051086FFB
:106450000151096F02510A6F03510B6F12000101C4
:10646000006B016B026B036B12000101046B056B87
:10647000066B076B12000335D8A012000351800B86
:10648000001F011F021F031F003F4EEF32F0013FAC
:106490004EEF32F0023F4EEF32F0032B342B032548
:1064A00012000735D8A012000751800B041F051FEA
:1064B000061F071F043F64EF32F0053F64EF32F020
:1064C000063F64EF32F0072B342B0725120000370C
:1064D000013702370337083709370A370B371200FD
:1064E0000101296B2A6B2B6B2C6B2D6B2E6B2F6B89
:1064F000306B316B326B336B120001012A510F0B81
:106500002A6F2B510F0B2B6F2C510F0B2C6F2D5112
:106510000F0B2D6F2E510F0B2E6F2F510F0B2F6F57
:1065200030510F0B306F31510F0B316F32510F0B58
:10653000326F33510F0B336F120000C124F101C1D0
:1065400025F102C126F103C127F104C100F105C103
:1065500001F106C102F107C103F124C104F125C113
:1065600005F126C106F127C107F1120000012550EF
:10657000FE0AD8B4C4EF32F000012550FD0AD8B4A9
:10658000C4EF32F0898401D08994000EC76E220EC8
:10659000C66E050EE82EFED7120000012550FE0A39
:1065A000D8B4DBEF32F000012550FD0AD8B4DBEFA0
:1065B00032F0899401D08984050EE82EFED71200AE
:1065C000B6EC32F000012550FD0AD8B4F3EF32F0FA
:1065D0009E96C69E000EC96EFF0E9EB602D0E82E95
:1065E000FCD7FCEF32F09E96C69E010EC96EFF0EE0
:1065F0009EB602D0E82EFCD79E96C69E000EC96EAF
:10660000FF0E9EB602D0E82EFCD7C9CFAFF59E96FE
:10661000C69E000EC96EFF0E9EB602D0E82EFCD7B5
:10662000C9CFB0F59E96C69E000EC96EFF0E9EB6EF
:1066300002D0E82EFCD7C9CFB1F59E96C69E000EBB
:10664000C96EFF0E9EB602D0E82EFCD7C9CFB2F5B8
:106650009E96C69E000EC96EFF0E9EB602D0E82E14
:10666000FCD7C9CFB3F59E96C69E000EC96EFF0E2D
:106670009EB602D0E82EFCD7C9CFB4F59E96C69E32
:10668000000EC96EFF0E9EB602D0E82EFCD7C9CF11
:10669000B5F5CDEC32F01200B6EC32F00001255029
:1066A000FD0AD8B45FEF33F09E96C69E800EC96E89
:1066B000FF0E9EB602D0E82EFCD768EF33F09E9610
:1066C000C69E810EC96EFF0E9EB602D0E82EFCD784
:1066D0009E96C69EAFC5C9FFFF0E9EB602D0E82E9D
:1066E000FCD79E96C69EB0C5C9FFFF0E9EB602D0CF
:1066F000E82EFCD79E96C69EB1C5C9FFFF0E9EB67A
:1067000002D0E82EFCD79E96C69EB2C5C9FFFF0EEA
:106710009EB602D0E82EFCD79E96C69EB3C5C9FF92
:10672000FF0E9EB602D0E82EFCD79E96C69EB4C53C
:10673000C9FFFF0E9EB602D0E82EFCD79E96C69EDD
:10674000B5C5C9FFFF0E9EB602D0E82EFCD7CDEC32
:1067500032F01200B6EC32F000012550FD0AD8B438
:10676000BDEF33F09E96C69E070EC96EFF0E9EB615
:1067700002D0E82EFCD7C6EF33F09E96C69E090ED7
:10678000C96EFF0E9EB602D0E82EFCD79E96C69E1E
:10679000000EC96EFF0E9EB602D0E82EFCD7C9CF00
:1067A000AFF59E96C69E000EC96EFF0E9EB602D035
:1067B000E82EFCD7C9CFB0F59E96C69E000EC96ED6
:1067C000FF0E9EB602D0E82EFCD7C9CFB1F59E963B
:1067D000C69E000EC96EFF0E9EB602D0E82EFCD7F4
:1067E000C9CFB2F5CDEC32F0B6EC32F09E96C69E33
:1067F00026C0C9FFFF0E9EB602D0E82EFCD79E969B
:10680000C69E000EC96EFF0E9EB602D0E82EFCD7C3
:10681000C9CFB6F5CDEC32F01200B6EC32F0000183
:106820002550FD0AD8B420EF34F09E96C69E870E00
:10683000C96EFF0E9EB602D0E82EFCD729EF34F0C9
:106840009E96C69E890EC96EFF0E9EB602D0E82E99
:10685000FCD79E96C69E000EC96EFF0E9EB602D055
:10686000E82EFCD79E96C69E800EC96EFF0E9EB681
:1068700002D0E82EFCD79E96C69E800EC96EFF0EF3
:106880009EB602D0E82EFCD79E96C69E800EC96E9C
:10689000FF0E9EB602D0E82EFCD7CDEC32F01200EF
:1068A00000012550FE0AD8B45FEF34F000012550F6
:1068B000FD0AD8B476EF34F0AAEC33F01200B6EC4F
:1068C00032F09E96C69E8F0EC96EFF0E9EB602D007
:1068D000E82EFCD79E96C69E000EC96EFF0E9EB691
:1068E00002D0E82EFCD7CDEC32F01200B6EC32F03C
:1068F0009E96C69E8E0EC96EFF0E9EB602D0E82EE4
:10690000FCD79E96C69E000EC96EFF0E9EB602D0A4
:10691000E82EFCD7CDEC32F0120000012550FE0A23
:10692000D8B4C6EF34F000012550FD0AD8B4F3EF17
:1069300034F0B6EC32F09E96C69E27C0C9FFFF0E1B
:106940009EB602D0E82EFCD79E96C69E010EC96E5A
:10695000FF0E9EB602D0E82EFCD7CDEC32F0B6EC9E
:1069600032F09E96C69E910EC96EFF0E9EB602D064
:10697000E82EFCD79E96C69EA50EC96EFF0E9EB64B
:1069800002D0E82EFCD7CDEC32F01200B6EC32F09B
:106990009E96C69E27C0C9FFFF0E9EB602D0E82E67
:1069A000FCD79E96C69E450EC96EFF0E9EB602D0BF
:1069B000E82EFCD7CDEC32F0B6EC32F09E96C69EB7
:1069C0008F0EC96EFF0E9EB602D0E82EFCD79E96A3
:1069D000C69E000EC96EFF0E9EB602D0E82EFCD7F2
:1069E000CDEC32F01200B6EC32F09E96C69E27C077
:1069F000C9FFFF0E9EB602D0E82EFCD79E96C69E1B
:106A00003D0EC96EFF0E9EB602D0E82EFCD7CDEC2F
:106A100032F0B6EC32F09E96C69E8F0EC96EFF0E17
:106A20009EB602D0E82EFCD79E96C69EA90EC96ED1
:106A3000FF0E9EB602D0E82EFCD7CDEC32F012004D
:106A4000B6EC32F09E96C69E27C0C9FFFF0E9EB6DA
:106A500002D0E82EFCD79E96C69E810EC96EFF0E10
:106A60009EB602D0E82EFCD7CDEC32F01200B6EC88
:106A700032F09E96C69E27C0C9FFFF0E9EB602D07A
:106A8000E82EFCD79E96C69E010EC96EFF0E9EB6DE
:106A900002D0E82EFCD7CDEC32F01200B6EC32F08A
:106AA0009E96C69E910EC96EFF0E9EB602D0E82E2F
:106AB000FCD79E96C69EA50EC96EFF0E9EB602D04E
:106AC000E82EFCD7CDEC32F01200B6EC32F09E96F8
:106AD000C69E910EC96EFF0E9EB602D0E82EFCD760
:106AE0009E96C69E000EC96EFF0E9EB602D0E82E80
:106AF000FCD7CDEC32F012000501256B266B276B1D
:106B0000286B899A400EC76E200EC66E9E96C69E52
:106B1000030EC96EFF0E9EB602D0E82EFCD79E96DD
:106B2000C69E27C5C9FFFF0E9EB602D0E82EFCD731
:106B30009E96C69E26C5C9FFFF0E9EB602D0E82EC1
:106B4000FCD79E96C69E25C5C9FFFF0E9EB602D0F5
:106B5000E82EFCD79E96C69EC952FF0E9EB602D066
:106B6000E82EFCD7898A0F01C950FF0A01E1120003
:106B700005012E51130A05E005012E51170A0CE0FC
:106B800012000501E00E256FFF0E266F0F0E276F16
:106B9000000E286FD5EF35F00501E00E256FFF0ED2
:106BA000266FFF0E276F000E286F899A400EC76E62
:106BB000200EC66E9E96C69E030EC96EFF0E9EB632
:106BC00002D0E82EFCD79E96C69E27C5C9FFFF0EB1
:106BD0009EB602D0E82EFCD79E96C69E26C5C9FF5B
:106BE000FF0E9EB602D0E82EFCD79E96C69E25C507
:106BF000C9FFFF0E9EB602D0E82EFCD79E96C69E19
:106C0000C952FF0E9EB602D0E82EFCD7898A0F012A
:106C1000C950FF0A1DE005012E51130A05E00501C8
:106C20002E51170A0BE012000501000E256F000E11
:106C3000266F100E276F000E286F12000501000E40
:106C4000256F000E266F000E276F010E286F1200B1
:106C50000501256B266B276B286B05012E51130A46
:106C600005E005012E51170A0CE012000501000E87
:106C7000216F000E226F080E236F000E246F4AEF63
:106C800036F00501000E216F000E226F800E236F7B
:106C9000000E246F21C500F122C501F123C502F1C8
:106CA00024C503F125C504F126C505F127C506F164
:106CB00028C507F16BEC2FF000C125F501C126F5C1
:106CC00002C127F503C128F5899A400EC76E200E30
:106CD000C66E9E96C69E030EC96EFF0E9EB602D06D
:106CE000E82EFCD79E96C69E27C5C9FFFF0E9EB60E
:106CF00002D0E82EFCD79E96C69E26C5C9FFFF0E81
:106D00009EB602D0E82EFCD79E96C69E25C5C9FF2A
:106D1000FF0E9EB602D0E82EFCD79E96C69EC952A4
:106D2000FF0E9EB602D0E82EFCD7898AC950FF0A12
:106D300008E104C125F505C126F506C127F507C1FF
:106D400028F5D890050124332333223321332151F0
:106D5000E00B216F05012167B5EF36F02267B5EF33
:106D600036F02367B5EF36F024674AEF36F00501B9
:106D7000200E2527E86A2623E86A2723E86A2823C5
:106D80001200E86A05012E51130A06E005012E5192
:106D9000170A0BE0020E120005012851000A03E158
:106DA0002751F00B07E0010E120005012851000ADF
:106DB00001E0010E120029C500F12AC501F12BC521
:106DC00002F12CC503F125C504F126C505F127C53F
:106DD00006F128C507F11AEC31F003BF1200C1EC2F
:106DE00036F0D8A453EF37F0899A400EC76E200EC4
:106DF000C66E9E96C69E060EC96EFF0E9EB602D049
:106E0000E82EFCD7898A899A9E96C69E020EC96E84
:106E1000FF0E9EB602D0E82EFCD79E96C69E27C5D2
:106E2000C9FFFF0E9EB602D0E82EFCD79E96C69EE6
:106E300026C5C9FFFF0E9EB602D0E82EFCD79E964F
:106E4000C69E25C5C9FFFF0E9EB602D0E82EFCD710
:106E50009E96C69E000EC96EFF0E9EB602D0E82E0C
:106E6000FCD7898A899A9E96C69E050EC96EFF0E2A
:106E70009EB602D0E82EFCD79E96C69EC952FF0E43
:106E80009EB602D0E82EFCD7C9B03CEF37F0898A15
:106E90000501200E2527E86A2623E86A2723E86AE9
:106EA0002823DBEF36F01200899A400EC76E200EC1
:106EB000C66E9E96C69E060EC96EFF0E9EB602D088
:106EC000E82EFCD7898A899A9E96C69EC70EC96EFF
:106ED000FF0E9EB602D0E82EFCD7898A0501256BED
:106EE000266B276B286B1200899A400EC76E200E06
:106EF000C66E9E96C69E050EC96EFF0E9EB602D049
:106F0000E82EFCD79E96C69EC952FF0E9EB602D0B2
:106F1000E82EFCD7C9CF37F5898A1200899A400E2E
:106F2000C76E200EC66E9E96C69EB90EC96EFF0E27
:106F30009EB602D0E82EFCD7898A1200899A400EAC
:106F4000C76E200EC66E9E96C69EAB0EC96EFF0E15
:106F50009EB602D0E82EFCD7898AFF0EE82EFED717
:106F60001200C1EC36F0D8A41200899A400EC76E08
:106F7000200EC66E9E96C69E030EC96EFF0E9EB66E
:106F800002D0E82EFCD79E96C69E27C5C9FFFF0EED
:106F90009EB602D0E82EFCD79E96C69E26C5C9FF97
:106FA000FF0E9EB602D0E82EFCD79E96C69E25C543
:106FB000C9FFFF0E9EB602D0E82EFCD79E96C69E55
:106FC000C952FF0E9EB602D0E82EFCD7898A0F0167
:106FD000C950FF0AD8A430EF39F00501FE0E376F13
:106FE0000501FF0E536FFF0E546FFF0E556FFF0E1E
:106FF000566F15A637991586E0EC32F0AFC538F517
:10700000B0C539F5B1C53AF5B2C53BF5B3C53CF5E8
:10701000B4C53DF5B5C53EF50784BAC166F1BBC13F
:1070200067F1BCC168F1BDC169F14BC14FF14CC101
:1070300050F14DC151F14EC152F157C159F158C1F2
:107040005AF100011650010AD8B435EF38F00001AA
:107050001650020AD8B45AEF38F000011650040A4C
:10706000D8B47FEF38F030EF39F00501476B486B4B
:10707000496B4A6B05014B6B4C6B4D6B4E6B0501BD
:107080004F6B506B516B526B8BA0379B09EC23F00D
:1070900000C1DAF101C1DBF102C1DCF103C1DDF1B4
:1070A00000C13FF501C140F502C141F503C142F500
:1070B0009EEF38F00501476B486B496B4A6B050141
:1070C0004B6B4C6B4D6B4E6B05014F6B506B516BAB
:1070D000526B09EC23F000C1DAF101C1DBF102C10E
:1070E000DCF103C1DDF106EC24F000C147F501C17C
:1070F00048F502C149F503C14AF530EF39F0379B35
:10710000DAC13FF5DBC140F5DCC141F5DDC142F537
:1071100009EC23F000C14BF501C14CF502C14DF55E
:1071200003C14EF506EC24F000C14FF501C150F546
:1071300002C151F503C152F59EEF38F005016167B8
:10714000A9EF38F06267A9EF38F06367A9EF38F06C
:107150006467ADEF38F0C2EF38F0DAC100F1DBC19F
:1071600001F1DCC102F1DDC103F161C504F162C5C9
:1071700005F163C506F164C507F11AEC31F003BFF0
:1071800030EF39F059C143F55AC144F5B9C545F559
:107190000501210E326F899A400EC76E200EC66E11
:1071A0009E96C69E060EC96EFF0E9EB602D0E82EB3
:1071B000FCD7898A899A9E96C69E020EC96EFF0EDA
:1071C0009EB602D0E82EFCD79E96C69E27C5C9FF64
:1071D000FF0E9EB602D0E82EFCD79E96C69E26C510
:1071E000C9FFFF0E9EB602D0E82EFCD79E96C69E23
:1071F00025C5C9FFFF0E9EB602D0E82EFCD725EEAE
:1072000037F0322F02D010EF39F09E96C69EDECFB7
:10721000C9FFFF0E9EB602D0E82EFCD701EF39F071
:10722000898A899A9E96C69E050EC96EFF0E9EB6E5
:1072300002D0E82EFCD79E96C69EC952FF0E9EB67F
:1072400002D0E82EFCD7C9B01BEF39F0898A0501BE
:10725000200E2527E86A2623E86A2723E86A2823E0
:1072600015900794120021C500F122C501F123C534
:1072700002F124C503F1899A400EC76E200EC66E36
:107280009E96C69E0B0EC96EFF0E9EB602D0E82ECD
:10729000FCD79E96C69E02C1C9FFFF0E9EB602D0C5
:1072A000E82EFCD79E96C69E01C1C9FFFF0E9EB672
:1072B00002D0E82EFCD79E96C69E00C1C9FFFF0EE5
:1072C0009EB602D0E82EFCD79E96C69EC952FF0EEF
:1072D0009EB602D0E82EFCD725EE37F00501200E31
:1072E000326F9E96C69EC952FF0E9EB602D0E82E01
:1072F000FCD7C9CFDEFF322F71EF39F0898A120037
:10730000899A400EC76E200EC66E9E96C69E900E3F
:10731000C96EFF0E9EB602D0E82EFCD79E96C69E82
:10732000000EC96EFF0E9EB602D0E82EFCD79E96C8
:10733000C69E000EC96EFF0E9EB602D0E82EFCD788
:107340009E96C69E000EC96EFF0E9EB602D0E82E17
:10735000FCD79E96C69EC952FF0E9EB602D0E82E5E
:10736000FCD7C9CF2DF59E96C69EC952FF0E9EB67C
:1073700002D0E82EFCD7C9CF2EF5898A1200E0ECA6
:1073800032F005012F51010A5FE005012F51020A79
:1073900016E005012F51030A19E005012F51040AD7
:1073A00024E005012F51050A2BE005012F51060AA3
:1073B00039E005012F51070A3FE024EF3AF0602F32
:1073C00022EF3AF05FC560F524EF3AF0B0C500F166
:1073D00001010F0E001701010051000A35E0010103
:1073E0000051050A31E022EF3AF0B0C500F1010189
:1073F0000F0E001701010051000A26E022EF3AF0BB
:107400000501B051000A20E00501B051150A1CE049
:107410000501B051300A18E00501B051450A14E0E9
:1074200022EF3AF00501B051000A0EE00501B0511B
:10743000300A0AE022EF3AF00501B051000A04E0F8
:1074400022EF3AF015901200158012008B90E6ECB6
:107450002FF0B9C5E8FFD70802E3E6EC2FF0B9C575
:10746000E8FFC80802E3E6EC2FF0B9C5E8FFB90869
:1074700002E3E6EC2FF0B9C5E8FFAA0802E3E6EC68
:107480002FF0B9C5E8FF9B0802E3E6EC2FF08EEC85
:1074900037F0F29CF29E8B94C69AC2909482948CA0
:1074A000720ED36ED3A4FED789968A909390F29AE7
:1074B000F2949D909E909D929E92F298F29250EC42
:1074C00034F0FF0EE8CF00F0E82EFED7002EFCD7F8
:1074D000F290F286815081A870EF3AF0F29E03009C
:1074E000700ED36EF296F2901584038007EC30F0A4
:0474F0009AEF0BF014
:10BF0000E844F926000C160C2B0C3F0C520C640C68
:10BF1000760C860C960CA50CB30CC10CCF0CDC0C6B
:06BF2000E80CF40C000C1B
:0200000400F00A
:0100C800FD3A
:00000001FF
