:020000040000FA
:0408000085EF09F087
:1008100003B28CEF05F0F2B4AAEF05F09EB0B2EF90
:1008200005F09EB2BAEF05F0F2A81AEF04F0F2B2AA
:100830003AEF04F09EB61FEF04F034EF09F09E96F5
:1008400000011750000A0AE000011750010A0AE0EF
:1008500000011750020A0AE034EF09F063EC24F0BB
:1008600034EF09F05BEC26F034EF09F03DEC27F0B3
:1008700034EF09F0CD90F2929EA044EF04F0010114
:10088000533F44EF04F0542BB2C1B6F1B3C1B7F1FA
:10089000B4C1B8F1B5C1B9F1AEC1B2F1AFC1B3F1F4
:1008A000B0C1B4F1B1C1B5F1AAC1AEF1ABC1AFF104
:1008B000ACC1B0F1ADC1B1F1A6C1AAF1A7C1ABF114
:1008C000A8C1ACF1A9C1ADF1A2C1A6F1A3C1A7F124
:1008D000A4C1A8F1A5C1A9F19EC1A2F19FC1A3F134
:1008E000A0C1A4F1A1C1A5F19AC19EF19BC19FF144
:1008F0009CC1A0F19DC1A1F1CECF9AF1CFCF9BF1C8
:1009000053C19CF154C19DF1CF6ACE6A0101536B72
:10091000546B9E90CD800FBC0F8E0FBA93EF04F0F6
:100920000F8A34EF09F013880F8C0FBED0EF04F05C
:100930009AC19EF19BC19FF19CC1A0F19DC1A1F103
:100940009EC1A2F19FC1A3F1A0C1A4F1A1C1A5F1D3
:10095000A2C1A6F1A3C1A7F1A4C1A8F1A5C1A9F1A3
:10096000A6C1AAF1A7C1ABF1A8C1ACF1A9C1ADF173
:10097000AAC1AEF1ABC1AFF1ACC1B0F1ADC1B1F143
:10098000AEC1B2F1AFC1B3F1B0C1B4F1B1C1B5F113
:10099000B2C1B6F1B3C1B7F1B4C1B8F1B5C1B9F1E3
:1009A00001015E6B5F6B606B616B9A515E279B51BF
:1009B0005F239C5160239D5161239E515E279F516F
:1009C0005F23A0516023A1516123A2515E27A3514F
:1009D0005F23A4516023A5516123A6515E27A7512F
:1009E0005F23A8516023A9516123AA515E27AB510F
:1009F0005F23AC516023AD516123AE515E27AF51EF
:100A00005F23B0516023B1516123B2515E27B351CE
:100A10005F23B4516023B5516123B6515E27B751AE
:100A20005F23B8516023B9516123D890010161332C
:100A300060335F335E33D8900101613360335F33DD
:100A40005E33D8900101613360335F335E3300C1A0
:100A50000CF101C10DF102C10EF103C10FF104C18E
:100A600010F105C111F106C112F107C113F108C15E
:100A700014F109C115F10AC116F10BC117F134C106
:100A800035F111B84FEF05F00101620E046F010E50
:100A9000056F000E066F000E076F58EF05F001019D
:100AA000A70E046F020E056F000E066F000E076F93
:100AB0005EC100F15FC101F160C102F161C103F1EA
:100AC000C7EC22F003BF04D01CBE02D01CA0108CC7
:100AD00011A070EF05F010BA70EF05F00F80108ACA
:100AE0000CC100F10DC101F10EC102F10FC103F102
:100AF00010C104F111C105F112C106F113C107F1D2
:100B000014C108F115C109F116C10AF117C10BF1A1
:100B100035C134F134EF09F00392ABB2AB98AB8836
:100B2000030103EE00F080517F0BE92604C0EFFFC4
:100B3000802B8151805D700BD8A48B820000805186
:100B4000815D700BD8A48B9281518019D8B4079025
:100B500034EF09F0F2940101453F34EF09F0462BE0
:100B600034EF09F09E900101533F34EF09F0542B0C
:100B700034EF09F09E9211B830EF07F08BB4C8EF54
:100B800005F010ACC8EF05F08B84109CC9EF05F0A0
:100B90008B94C3CF55F1C4CF56F1C28207B438EF5E
:100BA00006F047C14BF148C14CF149C14DF14AC172
:100BB0004EF15EC162F15FC163F160C164F161C178
:100BC00065F113A8E6EF05F0138C13989AC1BAF1FA
:100BD0009BC1BBF19CC1BCF19DC1BDF19EC1BEF1E9
:100BE0009FC1BFF1A0C1C0F1A1C1C1F1A2C1C2F1B9
:100BF000A3C1C3F1A4C1C4F1A5C1C5F1A6C1C6F189
:100C0000A7C1C7F1A8C1C8F1A9C1C9F1AAC1CAF158
:100C1000ABC1CBF1ACC1CCF1ADC1CDF1AEC1CEF128
:100C2000AFC1CFF1B0C1D0F1B1C1D1F1B2C1D2F1F8
:100C3000B3C1D3F1B4C1D4F1B5C1D5F1B6C1D6F1C8
:100C4000B7C1D7F1B8C1D8F1B9C1D9F10101555136
:100C50005B2756515C23E86A5D230E2E38EF06F0C1
:100C60005CC157F15DC158F15B6B5C6B5D6B078ECE
:100C70000201002F34EF09F03C0E006F1D50E00B15
:100C8000E00AE86612881BBE02D01BB4108E00C1B9
:100C90000CF101C10DF102C10EF103C10FF104C14C
:100CA00010F105C111F106C112F107C113F108C11C
:100CB00014F109C115F10AC116F10BC117F134C1C4
:100CC00035F101018E676CEF06F08F676CEF06F06F
:100CD00090676CEF06F0916770EF06F0A1EF06F0F9
:100CE00092C100F193C101F194C102F195C103F1E8
:100CF0000101010E046F000E056F000E066F000E5D
:100D0000076FC7EC22F000C192F101C193F102C15B
:100D100094F103C195F10101006796EF06F00167B8
:100D200096EF06F0026796EF06F00367A1EF06F074
:100D30008EC192F18FC193F190C194F191C195F15F
:100D40000F80D57ED5BE6ED0D6CF47F1D7CF48F134
:100D500045C149F1E86AE8CF4AF1138A1CBE02D0C6
:100D60001CA0108C109047C100F148C101F149C18D
:100D700002F14AC103F101010A0E046F000E056F72
:100D8000000E066F000E076FC7EC22F003AF108055
:100D9000010154A7D8EF06F00F9A0F9C0F9E010196
:100DA000000E5E6F600E5F6F3D0E606F080E616F2C
:100DB000010147BFE8EF06F04867E8EF06F0496732
:100DC000E8EF06F04A67E8EF06F0F2880DEF07F06B
:100DD000F2985E6B5F6B606B616B9A6B9B6B9C6B4D
:100DE0009D6B9E6B9F6BA06BA16BA26BA36BA46BA7
:100DF000A56BA66BA76BA86BA96BAA6BAB6BAC6B57
:100E0000AD6BAE6BAF6BB06BB16BB26BB36BB46B06
:100E1000B56BB66BB76BB86BB96BD76AD66A0101A5
:100E2000456B466B0CC100F10DC101F10EC102F121
:100E30000FC103F110C104F111C105F112C106F196
:100E400013C107F114C108F115C109F116C10AF166
:100E500017C10BF135C134F134EF09F034EF09F06B
:100E60000201002F8BEF08F0D59ED6CF47F1D7CFE8
:100E700048F145C149F1E86AE8CF4AF1138AD76AD7
:100E8000D66A0101456B466BD58E1D50E00BE00A1A
:100E9000E86612881BBE02D01BB4108E1AAE1F8CDF
:100EA00000C10CF101C10DF102C10EF103C10FF13E
:100EB00004C110F105C111F106C112F107C113F10E
:100EC00008C114F109C115F10AC116F10BC117F1DE
:100ED00034C135F10FA0109A11B87AEF07F0010173
:100EE000620E046F010E056F000E066F000E076F95
:100EF00083EF07F00101A70E046F020E056F000ECD
:100F0000066F000E076F47C100F148C101F149C1EA
:100F100002F14AC103F1C7EC22F003BF96EF07F0DC
:100F20001CBE02D01CA0108C11B00F800CC100F1AF
:100F30000DC101F10EC102F10FC103F110C104F1A5
:100F400011C105F112C106F113C107F114C108F175
:100F500015C109F116C10AF117C10BF135C134F100
:100F600002013C0E006F00C10CF101C10DF102C184
:100F70000EF103C10FF104C110F105C111F106C159
:100F800012F107C113F108C114F109C115F10AC129
:100F900016F10BC117F134C135F101018E67D8EF9D
:100FA00007F08F67D8EF07F09067D8EF07F09167E9
:100FB000DCEF07F00DEF08F092C100F193C101F1F1
:100FC00094C102F195C103F10101010E046F000EFD
:100FD000056F000E066F000E076FC7EC22F000C110
:100FE00092F101C193F102C194F103C195F10101A4
:100FF000006702EF08F0016702EF08F0026702EFF6
:1010000008F003670DEF08F08EC192F18FC193F1E4
:1010100090C194F191C195F10F80109047C100F1FA
:1010200048C101F149C102F14AC103F101010A0EAF
:10103000046F000E056F000E066F000E076FC7EC01
:1010400022F003AF1080010154A733EF08F00F9A8C
:101050000F9C0F9E0101000E5E6F600E5F6F3D0ED4
:10106000606F080E616F47C100F148C101F149C1CD
:1010700002F14AC103F10101140E046F050E056F60
:10108000000E066F000E076FC7EC22F003AF4CEFA7
:1010900008F0F28871EF08F0F2985E6B5F6B606B9E
:1010A000616B9A6B9B6B9C6B9D6B9E6B9F6BA06B3C
:1010B000A16BA26BA36BA46BA56BA66BA76BA86BB4
:1010C000A96BAA6BAB6BAC6BAD6BAE6BAF6BB06B64
:1010D000B16BB26BB36BB46BB56BB66BB76BB86B14
:1010E000B96B0CC100F10DC101F10EC102F10FC1CC
:1010F00003F110C104F111C105F112C106F113C1D0
:1011000007F114C108F115C109F116C10AF117C19F
:101110000BF135C134F11AEC27F0206629D01FAE4F
:1011200011D01F9E208E1BAE07D0176A040E186EBA
:10113000196A63EC24F01CD0176A186A196A63EC08
:1011400024F016D01FAC09D01F9C208C010E176E06
:10115000186A196A5BEC26F00BD01FAA09D01F9AF7
:10116000208A020E176E186A196A3DEC27F000D02B
:101170008BB4C2EF08F010ACC2EF08F08B84109C67
:10118000C3EF08F08B94C3CF55F1C4CF56F1C282A0
:1011900007B432EF09F047C14BF148C14CF149C1E6
:1011A0004DF14AC14EF15EC162F15FC163F160C1B0
:1011B00064F161C165F113A8E0EF08F0138C139896
:1011C0009AC1BAF19BC1BBF19CC1BCF19DC1BDF1FB
:1011D0009EC1BEF19FC1BFF1A0C1C0F1A1C1C1F1CB
:1011E000A2C1C2F1A3C1C3F1A4C1C4F1A5C1C5F19B
:1011F000A6C1C6F1A7C1C7F1A8C1C8F1A9C1C9F16B
:10120000AAC1CAF1ABC1CBF1ACC1CCF1ADC1CDF13A
:10121000AEC1CEF1AFC1CFF1B0C1D0F1B1C1D1F10A
:10122000B2C1D2F1B3C1D3F1B4C1D4F1B5C1D5F1DA
:10123000B6C1D6F1B7C1D7F1B8C1D8F1B9C1D9F1AA
:10124000010155515B2756515C23E86A5D230E2E40
:1012500032EF09F05CC157F15DC158F15B6B5C6B1B
:101260005D6B078E34EF09F002C0E0FF005001C053
:10127000D8FF1000A6B23AEF09F00CC0A9FF0BC0CE
:10128000A8FFA69EA69CA684F29E550EA76EAA0E47
:10129000A76EA682F28EA694A6B24CEF09F00C2A95
:1012A0001200A96EA69EA69CA680A8500C2A120029
:1012B00004012C0E826F99EC0BF0DCEC23F00C5047
:1012C00051EC09F0E8CF00F10C5051EC09F0E8CFF7
:1012D00001F101AF71EF09F00101FF0E026FFF0E86
:1012E000036F65EC23F029677DEF09F00401200E00
:1012F000826F99EC0BF082EF09F004012D0E826FE2
:1013000099EC0BF06FEC21F0120015941596076A1A
:101310000F6A106A116A126A136A166A0F010E0EBA
:10132000C16E860EC06E030EC26E0F01896A190E61
:10133000926E080E8A6EF10E936E8B6A980E946E02
:10134000F18EFC0E51EC09F0E8CF0BF00BA01180F0
:101350000BA211820BA411840BA81188C90E51ECA9
:1013600009F0E8CF1AF0CA0E51EC09F0E8CF1BF0F3
:10137000CB0E51EC09F0E8CF1CF0CC0E51EC09F08B
:10138000E8CF1DF0FB0E51EC09F0E8CF37F0CE0EA0
:1013900051EC09F0E8CF14F0CD0E51EC09F0E8CF94
:1013A00036F01F6A206A0E6A01015B6B5C6B5D6B35
:1013B000576B586BF29A0101476B486B496B4A6B4C
:1013C0004B6B4C6B4D6B4E6B4F6B506B516B526B51
:1013D000456B466BD76AD66A0F01280ED56EF28A26
:1013E0009D90B00ECD6E01015E6B5F6B606B616BAB
:1013F000626B636B646B656B666B676B686B696B69
:10140000536B546BCF6ACE6A0F9A0F9C0F9E9D80D0
:10141000760ECA6E9D8202013C0E006FCC6A160EDB
:1014200051EC09F0E8CF00F1170E51EC09F0E8CFCC
:1014300001F1180E51EC09F0E8CF02F1190E51EC50
:1014400009F0E8CF03F1010103AF41EF0AF0DCEC52
:1014500023F0160E0C6E00C10BF03AEC09F0170EDB
:101460000C6E01C10BF03AEC09F0180E0C6E02C1C3
:101470000BF03AEC09F0190E0C6E03C10BF03AECCC
:1014800009F000C18EF101C18FF102C190F103C1D9
:1014900091F100C192F101C193F102C194F103C134
:1014A00095F11A0E51EC09F0E8CF00F11B0E51EC4A
:1014B00009F0E8CF01F11C0E51EC09F0E8CF02F180
:1014C0001D0E51EC09F0E8CF03F1010103AF97EFD6
:1014D0000AF0DCEC23F01A0E0C6E00C10BF03AECB3
:1014E00009F01B0E0C6E01C10BF03AEC09F01C0E5A
:1014F0000C6E02C10BF03AEC09F01D0E0C6E03C12C
:101500000BF03AEC09F01A0E51EC09F0E8CF00F1BB
:101510001B0E51EC09F0E8CF01F11C0E51EC09F063
:10152000E8CF02F11D0E51EC09F0E8CF03F100C144
:1015300096F101C197F102C198F103C199F1240E0E
:10154000AC6E900EAB6E240EAC6E080EB86E80B60C
:10155000C8EF0AF01E0E51EC09F0E8CF00F11F0EA3
:1015600051EC09F0E8CF01F100C1E8FFFF0A10E0FB
:1015700001C1E8FFFF0A0CE01E0E51EC09F0E8CFB4
:10158000AFFF1F0E51EC09F0E8CFB0FFCCEF0AF02F
:10159000000EB06E1F0EAF6E0401806B816B0F01E9
:1015A000900EAB6E0F019D8A0301806B816BC26B45
:1015B0008B92176A186A196A9D8607900001F28E4D
:1015C000F28C07B01DEF20F00FB00DEF19F010BE38
:1015D0000DEF19F012B80DEF19F0030180518119C8
:1015E0007F0BD8B41DEF20F013EE00F081517F0B7C
:1015F000E126812BE7CFE8FFE00BD8B41DEF20F008
:1016000023EE82F0C2513F0BD926E7CFDFFFC22B7A
:10161000DF50780AD8A41DEF20F0078092C100F1B6
:1016200093C101F194C102F195C103F10101040ECE
:10163000046F000E056F000E066F000E076FC7ECFB
:1016400022F000AF2DEF0BF00101030E926F000EA0
:10165000936F000E946F000E956F03018251720A12
:10166000D8B48EEF18F08251520AD8B48EEF18F029
:101670008251750AD8B48EEF18F08251680AD8B436
:10168000ADEF0BF08251630AD8B4D7EF1CF0825152
:10169000690AD8B45BEF13F082517A0AD8B46EEFBE
:1016A00014F08251490AD8B4FAEF12F08251500A6C
:1016B000D8B418EF12F08251700AD8B45BEF12F070
:1016C0008251540AD8B486EF12F08251740AD8B409
:1016D000CCEF12F08251410AD8B4B2EF0CF0825133
:1016E0004B0AD8B4AFEF0BF082516D0AD8B422EF99
:1016F00011F082514D0AD8B43BEF11F08251730AB8
:10170000D8B4BEEF17F08251530AD8B423EF18F0C3
:101710008251620AD8B4CAEF11F08251420AD8B499
:1017200005EF12F08251590AD8B473EF10F00EEFA2
:101730001DF0040114EE00F080517F0BE12682C4FD
:10174000E7FF802B120004010D0E826F99EC0BF065
:101750000A0E826F99EC0BF012000CEF1DF00401E1
:101760004B0E826F99EC0BF004012C0E826F99ECFA
:101770000BF081B802D036B630D003018351430A52
:10178000D8B4F4EF0BF003018351630AD8B4F6EF39
:101790000BF003018351520AD8B4F8EF0BF00301A8
:1017A0008351720AD8B4FAEF0BF003018351470A50
:1017B000D8B4FCEF0BF003018351670AD8B4FEEFF5
:1017C0000BF003018351540AD8B400EF0CF003016D
:1017D0008351740AD8B470EF0CF003018351550A99
:1017E000D8B402EF0CF083D036807BD0369079D01D
:1017F000368277D0369275D0368473D0369471D0D5
:1018000036866FD084C330F185C331F186C332F19F
:1018100087C333F10101296B2AEC24F0A1EC23F0FA
:1018200000C104F101C105F102C106F103C107F1D4
:101830001DEC24F0200EF86EF76AF66A0900F5CF69
:101840002CF10900F5CF2DF10900F5CF2EF109009B
:10185000F5CF2FF10900F5CF30F10900F5CF31F1C7
:101860000900F5CF32F10900F5CF33F10101296B01
:101870002AEC24F0A1EC23F0C7EC22F00101006770
:1018800049EF0CF0016749EF0CF0026749EF0CF0EB
:10189000036701D025D004014E0E826F99EC0BF046
:1018A00004016F0E826F99EC0BF004014D0E826FF4
:1018B00099EC0BF00401610E826F99EC0BF00401BE
:1018C000740E826F99EC0BF00401630E826F99EC39
:1018D0000BF00401680E826F99EC0BF00CEF1DF019
:1018E0003696CD0E0C6E36C00BF03AEC09F0CD0EEC
:1018F00051EC09F0E8CF36F036B006D00401630EA3
:10190000826F99EC0BF005D00401430E826F99ECC5
:101910000BF036B206D00401720E826F99EC0BF018
:1019200005D00401520E826F99EC0BF036B406D04C
:101930000401670E826F99EC0BF005D00401470E8D
:10194000826F99EC0BF036B606D00401740E826FEC
:1019500099EC0BF005D00401540E826F99EC0BF05A
:101960000CEF1DF00401410E826F99EC0BF00301A6
:101970008351310AD8B493EF0FF003018351320A37
:10198000D8B4C3EF0EF003018351330AD8B44CEF3F
:101990000EF003018351340AD8B43CEF0DF003017B
:1019A0008351350AD8B4DCEF0CF004013F0E826F8E
:1019B00099EC0BF00CEF1DF003018451300AD8B400
:1019C00002EF0DF003018451310AD8B405EF0DF098
:1019D00003018451650AD8B4F6EF0CF00301845179
:1019E000640AD8B4F9EF0CF006EF0DF03790FAEF77
:1019F0000CF03780FB0E0C6E37C00BF03AEC09F0A0
:101A000006EF0DF08B9006EF0DF08B800401350E84
:101A1000826F99EC0BF004012C0E826F99EC0BF0A5
:101A20008BB01AEF0DF00401300E826F99EC0BF0C1
:101A30001FEF0DF00401310E826F99EC0BF00401E1
:101A40002C0E826F99EC0BF0FB0E51EC09F0E8CFF5
:101A500037F037A033EF0DF00401640E826F99EC7C
:101A60000BF038EF0DF00401650E826F99EC0BF06E
:101A70003AEF0DF00CEF1DF0CC0E51EC09F0E8CF71
:101A80000BF004012C0E826F99EC0BF003018451D2
:101A9000310AD8B460EF0DF003018451300AD8B494
:101AA00062EF0DF0030184514D0AD8B46CEF0DF0D4
:101AB00003018451540AD8B473EF0DF08AEF0DF08E
:101AC0008A8401D08A940BAE04D00BAC02D00BBA3E
:101AD00021D0E00E0B1218D01F0E0B168539E844EA
:101AE000E00B0B1211D0E00E0B161DEC24F085C399
:101AF00032F186C333F10101296B2AEC24F0A1EC09
:101B000023F000511F0B0B12CC0E0C6E0BC00BF010
:101B10003AEC09F00401340E826F99EC0BF00401E9
:101B20002C0E826F99EC0BF0CC0E51EC09F0E8CF43
:101B30001DF08AB406D00401300E826F99EC0BF0D0
:101B400005D00401310E826F99EC0BF004012C0ECC
:101B5000826F99EC0BF01D38E840070BE8CF82F458
:101B60000401300E822799EC0BF004012C0E826FD9
:101B700099EC0BF0DCEC23F01D501F0BE8CF00F1CB
:101B800065EC23F032C182F40401300E822799EC17
:101B90000BF033C182F40401300E822799EC0BF074
:101BA00004012C0E826F99EC0BF0DCEC23F030C0BA
:101BB00000F100AF0BD0FF0E016FFF0E026FFF0EA2
:101BC000036F04012D0E826F99EC0BF065EC23F08E
:101BD00031C182F40401300E822799EC0BF032C13E
:101BE00082F40401300E822799EC0BF033C182F4A9
:101BF0000401300E822799EC0BF004012C0E826F49
:101C000099EC0BF0DCEC23F02FC000F165EC23F035
:101C100031C182F40401300E822799EC0BF032C1FD
:101C200082F40401300E822799EC0BF033C182F468
:101C30000401300E822799EC0BF004012C0E826F08
:101C400099EC0BF0DCEC23F031C000F100AF0BD0CD
:101C5000FF0E016FFF0E026FFF0E036F04012D0ECA
:101C6000826F99EC0BF065EC23F031C182F4040132
:101C7000300E822799EC0BF032C182F40401300E51
:101C8000822799EC0BF033C182F40401300E8227D5
:101C900099EC0BF00CEF1DF0CB0E51EC09F0E8CFF6
:101CA0000BF004012C0E826F99EC0BF003018451B0
:101CB000450AD8B470EF0EF003018451440AD8B439
:101CC00073EF0EF003018451300AD8B476EF0EF0B2
:101CD00003018451310AD8B47AEF0EF085EF0EF08B
:101CE0000B9E7FEF0EF00B8E7FEF0EF0FC0E0B16AF
:101CF0007FEF0EF0FC0E0B160B807FEF0EF0CB0E7D
:101D00000C6E0BC00BF03AEC09F00401330E826F3D
:101D100099EC0BF004012C0E826F99EC0BF0CB0EBA
:101D200051EC09F0E8CF1CF01CBE9EEF0EF0040150
:101D3000450E826F99EC0BF0A3EF0EF00401440EF8
:101D4000826F99EC0BF004012C0E826F99EC0BF072
:101D50000401300E826F99EC0BF004012C0E826F9F
:101D600099EC0BF01CB0BCEF0EF00401300E826F4A
:101D700099EC0BF0C1EF0EF00401310E826F99EC7B
:101D80000BF00CEF1DF0CA0E51EC09F0E8CF0BF090
:101D900004012C0E826F99EC0BF003018451450A6B
:101DA000D8B4FFEF0EF003018451440AD8B402EF17
:101DB0000FF0030184514D0AD8B40BEF0FF003016B
:101DC0008451410AD8B405EF0FF003018451460A4B
:101DD000D8B408EF0FF003018451560AD8B413EFBA
:101DE0000FF003018451500AD8B41EEF0FF0030125
:101DF0008451520AD8B421EF0FF02AEF0FF00B9E56
:101E000024EF0FF00B8E24EF0FF00B9C24EF0FF05C
:101E10000B8C24EF0FF0FC0E0B1685C3E8FF030BB1
:101E20000B1224EF0FF0C70E0B1685C3E8FF070B4C
:101E3000E846E846E8460B1224EF0FF00B8424EF47
:101E40000FF00B9424EF0FF0CA0E0C6E0BC00BF0CA
:101E50003AEC09F0CA0E51EC09F0E8CF1BF004018E
:101E6000320E826F99EC0BF004012C0E826F99EC0C
:101E70000BF01BBE43EF0FF00401450E826F99EC8F
:101E80000BF048EF0FF00401440E826F99EC0BF059
:101E900004012C0E826F99EC0BF01BC0E8FF030BC2
:101EA000E8CF82F40401300E822799EC0BF0040194
:101EB0002C0E826F99EC0BF01BBC66EF0FF0040147
:101EC000410E826F99EC0BF06BEF0FF00401460EA0
:101ED000826F99EC0BF004012C0E826F99EC0BF0E1
:101EE0001BC0E8FF380BE842E842E842E8CF82F442
:101EF0000401300E822799EC0BF004012C0E826F46
:101F000099EC0BF01BB48CEF0FF00401520E826FB2
:101F100099EC0BF091EF0FF00401500E826F99ECE9
:101F20000BF00CEF1DF0C90E51EC09F0E8CF0BF0EF
:101F300004012C0E826F99EC0BF003018451450AC9
:101F4000D8B4B1EF0FF003018451440AD8B4B4EF10
:101F50000FF0030184514D0AD8B4B7EF0FF0C5EF6D
:101F60000FF00B9EBFEF0FF00B8EBFEF0FF0F80ED0
:101F70000B1685C3E8FF070B0B12BFEF0FF0C90E5E
:101F80000C6E0BC00BF03AEC09F00401310E826FBD
:101F900099EC0BF004012C0E826F99EC0BF0C90E3A
:101FA00051EC09F0E8CF1AF01ABE06D00401450E34
:101FB000826F99EC0BF005D00401440E826F99EC0E
:101FC0000BF004012C0E826F99EC0BF01AC0E8FFA5
:101FD000070BE8CF82F40401300E822799EC0BF056
:101FE00004012C0E826F99EC0BF00780DCEC23F0DF
:101FF0002BC0E8FF003B00430043030B65EC23F0DC
:1020000033C182F40401300E822799EC0BF00401F5
:102010002C0E826F99EC0BF0DCEC23F02BC001F15D
:10202000019F019D2CC000F1010165EC23F02FC13F
:1020300082F40401300E822799EC0BF030C182F457
:102040000401300E822799EC0BF031C182F40401B7
:10205000300E822799EC0BF032C182F40401300E6D
:10206000822799EC0BF033C182F40401300E8227F1
:1020700099EC0BF004012C0E826F99EC0BF0DCEC68
:1020800023F02DC001F12EC000F1D89001330033B0
:10209000D89001330033010165EC23F02FC182F4A5
:1020A0000401300E822799EC0BF030C182F4040158
:1020B000300E822799EC0BF031C182F40401300E0E
:1020C000822799EC0BF032C182F40401300E822792
:1020D00099EC0BF033C182F40401300E822799ECA5
:1020E0000BF00CEF1DF0FC0E51EC09F0E8CF0BF0FB
:1020F00003018351520AD8B4AAEF10F003018351AF
:10210000720AD8B4ADEF10F003018351500AD8B46D
:10211000B0EF10F003018351700AD8B4B3EF10F0A0
:1021200003018351550AD8B4B6EF10F0030183516F
:10213000750AD8B4B9EF10F003018351430AD8B43B
:10214000C2EF10F003018351630AD8B4C5EF10F059
:10215000CEEF10F00B90C8EF10F00B80C8EF10F02E
:102160000B92C8EF10F00B82C8EF10F00B94C8EF81
:1021700010F00B84C8EF10F00B96C8EF10F00B8630
:10218000C8EF10F00B98C8EF10F00B88C8EF10F0F4
:10219000FC0E0C6E0BC00BF03AEC09F00401590E6A
:1021A000826F99EC0BF01190119211941198FC0E22
:1021B00051EC09F0E8CF0BF00BA011800BA21182BB
:1021C0000BA411840BA8118811A0EEEF10F00401EC
:1021D000520E826F99EC0BF0F3EF10F00401720EC7
:1021E000826F99EC0BF011A8FDEF10F00401430E83
:1021F000826F99EC0BF002EF11F00401630E826F15
:1022000099EC0BF011A20CEF11F00401500E826F4B
:1022100099EC0BF011EF11F00401700E826F99EC44
:102220000BF011A41BEF11F00401550E826F99EC15
:102230000BF020EF11F00401750E826F99EC0BF09A
:102240000CEF1DF004016D0E826F99EC0BF0030191
:102250008351300AD8B47AEF11F003018351310A67
:10226000D8B48DEF11F003018351320AD8B4A0EF36
:1022700011F00EEF1DF004014D0E826F99EC0BF082
:102280001DEC24F084C331F185C332F186C333F1F0
:102290000101296B2AEC24F0A1EC23F00301835106
:1022A000300AD8B462EF11F003018351310AD8B477
:1022B0006AEF11F003018351320AD8B472EF11F0C2
:1022C0000EEF1DF0FD0E0C6E00C10BF03AEC09F0A4
:1022D0007AEF11F0FE0E0C6E00C10BF03AEC09F033
:1022E0008DEF11F0FF0E0C6E00C10BF03AEC09F00F
:1022F000A0EF11F00401300E826F99EC0BF0040195
:102300002C0E826F99EC0BF0DCEC23F0FD0E51ECFF
:1023100009F0E8CF00F1B1EF11F00401310E826F46
:1023200099EC0BF004012C0E826F99EC0BF0DCECB5
:1023300023F0FE0E51EC09F0E8CF00F1B1EF11F0FF
:102340000401320E826F99EC0BF0DCEC23F00401F7
:102350002C0E826F99EC0BF0FF0E51EC09F0E8CFD8
:1023600000F165EC23F031C182F40401300E8227C4
:1023700099EC0BF032C182F40401300E822799EC03
:102380000BF033C182F40401300E822799EC0BF07C
:102390000CEF1DF08351610AD8A40EEF1DF084519B
:1023A000750AD8A40EEF1DF08551640AD8A40EEF6B
:1023B0001DF086C32AF187C32BF188C32CF189C392
:1023C0002DF18AC32EF18BC32FF18CC330F18DC355
:1023D00031F18EC332F18FC333F10101296B2AEC45
:1023E00024F0A1EC23F000C1AFFF01C1B0FF1E0E2D
:1023F0000C6EAFCF0BF03AEC09F01F0E0C6EB0CFA5
:102400000BF03AEC09F00EEF1DF080B60FEF12F072
:102410000401300E826F99EC0BF014EF12F00401FE
:10242000310E826F99EC0BF0A3EC0BF00EEF1DF068
:1024300083C32AF184C32BF185C32CF186C32DF10C
:1024400087C32EF188C32FF189C330F18AC331F1DC
:102450008BC332F18CC333F101012AEC24F0A1ECDF
:1024600023F0160E0C6E00C10BF03AEC09F0170EBB
:102470000C6E01C10BF03AEC09F0180E0C6E02C1A3
:102480000BF03AEC09F0190E0C6E03C10BF03AECAC
:1024900009F000C18EF101C18FF102C190F103C1B9
:1024A00091F100C192F101C193F102C194F103C114
:1024B00095F1FAEF12F083C32AF184C32BF185C39F
:1024C0002CF186C32DF187C32EF188C32FF189C368
:1024D00030F18AC331F18BC332F18CC333F1010186
:1024E0002AEC24F0A1EC23F000C18EF101C18FF1A0
:1024F00002C190F103C191F100C192F101C193F1C8
:1025000002C194F103C195F1FAEF12F083C32AF1ED
:1025100084C32BF185C32CF186C32DF187C32EF123
:1025200088C32FF189C330F18AC331F18CC332F1F2
:102530008DC333F101012AEC24F0A1EC23F0010159
:10254000000E046F000E056F010E066F000E076F80
:10255000D8EC22F01A0E0C6E00C10BF03AEC09F028
:102560001B0E0C6E01C10BF03AEC09F01C0E0C6E48
:1025700002C10BF03AEC09F01D0E0C6E03C10BF01A
:102580003AEC09F000C196F101C197F102C198F14E
:1025900003C199F1FAEF12F083C32AF184C32BF13E
:1025A00085C32CF186C32DF187C32EF188C32FF18B
:1025B00089C330F18AC331F18CC332F18DC333F159
:1025C00001012AEC24F0A1EC23F00101000E046FBC
:1025D000000E056F010E066F000E076FD8EC22F09B
:1025E00000C196F101C197F102C198F103C199F1BF
:1025F000FAEF12F0160E51EC09F0E8CF00F1170EC9
:1026000051EC09F0E8CF01F1180E51EC09F0E8CFD8
:1026100002F1190E51EC09F0E8CF03F165EC23F05B
:1026200028EC21F00401730E826F99EC0BF0040189
:102630002C0E826F99EC0BF08EC100F18FC101F16D
:1026400090C102F191C103F165EC23F028EC21F077
:102650000401730E826F99EC0BF004012C0E826F53
:1026600099EC0BF01A0E51EC09F0E8CF00F11B0EBB
:1026700051EC09F0E8CF01F11C0E51EC09F0E8CF64
:1026800002F11D0E51EC09F0E8CF03F129EC1DF029
:1026900004012C0E826F99EC0BF096C100F197C1EA
:1026A00001F198C102F199C103F129EC1DF0A3ECED
:1026B0000BF00EEF1DF00401690E826F99EC0BF028
:1026C00004012C0E826F99EC0BF00101040E006FD7
:1026D000000E016F000E026F000E036F65EC23F019
:1026E0002CC182F40401300E822799EC0BF02DC12D
:1026F00082F40401300E822799EC0BF02EC182F493
:102700000401300E822799EC0BF02FC182F40401F2
:10271000300E822799EC0BF030C182F40401300EA8
:10272000822799EC0BF031C182F40401300E82272C
:1027300099EC0BF032C182F40401300E822799EC3F
:102740000BF033C182F40401300E822799EC0BF0B8
:1027500004012C0E826F99EC0BF00101050E006F45
:10276000000E016F000E026F000E036F65EC23F088
:102770002CC182F40401300E822799EC0BF02DC19C
:1027800082F40401300E822799EC0BF02EC182F402
:102790000401300E822799EC0BF02FC182F4040162
:1027A000300E822799EC0BF030C182F40401300E18
:1027B000822799EC0BF031C182F40401300E82279C
:1027C00099EC0BF032C182F40401300E822799ECAF
:1027D0000BF033C182F40401300E822799EC0BF028
:1027E00004012C0E826F99EC0BF001014F0E006F6B
:1027F000000E016F000E026F000E036F65EC23F0F8
:102800002CC182F40401300E822799EC0BF02DC10B
:1028100082F40401300E822799EC0BF02EC182F471
:102820000401300E822799EC0BF02FC182F40401D1
:10283000300E822799EC0BF030C182F40401300E87
:10284000822799EC0BF031C182F40401300E82270B
:1028500099EC0BF032C182F40401300E822799EC1E
:102860000BF033C182F40401300E822799EC0BF097
:1028700004012C0E826F99EC0BF0200EF86EF76AB3
:10288000F66A04010900F5CF82F499EC0BF0090017
:10289000F5CF82F499EC0BF00900F5CF82F499ECB6
:1028A0000BF00900F5CF82F499EC0BF00900F5CF9D
:1028B00082F499EC0BF00900F5CF82F499EC0BF05F
:1028C0000900F5CF82F499EC0BF00900F5CF82F402
:1028D00099EC0BF0A3EC0BF00EEF1DF08351630AA3
:1028E000D8A40CEF1DF08451610AD8A40CEF1DF0A0
:1028F00085516C0AD8A40CEF1DF08651410A3FE0C7
:102900008651440A1BE08651420AD8B4D2EF14F033
:102910008651350AD8B498EF1EF08651360AD8B4DD
:10292000EDEF1EF08651370AD8B456EF1FF08651EE
:10293000380AD8B4B4EF1FF00CEF1DF00798079ACF
:1029400004017A0E826F99EC0BF00401780E826F0D
:1029500099EC0BF00401640E826F99EC0BF004010A
:10296000550E826F99EC0BF0BBEF14F004014C0E86
:10297000826F99EC0BF0A3EC0BF00EEF1DF00788C3
:10298000079A04017A0E826F99EC0BF00401410E54
:10299000826F99EC0BF00401610E826F99EC0BF0E1
:1029A000AFEF14F00798078A04017A0E826F99EC52
:1029B0000BF00401420E826F99EC0BF00401610EE2
:1029C000826F99EC0BF0AFEF14F001016667F0EF46
:1029D00014F06767F0EF14F06867F0EF14F06967C0
:1029E00016D001014F67FCEF14F05067FCEF14F0B4
:1029F0005167FCEF14F052670AD00101000E006F1E
:102A0000000E016F000E026F000E036F120011B86E
:102A10000AD00101620E046F010E056F000E066FF1
:102A2000000E076F09D00101A70E046F020E056F9B
:102A3000000E066F000E076F66C100F167C101F15D
:102A400068C102F169C103F1C7EC22F003BF99EF3D
:102A500015F0119A119C0101000E046FA80E056F6C
:102A6000550E066F020E076F66C100F167C101F1D6
:102A700068C102F169C103F166C18AF167C18BF1D6
:102A800068C18CF169C18DF1C7EC22F003BF0BD096
:102A90000101000E8A6FA80E8B6F550E8C6F020E0F
:102AA0008D6F118A119C0E0E51EC09F0E8CF18F1D0
:102AB0000F0E51EC09F0E8CF19F1100E51EC09F0AE
:102AC000E8CF1AF1110E51EC09F0E8CF1BF110EC30
:102AD00022F08AC104F18BC105F18CC106F18DC1D0
:102AE00007F1C7EC22F00782D4EC21F010EC22F0C1
:102AF0000792D4EC21F08AC100F18BC101F18CC1A5
:102B000002F18DC103F10792D4EC21F0CC0E046FD9
:102B1000E00E056F870E066F050E076FC7EC22F0FB
:102B200000C118F101C119F102C11AF103C11BF171
:102B300040D013AA9EEF15F0138E139A119C119A90
:102B40000101800E006F1A0E016F060E026F000E5B
:102B5000036F4FC104F150C105F151C106F152C1DB
:102B600007F1C7EC22F003AF05D0DCEC23F0118CA9
:102B7000119A12000E0E51EC09F0E8CF18F10F0E69
:102B800051EC09F0E8CF19F1100E51EC09F0E8CF43
:102B90001AF1110E51EC09F0E8CF1BF14FC100F111
:102BA00050C101F151C102F152C103F10782D4ECCD
:102BB00021F018C100F119C101F11AC102F11BC1C4
:102BC00003F112000784BAC166F1BBC167F1BCC151
:102BD00068F1BDC169F14BC14FF14CC150F14DC11C
:102BE00051F14EC152F157C159F158C15AF10794F0
:102BF0000101666703EF16F0676703EF16F0686779
:102C000003EF16F0696716D001014F670FEF16F05A
:102C100050670FEF16F051670FEF16F052670AD0AA
:102C20000101000E006F000E016F000E026F000E1A
:102C3000036F120011B80AD00101620E046F010E79
:102C4000056F000E066F000E076F09D00101A70E79
:102C5000046F020E056F000E066F000E076F66C14F
:102C600000F167C101F168C102F169C103F1C7EC6C
:102C700022F003BF9BEF16F00101000E046FA80EB7
:102C8000056F550E066F020E076F66C100F167C132
:102C900001F168C102F169C103F166C18AF167C13E
:102CA0008BF168C18CF169C18DF1C7EC22F003BFD3
:102CB00009D00101000E8A6FA80E8B6F550E8C6F24
:102CC000020E8D6F10EC22F000C104F101C105F17C
:102CD00002C106F103C107F1000E006FA00E016FE3
:102CE000980E026F7B0E036FF8EC22F000C118F112
:102CF00001C119F102C11AF103C11BF1000E006FED
:102D0000A00E016F980E026F7B0E036F8AC104F153
:102D10008BC105F18CC106F18DC107F1F8EC22F0F1
:102D200018C104F119C105F11AC106F11BC107F15F
:102D3000C7EC22F012000101A80E006F610E016FB6
:102D4000000E026F000E036F4FC104F150C105F178
:102D500051C106F152C107F1C7EC22F003AF0AD00E
:102D60000101A80E006F610E016F000E026F000ED0
:102D7000036F00D0C80E006FAF0E016F000E026F20
:102D8000000E036F4FC104F150C105F151C106F1AE
:102D900052C107F1D8EC22F012000784BAC166F1E3
:102DA000BBC167F1BCC168F1BDC169F14BC14FF155
:102DB0004CC150F14DC151F14EC152F157C159F1C1
:102DC00058C15AF1079401016667EEEF16F0676784
:102DD000EEEF16F06867EEEF16F0696716D00101A6
:102DE0004F67FAEF16F05067FAEF16F05167FAEFF7
:102DF00016F052670AD00101000E006F000E016F3D
:102E0000000E026F000E036F120011B80AD001010C
:102E1000620E046F010E056F000E066F000E076F45
:102E200009D00101A70E046F020E056F000E066F98
:102E3000000E076F66C100F167C101F168C102F1C0
:102E400069C103F1C7EC22F003BFB0EF17F0010135
:102E5000000E046FA80E056F550E066F020E076F69
:102E600066C100F167C101F168C102F169C103F1F6
:102E700066C18AF167C18BF168C18CF169C18DF1BE
:102E8000C7EC22F003BF09D00101000E8A6FA80E23
:102E90008B6F550E8C6F020E8D6F010E006F000E42
:102EA000016F000E026F000E036F8AC104F18BC127
:102EB00005F18CC106F18DC107F1F8EC22F018C1C3
:102EC00004F119C105F11AC106F11BC107F165EC46
:102ED00023F02AC182F40401300E822799EC0BF012
:102EE0002BC182F40401300E822799EC0BF02CC127
:102EF00082F40401300E822799EC0BF02DC182F48C
:102F00000401300E822799EC0BF02EC182F40401EB
:102F1000300E822799EC0BF02FC182F40401300EA1
:102F2000822799EC0BF030C182F40401300E822725
:102F300099EC0BF031C182F40401300E822799EC38
:102F40000BF032C182F40401300E822799EC0BF0B1
:102F500033C182F40401300E822799EC0BF0120089
:102F60004FC100F150C101F151C102F152C103F151
:102F7000010165EC23F028EC21F012000401730E2E
:102F8000826F99EC0BF004012C0E826F99EC0BF020
:102F9000078462C166F163C167F164C168F165C10C
:102FA00069F14BC14FF14CC150F14DC151F14EC1CE
:102FB00052F157C159F158C15AF10794E4EC17F096
:102FC000A3EC0BF00EEF1DF066C100F167C101F13B
:102FD00068C102F169C103F1010165EC23F028EC3D
:102FE00021F00401630E826F99EC0BF004012C0EAA
:102FF000826F99EC0BF04FC100F150C101F151C14A
:1030000002F152C103F1010165EC23F028EC21F03B
:103010000401660E826F99EC0BF004012C0E826F96
:1030200099EC0BF0DCEC23F059C100F15AC101F12D
:10303000010165EC23F028EC21F00401740E826F8D
:1030400099EC0BF0120010820401530E826F99EC80
:103050000BF004012C0E826F99EC0BF083C32AF164
:1030600084C32BF185C32CF186C32DF187C32EF1C8
:1030700088C32FF189C330F18AC331F18BC332F198
:103080008CC333F101012AEC24F0A1EC23F000C140
:1030900066F101C167F102C168F103C169F18EC334
:1030A0002AF18FC32BF190C32CF191C32DF192C360
:1030B0002EF193C32FF194C330F195C331F196C330
:1030C00032F197C333F101012AEC24F0A1EC23F093
:1030D00000C14FF101C150F102C151F103C152F1E0
:1030E0001DEC24F099C32FF19AC330F19BC331F149
:1030F0009CC332F19DC333F101012AEC24F0A1EC11
:1031000023F000C159F101C15AF1E4EC17F00401B8
:103110002C0E826F99EC0BF09EEF18F0118E1CA014
:1031200002D01CAE108C1BBE02D01BA4108E03015B
:103130008251520A02E10F8201D00F928251750A28
:1031400002E1108401D010948251550A02E11086E8
:1031500001D010968351310A03E11382138402D007
:103160001392139403018351660A01E056D00401BF
:10317000660E826F99EC0BF004012C0E826F99ECB5
:103180000BF0E2EC15F065EC23F02AC182F40401A7
:10319000300E822799EC0BF02BC182F40401300E23
:1031A000822799EC0BF02CC182F40401300E8227A7
:1031B00099EC0BF02DC182F40401300E822799ECBA
:1031C0000BF02EC182F40401300E822799EC0BF033
:1031D0002FC182F40401300E822799EC0BF030C12C
:1031E00082F40401300E822799EC0BF031C182F495
:1031F0000401300E822799EC0BF032C182F40401F5
:10320000300E822799EC0BF033C182F40401300EAA
:10321000822799EC0BF00CEF1DF011A003D011A444
:1032200001D01084078410B277EF19F010A45BEF7F
:1032300019F0BAC166F1BBC167F1BCC168F1BDC18B
:1032400069F1BEC16AF1BFC16BF1C0C16CF1C1C10E
:103250006DF1C2C16EF1C3C16FF1C4C170F1C5C1DE
:1032600071F1C6C172F1C7C173F1C8C174F1C9C1AE
:1032700075F1CAC176F1CBC177F1CCC178F1CDC17E
:1032800079F1CEC17AF1CFC17BF1D0C17CF1D1C14E
:103290007DF1D2C17EF1D3C17FF1D4C180F1D5C11E
:1032A00081F1D6C182F1D7C183F1D8C184F1D9C1EE
:1032B00085F163EF19F062C166F163C167F164C122
:1032C00068F165C169F1BAC186F1BBC187F1BCC1C2
:1032D00088F1BDC189F14BC14FF14CC150F14DC1D5
:1032E00051F14EC152F157C159F158C15AF10794E9
:1032F0000FA099EF19F00101966786EF19F0976713
:1033000086EF19F0986786EF19F099678AEF19F040
:1033100099EF19F0E5EC14F096C104F197C105F1AD
:1033200098C106F199C107F1C7EC22F003BFD2EFB3
:103330001CF0E5EC14F00101000E046F000E056FA7
:10334000010E066F000E076FF8EC22F011A02AD0D4
:1033500011A228D065EC23F0296701D005D0040123
:103360002D0E826F99EC0BF030C182F40401300E07
:10337000822799EC0BF031C182F40401300E8227D0
:1033800099EC0BF032C182F40401300E822799ECE3
:103390000BF033C182F40401300E822799EC0BF05C
:1033A000A3EC0BF012A8C5D012981DC01EF01E3A57
:1033B0001E42070E1E1600011E50000AD8B465EF0B
:1033C0001AF000011E50010AD8B4F1EF19F0000103
:1033D0001E50020AD8B4EFEF19F097EF1AF097EFEA
:1033E0001AF0DCEC23F02DC001F12EC000F1D890D2
:1033F00001330033D890013300330101630E046FB1
:10340000000E056F000E066F000E076FF8EC22F03D
:10341000280E046F000E056F000E066F000E076F7A
:10342000C7EC22F000C130F0DCEC23F02BC001F13E
:10343000019F019D2CC000F10101A40E046F000E3C
:10344000056F000E066F000E076FF8EC22F000C14A
:103450002FF000C104F101C105F102C106F103C161
:1034600007F1640E006F000E016F000E026F000E78
:10347000036FC7EC22F0050E046F000E056F000EFF
:10348000066F000E076FF8EC22F000C104F101C1D5
:1034900005F102C106F103C107F1DCEC23F030C0F5
:1034A00000F1C7EC22F000C131F031C0E8FF050F98
:1034B000305C03E78A8497EF1AF031C0E8FF0A0F07
:1034C000305C01E68A9497EF1AF000C124F101C143
:1034D00025F102C126F103C127F1DCEC23F0E2EC77
:1034E00023F01D501F0BE8CF00F10101640E046FA3
:1034F000000E056F000E066F000E076FD8EC22F06D
:1035000024C104F125C105F126C106F127C107F147
:10351000C7EC22F003BF02D08A9401D08A8424C170
:1035200000F125C101F126C102F127C103F10EEF1F
:103530001DF000C124F101C125F102C126F103C132
:1035400027F110AE4DD0109E00C108F101C109F164
:1035500002C10AF103C10BF165EC23F030C1E2F1C5
:1035600031C1E3F132C1E4F133C1E5F108C100F149
:1035700009C101F10AC102F10BC103F101016C0E95
:10358000046F070E056F000E066F000E076FC7EC85
:1035900022F003BF04D00101550EE66F1CD008C114
:1035A00000F109C101F10AC102F10BC103F10101EE
:1035B000A40E046F060E056F000E066F000E076F57
:1035C000C7EC22F003BF04D001017F0EE66F03D0E9
:1035D0000101FF0EE66F1F8E11AED2EF1CF0119E9F
:1035E00024C100F125C101F126C102F127C103F177
:1035F00011A005D011A203D00FB0D2EF1CF010A47F
:1036000009EF1BF00401750E826F99EC0BF00EEFC1
:103610001BF00401720E826F99EC0BF004012C0E6A
:10362000826F99EC0BF065EC23F029671DEF1BF01E
:103630000401200E826F20EF1BF004012D0E826F1B
:1036400099EC0BF030C182F40401300E822799EC22
:103650000BF031C182F40401300E822799EC0BF09B
:1036600004012E0E826F99EC0BF032C182F404013A
:10367000300E822799EC0BF033C182F40401300E36
:10368000822799EC0BF004016D0E826F99EC0BF020
:1036900004012C0E826F99EC0BF04FC100F150C168
:1036A00001F151C102F152C103F1010165EC23F0B6
:1036B00028EC21F00401480E826F99EC0BF0040114
:1036C0007A0E826F99EC0BF004012C0E826F99EC4C
:1036D0000BF066C100F167C101F168C102F169C177
:1036E00003F1010165EC23F028EC21F00401630EE5
:1036F000826F99EC0BF004012C0E826F99EC0BF0A9
:1037000066C100F167C101F168C102F169C103F14D
:1037100001010A0E046F000E056F000E066F000E09
:10372000076FD8EC22F0000E046F120E056F000E2A
:10373000066F000E076FF8EC22F065EC23F02AC14B
:1037400082F40401300E822799EC0BF02BC182F435
:103750000401300E822799EC0BF02CC182F4040195
:10376000300E822799EC0BF02DC182F40401300E4B
:10377000822799EC0BF02EC182F40401300E8227CF
:1037800099EC0BF02FC182F40401300E822799ECE2
:103790000BF030C182F40401300E822799EC0BF05B
:1037A00004012E0E826F99EC0BF031C182F40401FA
:1037B000300E822799EC0BF032C182F40401300EF6
:1037C000822799EC0BF033C182F40401300E82277A
:1037D00099EC0BF00401730E826F99EC0BF004016D
:1037E0002C0E826F99EC0BF0DCEC23F059C100F148
:1037F0005AC101F138EC1EF013A24EEF1CF0040187
:103800002C0E826F99EC0BF086C166F187C167F1CF
:1038100088C168F189C169F1E5EC14F00101000E7D
:10382000046F000E056F010E066F000E076FF8ECB7
:1038300022F065EC23F0296723EF1CF00401200E31
:10384000826F26EF1CF004012D0E826F99EC0BF0B5
:1038500030C182F40401300E822799EC0BF031C1A3
:1038600082F40401300E822799EC0BF004012E0E35
:10387000826F99EC0BF032C182F40401300E822782
:1038800099EC0BF033C182F40401300E822799ECDD
:103890000BF004016D0E826F99EC0BF00301835164
:1038A000460A01E007D004012C0E826F99EC0BF060
:1038B000CDEC16F013A481EF1CF004012C0E826FE6
:1038C00099EC0BF013AC6FEF1CF00401500E826FFB
:1038D00099EC0BF0139C1398139A81EF1CF013AE24
:1038E0007CEF1CF00401460E826F99EC0BF0139EE6
:1038F0001398139A81EF1CF00401530E826F99EC18
:103900000BF037B098EF1CF004012C0E826F99EC8D
:103910000BF08BB093EF1CF00401440E826F99EC16
:103920000BF098EF1CF00401530E826F99EC0BF032
:103930000FB29EEF1CF00FA0D0EF1CF004012C0E74
:10394000826F99EC0BF0200EF86EF76AF66A0401AC
:103950000900F5CF82F499EC0BF00900F5CF82F461
:1039600099EC0BF00900F5CF82F499EC0BF009000B
:10397000F5CF82F499EC0BF00900F5CF82F499ECC5
:103980000BF00900F5CF82F499EC0BF00900F5CFAC
:1039900082F499EC0BF00900F5CF82F499EC0BF06E
:1039A000A3EC0BF00F90109E12980EEF1DF0040187
:1039B000630E826F99EC0BF004012C0E826F99EC70
:1039C0000BF014EC1DF004012C0E826F99EC0BF03F
:1039D00087EC1DF004012C0E826F99EC0BF003ECC8
:1039E0001EF004012C0E826F99EC0BF00101F80E11
:1039F000006FCD0E016F660E026F030E036F29EC90
:103A00001DF004012C0E826F99EC0BF019EC1EF0E6
:103A1000A3EC0BF00EEF1DF0A3EC0BF00301C26B57
:103A2000079010921DEF20F0D8900E0E51EC09F087
:103A3000E8CF00F10F0E51EC09F0E8CF01F1100EC4
:103A400051EC09F0E8CF02F1110E51EC09F0E8CF8A
:103A500003F10101000E046F000E056F010E066FE9
:103A6000000E076FF8EC22F065EC23F02AC182F417
:103A70000401300E822799EC0BF02BC182F4040173
:103A8000300E822799EC0BF02CC182F40401300E29
:103A9000822799EC0BF02DC182F40401300E8227AD
:103AA00099EC0BF02EC182F40401300E822799ECC0
:103AB0000BF02FC182F40401300E822799EC0BF039
:103AC00030C182F40401300E822799EC0BF031C131
:103AD00082F40401300E822799EC0BF004012E0EC3
:103AE000826F99EC0BF032C182F40401300E822710
:103AF00099EC0BF033C182F40401300E822799EC6B
:103B00000BF004016D0E826F99EC0BF01200120E97
:103B100051EC09F0E8CF00F1130E51EC09F0E8CFB9
:103B200001F1140E51EC09F0E8CF02F1150E51EC41
:103B300009F0E8CF03F101010A0E046F000E056FD2
:103B4000000E066F000E076FD8EC22F0000E046F17
:103B5000120E056F000E066F000E076FF8EC22F0D4
:103B600065EC23F02AC182F40401300E822799EC1F
:103B70000BF02BC182F40401300E822799EC0BF07C
:103B80002CC182F40401300E822799EC0BF02DC178
:103B900082F40401300E822799EC0BF02EC182F4DE
:103BA0000401300E822799EC0BF02FC182F404013E
:103BB000300E822799EC0BF030C182F40401300EF4
:103BC000822799EC0BF004012E0E826F99EC0BF01A
:103BD00031C182F40401300E822799EC0BF032C11E
:103BE00082F40401300E822799EC0BF033C182F489
:103BF0000401300E822799EC0BF00401730E826FE2
:103C000099EC0BF012000A0E51EC09F0E8CF00F12C
:103C10000B0E51EC09F0E8CF01F10C0E51EC09F05C
:103C2000E8CF02F10D0E51EC09F0E8CF03F138EFC7
:103C30001EF0060E51EC09F0E8CF00F1070E51EC32
:103C400009F0E8CF01F1080E51EC09F0E8CF02F1DC
:103C5000090E51EC09F0E8CF03F138EF1EF0010135
:103C6000DCEC23F0078457C100F158C101F107943F
:103C70000101E80E046F800E056F000E066F000E46
:103C8000076FD8EC22F0000E046F040E056F000ED3
:103C9000066F000E076FF8EC22F0880E046F130E0B
:103CA000056F000E066F000E076FC7EC22F00A0EBC
:103CB000046F000E056F000E066F000E076FF8EC24
:103CC00022F065EC23F0010129676CEF1EF004017E
:103CD000200E826F6FEF1EF004012D0E826F99ECA3
:103CE0000BF030C182F40401300E822799EC0BF006
:103CF00031C182F40401300E822799EC0BF032C1FD
:103D000082F40401300E822799EC0BF004012E0E90
:103D1000826F99EC0BF033C182F40401300E8227DC
:103D200099EC0BF00401430E826F99EC0BF012003A
:103D300087C32AF188C32BF189C32CF18AC32DF1E3
:103D40008BC32EF18CC32FF18DC330F18EC331F1B3
:103D500090C332F191C333F10101296B2AEC24F0B5
:103D6000A1EC23F00101000E046F000E056F010E9F
:103D7000066F000E076FD8EC22F00E0E0C6E00C11D
:103D80000BF03AEC09F00F0E0C6E01C10BF03AEC9F
:103D900009F0100E0C6E02C10BF03AEC09F0110E96
:103DA0000C6E03C10BF03AEC09F004017A0E826F3D
:103DB00099EC0BF004012C0E826F99EC0BF00401CE
:103DC000350E826F99EC0BF004012C0E826F99EC8A
:103DD0000BF014EC1DF0BBEF14F087C32AF188C37D
:103DE0002BF189C32CF18AC32DF18BC32EF18CC327
:103DF0002FF18DC330F18EC331F190C332F191C3F5
:103E000033F10101296B2AEC24F0A1EC23F0880E98
:103E1000046F130E056F000E066F000E076FCCECDB
:103E200022F0000E046F040E056F000E066F000EE8
:103E3000076FD8EC22F00101E80E046F800E056FC9
:103E4000000E066F000E076FF8EC22F00A0E0C6EE3
:103E500000C10BF03AEC09F00B0E0C6E01C10BF037
:103E60003AEC09F00C0E0C6E02C10BF03AEC09F0C2
:103E70000D0E0C6E03C10BF03AEC09F004017A0E42
:103E8000826F99EC0BF004012C0E826F99EC0BF011
:103E90000401360E826F99EC0BF004012C0E826F38
:103EA00099EC0BF003EC1EF0BBEF14F087C32AF182
:103EB00088C32BF189C32CF18AC32DF18BC32EF15A
:103EC0008CC32FF18DC330F18FC331F190C332F128
:103ED00091C333F101012AEC24F0A1EC23F0000E90
:103EE000046F120E056F000E066F000E076FD8EC00
:103EF00022F001010A0E046F000E056F000E066F1E
:103F0000000E076FF8EC22F0120E0C6E00C10BF0E1
:103F10003AEC09F0130E0C6E01C10BF03AEC09F00B
:103F2000140E0C6E02C10BF03AEC09F0150E0C6E7B
:103F300003C10BF03AEC09F004017A0E826F99ECA0
:103F40000BF004012C0E826F99EC0BF00401370E7C
:103F5000826F99EC0BF004012C0E826F99EC0BF040
:103F600087EC1DF0BBEF14F087C32AF188C32BF157
:103F700089C32CF18AC32DF18BC32EF18CC32FF191
:103F80008DC330F18EC331F190C332F191C333F15F
:103F90000101296B2AEC24F0A1EC23F0880E046FB8
:103FA000130E056F000E066F000E076FCCEC22F0AB
:103FB000000E046F040E056F000E066F000E076FF3
:103FC000D8EC22F00101E80E046F800E056F000EA0
:103FD000066F000E076FF8EC22F0060E0C6E00C1A3
:103FE0000BF03AEC09F0070E0C6E01C10BF03AEC45
:103FF00009F0080E0C6E02C10BF03AEC09F0090E44
:104000000C6E03C10BF03AEC09F004017A0E826FDA
:1040100099EC0BF004012C0E826F99EC0BF004016B
:10402000380E826F99EC0BF004012C0E826F99EC24
:104030000BF019EC1EF0BBEF14F007A890EF20F086
:104040000101800E006F1A0E016F060E026F000E46
:10405000036F4BC104F14CC105F14DC106F14EC1D6
:1040600007F1C7EC22F003BFD6EF20F022EC21F0DD
:104070004BC100F14CC101F14DC102F14EC103F140
:104080000782D4EC21F018C104F119C105F11AC15D
:1040900006F11BC107F1F80E006FCD0E016F660E21
:1040A000026F030E036FC7EC22F00E0E0C6E00C100
:1040B0000BF03AEC09F00F0E0C6E01C10BF03AEC6C
:1040C00009F0100E0C6E02C10BF03AEC09F0110E63
:1040D0000C6E03C10BF03AEC09F007840101DCEC33
:1040E00023F057C100F158C101F107940A0E0C6E7C
:1040F00000C10BF03AEC09F00B0E0C6E01C10BF095
:104100003AEC09F00C0E0C6E02C10BF03AEC09F01F
:104110000D0E0C6E03C10BF03AEC09F0D6EF20F057
:1041200007AAD6EF20F007840101DCEC23F057C189
:1041300000F158C101F10794060E0C6E00C10BF09E
:104140003AEC09F0070E0C6E01C10BF03AEC09F0E5
:10415000080E0C6E02C10BF03AEC09F0090E0C6E61
:1041600003C10BF03AEC09F0078462C100F163C1AE
:1041700001F164C102F165C103F10794120E0C6EE6
:1041800000C10BF03AEC09F0130E0C6E01C10BF0FC
:104190003AEC09F0140E0C6E02C10BF03AEC09F087
:1041A000150E0C6E03C10BF03AEC09F00798079A54
:1041B0000401805181197F0B0DE09EA8FED714EEFB
:1041C00000F081517F0BE126E750812B0F01AD6E8E
:1041D000D8EF20F0E1EF0AF018C100F119C101F1A8
:1041E0001AC102F11BC103F1000E046F000E056F2E
:1041F000010E066F000E076FF8EC22F029A117EFF1
:1042000021F02051D8B417EF21F018C100F119C1E5
:1042100001F11AC102F11BC103F1000E046F000E7F
:10422000056F0A0E066F000E076FF8EC22F0120001
:1042300001010451001305510113065102130751E6
:10424000031312000101186B196B1A6B1B6B120020
:104250002AC182F40401300E822799EC0BF02BC1A5
:1042600082F40401300E822799EC0BF02CC182F409
:104270000401300E822799EC0BF02DC182F4040169
:10428000300E822799EC0BF02EC182F40401300E1F
:10429000822799EC0BF02FC182F40401300E8227A3
:1042A00099EC0BF030C182F40401300E822799ECB6
:1042B0000BF031C182F40401300E822799EC0BF02F
:1042C00032C182F40401300E822799EC0BF033C125
:1042D00082F40401300E822799EC0BF012002FC1FA
:1042E00082F40401300E822799EC0BF030C182F485
:1042F0000401300E822799EC0BF031C182F40401E5
:10430000300E822799EC0BF032C182F40401300E9A
:10431000822799EC0BF033C182F40401300E82271E
:1043200099EC0BF01200060E216E060E226E060EA0
:10433000236E212E99EF21F0222E99EF21F0232ECA
:1043400099EF21F08B84020E216E020E226E020E76
:10435000236E212EA9EF21F0222EA9EF21F0232E8A
:10436000A9EF21F08B941200FF0E226E22C023F0E1
:10437000030E216E8B84212EBAEF21F0030E216EE5
:10438000232EBAEF21F08B9422C023F0030E216E6E
:10439000212EC8EF21F0030E216E233EC8EF21F03D
:1043A000222EB6EF21F012000101005305E1015366
:1043B00003E1025301E1002B97EC22F0DCEC23F047
:1043C0003951006F3A51016F420E046F4B0E056F69
:1043D000000E066F000E076FD8EC22F000C104F14A
:1043E00001C105F102C106F103C107F118C100F1D5
:1043F00019C101F11AC102F11BC103F107B205EFA6
:1044000022F0CCEC22F007EF22F0C7EC22F000C142
:1044100018F101C119F102C11AF103C11BF1120017
:10442000DCEC23F059C100F15AC101F1060E51EC48
:1044300009F0E8CF04F1070E51EC09F0E8CF05F1DF
:10444000080E51EC09F0E8CF06F1090E51EC09F025
:10445000E8CF07F1C7EC22F000C124F101C125F13A
:1044600002C126F103C127F1290E046F000E056F6A
:10447000000E066F000E076FD8EC22F0EE0E046FF0
:10448000430E056F000E066F000E076FCCEC22F096
:1044900024C104F125C105F126C106F127C107F1A8
:1044A000D8EC22F000C11CF101C11DF102C11EF1C6
:1044B00003C11FF1120E51EC09F0E8CF04F1130E05
:1044C00051EC09F0E8CF05F1140E51EC09F0E8CFFA
:1044D00006F1150E51EC09F0E8CF07F10D0E006F53
:1044E000000E016F000E026F000E036FD8EC22F079
:1044F000180E046F000E056F000E066F000E076F9A
:10450000F8EC22F01CC104F11DC105F11EC106F139
:104510001FC107F1CCEC22F06A0E046F2A0E056F62
:10452000000E066F000E076FC7EC22F01200BF0EE0
:10453000FA6E200E3A6F396BD89000370137023788
:104540000337D8B0A8EF22F03A2F9DEF22F03907B9
:104550003A070353D8B412000331070B80093F6FA9
:1045600003390F0B010F396F80EC5FF0406F390595
:1045700080EC5FF0405D405F396B3F33D8B0392746
:1045800039333FA9BDEF22F0405139271200010114
:1045900001EC24F0D8B01200010103510719346F67
:1045A000C4EC23F0D8900751031934AF800F1200E8
:1045B0000101346BE8EC23F0D8A0FEEC23F0D8B076
:1045C0001200D3EC23F0DCEC23F01F0E366F14EC5A
:1045D00024F00B35D8B0C4EC23F0D8A00335D8B004
:1045E0001200362FE7EF22F034B1EBEC23F012008B
:1045F0000101346B04510511061107110008D8A000
:10460000E8EC23F0D8A0FEEC23F0D8B01200086B41
:10461000096B0A6B0B6B14EC24F01F0E366F14EC55
:1046200024F007510B5DD8A422EF23F006510A5D58
:10463000D8A422EF23F00551095DD8A422EF23F07E
:104640000451085DD8A035EF23F00451085F0551EF
:10465000D8A0053D095F0651D8A0063D0A5F075165
:10466000D8A0073D0B5FD8900081362F0FEF23F0C5
:1046700034B1EBEC23F0346BE8EC23F0D89018EC79
:1046800024F007510B5DD8A452EF23F006510A5DC8
:10469000D8A452EF23F00551095DD8A452EF23F0BE
:1046A0000451085DD8A061EF23F0003F61EF23F0D3
:1046B000013F61EF23F0023F61EF23F0032BD8B4F9
:1046C000120034B1EBEC23F012000101346BE8EC82
:1046D00023F0D8B012001DEC24F0200E366F003706
:1046E00001370237033711EE33F00A0E376FE73622
:1046F0000A0EE75CD8B0E76EE552372F77EF23F06C
:10470000362F6FEF23F034B12981D89012001DECC1
:1047100024F0200E366F003701370237033711EED1
:1047200033F00A0E376FE7360A0EE75CD8B0E76E53
:10473000E552372F93EF23F0362F8BEF23F0D890ED
:10474000120001010A0E346F200E366F11EE29F0AF
:104750003451376F0A0ED890E652D8B0E726E732C8
:10476000372FACEF23F00333023301330033362FFE
:10477000A6EF23F0E750FF0FD8A00335D8B0120002
:1047800029B1EBEC23F01200045100270551D8B0F9
:10479000053D01270651D8B0063D02270751D8B084
:1047A000073D032712000051086F0151096F0251A4
:1047B0000A6F03510B6F12000101006B016B026B5A
:1047C000036B12000101046B056B066B076B120093
:1047D0000335D8A012000351800B001F011F021FD8
:1047E000031F003FFBEF23F0013FFBEF23F0023FED
:1047F000FBEF23F0032B342B032512000735D8A041
:1048000012000751800B041F051F061F071F043FDE
:1048100011EF24F0053F11EF24F0063F11EF24F0D3
:10482000072B342B072512000037013702370337D7
:10483000083709370A370B3712000101296B2A6B39
:104840002B6B2C6B2D6B2E6B2F6B306B316B326B9C
:10485000336B120001012A510F0B2A6F2B510F0BE2
:104860002B6F2C510F0B2C6F2D510F0B2D6F2E51C9
:104870000F0B2E6F2F510F0B2F6F30510F0B306F0F
:1048800031510F0B316F32510F0B326F33510F0B10
:10489000336F120000C124F101C125F102C126F1DC
:1048A00003C127F104C100F105C101F106C102F104
:1048B00007C103F124C104F125C105F126C106F1A8
:1048C00027C107F1120000011950FF0A01E112008F
:1048D000390EC86E800EC76E280EC66E000EC56EED
:1048E0001850000AD8B49EEF24F01850010AD8B42A
:1048F000B7EF24F01850020AD8B4D0EF24F01850C3
:10490000030AD8B4E9EF24F01850040AD8B411EF20
:1049100025F01850050AD8B42AEF25F01850060AD9
:10492000D8B443EF25F01850070AD8B45CEF25F04F
:104930001850080AD8B475EF25F012001950000A73
:10494000D8B494EF25F01950010AD8B498EF25F0A7
:104950001950020AD8B49CEF25F01950030AD8B4B4
:10496000A0EF25F01950040AD8B413EF26F019501F
:10497000000AD8B4A8EF25F01950010AD8B4ACEF5A
:1049800025F01950020AD8B4B0EF25F01950030AE7
:10499000D8B4B4EF25F01950040AD8B413EF26F0B8
:1049A0001950000AD8B4B8EF25F01950010AD8B44C
:1049B000BCEF25F01950020AD8B4C0EF25F0195009
:1049C000030AD8B4C4EF25F01950040AD8B413EF81
:1049D00026F01950000AD8B4D1EF25F01950010A79
:1049E000D8B4D5EF25F01950020AD8B4D9EF25F084
:1049F0001950030AD8B4EDEF25F01950040AD8B4C1
:104A0000F1EF25F01950050AD8B4F5EF25F019504B
:104A1000060AD8B4F9EF25F01950070AD8B4FCEF0C
:104A200025F01950000AD8B400EF26F01950010AF9
:104A3000D8B404EF26F01950020AD8B408EF26F0D3
:104A40001950030AD8B40CEF26F01950040AD8B450
:104A50000FEF26F01950000AD8B417EF26F01950BE
:104A6000010AD8B41BEF26F01950020AD8B41FEF80
:104A700026F01950030AD8B423EF26F01950040A7F
:104A8000D8B413EF26F01950000AD8B42DEF26F051
:104A90001950010AD8B431EF26F01950020AD8B4DF
:104AA00035EF26F01950030AD8B439EF26F0195023
:104AB000040AD8B413EF26F01950000AD8B43AEF1C
:104AC00026F01950010AD8B43EEF26F01950020A18
:104AD000D8B442EF26F01950030AD8B446EF26F0B6
:104AE0001950040AD8B413EF26F01950000AD8B4AC
:104AF00047EF26F01950010AD8B44BEF26F01950B1
:104B0000020AD8B44FEF26F01950030AD8B453EF75
:104B100026F01950040AD8B454EF26F01950050AAB
:104B2000D8B457EF26F012009E96C580192A1200BD
:104B3000E20EC96E192A1200770EC96E192A1200E8
:104B4000020EE86E8AB4E88AE8CFC9FF192A12007B
:104B50009E96C580192A1200E20EC96E192A12000B
:104B6000790EC96E192A1200000EC96E192A120098
:104B70009E96C580192A1200E20EC96E192A1200EB
:104B80007A0EC96E192A12001BBC03D0E6C1E8FFD9
:104B900004D01B50E844E8441F09E8CFC9FF192A94
:104BA00012009E96C580192A1200E20EC96E192ABB
:104BB000120011BA03D011BC01D003D0050E186E3B
:104BC0003ED00101E267E9EF25F0100EC96EEBEF70
:104BD00025F0E2C1C9FF192A1200E3C1C9FF192A51
:104BE0001200E4C1C9FF192A1200E5C1C9FF192A40
:104BF0001200C584192A1200FF0E196E209E1200A1
:104C00009E96C580192A1200E20EC96E192A12005A
:104C1000760EC96E192A1200C584192A1200FF0ED9
:104C2000196E209E1200C584182A196A12009E96D9
:104C3000C580192A1200E20EC96E192A12007B0ED5
:104C4000C96E192A120011AA04D0230EC96E192A9E
:104C500012001C0EC96E192A12009E96C580192AD0
:104C60001200E20EC96E192A12007C0EC96E192AB2
:104C70001200E9D79E96C580192A1200E20EC96E6D
:104C8000192A12007D0EC96E192A1200DCD79E96D1
:104C9000C580192A1200E20EC96E192A12007E0E72
:104CA000C96E192A1200CFD7C584192A1200FF0E27
:104CB000196E209E12001950FF0AD8B419EF27F080
:104CC000390EC86E800EC76E280EC66E000EC56EF9
:104CD0001850000AD8B474EF26F01850010AD8B45E
:104CE00088EF26F019EF27F01950000AD8B4C6EF64
:104CF00026F01950010AD8B4CAEF26F01950020A5A
:104D0000D8B4D4EF26F01950030AD8B4D7EF26F060
:104D10001950000AD8B4DDEF26F01950010AD8B4B2
:104D2000E1EF26F01950020AD8B4EBEF26F0195043
:104D3000030AD8B4EEEF26F01950040AD8B4F4EF01
:104D400026F01950050AD8B4F7EF26F01950060AD4
:104D5000D8B4FDEF26F01950070AD8B400EF27F0B9
:104D60001950080AD8B406EF27F01950090AD8B428
:104D700009EF27F019500A0AD8B40FEF27F019509D
:104D80000B0AD8B412EF27F019EF27F09E96C580D2
:104D900018EF27F01AB004D04E0EC96E18EF27F0A6
:104DA000500EC96E18EF27F0C58418EF27F0182AA7
:104DB000FF0E196E128019EF27F09E96C58018EF2E
:104DC00027F01AB004D04F0EC96E18EF27F0510E1D
:104DD000C96E18EF27F0C58618EF27F0C9CF27F066
:104DE000C59AC58818EF27F0C58618EF27F0C9CFF8
:104DF00028F0C59AC58818EF27F0C58618EF27F068
:104E0000C9CF29F0C59AC58818EF27F0C58618EFD5
:104E100027F0C9CF2AF0C58AC58818EF27F0C584C6
:104E200018EF27F0FF0E196E1286209C19EF27F05D
:104E3000192A120012B012D012B213D012B414D028
:104E400012A6120007B01200129627C02BF028C03D
:104E50002CF029C02DF02AC02EF0120012901282E0
:104E6000120012921284120000011950FF0A04E18C
:104E70001294196A5BEC26F012001950FF0AD8B49C
:104E800019EF27F002EC28F01850000AD8B450EFC0
:104E900027F01850010AD8B48EEF27F019EF27F049
:104EA0001950000AD8B4C2EF27F01950010AD8B43B
:104EB000C7EF27F01950020AD8B4CBEF27F01950EA
:104EC000030AD8B4CFEF27F01950040AD8B4D7EFAB
:104ED00027F01950050AD8B4DAEF27F01950060A5E
:104EE000D8B4E1EF27F01950070AD8B4E4EF27F05F
:104EF0001950080AD8B4EBEF27F01950090AD8B4B2
:104F0000EEEF27F019500A0AD8B4F5EF27F0195040
:104F10000B0AD8B4F8EF27F019EF27F01950000A60
:104F2000D8B4FEEF27F01950010AD8B4FEEF27F0ED
:104F30001950020AD8B4FEEF27F01950030AD8B46A
:104F4000FEEF27F01950040AD8B4FEEF27F01950ED
:104F5000050AD8B4FEEF27F01950060AD8B4FEEFC0
:104F600027F01950070AD8B4FEEF27F01950080AA5
:104F7000D8B4FEEF27F01950090AD8B4FEEF27F095
:104F800019EF27F09E96C596C58000EF28F0520EC7
:104F9000C96E00EF28F0B40EC96E00EF28F0C9CF3B
:104FA00032F0326AC586C59AC58800EF28F0C586FA
:104FB00000EF28F0C9CF33F0336AC59AC58800EFF7
:104FC00028F0C58600EF28F0C9CF34F0346AC59ABE
:104FD000C58800EF28F0C58600EF28F0C9CF35F06E
:104FE000356AC58AC58800EF28F0C58400EF28F02F
:104FF000FF0E196E1286209C01EF28F001EF28F0B9
:10500000192A1200390EC86E800EC76E280EC66EA1
:06501000000EC56E120047
:10BF0000E844F926000C160C2B0C3F0C520C640C68
:10BF1000760C860C960CA50CB30CC10CCF0CDC0C6B
:06BF2000E80CF40C000C1B
:00000001FF
