:020000040000FA
:0408000085EF09F087
:1008100003B28CEF05F0F2B4AAEF05F09EB0B2EF90
:1008200005F09EB2BAEF05F0F2A81AEF04F0F2B2AA
:100830003AEF04F09EB61FEF04F034EF09F09E96F5
:1008400000011750000A0AE000011750010A0AE0EF
:1008500000011750020A0AE034EF09F0DDEC23F042
:1008600034EF09F0D5EC25F034EF09F0B7EC26F0C1
:1008700034EF09F0CD90F2929EA044EF04F0010114
:10088000533F44EF04F0542BB2C1B6F1B3C1B7F1FA
:10089000B4C1B8F1B5C1B9F1AEC1B2F1AFC1B3F1F4
:1008A000B0C1B4F1B1C1B5F1AAC1AEF1ABC1AFF104
:1008B000ACC1B0F1ADC1B1F1A6C1AAF1A7C1ABF114
:1008C000A8C1ACF1A9C1ADF1A2C1A6F1A3C1A7F124
:1008D000A4C1A8F1A5C1A9F19EC1A2F19FC1A3F134
:1008E000A0C1A4F1A1C1A5F19AC19EF19BC19FF144
:1008F0009CC1A0F19DC1A1F1CECF9AF1CFCF9BF1C8
:1009000053C19CF154C19DF1CF6ACE6A0101536B72
:10091000546B9E90CD800FBC0F8E0FBA93EF04F0F6
:100920000F8A34EF09F013880F8C0FBED0EF04F05C
:100930009AC19EF19BC19FF19CC1A0F19DC1A1F103
:100940009EC1A2F19FC1A3F1A0C1A4F1A1C1A5F1D3
:10095000A2C1A6F1A3C1A7F1A4C1A8F1A5C1A9F1A3
:10096000A6C1AAF1A7C1ABF1A8C1ACF1A9C1ADF173
:10097000AAC1AEF1ABC1AFF1ACC1B0F1ADC1B1F143
:10098000AEC1B2F1AFC1B3F1B0C1B4F1B1C1B5F113
:10099000B2C1B6F1B3C1B7F1B4C1B8F1B5C1B9F1E3
:1009A00001015E6B5F6B606B616B9A515E279B51BF
:1009B0005F239C5160239D5161239E515E279F516F
:1009C0005F23A0516023A1516123A2515E27A3514F
:1009D0005F23A4516023A5516123A6515E27A7512F
:1009E0005F23A8516023A9516123AA515E27AB510F
:1009F0005F23AC516023AD516123AE515E27AF51EF
:100A00005F23B0516023B1516123B2515E27B351CE
:100A10005F23B4516023B5516123B6515E27B751AE
:100A20005F23B8516023B9516123D890010161332C
:100A300060335F335E33D8900101613360335F33DD
:100A40005E33D8900101613360335F335E3300C1A0
:100A50000CF101C10DF102C10EF103C10FF104C18E
:100A600010F105C111F106C112F107C113F108C15E
:100A700014F109C115F10AC116F10BC117F134C106
:100A800035F111B84FEF05F00101620E046F010E50
:100A9000056F000E066F000E076F58EF05F001019D
:100AA000A70E046F020E056F000E066F000E076F93
:100AB0005EC100F15FC101F160C102F161C103F1EA
:100AC00041EC22F003BF04D01CBE02D01CA0108C4D
:100AD00011A070EF05F010BA70EF05F00F80108ACA
:100AE0000CC100F10DC101F10EC102F10FC103F102
:100AF00010C104F111C105F112C106F113C107F1D2
:100B000014C108F115C109F116C10AF117C10BF1A1
:100B100035C134F134EF09F00392ABB2AB98AB8836
:100B2000030103EE00F080517F0BE92604C0EFFFC4
:100B3000802B8151805D700BD8A48B820000805186
:100B4000815D700BD8A48B9281518019D8B4079025
:100B500034EF09F0F2940101453F34EF09F0462BE0
:100B600034EF09F09E900101533F34EF09F0542B0C
:100B700034EF09F09E9211B830EF07F08BB4C8EF54
:100B800005F010ACC8EF05F08B84109CC9EF05F0A0
:100B90008B94C3CF55F1C4CF56F1C28207B438EF5E
:100BA00006F047C14BF148C14CF149C14DF14AC172
:100BB0004EF15EC162F15FC163F160C164F161C178
:100BC00065F113A8E6EF05F0138C13989AC1BAF1FA
:100BD0009BC1BBF19CC1BCF19DC1BDF19EC1BEF1E9
:100BE0009FC1BFF1A0C1C0F1A1C1C1F1A2C1C2F1B9
:100BF000A3C1C3F1A4C1C4F1A5C1C5F1A6C1C6F189
:100C0000A7C1C7F1A8C1C8F1A9C1C9F1AAC1CAF158
:100C1000ABC1CBF1ACC1CCF1ADC1CDF1AEC1CEF128
:100C2000AFC1CFF1B0C1D0F1B1C1D1F1B2C1D2F1F8
:100C3000B3C1D3F1B4C1D4F1B5C1D5F1B6C1D6F1C8
:100C4000B7C1D7F1B8C1D8F1B9C1D9F10101555136
:100C50005B2756515C23E86A5D230E2E38EF06F0C1
:100C60005CC157F15DC158F15B6B5C6B5D6B078ECE
:100C70000201002F34EF09F03C0E006F1D50E00B15
:100C8000E00AE86612881BBE02D01BB4108E00C1B9
:100C90000CF101C10DF102C10EF103C10FF104C14C
:100CA00010F105C111F106C112F107C113F108C11C
:100CB00014F109C115F10AC116F10BC117F134C1C4
:100CC00035F101018E676CEF06F08F676CEF06F06F
:100CD00090676CEF06F0916770EF06F0A1EF06F0F9
:100CE00092C100F193C101F194C102F195C103F1E8
:100CF0000101010E046F000E056F000E066F000E5D
:100D0000076F41EC22F000C192F101C193F102C1E1
:100D100094F103C195F10101006796EF06F00167B8
:100D200096EF06F0026796EF06F00367A1EF06F074
:100D30008EC192F18FC193F190C194F191C195F15F
:100D40000F80D57ED5BE6ED0D6CF47F1D7CF48F134
:100D500045C149F1E86AE8CF4AF1138A1CBE02D0C6
:100D60001CA0108C109047C100F148C101F149C18D
:100D700002F14AC103F101010A0E046F000E056F72
:100D8000000E066F000E076F41EC22F003AF1080DB
:100D9000010154A7D8EF06F00F9A0F9C0F9E010196
:100DA000000E5E6F600E5F6F3D0E606F080E616F2C
:100DB000010147BFE8EF06F04867E8EF06F0496732
:100DC000E8EF06F04A67E8EF06F0F2880DEF07F06B
:100DD000F2985E6B5F6B606B616B9A6B9B6B9C6B4D
:100DE0009D6B9E6B9F6BA06BA16BA26BA36BA46BA7
:100DF000A56BA66BA76BA86BA96BAA6BAB6BAC6B57
:100E0000AD6BAE6BAF6BB06BB16BB26BB36BB46B06
:100E1000B56BB66BB76BB86BB96BD76AD66A0101A5
:100E2000456B466B0CC100F10DC101F10EC102F121
:100E30000FC103F110C104F111C105F112C106F196
:100E400013C107F114C108F115C109F116C10AF166
:100E500017C10BF135C134F134EF09F034EF09F06B
:100E60000201002F8BEF08F0D59ED6CF47F1D7CFE8
:100E700048F145C149F1E86AE8CF4AF1138AD76AD7
:100E8000D66A0101456B466BD58E1D50E00BE00A1A
:100E9000E86612881BBE02D01BB4108E1AAE1F8CDF
:100EA00000C10CF101C10DF102C10EF103C10FF13E
:100EB00004C110F105C111F106C112F107C113F10E
:100EC00008C114F109C115F10AC116F10BC117F1DE
:100ED00034C135F10FA0109A11B87AEF07F0010173
:100EE000620E046F010E056F000E066F000E076F95
:100EF00083EF07F00101A70E046F020E056F000ECD
:100F0000066F000E076F47C100F148C101F149C1EA
:100F100002F14AC103F141EC22F003BF96EF07F062
:100F20001CBE02D01CA0108C11B00F800CC100F1AF
:100F30000DC101F10EC102F10FC103F110C104F1A5
:100F400011C105F112C106F113C107F114C108F175
:100F500015C109F116C10AF117C10BF135C134F100
:100F600002013C0E006F00C10CF101C10DF102C184
:100F70000EF103C10FF104C110F105C111F106C159
:100F800012F107C113F108C114F109C115F10AC129
:100F900016F10BC117F134C135F101018E67D8EF9D
:100FA00007F08F67D8EF07F09067D8EF07F09167E9
:100FB000DCEF07F00DEF08F092C100F193C101F1F1
:100FC00094C102F195C103F10101010E046F000EFD
:100FD000056F000E066F000E076F41EC22F000C196
:100FE00092F101C193F102C194F103C195F10101A4
:100FF000006702EF08F0016702EF08F0026702EFF6
:1010000008F003670DEF08F08EC192F18FC193F1E4
:1010100090C194F191C195F10F80109047C100F1FA
:1010200048C101F149C102F14AC103F101010A0EAF
:10103000046F000E056F000E066F000E076F41EC87
:1010400022F003AF1080010154A733EF08F00F9A8C
:101050000F9C0F9E0101000E5E6F600E5F6F3D0ED4
:10106000606F080E616F47C100F148C101F149C1CD
:1010700002F14AC103F10101140E046F050E056F60
:10108000000E066F000E076F41EC22F003AF4CEF2D
:1010900008F0F28871EF08F0F2985E6B5F6B606B9E
:1010A000616B9A6B9B6B9C6B9D6B9E6B9F6BA06B3C
:1010B000A16BA26BA36BA46BA56BA66BA76BA86BB4
:1010C000A96BAA6BAB6BAC6BAD6BAE6BAF6BB06B64
:1010D000B16BB26BB36BB46BB56BB66BB76BB86B14
:1010E000B96B0CC100F10DC101F10EC102F10FC1CC
:1010F00003F110C104F111C105F112C106F113C1D0
:1011000007F114C108F115C109F116C10AF117C19F
:101110000BF135C134F194EC26F0206629D01FAED6
:1011200011D01F9E208E1BAE07D0176A040E186EBA
:10113000196ADDEC23F01CD0176A186A196ADDEC15
:1011400023F016D01FAC09D01F9C208C010E176E07
:10115000186A196AD5EC25F00BD01FAA09D01F9A7E
:10116000208A020E176E186A196AB7EC26F000D0B2
:101170008BB4C2EF08F010ACC2EF08F08B84109C67
:10118000C3EF08F08B94C3CF55F1C4CF56F1C282A0
:1011900007B432EF09F047C14BF148C14CF149C1E6
:1011A0004DF14AC14EF15EC162F15FC163F160C1B0
:1011B00064F161C165F113A8E0EF08F0138C139896
:1011C0009AC1BAF19BC1BBF19CC1BCF19DC1BDF1FB
:1011D0009EC1BEF19FC1BFF1A0C1C0F1A1C1C1F1CB
:1011E000A2C1C2F1A3C1C3F1A4C1C4F1A5C1C5F19B
:1011F000A6C1C6F1A7C1C7F1A8C1C8F1A9C1C9F16B
:10120000AAC1CAF1ABC1CBF1ACC1CCF1ADC1CDF13A
:10121000AEC1CEF1AFC1CFF1B0C1D0F1B1C1D1F10A
:10122000B2C1D2F1B3C1D3F1B4C1D4F1B5C1D5F1DA
:10123000B6C1D6F1B7C1D7F1B8C1D8F1B9C1D9F1AA
:10124000010155515B2756515C23E86A5D230E2E40
:1012500032EF09F05CC157F15DC158F15B6B5C6B1B
:101260005D6B078E34EF09F002C0E0FF005001C053
:10127000D8FF1000A6B23AEF09F00CC0A9FF0BC0CE
:10128000A8FFA69EA69CA684F29E550EA76EAA0E47
:10129000A76EA682F28EA694A6B24CEF09F00C2A95
:1012A0001200A96EA69EA69CA680A8500C2A120029
:1012B00004012C0E826F6EEC0BF056EC23F00C50F8
:1012C00051EC09F0E8CF00F10C5051EC09F0E8CFF7
:1012D00001F101AF71EF09F00101FF0E026FFF0E86
:1012E000036FDFEC22F029677DEF09F00401200E87
:1012F000826F6EEC0BF082EF09F004012D0E826F0D
:101300006EEC0BF0E9EC20F0120015941596076ACC
:101310000F6A106A116A126A136A166A0F010E0EBA
:10132000C16E860EC06E030EC26E0F01896A110E69
:10133000926E080E8A6EF10E936E8B6A980E946E02
:10134000F18EFC0E51EC09F0E8CF0BF00BA01180F0
:101350000BA211820BA411840BA81188C90E51ECA9
:1013600009F0E8CF1AF0CA0E51EC09F0E8CF1BF0F3
:10137000CB0E51EC09F0E8CF1CF0CC0E51EC09F08B
:10138000E8CF1DF0FB0E51EC09F0E8CF37F0CE0EA0
:1013900051EC09F0E8CF14F0CD0E51EC09F0E8CF94
:1013A00036F01F6A206A0E6A01015B6B5C6B5D6B35
:1013B000576B586BF29A0101476B486B496B4A6B4C
:1013C0004B6B4C6B4D6B4E6B4F6B506B516B526B51
:1013D000456B466BD76AD66A0F01280ED56EF28A26
:1013E0009D90B00ECD6E01015E6B5F6B606B616BAB
:1013F000626B636B646B656B666B676B686B696B69
:10140000536B546BCF6ACE6A0F9A0F9C0F9E9D80D0
:10141000760ECA6E9D8202013C0E006FCC6A160EDB
:1014200051EC09F0E8CF00F1170E51EC09F0E8CFCC
:1014300001F1180E51EC09F0E8CF02F1190E51EC50
:1014400009F0E8CF03F1010103AF41EF0AF056ECD8
:1014500023F0160E0C6E00C10BF03AEC09F0170EDB
:101460000C6E01C10BF03AEC09F0180E0C6E02C1C3
:101470000BF03AEC09F0190E0C6E03C10BF03AECCC
:1014800009F000C18EF101C18FF102C190F103C1D9
:1014900091F100C192F101C193F102C194F103C134
:1014A00095F11A0E51EC09F0E8CF00F11B0E51EC4A
:1014B00009F0E8CF01F11C0E51EC09F0E8CF02F180
:1014C0001D0E51EC09F0E8CF03F1010103AF97EFD6
:1014D0000AF056EC23F01A0E0C6E00C10BF03AEC39
:1014E00009F01B0E0C6E01C10BF03AEC09F01C0E5A
:1014F0000C6E02C10BF03AEC09F01D0E0C6E03C12C
:101500000BF03AEC09F01A0E51EC09F0E8CF00F1BB
:101510001B0E51EC09F0E8CF01F11C0E51EC09F063
:10152000E8CF02F11D0E51EC09F0E8CF03F100C144
:1015300096F101C197F102C198F103C199F1240E0E
:10154000AC6E900EAB6E240EAC6E080EB86E000E34
:10155000B06E1F0EAF6E0401806B816B0F01900E99
:10156000AB6E0F019D8A0301806B816BC26B8B9206
:10157000176A186A196A9D8607900001F28EF28C2C
:1015800007B092EF1FF00FB03AEF18F010BE3AEF2D
:1015900018F012B83AEF18F00301805181197F0B4F
:1015A000D8B492EF1FF013EE00F081517F0BE126CB
:1015B000812BE7CFE8FFE00BD8B492EF1FF023EECA
:1015C00082F0C2513F0BD926E7CFDFFFC22BDF509D
:1015D000780AD8A492EF1FF0078092C100F193C15E
:1015E00001F194C102F195C103F10101040E046FF0
:1015F000000E056F000E066F000E076F41EC22F023
:1016000000AF0CEF0BF00101030E926F000E936F11
:10161000000E946F000E956F03018251720AD8B4C8
:10162000BBEF17F08251520AD8B4BBEF17F08251CA
:10163000750AD8B4BBEF17F08251680AD8B482EFAC
:101640000BF08251630AD8B44CEF1CF08251690A46
:10165000D8B471EF13F082517A0AD8B484EF14F041
:101660008251490AD8B410EF13F08251500AD8B40D
:101670001AEF12F08251700AD8B462EF12F0825160
:10168000540AD8B492EF12F08251740AD8B4DDEF44
:1016900012F08251410AD8B4FDEF0CF082514B0A8E
:1016A000D8B4FAEF0BF082516D0AD8B46DEF11F097
:1016B00082514D0AD8B486EF11F08251730AD8B422
:1016C000EBEF16F08251530AD8B450EF17F0825165
:1016D000590AD8B4BEEF10F083EF1CF0040114EEE9
:1016E00000F080517F0BE12682C4E7FF802B1200BF
:1016F00004010D0E826F6EEC0BF00A0E826F6EEC21
:101700000BF012000401680E826F6EEC0BF0040106
:101710002C0E826F6EEC0BF056EC23F032C000F111
:1017200033C001F10101DFEC22F02EC182F404018B
:10173000300E82276EEC0BF02FC182F40401300EC4
:1017400082276EEC0BF030C182F40401300E822748
:101750006EEC0BF031C182F40401300E82276EEC86
:101760000BF032C182F40401300E82276EEC0BF0D4
:1017700033C182F40401300E82276EEC0BF00401B9
:101780002C0E826F6EEC0BF056EC23F034C000F19F
:1017900035C001F1DFEC22F02EC182F40401300EDD
:1017A00082276EEC0BF02FC182F40401300E8227E9
:1017B0006EEC0BF030C182F40401300E82276EEC27
:1017C0000BF031C182F40401300E82276EEC0BF075
:1017D00032C182F40401300E82276EEC0BF033C16B
:1017E00082F40401300E82276EEC0BF0B7EC26F089
:1017F00081EF1CF004014B0E826F6EEC0BF00401C4
:101800002C0E826F6EEC0BF081B802D036B630D061
:1018100003018351430AD8B43FEF0CF00301835115
:10182000630AD8B441EF0CF003018351520AD8B4D3
:1018300043EF0CF003018351720AD8B445EF0CF06A
:1018400003018351470AD8B447EF0CF003018351D9
:10185000670AD8B449EF0CF003018351540AD8B495
:101860004BEF0CF003018351740AD8B4BBEF0CF0BA
:1018700003018351550AD8B44DEF0CF083D0368064
:101880007BD0369079D0368277D0369275D0368438
:1018900073D0369471D036866FD084C330F185C34F
:1018A00031F186C332F187C333F10101296BA4EC16
:1018B00023F01BEC23F000C104F101C105F102C1CA
:1018C00006F103C107F197EC23F0200EF86EF76ADA
:1018D000F66A0900F5CF2CF10900F5CF2DF10900CA
:1018E000F5CF2EF10900F5CF2FF10900F5CF30F13A
:1018F0000900F5CF31F10900F5CF32F10900F5CF3C
:1019000033F10101296BA4EC23F01BEC23F041EC33
:1019100022F00101006794EF0CF0016794EF0CF0E6
:10192000026794EF0CF0036701D025D004014E0E3E
:10193000826F6EEC0BF004016F0E826F6EEC0BF099
:1019400004014D0E826F6EEC0BF00401610E826F8C
:101950006EEC0BF00401740E826F6EEC0BF0040160
:10196000630E826F6EEC0BF00401680E826F6EECFA
:101970000BF081EF1CF03696CD0E0C6E36C00BF0DE
:101980003AEC09F0CD0E51EC09F0E8CF36F036B064
:1019900006D00401630E826F6EEC0BF005D00401DB
:1019A000430E826F6EEC0BF036B206D00401720E5D
:1019B000826F6EEC0BF005D00401520E826F6EEC5C
:1019C0000BF036B406D00401670E826F6EEC0BF09C
:1019D00005D00401470E826F6EEC0BF036B606D0D0
:1019E0000401740E826F6EEC0BF005D00401540EEE
:1019F000826F6EEC0BF081EF1CF00401410E826FE0
:101A00006EEC0BF003018351310AD8B4DEEF0FF016
:101A100003018351320AD8B40EEF0FF00301835152
:101A2000330AD8B497EF0EF003018351340AD8B4C7
:101A300087EF0DF003018351350AD8B427EF0DF07D
:101A400004013F0E826F6EEC0BF081EF1CF003017E
:101A50008451300AD8B44DEF0DF003018451310A9E
:101A6000D8B450EF0DF003018451650AD8B441EFAA
:101A70000DF003018451640AD8B444EF0DF051EF26
:101A80000DF0379045EF0DF03780FB0E0C6E37C030
:101A90000BF03AEC09F051EF0DF08B9051EF0DF097
:101AA0008B800401350E826F6EEC0BF004012C0E5E
:101AB000826F6EEC0BF08BB065EF0DF00401300E11
:101AC000826F6EEC0BF06AEF0DF00401310E826F45
:101AD0006EEC0BF004012C0E826F6EEC0BF0FB0E23
:101AE00051EC09F0E8CF37F037A07EEF0DF004019C
:101AF000640E826F6EEC0BF083EF0DF00401650E47
:101B0000826F6EEC0BF085EF0DF081EF1CF0CC0EC8
:101B100051EC09F0E8CF0BF004012C0E826F6EEC53
:101B20000BF003018451310AD8B4ABEF0DF003017F
:101B30008451300AD8B4ADEF0DF0030184514D0A41
:101B4000D8B4B7EF0DF003018451540AD8B4BEEFF6
:101B50000DF0D5EF0DF08A8401D08A940BAE04D03D
:101B60000BAC02D00BBA21D0E00E0B1218D01F0E16
:101B70000B168539E844E00B0B1211D0E00E0B1662
:101B800097EC23F085C332F186C333F10101296B51
:101B9000A4EC23F01BEC23F000511F0B0B12CC0E16
:101BA0000C6E0BC00BF03AEC09F00401340E826F9E
:101BB0006EEC0BF004012C0E826F6EEC0BF0CC0E71
:101BC00051EC09F0E8CF1DF08AB406D00401300EC4
:101BD000826F6EEC0BF005D00401310E826F6EEC5B
:101BE0000BF004012C0E826F6EEC0BF01D38E840F8
:101BF000070BE8CF82F40401300E82276EEC0BF065
:101C000004012C0E826F6EEC0BF056EC23F01D508D
:101C10001F0BE8CF00F1DFEC22F032C182F40401A7
:101C2000300E82276EEC0BF033C182F40401300ECB
:101C300082276EEC0BF004012C0E826F6EEC0BF021
:101C400056EC23F030C000F100AF0BD0FF0E016F57
:101C5000FF0E026FFF0E036F04012D0E826F6EECFC
:101C60000BF0DFEC22F031C182F40401300E822748
:101C70006EEC0BF032C182F40401300E82276EEC60
:101C80000BF033C182F40401300E82276EEC0BF0AE
:101C900004012C0E826F6EEC0BF056EC23F02FC07B
:101CA00000F1DFEC22F031C182F40401300E822712
:101CB0006EEC0BF032C182F40401300E82276EEC20
:101CC0000BF033C182F40401300E82276EEC0BF06E
:101CD00004012C0E826F6EEC0BF056EC23F031C039
:101CE00000F100AF0BD0FF0E016FFF0E026FFF0E71
:101CF000036F04012D0E826F6EEC0BF0DFEC22F00F
:101D000031C182F40401300E82276EEC0BF032C137
:101D100082F40401300E82276EEC0BF033C182F4A2
:101D20000401300E82276EEC0BF081EF1CF0CB0E1D
:101D300051EC09F0E8CF0BF004012C0E826F6EEC31
:101D40000BF003018451450AD8B4BBEF0EF0030138
:101D50008451440AD8B4BEEF0EF003018451300A16
:101D6000D8B4C1EF0EF003018451310AD8B4C5EFE5
:101D70000EF0D0EF0EF00B9ECAEF0EF00B8ECAEFF6
:101D80000EF0FC0E0B16CAEF0EF0FC0E0B160B80BD
:101D9000CAEF0EF0CB0E0C6E0BC00BF03AEC09F054
:101DA0000401330E826F6EEC0BF004012C0E826F77
:101DB0006EEC0BF0CB0E51EC09F0E8CF1CF01CBE22
:101DC000E9EF0EF00401450E826F6EEC0BF0EEEFC2
:101DD0000EF00401440E826F6EEC0BF004012C0E29
:101DE000826F6EEC0BF00401300E826F6EEC0BF024
:101DF00004012C0E826F6EEC0BF01CB007EF0FF09D
:101E00000401300E826F6EEC0BF00CEF0FF004014A
:101E1000310E826F6EEC0BF081EF1CF0CA0E51ECAC
:101E200009F0E8CF0BF004012C0E826F6EEC0BF082
:101E300003018451450AD8B44AEF0FF003018451DD
:101E4000440AD8B44DEF0FF0030184514D0AD8B4C1
:101E500056EF0FF003018451410AD8B450EF0FF050
:101E600003018451460AD8B453EF0FF003018451A3
:101E7000560AD8B45EEF0FF003018451500AD8B46B
:101E800069EF0FF003018451520AD8B46CEF0FF0E0
:101E900075EF0FF00B9E6FEF0FF00B8E6FEF0FF0E3
:101EA0000B9C6FEF0FF00B8C6FEF0FF0FC0E0B160F
:101EB00085C3E8FF030B0B126FEF0FF0C70E0B1675
:101EC00085C3E8FF070BE846E846E8460B126FEFCC
:101ED0000FF00B846FEF0FF00B946FEF0FF0CA0E43
:101EE0000C6E0BC00BF03AEC09F0CA0E51EC09F085
:101EF000E8CF1BF00401320E826F6EEC0BF0040190
:101F00002C0E826F6EEC0BF01BBE8EEF0FF00401F7
:101F1000450E826F6EEC0BF093EF0FF00401440E50
:101F2000826F6EEC0BF004012C0E826F6EEC0BF0E6
:101F30001BC0E8FF030BE8CF82F40401300E8227B8
:101F40006EEC0BF004012C0E826F6EEC0BF01BBCE0
:101F5000B1EF0FF00401410E826F6EEC0BF0B6EFA3
:101F60000FF00401460E826F6EEC0BF004012C0E94
:101F7000826F6EEC0BF01BC0E8FF380BE842E842C2
:101F8000E842E8CF82F40401300E82276EEC0BF0B9
:101F900004012C0E826F6EEC0BF01BB4D7EF0FF028
:101FA0000401520E826F6EEC0BF0DCEF0FF00401B7
:101FB000500E826F6EEC0BF081EF1CF0C90E51ECED
:101FC00009F0E8CF0BF004012C0E826F6EEC0BF0E1
:101FD00003018451450AD8B4FCEF0FF0030184518A
:101FE000440AD8B4FFEF0FF0030184514D0AD8B46E
:101FF00002EF10F010EF10F00B9E0AEF10F00B8EB6
:102000000AEF10F0F80E0B1685C3E8FF070B0B1252
:102010000AEF10F0C90E0C6E0BC00BF03AEC09F091
:102020000401310E826F6EEC0BF004012C0E826FF6
:102030006EEC0BF0C90E51EC09F0E8CF1AF01ABEA5
:1020400006D00401450E826F6EEC0BF005D0040142
:10205000440E826F6EEC0BF004012C0E826F6EEC5E
:102060000BF01AC0E8FF070BE8CF82F40401300E32
:1020700082276EEC0BF004012C0E826F6EEC0BF0DD
:10208000078056EC23F02BC0E8FF003B00430043E1
:10209000030BDFEC22F033C182F40401300E8227FF
:1020A0006EEC0BF004012C0E826F6EEC0BF056EC14
:1020B00023F02BC001F1019F019D2CC000F1010113
:1020C000DFEC22F02FC182F40401300E82276EEC87
:1020D0000BF030C182F40401300E82276EEC0BF05D
:1020E00031C182F40401300E82276EEC0BF032C154
:1020F00082F40401300E82276EEC0BF033C182F4BF
:102100000401300E82276EEC0BF004012C0E826F5E
:102110006EEC0BF056EC23F02DC001F12EC000F157
:10212000D89001330033D890013300330101DFEC44
:1021300022F02FC182F40401300E82276EEC0BF0E6
:1021400030C182F40401300E82276EEC0BF031C1F5
:1021500082F40401300E82276EEC0BF032C182F45F
:102160000401300E82276EEC0BF033C182F40401BF
:10217000300E82276EEC0BF081EF1CF0FC0E51EC60
:1021800009F0E8CF0BF003018351520AD8B4F5EF00
:1021900010F003018351720AD8B4F8EF10F0030174
:1021A0008351500AD8B4FBEF10F003018351700A39
:1021B000D8B4FEEF10F003018351550AD8B401EFF3
:1021C00011F003018351750AD8B404EF11F0030133
:1021D0008351430AD8B40DEF11F003018351630A10
:1021E000D8B410EF11F019EF11F00B9013EF11F0BC
:1021F0000B8013EF11F00B9213EF11F00B8213EF22
:1022000011F00B9413EF11F00B8413EF11F00B96F8
:1022100013EF11F00B8613EF11F00B9813EF11F081
:102220000B8813EF11F0FC0E0C6E0BC00BF03AECA8
:1022300009F00401590E826F6EEC0BF011901192AF
:1022400011941198FC0E51EC09F0E8CF0BF00BA0A3
:1022500011800BA211820BA411840BA8118811A06C
:1022600039EF11F00401520E826F6EEC0BF03EEF6D
:1022700011F00401720E826F6EEC0BF011A848EFA2
:1022800011F00401430E826F6EEC0BF04DEF11F074
:102290000401630E826F6EEC0BF011A257EF11F088
:1022A0000401500E826F6EEC0BF05CEF11F0040134
:1022B000700E826F6EEC0BF011A466EF11F004014A
:1022C000550E826F6EEC0BF06BEF11F00401750E82
:1022D000826F6EEC0BF081EF1CF004016D0E826FCB
:1022E0006EEC0BF003018351300AD8B4CAEF11F041
:1022F00003018351310AD8B4DDEF11F0030183519A
:10230000320AD8B4F0EF11F083EF1CF081B803D09B
:1023100036B481EF1CF004014D0E826F6EEC0BF0B1
:1023200097EC23F084C331F185C332F186C333F1D6
:102330000101296BA4EC23F01BEC23F00301835172
:10234000300AD8B4B2EF11F003018351310AD8B486
:10235000BAEF11F003018351320AD8B4C2EF11F081
:1023600083EF1CF0FD0E0C6E00C10BF03AEC09F08F
:10237000CAEF11F0FE0E0C6E00C10BF03AEC09F042
:10238000DDEF11F0FF0E0C6E00C10BF03AEC09F01E
:10239000F0EF11F00401300E826F6EEC0BF00401CF
:1023A0002C0E826F6EEC0BF056EC23F0FD0E51EC10
:1023B00009F0E8CF00F101EF12F00401310E826F55
:1023C0006EEC0BF004012C0E826F6EEC0BF056ECF1
:1023D00023F0FE0E51EC09F0E8CF00F101EF12F00E
:1023E0000401320E826F6EEC0BF056EC23F0040108
:1023F0002C0E826F6EEC0BF0FF0E51EC09F0E8CF63
:1024000000F1DFEC22F031C182F40401300E8227AA
:102410006EEC0BF032C182F40401300E82276EECB8
:102420000BF033C182F40401300E82276EEC0BF006
:1024300081EF1CF081B803D036B210EF13F083C3E4
:102440002AF184C32BF185C32CF186C32DF187C3F8
:102450002EF188C32FF189C330F18AC331F18BC3C8
:1024600032F18CC333F10101A4EC23F01BEC23F017
:10247000160E0C6E00C10BF03AEC09F0170E0C6E44
:1024800001C10BF03AEC09F0180E0C6E02C10BF012
:102490003AEC09F0190E0C6E03C10BF03AEC09F09E
:1024A00000C18EF101C18FF102C190F103C191F120
:1024B00000C192F101C193F102C194F103C195F100
:1024C00010EF13F081B803D036B210EF13F083C3CE
:1024D0002AF184C32BF185C32CF186C32DF187C368
:1024E0002EF188C32FF189C330F18AC331F18BC338
:1024F00032F18CC333F10101A4EC23F01BEC23F087
:1025000000C18EF101C18FF102C190F103C191F1BF
:1025100000C192F101C193F102C194F103C195F19F
:1025200010EF13F081B803D036B210EF13F083C36D
:102530002AF184C32BF185C32CF186C32DF187C307
:102540002EF188C32FF189C330F18AC331F18CC3D6
:1025500032F18DC333F10101A4EC23F01BEC23F025
:102560000101000E046F000E056F010E066F000ED4
:10257000076F52EC22F01A0E0C6E00C10BF03AEC11
:1025800009F01B0E0C6E01C10BF03AEC09F01C0EA9
:102590000C6E02C10BF03AEC09F01D0E0C6E03C17B
:1025A0000BF03AEC09F000C196F101C197F102C1BC
:1025B00098F103C199F110EF13F081B803D036B24E
:1025C00010EF13F083C32AF184C32BF185C32CF1E0
:1025D00086C32DF187C32EF188C32FF189C330F153
:1025E0008AC331F18CC332F18DC333F10101A4EC04
:1025F00023F01BEC23F00101000E046F000E056FA9
:10260000010E066F000E076F52EC22F000C196F12A
:1026100001C197F102C198F103C199F110EF13F0D4
:10262000160E51EC09F0E8CF00F1170E51EC09F04D
:10263000E8CF01F1180E51EC09F0E8CF02F1190EC4
:1026400051EC09F0E8CF03F1DFEC22F0A2EC20F02E
:102650000401730E826F6EEC0BF004012C0E826F7E
:102660006EEC0BF08EC100F18FC101F190C102F14F
:1026700091C103F1DFEC22F0A2EC20F00401730E13
:10268000826F6EEC0BF004012C0E826F6EEC0BF07F
:102690001A0E51EC09F0E8CF00F11B0E51EC09F0D5
:1026A000E8CF01F11C0E51EC09F0E8CF02F11D0E4C
:1026B00051EC09F0E8CF03F19EEC1CF004012C0E64
:1026C000826F6EEC0BF096C100F197C101F198C1D9
:1026D00002F199C103F19EEC1CF078EC0BF083EF52
:1026E0001CF00401690E826F6EEC0BF004012C0EDD
:1026F000826F6EEC0BF00101040E006F000E016F93
:10270000000E026F000E036FDFEC22F02CC182F48A
:102710000401300E82276EEC0BF02DC182F404010F
:10272000300E82276EEC0BF02EC182F40401300EC5
:1027300082276EEC0BF02FC182F40401300E822749
:102740006EEC0BF030C182F40401300E82276EEC87
:102750000BF031C182F40401300E82276EEC0BF0D5
:1027600032C182F40401300E82276EEC0BF033C1CB
:1027700082F40401300E82276EEC0BF004012C0E63
:10278000826F6EEC0BF00101030E006F000E016F03
:10279000000E026F000E036FDFEC22F02CC182F4FA
:1027A0000401300E82276EEC0BF02DC182F404017F
:1027B000300E82276EEC0BF02EC182F40401300E35
:1027C00082276EEC0BF02FC182F40401300E8227B9
:1027D0006EEC0BF030C182F40401300E82276EECF7
:1027E0000BF031C182F40401300E82276EEC0BF045
:1027F00032C182F40401300E82276EEC0BF033C13B
:1028000082F40401300E82276EEC0BF004012C0ED2
:10281000826F6EEC0BF001014B0E006F000E016F2A
:10282000000E026F000E036FDFEC22F02CC182F469
:102830000401300E82276EEC0BF02DC182F40401EE
:10284000300E82276EEC0BF02EC182F40401300EA4
:1028500082276EEC0BF02FC182F40401300E822728
:102860006EEC0BF030C182F40401300E82276EEC66
:102870000BF031C182F40401300E82276EEC0BF0B4
:1028800032C182F40401300E82276EEC0BF033C1AA
:1028900082F40401300E82276EEC0BF004012C0E42
:1028A000826F6EEC0BF0200EF86EF76AF66A040188
:1028B0000900F5CF82F46EEC0BF00900F5CF82F43D
:1028C0006EEC0BF00900F5CF82F46EEC0BF0090012
:1028D000F5CF82F46EEC0BF00900F5CF82F46EECCC
:1028E0000BF00900F5CF82F46EEC0BF00900F5CF88
:1028F00082F46EEC0BF00900F5CF82F46EEC0BF075
:1029000078EC0BF083EF1CF081B803D036B0D4EF35
:1029100014F08351630AD8A481EF1CF08451610A3A
:10292000D8A481EF1CF085516C0AD8A481EF1CF06B
:102930008651410A42E08651440A1BE08651420A10
:10294000D8B4F0EF14F08651350AD8B40DEF1EF06C
:102950008651360AD8B462EF1EF08651370AD8B4D1
:10296000CBEF1EF08651380AD8B429EF1FF081EF63
:102970001CF00798079A04017A0E826F6EEC0BF038
:102980000401780E826F6EEC0BF00401640E826F0E
:102990006EEC0BF081A8D4EF14F00401550E826F99
:1029A0006EEC0BF0D9EF14F004014C0E826F6EEC5C
:1029B0000BF078EC0BF083EF1CF00788079A04010A
:1029C0007A0E826F6EEC0BF00401410E826F6EEC9A
:1029D0000BF00401610E826F6EEC0BF0CAEF14F085
:1029E0000798078A04017A0E826F6EEC0BF00401DF
:1029F000420E826F6EEC0BF00401610E826F6EEC82
:102A00000BF0CAEF14F0010166670EEF15F067676F
:102A10000EEF15F068670EEF15F0696716D001012B
:102A20004F671AEF15F050671AEF15F051671AEF5C
:102A300015F052670AD00101000E006F000E016F01
:102A4000000E026F000E036F120011B80AD00101D0
:102A5000620E046F010E056F000E066F000E076F09
:102A600009D00101A70E046F020E056F000E066F5C
:102A7000000E076F66C100F167C101F168C102F184
:102A800069C103F141EC22F003BFB7EF15F0119AD1
:102A9000119C0101000E046FA80E056F550E066F04
:102AA000020E076F66C100F167C101F168C102F152
:102AB00069C103F166C18AF167C18BF168C18CF10C
:102AC00069C18DF141EC22F003BF0BD00101000E72
:102AD0008A6FA80E8B6F550E8C6F020E8D6F118A48
:102AE000119C0E0E51EC09F0E8CF18F10F0E51ECCD
:102AF00009F0E8CF19F1100E51EC09F0E8CF1AF106
:102B0000110E51EC09F0E8CF1BF18AEC21F08AC1DB
:102B100004F18BC105F18CC106F18DC107F141ECC7
:102B200022F007824EEC21F08AEC21F007924EEC65
:102B300021F08AC100F18BC101F18CC102F18DC17C
:102B400003F107924EEC21F0CC0E046FE00E056FFE
:102B5000870E066F050E076F41EC22F000C118F1D9
:102B600001C119F102C11AF103C11BF140D013AA2E
:102B7000BCEF15F0138E139A119C119A0101800E6F
:102B8000006F1A0E016F060E026F000E036F4FC129
:102B900004F150C105F151C106F152C107F141ECF8
:102BA00022F003AF05D056EC23F0118C119A1200DD
:102BB0000E0E51EC09F0E8CF18F10F0E51EC09F0B0
:102BC000E8CF19F1100E51EC09F0E8CF1AF1110E0F
:102BD00051EC09F0E8CF1BF14FC100F150C101F1F8
:102BE00051C102F152C103F107824EEC21F018C12C
:102BF00000F119C101F11AC102F11BC103F1120068
:102C00000784BAC166F1BBC167F1BCC168F1BDC13F
:102C100069F14BC14FF14CC150F14DC151F14EC161
:102C200052F157C159F158C15AF107940101666731
:102C300021EF16F0676721EF16F0686721EF16F0B5
:102C4000696716D001014F672DEF16F050672DEF21
:102C500016F051672DEF16F052670AD00101000EF1
:102C6000006F000E016F000E026F000E036F120066
:102C700011B80AD00101620E046F010E056F000E3B
:102C8000066F000E076F09D00101A70E046F020E38
:102C9000056F000E066F000E076F66C100F167C179
:102CA00001F168C102F169C103F141EC22F003BFF7
:102CB000B9EF16F00101000E046FA80E056F550E56
:102CC000066F020E076F66C100F167C101F168C1AE
:102CD00002F169C103F166C18AF167C18BF168C174
:102CE0008CF169C18DF141EC22F003BF09D00101E3
:102CF000000E8A6FA80E8B6F550E8C6F020E8D6FB3
:102D00008AEC21F000C104F101C105F102C106F114
:102D100003C107F1000E006FA00E016F980E026F45
:102D20007B0E036F72EC22F000C118F101C119F1A2
:102D300002C11AF103C11BF1000E006FA00E016F5A
:102D4000980E026F7B0E036F8AC104F18BC105F1EF
:102D50008CC106F18DC107F172EC22F018C104F1AB
:102D600019C105F11AC106F11BC107F141EC22F0AE
:102D700012000101A80E006F610E016F000E026FBC
:102D8000000E036F4FC104F150C105F151C106F1AE
:102D900052C107F141EC22F003AF0AD00101A80EA5
:102DA000006F610E016F000E026F000E036F00D006
:102DB000C80E006FAF0E016F000E026F000E036FA2
:102DC0004FC104F150C105F151C106F152C107F1E3
:102DD00052EC22F012000401730E826F6EEC0BF0C5
:102DE00004012C0E826F6EEC0BF0078462C166F159
:102DF00063C167F164C168F165C169F14BC14FF10D
:102E00004CC150F14DC151F14EC152F157C159F170
:102E100058C15AF1079411EC17F078EC0BF083EFDE
:102E20001CF066C100F167C101F168C102F169C11E
:102E300003F10101DFEC22F0A2EC20F00401630EAB
:102E4000826F6EEC0BF004012C0E826F6EEC0BF0B7
:102E50004FC100F150C101F151C102F152C103F162
:102E60000101DFEC22F0A2EC20F00401660E826F7B
:102E70006EEC0BF004012C0E826F6EEC0BF056EC36
:102E800023F059C100F15AC101F10101DFEC22F038
:102E9000A2EC20F00401740E826F6EEC0BF01200B5
:102EA00010820401530E826F6EEC0BF004012C0EA5
:102EB000826F6EEC0BF083C32AF184C32BF185C3C0
:102EC0002CF186C32DF187C32EF188C32FF189C35E
:102ED00030F18AC331F18BC332F18CC333F101017C
:102EE000A4EC23F01BEC23F000C166F101C167F1F3
:102EF00002C168F103C169F18EC32AF18FC32BF1BE
:102F000090C32CF191C32DF192C32EF193C32FF1F5
:102F100094C330F195C331F196C332F197C333F1C5
:102F20000101A4EC23F01BEC23F000C14FF101C11F
:102F300050F102C151F103C152F197EC23F099C352
:102F40002FF19AC330F19BC331F19CC332F19DC381
:102F500033F10101A4EC23F01BEC23F000C159F183
:102F600001C15AF111EC17F004012C0E826F6EECC6
:102F70000BF0CBEF17F0118E1CA002D01CAE108C02
:102F80001BBE02D01BA4108E03018251520A02E123
:102F90000F8201D00F928251750A02E1108401D094
:102FA00010948251550A02E1108601D01096835187
:102FB000310A03E11382138402D0139213940301A4
:102FC0008351660A01E056D00401660E826F6EECF2
:102FD0000BF004012C0E826F6EEC0BF000EC16F07F
:102FE000DFEC22F02AC182F40401300E82276EEC5D
:102FF0000BF02BC182F40401300E82276EEC0BF033
:103000002CC182F40401300E82276EEC0BF02DC12E
:1030100082F40401300E82276EEC0BF02EC182F494
:103020000401300E82276EEC0BF02FC182F40401F4
:10303000300E82276EEC0BF030C182F40401300EAA
:1030400082276EEC0BF031C182F40401300E82272E
:103050006EEC0BF032C182F40401300E82276EEC6C
:103060000BF033C182F40401300E82276EEC0BF0BA
:1030700081EF1CF011A003D011A401D010840784AB
:1030800010B2A4EF18F010A488EF18F0BAC166F1DE
:10309000BBC167F1BCC168F1BDC169F1BEC16AF1D4
:1030A000BFC16BF1C0C16CF1C1C16DF1C2C16EF1A4
:1030B000C3C16FF1C4C170F1C5C171F1C6C172F174
:1030C000C7C173F1C8C174F1C9C175F1CAC176F144
:1030D000CBC177F1CCC178F1CDC179F1CEC17AF114
:1030E000CFC17BF1D0C17CF1D1C17DF1D2C17EF1E4
:1030F000D3C17FF1D4C180F1D5C181F1D6C182F1B4
:10310000D7C183F1D8C184F1D9C185F190EF18F00E
:1031100062C166F163C167F164C168F165C169F1BB
:10312000BAC186F1BBC187F1BCC188F1BDC189F1CB
:103130004BC14FF14CC150F14DC151F14EC152F153
:1031400057C159F158C15AF107940FA0C6EF18F0B2
:1031500001019667B3EF18F09767B3EF18F098671F
:10316000B3EF18F09967B7EF18F0C6EF18F003EC5B
:1031700015F096C104F197C105F198C106F199C106
:1031800007F141EC22F003BF47EF1CF003EC15F010
:103190000101000E046F000E056F010E066F000E98
:1031A000076F72EC22F011A02AD011A228D0DFEC18
:1031B00022F0296701D005D004012D0E826F6EEC3C
:1031C0000BF030C182F40401300E82276EEC0BF05C
:1031D00031C182F40401300E82276EEC0BF032C153
:1031E00082F40401300E82276EEC0BF033C182F4BE
:1031F0000401300E82276EEC0BF078EC0BF012A875
:10320000C5D012981DC01EF01E3A1E42070E1E1693
:1032100000011E50000AD8B492EF19F000011E50B0
:10322000010AD8B41EEF19F000011E50020AD8B4EA
:103230001CEF19F0C4EF19F0C4EF19F056EC23F0AD
:103240002DC001F12EC000F1D89001330033D89089
:10325000013300330101630E046F000E056F000E91
:10326000066F000E076F72EC22F0280E046F000E3E
:10327000056F000E066F000E076F41EC22F000C1D3
:1032800030F056EC23F02BC001F1019F019D2CC0C2
:1032900000F10101A40E046F000E056F000E066F11
:1032A000000E076F72EC22F000C12FF000C104F194
:1032B00001C105F102C106F103C107F1640E006FFF
:1032C000000E016F000E026F000E036F41EC22F042
:1032D000050E046F000E056F000E066F000E076FDF
:1032E00072EC22F000C104F101C105F102C106F146
:1032F00003C107F156EC23F030C000F141EC22F09D
:1033000000C131F031C0E8FF050F305C03E78A846B
:10331000C4EF19F031C0E8FF0A0F305C01E68A946F
:10332000C4EF19F000C124F101C125F102C126F159
:1033300003C127F156EC23F05CEC23F01D501F0B6A
:10334000E8CF00F10101640E046F000E056F000E5E
:10335000066F000E076F52EC22F024C104F125C164
:1033600005F126C106F127C107F141EC22F003BFA8
:1033700002D08A9401D08A8424C100F125C101F1D0
:1033800026C102F127C103F183EF1CF000C124F133
:1033900001C125F102C126F103C127F110AE4DD0C4
:1033A000109E00C108F101C109F102C10AF103C177
:1033B0000BF1DFEC22F030C1E2F131C1E3F132C1B7
:1033C000E4F133C1E5F108C100F109C101F10AC11D
:1033D00002F10BC103F101016C0E046F070E056FC2
:1033E000000E066F000E076F41EC22F003BF04D001
:1033F0000101550EE66F1CD008C100F109C101F1B1
:103400000AC102F10BC103F10101A40E046F060E03
:10341000056F000E066F000E076F41EC22F003BF30
:1034200004D001017F0EE66F03D00101FF0EE66FAD
:103430001F8E11AE47EF1CF0119E24C100F125C173
:1034400001F126C102F127C103F111A005D011A29B
:1034500003D00FB047EF1CF010A436EF1AF00401B0
:10346000750E826F6EEC0BF03BEF1AF00401720EDA
:10347000826F6EEC0BF004012C0E826F6EEC0BF081
:10348000DFEC22F029674AEF1AF00401200E826F68
:103490004DEF1AF004012D0E826F6EEC0BF030C16F
:1034A00082F40401300E82276EEC0BF031C182F4FD
:1034B0000401300E82276EEC0BF004012E0E826F99
:1034C0006EEC0BF032C182F40401300E82276EECF8
:1034D0000BF033C182F40401300E82276EEC0BF046
:1034E00004016D0E826F6EEC0BF004012C0E826FE6
:1034F0006EEC0BF04FC100F150C101F151C102F16E
:1035000052C103F10101DFEC22F0A2EC20F0040132
:10351000480E826F6EEC0BF004017A0E826F6EEC37
:103520000BF004012C0E826F6EEC0BF066C100F103
:1035300067C101F168C102F169C103F10101DFEC6A
:1035400022F0A2EC20F00401630E826F6EEC0BF00F
:1035500004012C0E826F6EEC0BF066C100F167C1A6
:1035600001F168C102F169C103F101010A0E046FA2
:10357000000E056F000E066F000E076F52EC22F072
:10358000000E046F120E056F000E066F000E076F1F
:1035900072EC22F0DFEC22F02AC182F40401300E3A
:1035A00082276EEC0BF02BC182F40401300E8227CF
:1035B0006EEC0BF02CC182F40401300E82276EEC0D
:1035C0000BF02DC182F40401300E82276EEC0BF05B
:1035D0002EC182F40401300E82276EEC0BF02FC155
:1035E00082F40401300E82276EEC0BF030C182F4BD
:1035F0000401300E82276EEC0BF004012E0E826F58
:103600006EEC0BF031C182F40401300E82276EECB7
:103610000BF032C182F40401300E82276EEC0BF005
:1036200033C182F40401300E82276EEC0BF00401EA
:10363000730E826F6EEC0BF004012C0E826F6EEC39
:103640000BF056EC23F059C100F15AC101F1ADEC79
:103650001DF013A27BEF1BF004012C0E826F6EECA9
:103660000BF086C166F187C167F188C168F189C135
:1036700069F103EC15F00101000E046F000E056FF7
:10368000010E066F000E076F72EC22F0DFEC22F0E5
:10369000296750EF1BF00401200E826F53EF1BF0DF
:1036A00004012D0E826F6EEC0BF030C182F4040128
:1036B000300E82276EEC0BF031C182F40401300E23
:1036C00082276EEC0BF004012E0E826F6EEC0BF075
:1036D00032C182F40401300E82276EEC0BF033C14C
:1036E00082F40401300E82276EEC0BF004016D0EA3
:1036F000826F6EEC0BF003018351460A01E04FD05C
:1037000004012C0E826F6EEC0BF000EC16F0DFEC77
:1037100022F02AC182F40401300E82276EEC0BF0F5
:103720002BC182F40401300E82276EEC0BF02CC109
:1037300082F40401300E82276EEC0BF02DC182F46E
:103740000401300E82276EEC0BF02EC182F40401CE
:10375000300E82276EEC0BF02FC182F40401300E84
:1037600082276EEC0BF030C182F40401300E822708
:103770006EEC0BF031C182F40401300E82276EEC46
:103780000BF032C182F40401300E82276EEC0BF094
:1037900033C182F40401300E82276EEC0BF013A4C7
:1037A000F6EF1BF004012C0E826F6EEC0BF013ACE5
:1037B000E4EF1BF00401500E826F6EEC0BF0139CD3
:1037C0001398139AF6EF1BF013AEF1EF1BF0040100
:1037D000460E826F6EEC0BF0139E1398139AF6EF61
:1037E0001BF00401530E826F6EEC0BF037B00DEF3F
:1037F0001CF004012C0E826F6EEC0BF08BB008EF06
:103800001CF00401440E826F6EEC0BF00DEF1CF007
:103810000401530E826F6EEC0BF00FB213EF1CF02D
:103820000FA045EF1CF004012C0E826F6EEC0BF024
:10383000200EF86EF76AF66A04010900F5CF82F4EB
:103840006EEC0BF00900F5CF82F46EEC0BF0090082
:10385000F5CF82F46EEC0BF00900F5CF82F46EEC3C
:103860000BF00900F5CF82F46EEC0BF00900F5CFF8
:1038700082F46EEC0BF00900F5CF82F46EEC0BF0E5
:103880000900F5CF82F46EEC0BF078EC0BF00F90A2
:10389000109E129883EF1CF00401630E826F6EEC91
:1038A0000BF004012C0E826F6EEC0BF089EC1CF017
:1038B00004012C0E826F6EEC0BF0FCEC1CF004018A
:1038C0002C0E826F6EEC0BF078EC1DF004012C0EC8
:1038D000826F6EEC0BF00101F80E006FCD0E016FE0
:1038E000660E026F030E036F9EEC1CF004012C0E9B
:1038F000826F6EEC0BF08EEC1DF078EC0BF083EF2A
:103900001CF078EC0BF00301C26B0790109292EF61
:103910001FF0D8900E0E51EC09F0E8CF00F10F0E19
:1039200051EC09F0E8CF01F1100E51EC09F0E8CFAD
:1039300002F1110E51EC09F0E8CF03F10101000E84
:10394000046F000E056F010E066F000E076F72EC1C
:1039500022F0DFEC22F02AC182F40401300E82272B
:103960006EEC0BF02BC182F40401300E82276EEC5A
:103970000BF02CC182F40401300E82276EEC0BF0A8
:103980002DC182F40401300E82276EEC0BF02EC1A3
:1039900082F40401300E82276EEC0BF02FC182F40A
:1039A0000401300E82276EEC0BF030C182F404016A
:1039B000300E82276EEC0BF031C182F40401300E20
:1039C00082276EEC0BF004012E0E826F6EEC0BF072
:1039D00032C182F40401300E82276EEC0BF033C149
:1039E00082F40401300E82276EEC0BF004016D0EA0
:1039F000826F6EEC0BF01200120E51EC09F0E8CF62
:103A000000F1130E51EC09F0E8CF01F1140E51EC66
:103A100009F0E8CF02F1150E51EC09F0E8CF03F1FF
:103A200001010A0E046F000E056F000E066F000EF6
:103A3000076F52EC22F0000E046F120E056F000E9D
:103A4000066F000E076F72EC22F0DFEC22F02AC145
:103A500082F40401300E82276EEC0BF02BC182F44D
:103A60000401300E82276EEC0BF02CC182F40401AD
:103A7000300E82276EEC0BF02DC182F40401300E63
:103A800082276EEC0BF02EC182F40401300E8227E7
:103A90006EEC0BF02FC182F40401300E82276EEC25
:103AA0000BF030C182F40401300E82276EEC0BF073
:103AB00004012E0E826F6EEC0BF031C182F4040112
:103AC000300E82276EEC0BF032C182F40401300E0E
:103AD00082276EEC0BF033C182F40401300E822792
:103AE0006EEC0BF00401730E826F6EEC0BF01200A3
:103AF0000A0E51EC09F0E8CF00F10B0E51EC09F081
:103B0000E8CF01F10C0E51EC09F0E8CF02F10D0EF7
:103B100051EC09F0E8CF03F1ADEF1DF0060E51ECCA
:103B200009F0E8CF00F1070E51EC09F0E8CF01F100
:103B3000080E51EC09F0E8CF02F1090E51EC09F042
:103B4000E8CF03F1ADEF1DF0010156EC23F007843F
:103B500057C100F158C101F107940101E80E046F4B
:103B6000800E056F000E066F000E076F52EC22F0FC
:103B7000000E046F040E056F000E066F000E076F37
:103B800072EC22F0880E046F130E056F000E066FA4
:103B9000000E076F41EC22F00A0E046F000E056F55
:103BA000000E066F000E076F72EC22F0DFEC22F0C1
:103BB00001012967E1EF1DF00401200E826FE4EF9F
:103BC0001DF004012D0E826F6EEC0BF030C182F4FB
:103BD0000401300E82276EEC0BF031C182F4040137
:103BE000300E82276EEC0BF032C182F40401300EED
:103BF00082276EEC0BF004012E0E826F6EEC0BF040
:103C000033C182F40401300E82276EEC0BF0040104
:103C1000430E826F6EEC0BF0120087C32AF188C34B
:103C20002BF189C32CF18AC32DF18BC32EF18CC3E8
:103C30002FF18DC330F18EC331F190C332F191C3B6
:103C400033F10101296BA4EC23F01BEC23F00101FB
:103C5000000E046F000E056F010E066F000E076F59
:103C600052EC22F00E0E0C6E00C10BF03AEC09F093
:103C70000F0E0C6E01C10BF03AEC09F0100E0C6E39
:103C800002C10BF03AEC09F0110E0C6E03C10BF0FF
:103C90003AEC09F004017A0E826F6EEC0BF004012D
:103CA0002C0E826F6EEC0BF00401350E826F6EEC01
:103CB0000BF004012C0E826F6EEC0BF089EC1CF003
:103CC000D9EF14F087C32AF188C32BF189C32CF1F3
:103CD0008AC32DF18BC32EF18CC32FF18DC330F12C
:103CE0008EC331F190C332F191C333F10101296BDD
:103CF000A4EC23F01BEC23F0880E046F130E056F69
:103D0000000E066F000E076F46EC22F0000E046FE7
:103D1000040E056F000E066F000E076F52EC22F0C6
:103D20000101E80E046F800E056F000E066F000E95
:103D3000076F72EC22F00A0E0C6E00C10BF03AEC29
:103D400009F00B0E0C6E01C10BF03AEC09F00C0EF1
:103D50000C6E02C10BF03AEC09F00D0E0C6E03C1B3
:103D60000BF03AEC09F004017A0E826F6EEC0BF066
:103D700004012C0E826F6EEC0BF00401360E826F84
:103D80006EEC0BF004012C0E826F6EEC0BF078ECF5
:103D90001DF0D9EF14F087C32AF188C32BF189C332
:103DA0002CF18AC32DF18BC32EF18CC32FF18DC35F
:103DB00030F18FC331F190C332F191C333F101017E
:103DC000A4EC23F01BEC23F0000E046F120E056F21
:103DD000000E066F000E076F52EC22F001010A0E72
:103DE000046F000E056F000E066F000E076F72EC79
:103DF00022F0120E0C6E00C10BF03AEC09F0130E1B
:103E00000C6E01C10BF03AEC09F0140E0C6E02C1FD
:103E10000BF03AEC09F0150E0C6E03C10BF03AEC06
:103E200009F004017A0E826F6EEC0BF004012C0E87
:103E3000826F6EEC0BF00401370E826F6EEC0BF0AC
:103E400004012C0E826F6EEC0BF0FCEC1CF0D9EF31
:103E500014F087C32AF188C32BF189C32CF18AC3DC
:103E60002DF18BC32EF18CC32FF18DC330F18EC396
:103E700031F190C332F191C333F10101296BA4EC0C
:103E800023F01BEC23F0880E046F130E056F000E59
:103E9000066F000E076F46EC22F0000E046F040E52
:103EA000056F000E066F000E076F52EC22F0010145
:103EB000E80E046F800E056F000E066F000E076F90
:103EC00072EC22F0060E0C6E00C10BF03AEC09F019
:103ED000070E0C6E01C10BF03AEC09F0080E0C6EE7
:103EE00002C10BF03AEC09F0090E0C6E03C10BF0A5
:103EF0003AEC09F004017A0E826F6EEC0BF00401CB
:103F00002C0E826F6EEC0BF00401380E826F6EEC9B
:103F10000BF004012C0E826F6EEC0BF08EEC1DF09A
:103F2000D9EF14F081B803D036B050EF20F007A8D5
:103F30000AEF20F00101800E006F1A0E016F060ECD
:103F4000026F000E036F4BC104F14CC105F14DC16E
:103F500006F14EC107F141EC22F003BF50EF20F013
:103F60009CEC20F04BC100F14CC101F14DC102F1BC
:103F70004EC103F107824EEC21F018C104F119C1C2
:103F800005F11AC106F11BC107F1F80E006FCD0E45
:103F9000016F660E026F030E036F41EC22F00E0EEE
:103FA0000C6E00C10BF03AEC09F00F0E0C6E01C163
:103FB0000BF03AEC09F0100E0C6E02C10BF03AEC6B
:103FC00009F0110E0C6E03C10BF03AEC09F00784F6
:103FD000010156EC23F057C100F158C101F10794DB
:103FE0000A0E0C6E00C10BF03AEC09F00B0E0C6ED1
:103FF00001C10BF03AEC09F00C0E0C6E02C10BF093
:104000003AEC09F00D0E0C6E03C10BF03AEC09F01E
:1040100050EF20F007AA50EF20F00784010156EC82
:1040200023F057C100F158C101F10794060E0C6E40
:1040300000C10BF03AEC09F0070E0C6E01C10BF059
:104040003AEC09F0080E0C6E02C10BF03AEC09F0E4
:10405000090E0C6E03C10BF03AEC09F0078462C143
:1040600000F163C101F164C102F165C103F107947C
:10407000120E0C6E00C10BF03AEC09F0130E0C6E30
:1040800001C10BF03AEC09F0140E0C6E02C10BF0FA
:104090003AEC09F0150E0C6E03C10BF03AEC09F086
:1040A0000798079A0401805181197F0B0DE09EA8A3
:1040B000FED714EE00F081517F0BE126E750812BF3
:1040C0000F01AD6E52EF20F0C0EF0AF018C100F101
:1040D00019C101F11AC102F11BC103F1000E046FF5
:1040E000000E056F010E066F000E076F72EC22F0D6
:1040F00029A191EF20F02051D8B491EF20F018C100
:1041000000F119C101F11AC102F11BC103F1000E46
:10411000046F000E056F0A0E066F000E076F72EC3B
:1041200022F0120001010451001305510113065140
:1041300002130751031312000101186B196B1A6B5C
:104140001B6B12002AC182F40401300E82276EEC30
:104150000BF02BC182F40401300E82276EEC0BF0C1
:104160002CC182F40401300E82276EEC0BF02DC1BD
:1041700082F40401300E82276EEC0BF02EC182F423
:104180000401300E82276EEC0BF02FC182F4040183
:10419000300E82276EEC0BF030C182F40401300E39
:1041A00082276EEC0BF031C182F40401300E8227BD
:1041B0006EEC0BF032C182F40401300E82276EECFB
:1041C0000BF033C182F40401300E82276EEC0BF049
:1041D00012002FC182F40401300E82276EEC0BF026
:1041E00030C182F40401300E82276EEC0BF031C135
:1041F00082F40401300E82276EEC0BF032C182F49F
:104200000401300E82276EEC0BF033C182F40401FE
:10421000300E82276EEC0BF01200060E216E060E99
:10422000226E060E236E212E13EF21F0222E13EFA5
:1042300021F0232E13EF21F08B84020E216E020E4B
:10424000226E020E236E212E23EF21F0222E23EF69
:1042500021F0232E23EF21F08B941200FF0E226E0B
:1042600022C023F0030E216E8B84212E34EF21F027
:10427000030E216E232E34EF21F08B9422C023F005
:10428000030E216E212E42EF21F0030E216E233EFC
:1042900042EF21F0222E30EF21F0120001010053F5
:1042A00005E1015303E1025301E1002B11EC22F07F
:1042B00056EC23F03951006F3A51016F420E046FF2
:1042C0004B0E056F000E066F000E076F52EC22F0CA
:1042D00000C104F101C105F102C106F103C107F1FA
:1042E00018C100F119C101F11AC102F11BC103F19A
:1042F00007B27FEF21F046EC22F081EF21F041EC94
:1043000022F000C118F101C119F102C11AF103C173
:104310001BF1120056EC23F059C100F15AC101F112
:10432000060E51EC09F0E8CF04F1070E51EC09F04C
:10433000E8CF05F1080E51EC09F0E8CF06F1090EBF
:1043400051EC09F0E8CF07F141EC22F000C124F173
:1043500001C125F102C126F103C127F1290E046F25
:10436000000E056F000E066F000E076F52EC22F074
:10437000EE0E046F430E056F000E066F000E076F02
:1043800046EC22F024C104F125C105F126C106F155
:1043900027C107F152EC22F000C11CF101C11DF14F
:1043A00002C11EF103C11FF1120E51EC09F0E8CF5A
:1043B00004F1130E51EC09F0E8CF05F1140E51ECA5
:1043C00009F0E8CF06F1150E51EC09F0E8CF07F13E
:1043D0000D0E006F000E016F000E026F000E036FD6
:1043E00052EC22F0180E046F000E056F000E066FDF
:1043F000000E076F72EC22F01CC104F11DC105F123
:104400001EC106F11FC107F146EC22F06A0E046FCF
:104410002A0E056F000E066F000E076F41EC22F0AA
:104420001200BF0EFA6E200E3A6F396BD89000372B
:10443000013702370337D8B022EF22F03A2F17EFB7
:1044400022F039073A070353D8B412000331070B9F
:1044500080093F6F03390F0B010F396F80EC5FF05C
:10446000406F390580EC5FF0405D405F396B3F3352
:10447000D8B0392739333FA937EF22F040513927D7
:10448000120001017BEC23F0D8B0120001010351AE
:104490000719346F3EEC23F0D8900751031934AF5D
:1044A000800F12000101346B62EC23F0D8A078EC8D
:1044B00023F0D8B012004DEC23F056EC23F01F0E81
:1044C000366F8EEC23F00B35D8B03EEC23F0D8A03D
:1044D0000335D8B01200362F61EF22F034B165EC0D
:1044E00023F012000101346B04510511061107116C
:1044F0000008D8A062EC23F0D8A078EC23F0D8B064
:104500001200086B096B0A6B0B6B8EEC23F01F0E0D
:10451000366F8EEC23F007510B5DD8A49CEF22F090
:1045200006510A5DD8A49CEF22F00551095DD8A47C
:104530009CEF22F00451085DD8A0AFEF22F00451A7
:10454000085F0551D8A0053D095F0651D8A0063D7A
:104550000A5F0751D8A0073D0B5FD8900081362F26
:1045600089EF22F034B165EC23F0346B62EC23F078
:10457000D89092EC23F007510B5DD8A4CCEF22F039
:1045800006510A5DD8A4CCEF22F00551095DD8A4EC
:10459000CCEF22F00451085DD8A0DBEF22F0003F01
:1045A000DBEF22F0013FDBEF22F0023FDBEF22F0F6
:1045B000032BD8B4120034B165EC23F012000101D2
:1045C000346B62EC23F0D8B0120097EC23F0200E8D
:1045D000366F003701370237033711EE33F00A0E1A
:1045E000376FE7360A0EE75CD8B0E76EE552372F33
:1045F000F1EF22F0362FE9EF22F034B12981D89083
:10460000120097EC23F0200E366F00370137023787
:10461000033711EE33F00A0E376FE7360A0EE75C08
:10462000D8B0E76EE552372F0DEF23F0362F05EFA8
:1046300023F0D890120001010A0E346F200E366F5D
:1046400011EE29F03451376F0A0ED890E652D8B0E7
:10465000E726E732372F26EF23F003330233013307
:104660000033362F20EF23F0E750FF0FD8A003359B
:10467000D8B0120029B165EC23F0120004510027D4
:104680000551D8B0053D01270651D8B0063D022797
:104690000751D8B0073D032712000051086F0151A0
:1046A000096F02510A6F03510B6F12000101006B79
:1046B000016B026B036B12000101046B056B066B4F
:1046C000076B12000335D8A012000351800B001FA6
:1046D000011F021F031F003F75EF23F0013F75EF1D
:1046E00023F0023F75EF23F0032B342B0325120038
:1046F0000735D8A012000751800B041F051F061FA5
:10470000071F043F8BEF23F0053F8BEF23F0063F9D
:104710008BEF23F0072B342B0725120000370137CE
:1047200002370337083709370A370B371200010100
:10473000296B2A6B2B6B2C6B2D6B2E6B2F6B306BBD
:10474000316B326B336B120001012A510F0B2A6F50
:104750002B510F0B2B6F2C510F0B2C6F2D510F0B5F
:104760002D6F2E510F0B2E6F2F510F0B2F6F3051BE
:104770000F0B306F31510F0B316F32510F0B326F06
:1047800033510F0B336F120000C124F101C125F129
:1047900002C126F103C127F104C100F105C101F1F5
:1047A00006C102F107C103F124C104F125C105F1DD
:1047B00026C106F127C107F1120000011950FF0AB6
:1047C00001E11200390EC86E800EC76E280EC66E4B
:1047D000000EC56E1850000AD8B418EF24F0185017
:1047E000010AD8B431EF24F01850020AD8B44AEFC5
:1047F00024F01850030AD8B463EF24F01850040AC8
:10480000D8B48BEF24F01850050AD8B4A4EF24F0E4
:104810001850060AD8B4BDEF24F01850070AD8B4CF
:10482000D6EF24F01850080AD8B4EFEF24F01200A5
:104830001950000AD8B40EEF25F01950010AD8B467
:1048400012EF25F01950020AD8B416EF25F01950CE
:10485000030AD8B41AEF25F01950040AD8B48DEF22
:1048600025F01950000AD8B422EF25F01950010A9A
:10487000D8B426EF25F01950020AD8B42AEF25F053
:104880001950030AD8B42EEF25F01950040AD8B4F1
:104890008DEF25F01950000AD8B432EF25F01950E9
:1048A000010AD8B436EF25F01950020AD8B43AEF0D
:1048B00025F01950030AD8B43EEF25F01950040A28
:1048C000D8B48DEF25F01950000AD8B44BEF25F07D
:1048D0001950010AD8B44FEF25F01950020AD8B484
:1048E00053EF25F01950030AD8B467EF25F019509B
:1048F000040AD8B46BEF25F01950050AD8B46FEF4D
:1049000025F01950060AD8B473EF25F01950070A9C
:10491000D8B476EF25F01950000AD8B47AEF25F014
:104920001950010AD8B47EEF25F01950020AD8B404
:1049300082EF25F01950030AD8B486EF25F01950FC
:10494000040AD8B489EF25F01950000AD8B491EFC1
:1049500025F01950010AD8B495EF25F01950020A34
:10496000D8B499EF25F01950030AD8B49DEF25F07B
:104970001950040AD8B48DEF25F01950000AD8B4A4
:10498000A7EF25F01950010AD8B4ABEF25F0195064
:10499000020AD8B4AFEF25F01950030AD8B4B3EF28
:1049A00025F01950040AD8B48DEF25F01950000AEB
:1049B000D8B4B4EF25F01950010AD8B4B8EF25F0F7
:1049C0001950020AD8B4BCEF25F01950030AD8B424
:1049D000C0EF25F01950040AD8B48DEF25F0195016
:1049E000000AD8B4C1EF25F01950010AD8B4C5EFB8
:1049F00025F01950020AD8B4C9EF25F01950030A5E
:104A0000D8B4CDEF25F01950040AD8B4CEEF25F074
:104A10001950050AD8B4D1EF25F012009E96C58032
:104A2000192A1200E20EC96E192A1200770EC96EF9
:104A3000192A1200020EE86E8AB4E88AE8CFC9FF8C
:104A4000192A12009E96C580192A1200E20EC96E1C
:104A5000192A1200790EC96E192A1200000EC96EA9
:104A6000192A12009E96C580192A1200E20EC96EFC
:104A7000192A12007A0EC96E192A12001BBC03D023
:104A8000E6C1E8FF04D01B50E844E8441F09E8CF22
:104A9000C9FF192A12009E96C580192A1200E20E3B
:104AA000C96E192A120011BA03D011BC01D003D06B
:104AB000050E186E3ED00101E26763EF25F0100E7F
:104AC000C96E65EF25F0E2C1C9FF192A1200E3C1E2
:104AD000C9FF192A1200E4C1C9FF192A1200E5C151
:104AE000C9FF192A1200C584192A1200FF0E196E77
:104AF000209E12009E96C580192A1200E20EC96EF1
:104B0000192A1200760EC96E192A1200C584192AB4
:104B10001200FF0E196E209E1200C584182A196A11
:104B200012009E96C580192A1200E20EC96E192A3B
:104B300012007B0EC96E192A120011AA04D0230E8E
:104B4000C96E192A12001C0EC96E192A12009E96EF
:104B5000C580192A1200E20EC96E192A12007C0EB5
:104B6000C96E192A1200E9D79E96C580192A12002B
:104B7000E20EC96E192A12007D0EC96E192A1200A2
:104B8000DCD79E96C580192A1200E20EC96E192A3A
:104B900012007E0EC96E192A1200CFD7C584192AB9
:104BA0001200FF0E196E209E12001950FF0AD8B491
:104BB00093EF26F0390EC86E800EC76E280EC66EB3
:104BC000000EC56E1850000AD8B4EEEF25F018504C
:104BD000010AD8B402EF26F093EF26F01950000A2C
:104BE000D8B440EF26F01950010AD8B444EF26F0AB
:104BF0001950020AD8B44EEF26F01950030AD8B45F
:104C000051EF26F01950000AD8B457EF26F019508A
:104C1000010AD8B45BEF26F01950020AD8B465EF48
:104C200026F01950030AD8B468EF26F01950040A88
:104C3000D8B46EEF26F01950050AD8B471EF26F0FB
:104C40001950060AD8B477EF26F01950070AD8B4DD
:104C50007AEF26F01950080AD8B480EF26F01950E0
:104C6000090AD8B483EF26F019500A0AD8B489EF9C
:104C700026F019500B0AD8B48CEF26F093EF26F0EB
:104C80009E96C58092EF26F01AB004D04E0EC96EE3
:104C900092EF26F0500EC96E92EF26F0C58492EF87
:104CA00026F0182AFF0E196E128093EF26F09E96BA
:104CB000C58092EF26F01AB004D04F0EC96E92EF65
:104CC00026F0510EC96E92EF26F0C58692EF26F0BF
:104CD000C9CF27F0C59AC58892EF26F0C58692EF16
:104CE00026F0C9CF28F0C59AC58892EF26F0C58670
:104CF00092EF26F0C9CF29F0C59AC58892EF26F029
:104D0000C58692EF26F0C9CF2AF0C58AC58892EFF2
:104D100026F0C58492EF26F0FF0E196E1286209CB5
:104D200093EF26F0192A120012B012D012B213D04B
:104D300012B414D012A6120007B01200129627C0A7
:104D40002BF028C02CF029C02DF02AC02EF0120024
:104D50001290128212001292128412000001195055
:104D6000FF0A04E11294196AD5EC25F012001950DB
:104D7000FF0AD8B493EF26F07CEC27F01850000A15
:104D8000D8B4CAEF26F01850010AD8B408EF27F0BB
:104D900093EF26F01950000AD8B43CEF27F01950D1
:104DA000010AD8B441EF27F01950020AD8B445EFF0
:104DB00027F01950030AD8B449EF27F01950040A14
:104DC000D8B451EF27F01950050AD8B454EF27F0A2
:104DD0001950060AD8B45BEF27F01950070AD8B467
:104DE0005EEF27F01950080AD8B465EF27F0195084
:104DF000090AD8B468EF27F019500A0AD8B46FEF3F
:104E000027F019500B0AD8B472EF27F093EF26F071
:104E10001950000AD8B478EF27F01950010AD8B415
:104E200078EF27F01950020AD8B478EF27F019501C
:104E3000030AD8B478EF27F01950040AD8B478EFF1
:104E400027F01950050AD8B478EF27F01950060A50
:104E5000D8B478EF27F01950070AD8B478EF27F0C4
:104E60001950080AD8B478EF27F01950090AD8B4B5
:104E700078EF27F093EF26F09E96C596C5807AEFDF
:104E800027F0520EC96E7AEF27F0B40EC96E7AEF92
:104E900027F0C9CF32F0326AC586C59AC5887AEF45
:104EA00027F0C5867AEF27F0C9CF33F0336AC59A69
:104EB000C5887AEF27F0C5867AEF27F0C9CF34F09E
:104EC000346AC59AC5887AEF27F0C5867AEF27F04D
:104ED000C9CF35F0356AC58AC5887AEF27F0C58411
:104EE0007AEF27F0FF0E196E1286209C7BEF27F0D9
:104EF0007BEF27F0192A1200390EC86E800EC76E9C
:0A4F0000280EC66E000EC56E1200EA
:10BF0000E844F926000C160C2B0C3F0C520C640C68
:10BF1000760C860C960CA50CB30CC10CCF0CDC0C6B
:06BF2000E80CF40C000C1B
:00000001FF
